{
	"contracts/LabCycle/Assignment2/Armstrong.sol": {
		"Armstrong": {
			"abi": [
				{
					"inputs": [
						{
							"internalType": "int16",
							"name": "n",
							"type": "int16"
						}
					],
					"name": "armstrong",
					"outputs": [
						{
							"internalType": "string",
							"name": "",
							"type": "string"
						}
					],
					"stateMutability": "pure",
					"type": "function"
				}
			],
			"devdoc": {
				"kind": "dev",
				"methods": {},
				"version": 1
			},
			"evm": {
				"assembly": "    /* \"contracts/LabCycle/Assignment2/Armstrong.sol\":66:776  contract Armstrong{... */\n  mstore(0x40, 0x80)\n  callvalue\n  dup1\n  iszero\n  tag_1\n  jumpi\n  revert(0x00, 0x00)\ntag_1:\n  pop\n  dataSize(sub_0)\n  dup1\n  dataOffset(sub_0)\n  0x00\n  codecopy\n  0x00\n  return\nstop\n\nsub_0: assembly {\n        /* \"contracts/LabCycle/Assignment2/Armstrong.sol\":66:776  contract Armstrong{... */\n      mstore(0x40, 0x80)\n      callvalue\n      dup1\n      iszero\n      tag_1\n      jumpi\n      revert(0x00, 0x00)\n    tag_1:\n      pop\n      jumpi(tag_2, lt(calldatasize, 0x04))\n      shr(0xe0, calldataload(0x00))\n      dup1\n      0x5d6cb6e5\n      eq\n      tag_3\n      jumpi\n    tag_2:\n      revert(0x00, 0x00)\n        /* \"contracts/LabCycle/Assignment2/Armstrong.sol\":93:771  function armstrong(int16 n)public pure returns(string memory){... */\n    tag_3:\n      tag_4\n      0x04\n      dup1\n      calldatasize\n      sub\n      dup2\n      add\n      swap1\n      tag_5\n      swap2\n      swap1\n      tag_6\n      jump\t// in\n    tag_5:\n      tag_7\n      jump\t// in\n    tag_4:\n      mload(0x40)\n      tag_8\n      swap2\n      swap1\n      tag_9\n      jump\t// in\n    tag_8:\n      mload(0x40)\n      dup1\n      swap2\n      sub\n      swap1\n      return\n    tag_7:\n        /* \"contracts/LabCycle/Assignment2/Armstrong.sol\":140:153  string memory */\n      0x60\n        /* \"contracts/LabCycle/Assignment2/Armstrong.sol\":175:185  int16 temp */\n      0x00\n        /* \"contracts/LabCycle/Assignment2/Armstrong.sol\":188:189  n */\n      dup3\n        /* \"contracts/LabCycle/Assignment2/Armstrong.sol\":175:189  int16 temp = n */\n      swap1\n      pop\n        /* \"contracts/LabCycle/Assignment2/Armstrong.sol\":200:209  int16 sum */\n      0x00\n        /* \"contracts/LabCycle/Assignment2/Armstrong.sol\":212:213  0 */\n      0x00\n        /* \"contracts/LabCycle/Assignment2/Armstrong.sol\":200:213  int16 sum = 0 */\n      swap1\n      pop\n        /* \"contracts/LabCycle/Assignment2/Armstrong.sol\":224:231  int16 r */\n      0x00\n        /* \"contracts/LabCycle/Assignment2/Armstrong.sol\":234:235  0 */\n      0x00\n        /* \"contracts/LabCycle/Assignment2/Armstrong.sol\":224:235  int16 r = 0 */\n      swap1\n      pop\n        /* \"contracts/LabCycle/Assignment2/Armstrong.sol\":246:257  int16 temp1 */\n      0x00\n        /* \"contracts/LabCycle/Assignment2/Armstrong.sol\":260:261  n */\n      dup6\n        /* \"contracts/LabCycle/Assignment2/Armstrong.sol\":246:261  int16 temp1 = n */\n      swap1\n      pop\n        /* \"contracts/LabCycle/Assignment2/Armstrong.sol\":272:282  int8 count */\n      0x00\n        /* \"contracts/LabCycle/Assignment2/Armstrong.sol\":283:284  0 */\n      0x00\n        /* \"contracts/LabCycle/Assignment2/Armstrong.sol\":272:284  int8 count=0 */\n      swap1\n      pop\n        /* \"contracts/LabCycle/Assignment2/Armstrong.sol\":295:366  while(temp!=0){... */\n    tag_11:\n        /* \"contracts/LabCycle/Assignment2/Armstrong.sol\":307:308  0 */\n      0x00\n        /* \"contracts/LabCycle/Assignment2/Armstrong.sol\":301:305  temp */\n      dup6\n        /* \"contracts/LabCycle/Assignment2/Armstrong.sol\":301:308  temp!=0 */\n      0x01\n      signextend\n      eq\n        /* \"contracts/LabCycle/Assignment2/Armstrong.sol\":295:366  while(temp!=0){... */\n      tag_12\n      jumpi\n        /* \"contracts/LabCycle/Assignment2/Armstrong.sol\":330:332  10 */\n      0x0a\n        /* \"contracts/LabCycle/Assignment2/Armstrong.sol\":324:332  temp/=10 */\n      dup6\n      tag_13\n      swap2\n      swap1\n      tag_14\n      jump\t// in\n    tag_13:\n      swap5\n      pop\n        /* \"contracts/LabCycle/Assignment2/Armstrong.sol\":347:354  count++ */\n      dup1\n      dup1\n      tag_15\n      swap1\n      tag_16\n      jump\t// in\n    tag_15:\n      swap2\n      pop\n      pop\n        /* \"contracts/LabCycle/Assignment2/Armstrong.sol\":295:366  while(temp!=0){... */\n      jump(tag_11)\n    tag_12:\n        /* \"contracts/LabCycle/Assignment2/Armstrong.sol\":378:611  while(temp1!=0){... */\n    tag_17:\n        /* \"contracts/LabCycle/Assignment2/Armstrong.sol\":391:392  0 */\n      0x00\n        /* \"contracts/LabCycle/Assignment2/Armstrong.sol\":384:389  temp1 */\n      dup3\n        /* \"contracts/LabCycle/Assignment2/Armstrong.sol\":384:392  temp1!=0 */\n      0x01\n      signextend\n      eq\n        /* \"contracts/LabCycle/Assignment2/Armstrong.sol\":378:611  while(temp1!=0){... */\n      tag_18\n      jumpi\n        /* \"contracts/LabCycle/Assignment2/Armstrong.sol\":418:420  10 */\n      0x0a\n        /* \"contracts/LabCycle/Assignment2/Armstrong.sol\":412:417  temp1 */\n      dup3\n        /* \"contracts/LabCycle/Assignment2/Armstrong.sol\":412:420  temp1%10 */\n      tag_19\n      swap2\n      swap1\n      tag_20\n      jump\t// in\n    tag_19:\n        /* \"contracts/LabCycle/Assignment2/Armstrong.sol\":408:420  r = temp1%10 */\n      swap3\n      pop\n        /* \"contracts/LabCycle/Assignment2/Armstrong.sol\":435:446  int16 power */\n      0x00\n        /* \"contracts/LabCycle/Assignment2/Armstrong.sol\":449:450  1 */\n      0x01\n        /* \"contracts/LabCycle/Assignment2/Armstrong.sol\":435:450  int16 power = 1 */\n      swap1\n      pop\n        /* \"contracts/LabCycle/Assignment2/Armstrong.sol\":472:478  int8 i */\n      0x00\n        /* \"contracts/LabCycle/Assignment2/Armstrong.sol\":481:482  0 */\n      0x00\n        /* \"contracts/LabCycle/Assignment2/Armstrong.sol\":472:482  int8 i = 0 */\n      swap1\n      pop\n        /* \"contracts/LabCycle/Assignment2/Armstrong.sol\":467:545  for (int8 i = 0; i < count; i++) {... */\n    tag_21:\n        /* \"contracts/LabCycle/Assignment2/Armstrong.sol\":488:493  count */\n      dup3\n        /* \"contracts/LabCycle/Assignment2/Armstrong.sol\":484:493  i < count */\n      0x00\n      signextend\n        /* \"contracts/LabCycle/Assignment2/Armstrong.sol\":484:485  i */\n      dup2\n        /* \"contracts/LabCycle/Assignment2/Armstrong.sol\":484:493  i < count */\n      0x00\n      signextend\n      slt\n        /* \"contracts/LabCycle/Assignment2/Armstrong.sol\":467:545  for (int8 i = 0; i < count; i++) {... */\n      iszero\n      tag_22\n      jumpi\n        /* \"contracts/LabCycle/Assignment2/Armstrong.sol\":528:529  r */\n      dup5\n        /* \"contracts/LabCycle/Assignment2/Armstrong.sol\":519:529  power *= r */\n      dup3\n      tag_24\n      swap2\n      swap1\n      tag_25\n      jump\t// in\n    tag_24:\n      swap2\n      pop\n        /* \"contracts/LabCycle/Assignment2/Armstrong.sol\":495:498  i++ */\n      dup1\n      dup1\n      0x01\n      add\n      swap2\n      pop\n      pop\n        /* \"contracts/LabCycle/Assignment2/Armstrong.sol\":467:545  for (int8 i = 0; i < count; i++) {... */\n      jump(tag_21)\n    tag_22:\n      pop\n        /* \"contracts/LabCycle/Assignment2/Armstrong.sol\":568:573  power */\n      dup1\n        /* \"contracts/LabCycle/Assignment2/Armstrong.sol\":561:573  sum += power */\n      dup6\n      tag_26\n      swap2\n      swap1\n      tag_27\n      jump\t// in\n    tag_26:\n      swap5\n      pop\n        /* \"contracts/LabCycle/Assignment2/Armstrong.sol\":597:599  10 */\n      0x0a\n        /* \"contracts/LabCycle/Assignment2/Armstrong.sol\":588:599  temp1 /= 10 */\n      dup4\n      tag_28\n      swap2\n      swap1\n      tag_14\n      jump\t// in\n    tag_28:\n      swap3\n      pop\n        /* \"contracts/LabCycle/Assignment2/Armstrong.sol\":393:611  {... */\n      pop\n        /* \"contracts/LabCycle/Assignment2/Armstrong.sol\":378:611  while(temp1!=0){... */\n      jump(tag_17)\n    tag_18:\n        /* \"contracts/LabCycle/Assignment2/Armstrong.sol\":641:642  n */\n      dup7\n        /* \"contracts/LabCycle/Assignment2/Armstrong.sol\":636:642  sum==n */\n      0x01\n      signextend\n        /* \"contracts/LabCycle/Assignment2/Armstrong.sol\":636:639  sum */\n      dup5\n        /* \"contracts/LabCycle/Assignment2/Armstrong.sol\":636:642  sum==n */\n      0x01\n      signextend\n      sub\n        /* \"contracts/LabCycle/Assignment2/Armstrong.sol\":633:764  if(sum==n){... */\n      tag_29\n      jumpi\n        /* \"contracts/LabCycle/Assignment2/Armstrong.sol\":658:686  return \"Armstrong number!!!\" */\n      mload(0x40)\n      dup1\n      0x40\n      add\n      0x40\n      mstore\n      dup1\n      0x13\n      dup2\n      mstore\n      0x20\n      add\n      0x41726d7374726f6e67206e756d62657221212100000000000000000000000000\n      dup2\n      mstore\n      pop\n      swap6\n      pop\n      pop\n      pop\n      pop\n      pop\n      pop\n      jump(tag_10)\n        /* \"contracts/LabCycle/Assignment2/Armstrong.sol\":633:764  if(sum==n){... */\n    tag_29:\n        /* \"contracts/LabCycle/Assignment2/Armstrong.sol\":717:752  return \"Not an Armstrong number...\" */\n      mload(0x40)\n      dup1\n      0x40\n      add\n      0x40\n      mstore\n      dup1\n      0x1a\n      dup2\n      mstore\n      0x20\n      add\n      0x4e6f7420616e2041726d7374726f6e67206e756d6265722e2e2e000000000000\n      dup2\n      mstore\n      pop\n      swap6\n      pop\n      pop\n      pop\n      pop\n      pop\n      pop\n        /* \"contracts/LabCycle/Assignment2/Armstrong.sol\":93:771  function armstrong(int16 n)public pure returns(string memory){... */\n    tag_10:\n      swap2\n      swap1\n      pop\n      jump\t// out\n        /* \"#utility.yul\":88:205   */\n    tag_32:\n        /* \"#utility.yul\":197:198   */\n      0x00\n        /* \"#utility.yul\":194:195   */\n      0x00\n        /* \"#utility.yul\":187:199   */\n      revert\n        /* \"#utility.yul\":334:424   */\n    tag_34:\n        /* \"#utility.yul\":369:376   */\n      0x00\n        /* \"#utility.yul\":412:417   */\n      dup2\n        /* \"#utility.yul\":409:410   */\n      0x01\n        /* \"#utility.yul\":398:418   */\n      signextend\n        /* \"#utility.yul\":387:418   */\n      swap1\n      pop\n        /* \"#utility.yul\":334:424   */\n      swap2\n      swap1\n      pop\n      jump\t// out\n        /* \"#utility.yul\":430:548   */\n    tag_35:\n        /* \"#utility.yul\":501:523   */\n      tag_51\n        /* \"#utility.yul\":517:522   */\n      dup2\n        /* \"#utility.yul\":501:523   */\n      tag_34\n      jump\t// in\n    tag_51:\n        /* \"#utility.yul\":494:499   */\n      dup2\n        /* \"#utility.yul\":491:524   */\n      eq\n        /* \"#utility.yul\":481:542   */\n      tag_52\n      jumpi\n        /* \"#utility.yul\":538:539   */\n      0x00\n        /* \"#utility.yul\":535:536   */\n      0x00\n        /* \"#utility.yul\":528:540   */\n      revert\n        /* \"#utility.yul\":481:542   */\n    tag_52:\n        /* \"#utility.yul\":430:548   */\n      pop\n      jump\t// out\n        /* \"#utility.yul\":554:689   */\n    tag_36:\n        /* \"#utility.yul\":598:603   */\n      0x00\n        /* \"#utility.yul\":636:642   */\n      dup2\n        /* \"#utility.yul\":623:643   */\n      calldataload\n        /* \"#utility.yul\":614:643   */\n      swap1\n      pop\n        /* \"#utility.yul\":652:683   */\n      tag_54\n        /* \"#utility.yul\":677:682   */\n      dup2\n        /* \"#utility.yul\":652:683   */\n      tag_35\n      jump\t// in\n    tag_54:\n        /* \"#utility.yul\":554:689   */\n      swap3\n      swap2\n      pop\n      pop\n      jump\t// out\n        /* \"#utility.yul\":695:1020   */\n    tag_6:\n        /* \"#utility.yul\":752:758   */\n      0x00\n        /* \"#utility.yul\":801:803   */\n      0x20\n        /* \"#utility.yul\":789:798   */\n      dup3\n        /* \"#utility.yul\":780:787   */\n      dup5\n        /* \"#utility.yul\":776:799   */\n      sub\n        /* \"#utility.yul\":772:804   */\n      slt\n        /* \"#utility.yul\":769:888   */\n      iszero\n      tag_56\n      jumpi\n        /* \"#utility.yul\":807:886   */\n      tag_57\n      tag_32\n      jump\t// in\n    tag_57:\n        /* \"#utility.yul\":769:888   */\n    tag_56:\n        /* \"#utility.yul\":927:928   */\n      0x00\n        /* \"#utility.yul\":952:1003   */\n      tag_58\n        /* \"#utility.yul\":995:1002   */\n      dup5\n        /* \"#utility.yul\":986:992   */\n      dup3\n        /* \"#utility.yul\":975:984   */\n      dup6\n        /* \"#utility.yul\":971:993   */\n      add\n        /* \"#utility.yul\":952:1003   */\n      tag_36\n      jump\t// in\n    tag_58:\n        /* \"#utility.yul\":942:1003   */\n      swap2\n      pop\n        /* \"#utility.yul\":898:1013   */\n      pop\n        /* \"#utility.yul\":695:1020   */\n      swap3\n      swap2\n      pop\n      pop\n      jump\t// out\n        /* \"#utility.yul\":1026:1125   */\n    tag_37:\n        /* \"#utility.yul\":1078:1084   */\n      0x00\n        /* \"#utility.yul\":1112:1117   */\n      dup2\n        /* \"#utility.yul\":1106:1118   */\n      mload\n        /* \"#utility.yul\":1096:1118   */\n      swap1\n      pop\n        /* \"#utility.yul\":1026:1125   */\n      swap2\n      swap1\n      pop\n      jump\t// out\n        /* \"#utility.yul\":1131:1300   */\n    tag_38:\n        /* \"#utility.yul\":1215:1226   */\n      0x00\n        /* \"#utility.yul\":1249:1255   */\n      dup3\n        /* \"#utility.yul\":1244:1247   */\n      dup3\n        /* \"#utility.yul\":1237:1256   */\n      mstore\n        /* \"#utility.yul\":1289:1293   */\n      0x20\n        /* \"#utility.yul\":1284:1287   */\n      dup3\n        /* \"#utility.yul\":1280:1294   */\n      add\n        /* \"#utility.yul\":1265:1294   */\n      swap1\n      pop\n        /* \"#utility.yul\":1131:1300   */\n      swap3\n      swap2\n      pop\n      pop\n      jump\t// out\n        /* \"#utility.yul\":1306:1445   */\n    tag_39:\n        /* \"#utility.yul\":1395:1401   */\n      dup3\n        /* \"#utility.yul\":1390:1393   */\n      dup2\n        /* \"#utility.yul\":1385:1388   */\n      dup4\n        /* \"#utility.yul\":1379:1402   */\n      mcopy\n        /* \"#utility.yul\":1436:1437   */\n      0x00\n        /* \"#utility.yul\":1427:1433   */\n      dup4\n        /* \"#utility.yul\":1422:1425   */\n      dup4\n        /* \"#utility.yul\":1418:1434   */\n      add\n        /* \"#utility.yul\":1411:1438   */\n      mstore\n        /* \"#utility.yul\":1306:1445   */\n      pop\n      pop\n      pop\n      jump\t// out\n        /* \"#utility.yul\":1451:1553   */\n    tag_40:\n        /* \"#utility.yul\":1492:1498   */\n      0x00\n        /* \"#utility.yul\":1543:1545   */\n      0x1f\n        /* \"#utility.yul\":1539:1546   */\n      not\n        /* \"#utility.yul\":1534:1536   */\n      0x1f\n        /* \"#utility.yul\":1527:1532   */\n      dup4\n        /* \"#utility.yul\":1523:1537   */\n      add\n        /* \"#utility.yul\":1519:1547   */\n      and\n        /* \"#utility.yul\":1509:1547   */\n      swap1\n      pop\n        /* \"#utility.yul\":1451:1553   */\n      swap2\n      swap1\n      pop\n      jump\t// out\n        /* \"#utility.yul\":1559:1936   */\n    tag_41:\n        /* \"#utility.yul\":1647:1650   */\n      0x00\n        /* \"#utility.yul\":1675:1714   */\n      tag_64\n        /* \"#utility.yul\":1708:1713   */\n      dup3\n        /* \"#utility.yul\":1675:1714   */\n      tag_37\n      jump\t// in\n    tag_64:\n        /* \"#utility.yul\":1730:1801   */\n      tag_65\n        /* \"#utility.yul\":1794:1800   */\n      dup2\n        /* \"#utility.yul\":1789:1792   */\n      dup6\n        /* \"#utility.yul\":1730:1801   */\n      tag_38\n      jump\t// in\n    tag_65:\n        /* \"#utility.yul\":1723:1801   */\n      swap4\n      pop\n        /* \"#utility.yul\":1810:1875   */\n      tag_66\n        /* \"#utility.yul\":1868:1874   */\n      dup2\n        /* \"#utility.yul\":1863:1866   */\n      dup6\n        /* \"#utility.yul\":1856:1860   */\n      0x20\n        /* \"#utility.yul\":1849:1854   */\n      dup7\n        /* \"#utility.yul\":1845:1861   */\n      add\n        /* \"#utility.yul\":1810:1875   */\n      tag_39\n      jump\t// in\n    tag_66:\n        /* \"#utility.yul\":1900:1929   */\n      tag_67\n        /* \"#utility.yul\":1922:1928   */\n      dup2\n        /* \"#utility.yul\":1900:1929   */\n      tag_40\n      jump\t// in\n    tag_67:\n        /* \"#utility.yul\":1895:1898   */\n      dup5\n        /* \"#utility.yul\":1891:1930   */\n      add\n        /* \"#utility.yul\":1884:1930   */\n      swap2\n      pop\n        /* \"#utility.yul\":1651:1936   */\n      pop\n        /* \"#utility.yul\":1559:1936   */\n      swap3\n      swap2\n      pop\n      pop\n      jump\t// out\n        /* \"#utility.yul\":1942:2255   */\n    tag_9:\n        /* \"#utility.yul\":2055:2059   */\n      0x00\n        /* \"#utility.yul\":2093:2095   */\n      0x20\n        /* \"#utility.yul\":2082:2091   */\n      dup3\n        /* \"#utility.yul\":2078:2096   */\n      add\n        /* \"#utility.yul\":2070:2096   */\n      swap1\n      pop\n        /* \"#utility.yul\":2142:2151   */\n      dup2\n        /* \"#utility.yul\":2136:2140   */\n      dup2\n        /* \"#utility.yul\":2132:2152   */\n      sub\n        /* \"#utility.yul\":2128:2129   */\n      0x00\n        /* \"#utility.yul\":2117:2126   */\n      dup4\n        /* \"#utility.yul\":2113:2130   */\n      add\n        /* \"#utility.yul\":2106:2153   */\n      mstore\n        /* \"#utility.yul\":2170:2248   */\n      tag_69\n        /* \"#utility.yul\":2243:2247   */\n      dup2\n        /* \"#utility.yul\":2234:2240   */\n      dup5\n        /* \"#utility.yul\":2170:2248   */\n      tag_41\n      jump\t// in\n    tag_69:\n        /* \"#utility.yul\":2162:2248   */\n      swap1\n      pop\n        /* \"#utility.yul\":1942:2255   */\n      swap3\n      swap2\n      pop\n      pop\n      jump\t// out\n        /* \"#utility.yul\":2261:2441   */\n    tag_42:\n        /* \"#utility.yul\":2309:2386   */\n      0x4e487b7100000000000000000000000000000000000000000000000000000000\n        /* \"#utility.yul\":2306:2307   */\n      0x00\n        /* \"#utility.yul\":2299:2387   */\n      mstore\n        /* \"#utility.yul\":2406:2410   */\n      0x12\n        /* \"#utility.yul\":2403:2404   */\n      0x04\n        /* \"#utility.yul\":2396:2411   */\n      mstore\n        /* \"#utility.yul\":2430:2434   */\n      0x24\n        /* \"#utility.yul\":2427:2428   */\n      0x00\n        /* \"#utility.yul\":2420:2435   */\n      revert\n        /* \"#utility.yul\":2447:2627   */\n    tag_43:\n        /* \"#utility.yul\":2495:2572   */\n      0x4e487b7100000000000000000000000000000000000000000000000000000000\n        /* \"#utility.yul\":2492:2493   */\n      0x00\n        /* \"#utility.yul\":2485:2573   */\n      mstore\n        /* \"#utility.yul\":2592:2596   */\n      0x11\n        /* \"#utility.yul\":2589:2590   */\n      0x04\n        /* \"#utility.yul\":2582:2597   */\n      mstore\n        /* \"#utility.yul\":2616:2620   */\n      0x24\n        /* \"#utility.yul\":2613:2614   */\n      0x00\n        /* \"#utility.yul\":2606:2621   */\n      revert\n        /* \"#utility.yul\":2633:3015   */\n    tag_14:\n        /* \"#utility.yul\":2671:2672   */\n      0x00\n        /* \"#utility.yul\":2688:2706   */\n      tag_73\n        /* \"#utility.yul\":2704:2705   */\n      dup3\n        /* \"#utility.yul\":2688:2706   */\n      tag_34\n      jump\t// in\n    tag_73:\n        /* \"#utility.yul\":2683:2706   */\n      swap2\n      pop\n        /* \"#utility.yul\":2720:2738   */\n      tag_74\n        /* \"#utility.yul\":2736:2737   */\n      dup4\n        /* \"#utility.yul\":2720:2738   */\n      tag_34\n      jump\t// in\n    tag_74:\n        /* \"#utility.yul\":2715:2738   */\n      swap3\n      pop\n        /* \"#utility.yul\":2757:2758   */\n      dup3\n        /* \"#utility.yul\":2747:2782   */\n      tag_75\n      jumpi\n        /* \"#utility.yul\":2762:2780   */\n      tag_76\n      tag_42\n      jump\t// in\n    tag_76:\n        /* \"#utility.yul\":2747:2782   */\n    tag_75:\n        /* \"#utility.yul\":2948:2949   */\n      0x01\n        /* \"#utility.yul\":2945:2946   */\n      0x00\n        /* \"#utility.yul\":2941:2950   */\n      sub\n        /* \"#utility.yul\":2938:2939   */\n      dup4\n        /* \"#utility.yul\":2935:2951   */\n      eq\n        /* \"#utility.yul\":2854:2920   */\n      0xffffffffffffffffffffffffffffffffffffffffffffffffffffffffffff8000\n        /* \"#utility.yul\":2851:2852   */\n      dup4\n        /* \"#utility.yul\":2848:2921   */\n      eq\n        /* \"#utility.yul\":2831:2961   */\n      and\n        /* \"#utility.yul\":2828:2984   */\n      iszero\n      tag_77\n      jumpi\n        /* \"#utility.yul\":2964:2982   */\n      tag_78\n      tag_43\n      jump\t// in\n    tag_78:\n        /* \"#utility.yul\":2828:2984   */\n    tag_77:\n        /* \"#utility.yul\":3007:3008   */\n      dup3\n        /* \"#utility.yul\":3004:3005   */\n      dup3\n        /* \"#utility.yul\":2999:3009   */\n      sdiv\n        /* \"#utility.yul\":2994:3009   */\n      swap1\n      pop\n        /* \"#utility.yul\":2633:3015   */\n      swap3\n      swap2\n      pop\n      pop\n      jump\t// out\n        /* \"#utility.yul\":3021:3110   */\n    tag_44:\n        /* \"#utility.yul\":3055:3062   */\n      0x00\n        /* \"#utility.yul\":3098:3103   */\n      dup2\n        /* \"#utility.yul\":3095:3096   */\n      0x00\n        /* \"#utility.yul\":3084:3104   */\n      signextend\n        /* \"#utility.yul\":3073:3104   */\n      swap1\n      pop\n        /* \"#utility.yul\":3021:3110   */\n      swap2\n      swap1\n      pop\n      jump\t// out\n        /* \"#utility.yul\":3116:3281   */\n    tag_16:\n        /* \"#utility.yul\":3152:3155   */\n      0x00\n        /* \"#utility.yul\":3175:3196   */\n      tag_81\n        /* \"#utility.yul\":3190:3195   */\n      dup3\n        /* \"#utility.yul\":3175:3196   */\n      tag_44\n      jump\t// in\n    tag_81:\n        /* \"#utility.yul\":3166:3196   */\n      swap2\n      pop\n        /* \"#utility.yul\":3218:3222   */\n      0x7f\n        /* \"#utility.yul\":3211:3216   */\n      dup3\n        /* \"#utility.yul\":3208:3223   */\n      sub\n        /* \"#utility.yul\":3205:3246   */\n      tag_82\n      jumpi\n        /* \"#utility.yul\":3226:3244   */\n      tag_83\n      tag_43\n      jump\t// in\n    tag_83:\n        /* \"#utility.yul\":3205:3246   */\n    tag_82:\n        /* \"#utility.yul\":3273:3274   */\n      0x01\n        /* \"#utility.yul\":3266:3271   */\n      dup3\n        /* \"#utility.yul\":3262:3275   */\n      add\n        /* \"#utility.yul\":3255:3275   */\n      swap1\n      pop\n        /* \"#utility.yul\":3116:3281   */\n      swap2\n      swap1\n      pop\n      jump\t// out\n        /* \"#utility.yul\":3287:3458   */\n    tag_20:\n        /* \"#utility.yul\":3317:3318   */\n      0x00\n        /* \"#utility.yul\":3334:3352   */\n      tag_85\n        /* \"#utility.yul\":3350:3351   */\n      dup3\n        /* \"#utility.yul\":3334:3352   */\n      tag_34\n      jump\t// in\n    tag_85:\n        /* \"#utility.yul\":3329:3352   */\n      swap2\n      pop\n        /* \"#utility.yul\":3366:3384   */\n      tag_86\n        /* \"#utility.yul\":3382:3383   */\n      dup4\n        /* \"#utility.yul\":3366:3384   */\n      tag_34\n      jump\t// in\n    tag_86:\n        /* \"#utility.yul\":3361:3384   */\n      swap3\n      pop\n        /* \"#utility.yul\":3403:3404   */\n      dup3\n        /* \"#utility.yul\":3393:3428   */\n      tag_87\n      jumpi\n        /* \"#utility.yul\":3408:3426   */\n      tag_88\n      tag_42\n      jump\t// in\n    tag_88:\n        /* \"#utility.yul\":3393:3428   */\n    tag_87:\n        /* \"#utility.yul\":3450:3451   */\n      dup3\n        /* \"#utility.yul\":3447:3448   */\n      dup3\n        /* \"#utility.yul\":3442:3452   */\n      smod\n        /* \"#utility.yul\":3437:3452   */\n      swap1\n      pop\n        /* \"#utility.yul\":3287:3458   */\n      swap3\n      swap2\n      pop\n      pop\n      jump\t// out\n        /* \"#utility.yul\":3464:3735   */\n    tag_25:\n        /* \"#utility.yul\":3502:3509   */\n      0x00\n        /* \"#utility.yul\":3525:3543   */\n      tag_90\n        /* \"#utility.yul\":3541:3542   */\n      dup3\n        /* \"#utility.yul\":3525:3543   */\n      tag_34\n      jump\t// in\n    tag_90:\n        /* \"#utility.yul\":3520:3543   */\n      swap2\n      pop\n        /* \"#utility.yul\":3557:3575   */\n      tag_91\n        /* \"#utility.yul\":3573:3574   */\n      dup4\n        /* \"#utility.yul\":3557:3575   */\n      tag_34\n      jump\t// in\n    tag_91:\n        /* \"#utility.yul\":3552:3575   */\n      swap3\n      pop\n        /* \"#utility.yul\":3610:3611   */\n      dup3\n        /* \"#utility.yul\":3607:3608   */\n      dup3\n        /* \"#utility.yul\":3603:3612   */\n      mul\n        /* \"#utility.yul\":3632:3660   */\n      tag_92\n        /* \"#utility.yul\":3648:3659   */\n      dup2\n        /* \"#utility.yul\":3632:3660   */\n      tag_34\n      jump\t// in\n    tag_92:\n        /* \"#utility.yul\":3621:3660   */\n      swap2\n      pop\n        /* \"#utility.yul\":3692:3703   */\n      dup1\n        /* \"#utility.yul\":3683:3690   */\n      dup3\n        /* \"#utility.yul\":3680:3704   */\n      eq\n        /* \"#utility.yul\":3670:3728   */\n      tag_93\n      jumpi\n        /* \"#utility.yul\":3708:3726   */\n      tag_94\n      tag_43\n      jump\t// in\n    tag_94:\n        /* \"#utility.yul\":3670:3728   */\n    tag_93:\n        /* \"#utility.yul\":3510:3735   */\n      pop\n        /* \"#utility.yul\":3464:3735   */\n      swap3\n      swap2\n      pop\n      pop\n      jump\t// out\n        /* \"#utility.yul\":3741:4048   */\n    tag_27:\n        /* \"#utility.yul\":3779:3782   */\n      0x00\n        /* \"#utility.yul\":3798:3816   */\n      tag_96\n        /* \"#utility.yul\":3814:3815   */\n      dup3\n        /* \"#utility.yul\":3798:3816   */\n      tag_34\n      jump\t// in\n    tag_96:\n        /* \"#utility.yul\":3793:3816   */\n      swap2\n      pop\n        /* \"#utility.yul\":3830:3848   */\n      tag_97\n        /* \"#utility.yul\":3846:3847   */\n      dup4\n        /* \"#utility.yul\":3830:3848   */\n      tag_34\n      jump\t// in\n    tag_97:\n        /* \"#utility.yul\":3825:3848   */\n      swap3\n      pop\n        /* \"#utility.yul\":3871:3872   */\n      dup3\n        /* \"#utility.yul\":3868:3869   */\n      dup3\n        /* \"#utility.yul\":3864:3873   */\n      add\n        /* \"#utility.yul\":3857:3873   */\n      swap1\n      pop\n        /* \"#utility.yul\":3941:4007   */\n      0xffffffffffffffffffffffffffffffffffffffffffffffffffffffffffff8000\n        /* \"#utility.yul\":3936:3939   */\n      dup2\n        /* \"#utility.yul\":3932:4008   */\n      slt\n        /* \"#utility.yul\":3911:3917   */\n      0x7fff\n        /* \"#utility.yul\":3906:3909   */\n      dup3\n        /* \"#utility.yul\":3902:3918   */\n      sgt\n        /* \"#utility.yul\":3886:4018   */\n      or\n        /* \"#utility.yul\":3883:4041   */\n      iszero\n      tag_98\n      jumpi\n        /* \"#utility.yul\":4021:4039   */\n      tag_99\n      tag_43\n      jump\t// in\n    tag_99:\n        /* \"#utility.yul\":3883:4041   */\n    tag_98:\n        /* \"#utility.yul\":3741:4048   */\n      swap3\n      swap2\n      pop\n      pop\n      jump\t// out\n\n    auxdata: 0xa26469706673582212205e43902089feb3aec2daeb33ee7b0546be0116645abf7c29b58b8a71dd1b92a964736f6c634300081e0033\n}\n",
				"bytecode": {
					"linkReferences": {},
					"object": "6080604052348015600e575f5ffd5b506104868061001c5f395ff3fe608060405234801561000f575f5ffd5b5060043610610029575f3560e01c80635d6cb6e51461002d575b5f5ffd5b610047600480360381019061004291906101db565b61005d565b6040516100549190610276565b60405180910390f35b60605f8290505f5f90505f5f90505f8590505f5f90505b5f8560010b146100a057600a8561008b91906102f0565b9450808061009890610363565b915050610074565b5b5f8260010b1461010f57600a826100b8919061038b565b92505f600190505f5f90505b825f0b815f0b12156100eb5784826100dc91906103bb565b915080806001019150506100c4565b5080856100f891906103f7565b9450600a8361010791906102f0565b9250506100a1565b8660010b8460010b0361015e576040518060400160405280601381526020017f41726d7374726f6e67206e756d626572212121000000000000000000000000008152509550505050505061019c565b6040518060400160405280601a81526020017f4e6f7420616e2041726d7374726f6e67206e756d6265722e2e2e000000000000815250955050505050505b919050565b5f5ffd5b5f8160010b9050919050565b6101ba816101a5565b81146101c4575f5ffd5b50565b5f813590506101d5816101b1565b92915050565b5f602082840312156101f0576101ef6101a1565b5b5f6101fd848285016101c7565b91505092915050565b5f81519050919050565b5f82825260208201905092915050565b8281835e5f83830152505050565b5f601f19601f8301169050919050565b5f61024882610206565b6102528185610210565b9350610262818560208601610220565b61026b8161022e565b840191505092915050565b5f6020820190508181035f83015261028e818461023e565b905092915050565b7f4e487b71000000000000000000000000000000000000000000000000000000005f52601260045260245ffd5b7f4e487b71000000000000000000000000000000000000000000000000000000005f52601160045260245ffd5b5f6102fa826101a5565b9150610305836101a5565b92508261031557610314610296565b5b60015f0383147fffffffffffffffffffffffffffffffffffffffffffffffffffffffffffff80008314161561034d5761034c6102c3565b5b828205905092915050565b5f815f0b9050919050565b5f61036d82610358565b9150607f82036103805761037f6102c3565b5b600182019050919050565b5f610395826101a5565b91506103a0836101a5565b9250826103b0576103af610296565b5b828207905092915050565b5f6103c5826101a5565b91506103d0836101a5565b92508282026103de816101a5565b91508082146103f0576103ef6102c3565b5b5092915050565b5f610401826101a5565b915061040c836101a5565b925082820190507fffffffffffffffffffffffffffffffffffffffffffffffffffffffffffff80008112617fff8213171561044a576104496102c3565b5b9291505056fea26469706673582212205e43902089feb3aec2daeb33ee7b0546be0116645abf7c29b58b8a71dd1b92a964736f6c634300081e0033",
					"opcodes": "PUSH1 0x80 PUSH1 0x40 MSTORE CALLVALUE DUP1 ISZERO PUSH1 0xE JUMPI PUSH0 PUSH0 REVERT JUMPDEST POP PUSH2 0x486 DUP1 PUSH2 0x1C PUSH0 CODECOPY PUSH0 RETURN INVALID PUSH1 0x80 PUSH1 0x40 MSTORE CALLVALUE DUP1 ISZERO PUSH2 0xF JUMPI PUSH0 PUSH0 REVERT JUMPDEST POP PUSH1 0x4 CALLDATASIZE LT PUSH2 0x29 JUMPI PUSH0 CALLDATALOAD PUSH1 0xE0 SHR DUP1 PUSH4 0x5D6CB6E5 EQ PUSH2 0x2D JUMPI JUMPDEST PUSH0 PUSH0 REVERT JUMPDEST PUSH2 0x47 PUSH1 0x4 DUP1 CALLDATASIZE SUB DUP2 ADD SWAP1 PUSH2 0x42 SWAP2 SWAP1 PUSH2 0x1DB JUMP JUMPDEST PUSH2 0x5D JUMP JUMPDEST PUSH1 0x40 MLOAD PUSH2 0x54 SWAP2 SWAP1 PUSH2 0x276 JUMP JUMPDEST PUSH1 0x40 MLOAD DUP1 SWAP2 SUB SWAP1 RETURN JUMPDEST PUSH1 0x60 PUSH0 DUP3 SWAP1 POP PUSH0 PUSH0 SWAP1 POP PUSH0 PUSH0 SWAP1 POP PUSH0 DUP6 SWAP1 POP PUSH0 PUSH0 SWAP1 POP JUMPDEST PUSH0 DUP6 PUSH1 0x1 SIGNEXTEND EQ PUSH2 0xA0 JUMPI PUSH1 0xA DUP6 PUSH2 0x8B SWAP2 SWAP1 PUSH2 0x2F0 JUMP JUMPDEST SWAP5 POP DUP1 DUP1 PUSH2 0x98 SWAP1 PUSH2 0x363 JUMP JUMPDEST SWAP2 POP POP PUSH2 0x74 JUMP JUMPDEST JUMPDEST PUSH0 DUP3 PUSH1 0x1 SIGNEXTEND EQ PUSH2 0x10F JUMPI PUSH1 0xA DUP3 PUSH2 0xB8 SWAP2 SWAP1 PUSH2 0x38B JUMP JUMPDEST SWAP3 POP PUSH0 PUSH1 0x1 SWAP1 POP PUSH0 PUSH0 SWAP1 POP JUMPDEST DUP3 PUSH0 SIGNEXTEND DUP2 PUSH0 SIGNEXTEND SLT ISZERO PUSH2 0xEB JUMPI DUP5 DUP3 PUSH2 0xDC SWAP2 SWAP1 PUSH2 0x3BB JUMP JUMPDEST SWAP2 POP DUP1 DUP1 PUSH1 0x1 ADD SWAP2 POP POP PUSH2 0xC4 JUMP JUMPDEST POP DUP1 DUP6 PUSH2 0xF8 SWAP2 SWAP1 PUSH2 0x3F7 JUMP JUMPDEST SWAP5 POP PUSH1 0xA DUP4 PUSH2 0x107 SWAP2 SWAP1 PUSH2 0x2F0 JUMP JUMPDEST SWAP3 POP POP PUSH2 0xA1 JUMP JUMPDEST DUP7 PUSH1 0x1 SIGNEXTEND DUP5 PUSH1 0x1 SIGNEXTEND SUB PUSH2 0x15E JUMPI PUSH1 0x40 MLOAD DUP1 PUSH1 0x40 ADD PUSH1 0x40 MSTORE DUP1 PUSH1 0x13 DUP2 MSTORE PUSH1 0x20 ADD PUSH32 0x41726D7374726F6E67206E756D62657221212100000000000000000000000000 DUP2 MSTORE POP SWAP6 POP POP POP POP POP POP PUSH2 0x19C JUMP JUMPDEST PUSH1 0x40 MLOAD DUP1 PUSH1 0x40 ADD PUSH1 0x40 MSTORE DUP1 PUSH1 0x1A DUP2 MSTORE PUSH1 0x20 ADD PUSH32 0x4E6F7420616E2041726D7374726F6E67206E756D6265722E2E2E000000000000 DUP2 MSTORE POP SWAP6 POP POP POP POP POP POP JUMPDEST SWAP2 SWAP1 POP JUMP JUMPDEST PUSH0 PUSH0 REVERT JUMPDEST PUSH0 DUP2 PUSH1 0x1 SIGNEXTEND SWAP1 POP SWAP2 SWAP1 POP JUMP JUMPDEST PUSH2 0x1BA DUP2 PUSH2 0x1A5 JUMP JUMPDEST DUP2 EQ PUSH2 0x1C4 JUMPI PUSH0 PUSH0 REVERT JUMPDEST POP JUMP JUMPDEST PUSH0 DUP2 CALLDATALOAD SWAP1 POP PUSH2 0x1D5 DUP2 PUSH2 0x1B1 JUMP JUMPDEST SWAP3 SWAP2 POP POP JUMP JUMPDEST PUSH0 PUSH1 0x20 DUP3 DUP5 SUB SLT ISZERO PUSH2 0x1F0 JUMPI PUSH2 0x1EF PUSH2 0x1A1 JUMP JUMPDEST JUMPDEST PUSH0 PUSH2 0x1FD DUP5 DUP3 DUP6 ADD PUSH2 0x1C7 JUMP JUMPDEST SWAP2 POP POP SWAP3 SWAP2 POP POP JUMP JUMPDEST PUSH0 DUP2 MLOAD SWAP1 POP SWAP2 SWAP1 POP JUMP JUMPDEST PUSH0 DUP3 DUP3 MSTORE PUSH1 0x20 DUP3 ADD SWAP1 POP SWAP3 SWAP2 POP POP JUMP JUMPDEST DUP3 DUP2 DUP4 MCOPY PUSH0 DUP4 DUP4 ADD MSTORE POP POP POP JUMP JUMPDEST PUSH0 PUSH1 0x1F NOT PUSH1 0x1F DUP4 ADD AND SWAP1 POP SWAP2 SWAP1 POP JUMP JUMPDEST PUSH0 PUSH2 0x248 DUP3 PUSH2 0x206 JUMP JUMPDEST PUSH2 0x252 DUP2 DUP6 PUSH2 0x210 JUMP JUMPDEST SWAP4 POP PUSH2 0x262 DUP2 DUP6 PUSH1 0x20 DUP7 ADD PUSH2 0x220 JUMP JUMPDEST PUSH2 0x26B DUP2 PUSH2 0x22E JUMP JUMPDEST DUP5 ADD SWAP2 POP POP SWAP3 SWAP2 POP POP JUMP JUMPDEST PUSH0 PUSH1 0x20 DUP3 ADD SWAP1 POP DUP2 DUP2 SUB PUSH0 DUP4 ADD MSTORE PUSH2 0x28E DUP2 DUP5 PUSH2 0x23E JUMP JUMPDEST SWAP1 POP SWAP3 SWAP2 POP POP JUMP JUMPDEST PUSH32 0x4E487B7100000000000000000000000000000000000000000000000000000000 PUSH0 MSTORE PUSH1 0x12 PUSH1 0x4 MSTORE PUSH1 0x24 PUSH0 REVERT JUMPDEST PUSH32 0x4E487B7100000000000000000000000000000000000000000000000000000000 PUSH0 MSTORE PUSH1 0x11 PUSH1 0x4 MSTORE PUSH1 0x24 PUSH0 REVERT JUMPDEST PUSH0 PUSH2 0x2FA DUP3 PUSH2 0x1A5 JUMP JUMPDEST SWAP2 POP PUSH2 0x305 DUP4 PUSH2 0x1A5 JUMP JUMPDEST SWAP3 POP DUP3 PUSH2 0x315 JUMPI PUSH2 0x314 PUSH2 0x296 JUMP JUMPDEST JUMPDEST PUSH1 0x1 PUSH0 SUB DUP4 EQ PUSH32 0xFFFFFFFFFFFFFFFFFFFFFFFFFFFFFFFFFFFFFFFFFFFFFFFFFFFFFFFFFFFF8000 DUP4 EQ AND ISZERO PUSH2 0x34D JUMPI PUSH2 0x34C PUSH2 0x2C3 JUMP JUMPDEST JUMPDEST DUP3 DUP3 SDIV SWAP1 POP SWAP3 SWAP2 POP POP JUMP JUMPDEST PUSH0 DUP2 PUSH0 SIGNEXTEND SWAP1 POP SWAP2 SWAP1 POP JUMP JUMPDEST PUSH0 PUSH2 0x36D DUP3 PUSH2 0x358 JUMP JUMPDEST SWAP2 POP PUSH1 0x7F DUP3 SUB PUSH2 0x380 JUMPI PUSH2 0x37F PUSH2 0x2C3 JUMP JUMPDEST JUMPDEST PUSH1 0x1 DUP3 ADD SWAP1 POP SWAP2 SWAP1 POP JUMP JUMPDEST PUSH0 PUSH2 0x395 DUP3 PUSH2 0x1A5 JUMP JUMPDEST SWAP2 POP PUSH2 0x3A0 DUP4 PUSH2 0x1A5 JUMP JUMPDEST SWAP3 POP DUP3 PUSH2 0x3B0 JUMPI PUSH2 0x3AF PUSH2 0x296 JUMP JUMPDEST JUMPDEST DUP3 DUP3 SMOD SWAP1 POP SWAP3 SWAP2 POP POP JUMP JUMPDEST PUSH0 PUSH2 0x3C5 DUP3 PUSH2 0x1A5 JUMP JUMPDEST SWAP2 POP PUSH2 0x3D0 DUP4 PUSH2 0x1A5 JUMP JUMPDEST SWAP3 POP DUP3 DUP3 MUL PUSH2 0x3DE DUP2 PUSH2 0x1A5 JUMP JUMPDEST SWAP2 POP DUP1 DUP3 EQ PUSH2 0x3F0 JUMPI PUSH2 0x3EF PUSH2 0x2C3 JUMP JUMPDEST JUMPDEST POP SWAP3 SWAP2 POP POP JUMP JUMPDEST PUSH0 PUSH2 0x401 DUP3 PUSH2 0x1A5 JUMP JUMPDEST SWAP2 POP PUSH2 0x40C DUP4 PUSH2 0x1A5 JUMP JUMPDEST SWAP3 POP DUP3 DUP3 ADD SWAP1 POP PUSH32 0xFFFFFFFFFFFFFFFFFFFFFFFFFFFFFFFFFFFFFFFFFFFFFFFFFFFFFFFFFFFF8000 DUP2 SLT PUSH2 0x7FFF DUP3 SGT OR ISZERO PUSH2 0x44A JUMPI PUSH2 0x449 PUSH2 0x2C3 JUMP JUMPDEST JUMPDEST SWAP3 SWAP2 POP POP JUMP INVALID LOG2 PUSH5 0x6970667358 0x22 SLT KECCAK256 MCOPY NUMBER SWAP1 KECCAK256 DUP10 INVALID 0xB3 0xAE 0xC2 0xDA 0xEB CALLER RETURNCONTRACT 0x7B SDIV CHAINID 0xBE ADD AND PUSH5 0x5ABF7C29B5 DUP12 DUP11 PUSH18 0xDD1B92A964736F6C634300081E0033000000 "
				},
				"gasEstimates": {
					"creation": {
						"codeDepositCost": "231600",
						"executionCost": "273",
						"totalCost": "231873"
					},
					"external": {
						"armstrong(int16)": "infinite"
					}
				},
				"methodIdentifiers": {
					"armstrong(int16)": "5d6cb6e5"
				}
			},
			"storageLayout": {
				"storage": [],
				"types": null
			},
			"userdoc": {
				"kind": "user",
				"methods": {},
				"version": 1
			}
		}
	}
}