{
	"contracts/Inheritance/Multiple.sol": {
		"D": {
			"abi": [
				{
					"inputs": [],
					"name": "add",
					"outputs": [
						{
							"internalType": "uint8",
							"name": "",
							"type": "uint8"
						}
					],
					"stateMutability": "view",
					"type": "function"
				},
				{
					"inputs": [],
					"name": "multiply",
					"outputs": [
						{
							"internalType": "uint8",
							"name": "",
							"type": "uint8"
						}
					],
					"stateMutability": "view",
					"type": "function"
				},
				{
					"inputs": [],
					"name": "print",
					"outputs": [
						{
							"internalType": "uint8",
							"name": "",
							"type": "uint8"
						},
						{
							"internalType": "uint8",
							"name": "",
							"type": "uint8"
						},
						{
							"internalType": "uint8",
							"name": "",
							"type": "uint8"
						}
					],
					"stateMutability": "view",
					"type": "function"
				},
				{
					"inputs": [],
					"name": "subtract",
					"outputs": [
						{
							"internalType": "uint8",
							"name": "",
							"type": "uint8"
						}
					],
					"stateMutability": "view",
					"type": "function"
				}
			],
			"devdoc": {
				"kind": "dev",
				"methods": {},
				"version": 1
			},
			"evm": {
				"assembly": "    /* \"contracts/Inheritance/Multiple.sol\":485:623  contract D is A,B,C{... */\n  mstore(0x40, 0x80)\n    /* \"contracts/Inheritance/Multiple.sol\":93:95  30 */\n  0x1e\n    /* \"contracts/Inheritance/Multiple.sol\":83:95  uint8 a = 30 */\n  0x00\n  exp(0x0100, 0x00)\n  dup2\n  sload\n  dup2\n  0xff\n  mul\n  not\n  and\n  swap1\n  dup4\n  0xff\n  and\n  mul\n  or\n  swap1\n  sstore\n  pop\n    /* \"contracts/Inheritance/Multiple.sol\":112:114  20 */\n  0x14\n    /* \"contracts/Inheritance/Multiple.sol\":102:114  uint8 b = 20 */\n  0x00\n  exp(0x0100, 0x01)\n  dup2\n  sload\n  dup2\n  0xff\n  mul\n  not\n  and\n  swap1\n  dup4\n  0xff\n  and\n  mul\n  or\n  swap1\n  sstore\n  pop\n    /* \"contracts/Inheritance/Multiple.sol\":229:231  30 */\n  0x1e\n    /* \"contracts/Inheritance/Multiple.sol\":219:231  uint8 c = 30 */\n  0x00\n  exp(0x0100, 0x02)\n  dup2\n  sload\n  dup2\n  0xff\n  mul\n  not\n  and\n  swap1\n  dup4\n  0xff\n  and\n  mul\n  or\n  swap1\n  sstore\n  pop\n    /* \"contracts/Inheritance/Multiple.sol\":248:250  20 */\n  0x14\n    /* \"contracts/Inheritance/Multiple.sol\":238:250  uint8 d = 20 */\n  0x00\n  exp(0x0100, 0x03)\n  dup2\n  sload\n  dup2\n  0xff\n  mul\n  not\n  and\n  swap1\n  dup4\n  0xff\n  and\n  mul\n  or\n  swap1\n  sstore\n  pop\n    /* \"contracts/Inheritance/Multiple.sol\":376:378  30 */\n  0x1e\n    /* \"contracts/Inheritance/Multiple.sol\":366:378  uint8 e = 30 */\n  0x00\n  exp(0x0100, 0x04)\n  dup2\n  sload\n  dup2\n  0xff\n  mul\n  not\n  and\n  swap1\n  dup4\n  0xff\n  and\n  mul\n  or\n  swap1\n  sstore\n  pop\n    /* \"contracts/Inheritance/Multiple.sol\":395:397  20 */\n  0x14\n    /* \"contracts/Inheritance/Multiple.sol\":385:397  uint8 f = 20 */\n  0x00\n  exp(0x0100, 0x05)\n  dup2\n  sload\n  dup2\n  0xff\n  mul\n  not\n  and\n  swap1\n  dup4\n  0xff\n  and\n  mul\n  or\n  swap1\n  sstore\n  pop\n    /* \"contracts/Inheritance/Multiple.sol\":485:623  contract D is A,B,C{... */\n  callvalue\n  dup1\n  iszero\n  tag_1\n  jumpi\n  revert(0x00, 0x00)\ntag_1:\n  pop\n  dataSize(sub_0)\n  dup1\n  dataOffset(sub_0)\n  0x00\n  codecopy\n  0x00\n  return\nstop\n\nsub_0: assembly {\n        /* \"contracts/Inheritance/Multiple.sol\":485:623  contract D is A,B,C{... */\n      mstore(0x40, 0x80)\n      callvalue\n      dup1\n      iszero\n      tag_1\n      jumpi\n      revert(0x00, 0x00)\n    tag_1:\n      pop\n      jumpi(tag_2, lt(calldatasize, 0x04))\n      shr(0xe0, calldataload(0x00))\n      dup1\n      0x13bdfacd\n      eq\n      tag_3\n      jumpi\n      dup1\n      0x4f2be91f\n      eq\n      tag_4\n      jumpi\n      dup1\n      0x6deebae3\n      eq\n      tag_5\n      jumpi\n      dup1\n      0xf3593cd0\n      eq\n      tag_6\n      jumpi\n    tag_2:\n      revert(0x00, 0x00)\n        /* \"contracts/Inheritance/Multiple.sol\":511:620  function print()public view returns(uint8,uint8,uint8){... */\n    tag_3:\n      tag_7\n      tag_8\n      jump\t// in\n    tag_7:\n      mload(0x40)\n      tag_9\n      swap4\n      swap3\n      swap2\n      swap1\n      tag_10\n      jump\t// in\n    tag_9:\n      mload(0x40)\n      dup1\n      swap2\n      sub\n      swap1\n      return\n        /* \"contracts/Inheritance/Multiple.sol\":123:192  function add()public view returns(uint8){... */\n    tag_4:\n      tag_11\n      tag_12\n      jump\t// in\n    tag_11:\n      mload(0x40)\n      tag_13\n      swap2\n      swap1\n      tag_14\n      jump\t// in\n    tag_13:\n      mload(0x40)\n      dup1\n      swap2\n      sub\n      swap1\n      return\n        /* \"contracts/Inheritance/Multiple.sol\":257:341  function subtract()public view returns(uint8){... */\n    tag_5:\n      tag_15\n      tag_16\n      jump\t// in\n    tag_15:\n      mload(0x40)\n      tag_17\n      swap2\n      swap1\n      tag_14\n      jump\t// in\n    tag_17:\n      mload(0x40)\n      dup1\n      swap2\n      sub\n      swap1\n      return\n        /* \"contracts/Inheritance/Multiple.sol\":404:478  function multiply()public view returns(uint8){... */\n    tag_6:\n      tag_18\n      tag_19\n      jump\t// in\n    tag_18:\n      mload(0x40)\n      tag_20\n      swap2\n      swap1\n      tag_14\n      jump\t// in\n    tag_20:\n      mload(0x40)\n      dup1\n      swap2\n      sub\n      swap1\n      return\n        /* \"contracts/Inheritance/Multiple.sol\":511:620  function print()public view returns(uint8,uint8,uint8){... */\n    tag_8:\n        /* \"contracts/Inheritance/Multiple.sol\":547:552  uint8 */\n      0x00\n        /* \"contracts/Inheritance/Multiple.sol\":553:558  uint8 */\n      0x00\n        /* \"contracts/Inheritance/Multiple.sol\":559:564  uint8 */\n      0x00\n        /* \"contracts/Inheritance/Multiple.sol\":584:589  add() */\n      tag_22\n        /* \"contracts/Inheritance/Multiple.sol\":584:587  add */\n      tag_12\n        /* \"contracts/Inheritance/Multiple.sol\":584:589  add() */\n      jump\t// in\n    tag_22:\n        /* \"contracts/Inheritance/Multiple.sol\":590:600  subtract() */\n      tag_23\n        /* \"contracts/Inheritance/Multiple.sol\":590:598  subtract */\n      tag_16\n        /* \"contracts/Inheritance/Multiple.sol\":590:600  subtract() */\n      jump\t// in\n    tag_23:\n        /* \"contracts/Inheritance/Multiple.sol\":601:611  multiply() */\n      tag_24\n        /* \"contracts/Inheritance/Multiple.sol\":601:609  multiply */\n      tag_19\n        /* \"contracts/Inheritance/Multiple.sol\":601:611  multiply() */\n      jump\t// in\n    tag_24:\n        /* \"contracts/Inheritance/Multiple.sol\":576:612  return (add(),subtract(),multiply()) */\n      swap3\n      pop\n      swap3\n      pop\n      swap3\n      pop\n        /* \"contracts/Inheritance/Multiple.sol\":511:620  function print()public view returns(uint8,uint8,uint8){... */\n      swap1\n      swap2\n      swap3\n      jump\t// out\n        /* \"contracts/Inheritance/Multiple.sol\":123:192  function add()public view returns(uint8){... */\n    tag_12:\n        /* \"contracts/Inheritance/Multiple.sol\":157:162  uint8 */\n      0x00\n        /* \"contracts/Inheritance/Multiple.sol\":183:184  b */\n      0x00\n      0x01\n      swap1\n      sload\n      swap1\n      0x0100\n      exp\n      swap1\n      div\n      0xff\n      and\n        /* \"contracts/Inheritance/Multiple.sol\":181:182  a */\n      0x00\n      0x00\n      swap1\n      sload\n      swap1\n      0x0100\n      exp\n      swap1\n      div\n      0xff\n      and\n        /* \"contracts/Inheritance/Multiple.sol\":181:184  a+b */\n      tag_26\n      swap2\n      swap1\n      tag_27\n      jump\t// in\n    tag_26:\n        /* \"contracts/Inheritance/Multiple.sol\":174:184  return a+b */\n      swap1\n      pop\n        /* \"contracts/Inheritance/Multiple.sol\":123:192  function add()public view returns(uint8){... */\n      swap1\n      jump\t// out\n        /* \"contracts/Inheritance/Multiple.sol\":257:341  function subtract()public view returns(uint8){... */\n    tag_16:\n        /* \"contracts/Inheritance/Multiple.sol\":296:301  uint8 */\n      0x00\n        /* \"contracts/Inheritance/Multiple.sol\":332:333  d */\n      0x00\n      0x03\n      swap1\n      sload\n      swap1\n      0x0100\n      exp\n      swap1\n      div\n      0xff\n      and\n        /* \"contracts/Inheritance/Multiple.sol\":330:331  c */\n      0x00\n      0x02\n      swap1\n      sload\n      swap1\n      0x0100\n      exp\n      swap1\n      div\n      0xff\n      and\n        /* \"contracts/Inheritance/Multiple.sol\":330:333  c-d */\n      tag_29\n      swap2\n      swap1\n      tag_30\n      jump\t// in\n    tag_29:\n        /* \"contracts/Inheritance/Multiple.sol\":323:333  return c-d */\n      swap1\n      pop\n        /* \"contracts/Inheritance/Multiple.sol\":257:341  function subtract()public view returns(uint8){... */\n      swap1\n      jump\t// out\n        /* \"contracts/Inheritance/Multiple.sol\":404:478  function multiply()public view returns(uint8){... */\n    tag_19:\n        /* \"contracts/Inheritance/Multiple.sol\":443:448  uint8 */\n      0x00\n        /* \"contracts/Inheritance/Multiple.sol\":469:470  f */\n      0x00\n      0x05\n      swap1\n      sload\n      swap1\n      0x0100\n      exp\n      swap1\n      div\n      0xff\n      and\n        /* \"contracts/Inheritance/Multiple.sol\":467:468  e */\n      0x00\n      0x04\n      swap1\n      sload\n      swap1\n      0x0100\n      exp\n      swap1\n      div\n      0xff\n      and\n        /* \"contracts/Inheritance/Multiple.sol\":467:470  e*f */\n      tag_32\n      swap2\n      swap1\n      tag_33\n      jump\t// in\n    tag_32:\n        /* \"contracts/Inheritance/Multiple.sol\":460:470  return e*f */\n      swap1\n      pop\n        /* \"contracts/Inheritance/Multiple.sol\":404:478  function multiply()public view returns(uint8){... */\n      swap1\n      jump\t// out\n        /* \"#utility.yul\":7:93   */\n    tag_34:\n        /* \"#utility.yul\":42:49   */\n      0x00\n        /* \"#utility.yul\":82:86   */\n      0xff\n        /* \"#utility.yul\":75:80   */\n      dup3\n        /* \"#utility.yul\":71:87   */\n      and\n        /* \"#utility.yul\":60:87   */\n      swap1\n      pop\n        /* \"#utility.yul\":7:93   */\n      swap2\n      swap1\n      pop\n      jump\t// out\n        /* \"#utility.yul\":99:211   */\n    tag_35:\n        /* \"#utility.yul\":182:204   */\n      tag_40\n        /* \"#utility.yul\":198:203   */\n      dup2\n        /* \"#utility.yul\":182:204   */\n      tag_34\n      jump\t// in\n    tag_40:\n        /* \"#utility.yul\":177:180   */\n      dup3\n        /* \"#utility.yul\":170:205   */\n      mstore\n        /* \"#utility.yul\":99:211   */\n      pop\n      pop\n      jump\t// out\n        /* \"#utility.yul\":217:635   */\n    tag_10:\n        /* \"#utility.yul\":354:358   */\n      0x00\n        /* \"#utility.yul\":392:394   */\n      0x60\n        /* \"#utility.yul\":381:390   */\n      dup3\n        /* \"#utility.yul\":377:395   */\n      add\n        /* \"#utility.yul\":369:395   */\n      swap1\n      pop\n        /* \"#utility.yul\":405:472   */\n      tag_42\n        /* \"#utility.yul\":469:470   */\n      0x00\n        /* \"#utility.yul\":458:467   */\n      dup4\n        /* \"#utility.yul\":454:471   */\n      add\n        /* \"#utility.yul\":445:451   */\n      dup7\n        /* \"#utility.yul\":405:472   */\n      tag_35\n      jump\t// in\n    tag_42:\n        /* \"#utility.yul\":482:550   */\n      tag_43\n        /* \"#utility.yul\":546:548   */\n      0x20\n        /* \"#utility.yul\":535:544   */\n      dup4\n        /* \"#utility.yul\":531:549   */\n      add\n        /* \"#utility.yul\":522:528   */\n      dup6\n        /* \"#utility.yul\":482:550   */\n      tag_35\n      jump\t// in\n    tag_43:\n        /* \"#utility.yul\":560:628   */\n      tag_44\n        /* \"#utility.yul\":624:626   */\n      0x40\n        /* \"#utility.yul\":613:622   */\n      dup4\n        /* \"#utility.yul\":609:627   */\n      add\n        /* \"#utility.yul\":600:606   */\n      dup5\n        /* \"#utility.yul\":560:628   */\n      tag_35\n      jump\t// in\n    tag_44:\n        /* \"#utility.yul\":217:635   */\n      swap5\n      swap4\n      pop\n      pop\n      pop\n      pop\n      jump\t// out\n        /* \"#utility.yul\":641:855   */\n    tag_14:\n        /* \"#utility.yul\":730:734   */\n      0x00\n        /* \"#utility.yul\":768:770   */\n      0x20\n        /* \"#utility.yul\":757:766   */\n      dup3\n        /* \"#utility.yul\":753:771   */\n      add\n        /* \"#utility.yul\":745:771   */\n      swap1\n      pop\n        /* \"#utility.yul\":781:848   */\n      tag_46\n        /* \"#utility.yul\":845:846   */\n      0x00\n        /* \"#utility.yul\":834:843   */\n      dup4\n        /* \"#utility.yul\":830:847   */\n      add\n        /* \"#utility.yul\":821:827   */\n      dup5\n        /* \"#utility.yul\":781:848   */\n      tag_35\n      jump\t// in\n    tag_46:\n        /* \"#utility.yul\":641:855   */\n      swap3\n      swap2\n      pop\n      pop\n      jump\t// out\n        /* \"#utility.yul\":861:1041   */\n    tag_36:\n        /* \"#utility.yul\":909:986   */\n      0x4e487b7100000000000000000000000000000000000000000000000000000000\n        /* \"#utility.yul\":906:907   */\n      0x00\n        /* \"#utility.yul\":899:987   */\n      mstore\n        /* \"#utility.yul\":1006:1010   */\n      0x11\n        /* \"#utility.yul\":1003:1004   */\n      0x04\n        /* \"#utility.yul\":996:1011   */\n      mstore\n        /* \"#utility.yul\":1030:1034   */\n      0x24\n        /* \"#utility.yul\":1027:1028   */\n      0x00\n        /* \"#utility.yul\":1020:1035   */\n      revert\n        /* \"#utility.yul\":1047:1235   */\n    tag_27:\n        /* \"#utility.yul\":1085:1088   */\n      0x00\n        /* \"#utility.yul\":1104:1122   */\n      tag_49\n        /* \"#utility.yul\":1120:1121   */\n      dup3\n        /* \"#utility.yul\":1104:1122   */\n      tag_34\n      jump\t// in\n    tag_49:\n        /* \"#utility.yul\":1099:1122   */\n      swap2\n      pop\n        /* \"#utility.yul\":1136:1154   */\n      tag_50\n        /* \"#utility.yul\":1152:1153   */\n      dup4\n        /* \"#utility.yul\":1136:1154   */\n      tag_34\n      jump\t// in\n    tag_50:\n        /* \"#utility.yul\":1131:1154   */\n      swap3\n      pop\n        /* \"#utility.yul\":1177:1178   */\n      dup3\n        /* \"#utility.yul\":1174:1175   */\n      dup3\n        /* \"#utility.yul\":1170:1179   */\n      add\n        /* \"#utility.yul\":1163:1179   */\n      swap1\n      pop\n        /* \"#utility.yul\":1200:1204   */\n      0xff\n        /* \"#utility.yul\":1195:1198   */\n      dup2\n        /* \"#utility.yul\":1192:1205   */\n      gt\n        /* \"#utility.yul\":1189:1228   */\n      iszero\n      tag_51\n      jumpi\n        /* \"#utility.yul\":1208:1226   */\n      tag_52\n      tag_36\n      jump\t// in\n    tag_52:\n        /* \"#utility.yul\":1189:1228   */\n    tag_51:\n        /* \"#utility.yul\":1047:1235   */\n      swap3\n      swap2\n      pop\n      pop\n      jump\t// out\n        /* \"#utility.yul\":1241:1432   */\n    tag_30:\n        /* \"#utility.yul\":1279:1283   */\n      0x00\n        /* \"#utility.yul\":1299:1317   */\n      tag_54\n        /* \"#utility.yul\":1315:1316   */\n      dup3\n        /* \"#utility.yul\":1299:1317   */\n      tag_34\n      jump\t// in\n    tag_54:\n        /* \"#utility.yul\":1294:1317   */\n      swap2\n      pop\n        /* \"#utility.yul\":1331:1349   */\n      tag_55\n        /* \"#utility.yul\":1347:1348   */\n      dup4\n        /* \"#utility.yul\":1331:1349   */\n      tag_34\n      jump\t// in\n    tag_55:\n        /* \"#utility.yul\":1326:1349   */\n      swap3\n      pop\n        /* \"#utility.yul\":1373:1374   */\n      dup3\n        /* \"#utility.yul\":1370:1371   */\n      dup3\n        /* \"#utility.yul\":1366:1375   */\n      sub\n        /* \"#utility.yul\":1358:1375   */\n      swap1\n      pop\n        /* \"#utility.yul\":1397:1401   */\n      0xff\n        /* \"#utility.yul\":1391:1395   */\n      dup2\n        /* \"#utility.yul\":1388:1402   */\n      gt\n        /* \"#utility.yul\":1385:1425   */\n      iszero\n      tag_56\n      jumpi\n        /* \"#utility.yul\":1405:1423   */\n      tag_57\n      tag_36\n      jump\t// in\n    tag_57:\n        /* \"#utility.yul\":1385:1425   */\n    tag_56:\n        /* \"#utility.yul\":1241:1432   */\n      swap3\n      swap2\n      pop\n      pop\n      jump\t// out\n        /* \"#utility.yul\":1438:1709   */\n    tag_33:\n        /* \"#utility.yul\":1476:1483   */\n      0x00\n        /* \"#utility.yul\":1499:1517   */\n      tag_59\n        /* \"#utility.yul\":1515:1516   */\n      dup3\n        /* \"#utility.yul\":1499:1517   */\n      tag_34\n      jump\t// in\n    tag_59:\n        /* \"#utility.yul\":1494:1517   */\n      swap2\n      pop\n        /* \"#utility.yul\":1531:1549   */\n      tag_60\n        /* \"#utility.yul\":1547:1548   */\n      dup4\n        /* \"#utility.yul\":1531:1549   */\n      tag_34\n      jump\t// in\n    tag_60:\n        /* \"#utility.yul\":1526:1549   */\n      swap3\n      pop\n        /* \"#utility.yul\":1584:1585   */\n      dup3\n        /* \"#utility.yul\":1581:1582   */\n      dup3\n        /* \"#utility.yul\":1577:1586   */\n      mul\n        /* \"#utility.yul\":1606:1634   */\n      tag_61\n        /* \"#utility.yul\":1622:1633   */\n      dup2\n        /* \"#utility.yul\":1606:1634   */\n      tag_34\n      jump\t// in\n    tag_61:\n        /* \"#utility.yul\":1595:1634   */\n      swap2\n      pop\n        /* \"#utility.yul\":1666:1677   */\n      dup1\n        /* \"#utility.yul\":1657:1664   */\n      dup3\n        /* \"#utility.yul\":1654:1678   */\n      eq\n        /* \"#utility.yul\":1644:1702   */\n      tag_62\n      jumpi\n        /* \"#utility.yul\":1682:1700   */\n      tag_63\n      tag_36\n      jump\t// in\n    tag_63:\n        /* \"#utility.yul\":1644:1702   */\n    tag_62:\n        /* \"#utility.yul\":1484:1709   */\n      pop\n        /* \"#utility.yul\":1438:1709   */\n      swap3\n      swap2\n      pop\n      pop\n      jump\t// out\n\n    auxdata: 0xa2646970667358221220c4be45c64ca9e2f9c72a0111fd805a3122260804cccf1757ca148dd4be34f0a364736f6c634300081e0033\n}\n",
				"bytecode": {
					"linkReferences": {},
					"object": "6080604052601e5f5f6101000a81548160ff021916908360ff16021790555060145f60016101000a81548160ff021916908360ff160217905550601e5f60026101000a81548160ff021916908360ff16021790555060145f60036101000a81548160ff021916908360ff160217905550601e5f60046101000a81548160ff021916908360ff16021790555060145f60056101000a81548160ff021916908360ff16021790555034801560af575f5ffd5b506102e7806100bd5f395ff3fe608060405234801561000f575f5ffd5b506004361061004a575f3560e01c806313bdfacd1461004e5780634f2be91f1461006e5780636deebae31461008c578063f3593cd0146100aa575b5f5ffd5b6100566100c8565b60405161006593929190610192565b60405180910390f35b6100766100ee565b60405161008391906101c7565b60405180910390f35b61009461011b565b6040516100a191906101c7565b60405180910390f35b6100b2610149565b6040516100bf91906101c7565b60405180910390f35b5f5f5f6100d36100ee565b6100db61011b565b6100e3610149565b925092509250909192565b5f5f60019054906101000a900460ff165f5f9054906101000a900460ff16610116919061020d565b905090565b5f5f60039054906101000a900460ff165f60029054906101000a900460ff166101449190610241565b905090565b5f5f60059054906101000a900460ff165f60049054906101000a900460ff166101729190610275565b905090565b5f60ff82169050919050565b61018c81610177565b82525050565b5f6060820190506101a55f830186610183565b6101b26020830185610183565b6101bf6040830184610183565b949350505050565b5f6020820190506101da5f830184610183565b92915050565b7f4e487b71000000000000000000000000000000000000000000000000000000005f52601160045260245ffd5b5f61021782610177565b915061022283610177565b9250828201905060ff81111561023b5761023a6101e0565b5b92915050565b5f61024b82610177565b915061025683610177565b9250828203905060ff81111561026f5761026e6101e0565b5b92915050565b5f61027f82610177565b915061028a83610177565b925082820261029881610177565b91508082146102aa576102a96101e0565b5b509291505056fea2646970667358221220c4be45c64ca9e2f9c72a0111fd805a3122260804cccf1757ca148dd4be34f0a364736f6c634300081e0033",
					"opcodes": "PUSH1 0x80 PUSH1 0x40 MSTORE PUSH1 0x1E PUSH0 PUSH0 PUSH2 0x100 EXP DUP2 SLOAD DUP2 PUSH1 0xFF MUL NOT AND SWAP1 DUP4 PUSH1 0xFF AND MUL OR SWAP1 SSTORE POP PUSH1 0x14 PUSH0 PUSH1 0x1 PUSH2 0x100 EXP DUP2 SLOAD DUP2 PUSH1 0xFF MUL NOT AND SWAP1 DUP4 PUSH1 0xFF AND MUL OR SWAP1 SSTORE POP PUSH1 0x1E PUSH0 PUSH1 0x2 PUSH2 0x100 EXP DUP2 SLOAD DUP2 PUSH1 0xFF MUL NOT AND SWAP1 DUP4 PUSH1 0xFF AND MUL OR SWAP1 SSTORE POP PUSH1 0x14 PUSH0 PUSH1 0x3 PUSH2 0x100 EXP DUP2 SLOAD DUP2 PUSH1 0xFF MUL NOT AND SWAP1 DUP4 PUSH1 0xFF AND MUL OR SWAP1 SSTORE POP PUSH1 0x1E PUSH0 PUSH1 0x4 PUSH2 0x100 EXP DUP2 SLOAD DUP2 PUSH1 0xFF MUL NOT AND SWAP1 DUP4 PUSH1 0xFF AND MUL OR SWAP1 SSTORE POP PUSH1 0x14 PUSH0 PUSH1 0x5 PUSH2 0x100 EXP DUP2 SLOAD DUP2 PUSH1 0xFF MUL NOT AND SWAP1 DUP4 PUSH1 0xFF AND MUL OR SWAP1 SSTORE POP CALLVALUE DUP1 ISZERO PUSH1 0xAF JUMPI PUSH0 PUSH0 REVERT JUMPDEST POP PUSH2 0x2E7 DUP1 PUSH2 0xBD PUSH0 CODECOPY PUSH0 RETURN INVALID PUSH1 0x80 PUSH1 0x40 MSTORE CALLVALUE DUP1 ISZERO PUSH2 0xF JUMPI PUSH0 PUSH0 REVERT JUMPDEST POP PUSH1 0x4 CALLDATASIZE LT PUSH2 0x4A JUMPI PUSH0 CALLDATALOAD PUSH1 0xE0 SHR DUP1 PUSH4 0x13BDFACD EQ PUSH2 0x4E JUMPI DUP1 PUSH4 0x4F2BE91F EQ PUSH2 0x6E JUMPI DUP1 PUSH4 0x6DEEBAE3 EQ PUSH2 0x8C JUMPI DUP1 PUSH4 0xF3593CD0 EQ PUSH2 0xAA JUMPI JUMPDEST PUSH0 PUSH0 REVERT JUMPDEST PUSH2 0x56 PUSH2 0xC8 JUMP JUMPDEST PUSH1 0x40 MLOAD PUSH2 0x65 SWAP4 SWAP3 SWAP2 SWAP1 PUSH2 0x192 JUMP JUMPDEST PUSH1 0x40 MLOAD DUP1 SWAP2 SUB SWAP1 RETURN JUMPDEST PUSH2 0x76 PUSH2 0xEE JUMP JUMPDEST PUSH1 0x40 MLOAD PUSH2 0x83 SWAP2 SWAP1 PUSH2 0x1C7 JUMP JUMPDEST PUSH1 0x40 MLOAD DUP1 SWAP2 SUB SWAP1 RETURN JUMPDEST PUSH2 0x94 PUSH2 0x11B JUMP JUMPDEST PUSH1 0x40 MLOAD PUSH2 0xA1 SWAP2 SWAP1 PUSH2 0x1C7 JUMP JUMPDEST PUSH1 0x40 MLOAD DUP1 SWAP2 SUB SWAP1 RETURN JUMPDEST PUSH2 0xB2 PUSH2 0x149 JUMP JUMPDEST PUSH1 0x40 MLOAD PUSH2 0xBF SWAP2 SWAP1 PUSH2 0x1C7 JUMP JUMPDEST PUSH1 0x40 MLOAD DUP1 SWAP2 SUB SWAP1 RETURN JUMPDEST PUSH0 PUSH0 PUSH0 PUSH2 0xD3 PUSH2 0xEE JUMP JUMPDEST PUSH2 0xDB PUSH2 0x11B JUMP JUMPDEST PUSH2 0xE3 PUSH2 0x149 JUMP JUMPDEST SWAP3 POP SWAP3 POP SWAP3 POP SWAP1 SWAP2 SWAP3 JUMP JUMPDEST PUSH0 PUSH0 PUSH1 0x1 SWAP1 SLOAD SWAP1 PUSH2 0x100 EXP SWAP1 DIV PUSH1 0xFF AND PUSH0 PUSH0 SWAP1 SLOAD SWAP1 PUSH2 0x100 EXP SWAP1 DIV PUSH1 0xFF AND PUSH2 0x116 SWAP2 SWAP1 PUSH2 0x20D JUMP JUMPDEST SWAP1 POP SWAP1 JUMP JUMPDEST PUSH0 PUSH0 PUSH1 0x3 SWAP1 SLOAD SWAP1 PUSH2 0x100 EXP SWAP1 DIV PUSH1 0xFF AND PUSH0 PUSH1 0x2 SWAP1 SLOAD SWAP1 PUSH2 0x100 EXP SWAP1 DIV PUSH1 0xFF AND PUSH2 0x144 SWAP2 SWAP1 PUSH2 0x241 JUMP JUMPDEST SWAP1 POP SWAP1 JUMP JUMPDEST PUSH0 PUSH0 PUSH1 0x5 SWAP1 SLOAD SWAP1 PUSH2 0x100 EXP SWAP1 DIV PUSH1 0xFF AND PUSH0 PUSH1 0x4 SWAP1 SLOAD SWAP1 PUSH2 0x100 EXP SWAP1 DIV PUSH1 0xFF AND PUSH2 0x172 SWAP2 SWAP1 PUSH2 0x275 JUMP JUMPDEST SWAP1 POP SWAP1 JUMP JUMPDEST PUSH0 PUSH1 0xFF DUP3 AND SWAP1 POP SWAP2 SWAP1 POP JUMP JUMPDEST PUSH2 0x18C DUP2 PUSH2 0x177 JUMP JUMPDEST DUP3 MSTORE POP POP JUMP JUMPDEST PUSH0 PUSH1 0x60 DUP3 ADD SWAP1 POP PUSH2 0x1A5 PUSH0 DUP4 ADD DUP7 PUSH2 0x183 JUMP JUMPDEST PUSH2 0x1B2 PUSH1 0x20 DUP4 ADD DUP6 PUSH2 0x183 JUMP JUMPDEST PUSH2 0x1BF PUSH1 0x40 DUP4 ADD DUP5 PUSH2 0x183 JUMP JUMPDEST SWAP5 SWAP4 POP POP POP POP JUMP JUMPDEST PUSH0 PUSH1 0x20 DUP3 ADD SWAP1 POP PUSH2 0x1DA PUSH0 DUP4 ADD DUP5 PUSH2 0x183 JUMP JUMPDEST SWAP3 SWAP2 POP POP JUMP JUMPDEST PUSH32 0x4E487B7100000000000000000000000000000000000000000000000000000000 PUSH0 MSTORE PUSH1 0x11 PUSH1 0x4 MSTORE PUSH1 0x24 PUSH0 REVERT JUMPDEST PUSH0 PUSH2 0x217 DUP3 PUSH2 0x177 JUMP JUMPDEST SWAP2 POP PUSH2 0x222 DUP4 PUSH2 0x177 JUMP JUMPDEST SWAP3 POP DUP3 DUP3 ADD SWAP1 POP PUSH1 0xFF DUP2 GT ISZERO PUSH2 0x23B JUMPI PUSH2 0x23A PUSH2 0x1E0 JUMP JUMPDEST JUMPDEST SWAP3 SWAP2 POP POP JUMP JUMPDEST PUSH0 PUSH2 0x24B DUP3 PUSH2 0x177 JUMP JUMPDEST SWAP2 POP PUSH2 0x256 DUP4 PUSH2 0x177 JUMP JUMPDEST SWAP3 POP DUP3 DUP3 SUB SWAP1 POP PUSH1 0xFF DUP2 GT ISZERO PUSH2 0x26F JUMPI PUSH2 0x26E PUSH2 0x1E0 JUMP JUMPDEST JUMPDEST SWAP3 SWAP2 POP POP JUMP JUMPDEST PUSH0 PUSH2 0x27F DUP3 PUSH2 0x177 JUMP JUMPDEST SWAP2 POP PUSH2 0x28A DUP4 PUSH2 0x177 JUMP JUMPDEST SWAP3 POP DUP3 DUP3 MUL PUSH2 0x298 DUP2 PUSH2 0x177 JUMP JUMPDEST SWAP2 POP DUP1 DUP3 EQ PUSH2 0x2AA JUMPI PUSH2 0x2A9 PUSH2 0x1E0 JUMP JUMPDEST JUMPDEST POP SWAP3 SWAP2 POP POP JUMP INVALID LOG2 PUSH5 0x6970667358 0x22 SLT KECCAK256 0xC4 0xBE GASLIMIT 0xC6 0x4C 0xA9 0xE2 EXTDELEGATECALL 0xC7 0x2A ADD GT REVERT DUP1 GAS BALANCE 0x22 0x26 ADDMOD DIV 0xCC 0xCF OR JUMPI 0xCA EQ DUP14 0xD4 0xBE CALLVALUE CREATE LOG3 PUSH5 0x736F6C6343 STOP ADDMOD 0x1E STOP CALLER "
				},
				"gasEstimates": {
					"creation": {
						"codeDepositCost": "148600",
						"executionCost": "146039",
						"totalCost": "294639"
					},
					"external": {
						"add()": "infinite",
						"multiply()": "infinite",
						"print()": "infinite",
						"subtract()": "infinite"
					}
				},
				"methodIdentifiers": {
					"add()": "4f2be91f",
					"multiply()": "f3593cd0",
					"print()": "13bdfacd",
					"subtract()": "6deebae3"
				}
			},
			"storageLayout": {
				"storage": [
					{
						"astId": 4,
						"contract": "contracts/Inheritance/Multiple.sol:D",
						"label": "a",
						"offset": 0,
						"slot": "0",
						"type": "t_uint8"
					},
					{
						"astId": 7,
						"contract": "contracts/Inheritance/Multiple.sol:D",
						"label": "b",
						"offset": 1,
						"slot": "0",
						"type": "t_uint8"
					},
					{
						"astId": 21,
						"contract": "contracts/Inheritance/Multiple.sol:D",
						"label": "c",
						"offset": 2,
						"slot": "0",
						"type": "t_uint8"
					},
					{
						"astId": 24,
						"contract": "contracts/Inheritance/Multiple.sol:D",
						"label": "d",
						"offset": 3,
						"slot": "0",
						"type": "t_uint8"
					},
					{
						"astId": 38,
						"contract": "contracts/Inheritance/Multiple.sol:D",
						"label": "e",
						"offset": 4,
						"slot": "0",
						"type": "t_uint8"
					},
					{
						"astId": 41,
						"contract": "contracts/Inheritance/Multiple.sol:D",
						"label": "f",
						"offset": 5,
						"slot": "0",
						"type": "t_uint8"
					}
				],
				"types": {
					"t_uint8": {
						"encoding": "inplace",
						"label": "uint8",
						"numberOfBytes": "1"
					}
				}
			},
			"userdoc": {
				"kind": "user",
				"methods": {},
				"version": 1
			}
		}
	}
}