{
	"contracts/LabCycle/EvenNum.sol": {
		"EvenNum": {
			"abi": [
				{
					"inputs": [
						{
							"internalType": "int256",
							"name": "n",
							"type": "int256"
						}
					],
					"name": "even",
					"outputs": [
						{
							"internalType": "int8",
							"name": "",
							"type": "int8"
						}
					],
					"stateMutability": "pure",
					"type": "function"
				}
			],
			"devdoc": {
				"kind": "dev",
				"methods": {},
				"version": 1
			},
			"evm": {
				"assembly": "    /* \"contracts/LabCycle/EvenNum.sol\":63:225  contract EvenNum{... */\n  mstore(0x40, 0x80)\n  callvalue\n  dup1\n  iszero\n  tag_1\n  jumpi\n  revert(0x00, 0x00)\ntag_1:\n  pop\n  dataSize(sub_0)\n  dup1\n  dataOffset(sub_0)\n  0x00\n  codecopy\n  0x00\n  return\nstop\n\nsub_0: assembly {\n        /* \"contracts/LabCycle/EvenNum.sol\":63:225  contract EvenNum{... */\n      mstore(0x40, 0x80)\n      callvalue\n      dup1\n      iszero\n      tag_1\n      jumpi\n      revert(0x00, 0x00)\n    tag_1:\n      pop\n      jumpi(tag_2, lt(calldatasize, 0x04))\n      shr(0xe0, calldataload(0x00))\n      dup1\n      0x84da15e1\n      eq\n      tag_3\n      jumpi\n    tag_2:\n      revert(0x00, 0x00)\n        /* \"contracts/LabCycle/EvenNum.sol\":88:222  function even(int n)public pure returns(int8){... */\n    tag_3:\n      tag_4\n      0x04\n      dup1\n      calldatasize\n      sub\n      dup2\n      add\n      swap1\n      tag_5\n      swap2\n      swap1\n      tag_6\n      jump\t// in\n    tag_5:\n      tag_7\n      jump\t// in\n    tag_4:\n      mload(0x40)\n      tag_8\n      swap2\n      swap1\n      tag_9\n      jump\t// in\n    tag_8:\n      mload(0x40)\n      dup1\n      swap2\n      sub\n      swap1\n      return\n    tag_7:\n        /* \"contracts/LabCycle/EvenNum.sol\":128:132  int8 */\n      0x00\n        /* \"contracts/LabCycle/EvenNum.sol\":152:153  0 */\n      0x00\n        /* \"contracts/LabCycle/EvenNum.sol\":149:150  2 */\n      0x02\n        /* \"contracts/LabCycle/EvenNum.sol\":147:148  n */\n      dup4\n        /* \"contracts/LabCycle/EvenNum.sol\":147:150  n%2 */\n      tag_11\n      swap2\n      swap1\n      tag_12\n      jump\t// in\n    tag_11:\n        /* \"contracts/LabCycle/EvenNum.sol\":147:153  n%2==0 */\n      sub\n        /* \"contracts/LabCycle/EvenNum.sol\":144:214  if(n%2==0)... */\n      tag_13\n      jumpi\n        /* \"contracts/LabCycle/EvenNum.sol\":175:176  1 */\n      0x01\n        /* \"contracts/LabCycle/EvenNum.sol\":168:176  return 1 */\n      swap1\n      pop\n      jump(tag_10)\n        /* \"contracts/LabCycle/EvenNum.sol\":144:214  if(n%2==0)... */\n    tag_13:\n        /* \"contracts/LabCycle/EvenNum.sol\":213:214  0 */\n      0x00\n        /* \"contracts/LabCycle/EvenNum.sol\":206:214  return 0 */\n      swap1\n      pop\n        /* \"contracts/LabCycle/EvenNum.sol\":88:222  function even(int n)public pure returns(int8){... */\n    tag_10:\n      swap2\n      swap1\n      pop\n      jump\t// out\n        /* \"#utility.yul\":88:205   */\n    tag_16:\n        /* \"#utility.yul\":197:198   */\n      0x00\n        /* \"#utility.yul\":194:195   */\n      0x00\n        /* \"#utility.yul\":187:199   */\n      revert\n        /* \"#utility.yul\":334:410   */\n    tag_18:\n        /* \"#utility.yul\":370:377   */\n      0x00\n        /* \"#utility.yul\":399:404   */\n      dup2\n        /* \"#utility.yul\":388:404   */\n      swap1\n      pop\n        /* \"#utility.yul\":334:410   */\n      swap2\n      swap1\n      pop\n      jump\t// out\n        /* \"#utility.yul\":416:536   */\n    tag_19:\n        /* \"#utility.yul\":488:511   */\n      tag_30\n        /* \"#utility.yul\":505:510   */\n      dup2\n        /* \"#utility.yul\":488:511   */\n      tag_18\n      jump\t// in\n    tag_30:\n        /* \"#utility.yul\":481:486   */\n      dup2\n        /* \"#utility.yul\":478:512   */\n      eq\n        /* \"#utility.yul\":468:530   */\n      tag_31\n      jumpi\n        /* \"#utility.yul\":526:527   */\n      0x00\n        /* \"#utility.yul\":523:524   */\n      0x00\n        /* \"#utility.yul\":516:528   */\n      revert\n        /* \"#utility.yul\":468:530   */\n    tag_31:\n        /* \"#utility.yul\":416:536   */\n      pop\n      jump\t// out\n        /* \"#utility.yul\":542:679   */\n    tag_20:\n        /* \"#utility.yul\":587:592   */\n      0x00\n        /* \"#utility.yul\":625:631   */\n      dup2\n        /* \"#utility.yul\":612:632   */\n      calldataload\n        /* \"#utility.yul\":603:632   */\n      swap1\n      pop\n        /* \"#utility.yul\":641:673   */\n      tag_33\n        /* \"#utility.yul\":667:672   */\n      dup2\n        /* \"#utility.yul\":641:673   */\n      tag_19\n      jump\t// in\n    tag_33:\n        /* \"#utility.yul\":542:679   */\n      swap3\n      swap2\n      pop\n      pop\n      jump\t// out\n        /* \"#utility.yul\":685:1012   */\n    tag_6:\n        /* \"#utility.yul\":743:749   */\n      0x00\n        /* \"#utility.yul\":792:794   */\n      0x20\n        /* \"#utility.yul\":780:789   */\n      dup3\n        /* \"#utility.yul\":771:778   */\n      dup5\n        /* \"#utility.yul\":767:790   */\n      sub\n        /* \"#utility.yul\":763:795   */\n      slt\n        /* \"#utility.yul\":760:879   */\n      iszero\n      tag_35\n      jumpi\n        /* \"#utility.yul\":798:877   */\n      tag_36\n      tag_16\n      jump\t// in\n    tag_36:\n        /* \"#utility.yul\":760:879   */\n    tag_35:\n        /* \"#utility.yul\":918:919   */\n      0x00\n        /* \"#utility.yul\":943:995   */\n      tag_37\n        /* \"#utility.yul\":987:994   */\n      dup5\n        /* \"#utility.yul\":978:984   */\n      dup3\n        /* \"#utility.yul\":967:976   */\n      dup6\n        /* \"#utility.yul\":963:985   */\n      add\n        /* \"#utility.yul\":943:995   */\n      tag_20\n      jump\t// in\n    tag_37:\n        /* \"#utility.yul\":933:995   */\n      swap2\n      pop\n        /* \"#utility.yul\":889:1005   */\n      pop\n        /* \"#utility.yul\":685:1012   */\n      swap3\n      swap2\n      pop\n      pop\n      jump\t// out\n        /* \"#utility.yul\":1018:1107   */\n    tag_21:\n        /* \"#utility.yul\":1052:1059   */\n      0x00\n        /* \"#utility.yul\":1095:1100   */\n      dup2\n        /* \"#utility.yul\":1092:1093   */\n      0x00\n        /* \"#utility.yul\":1081:1101   */\n      signextend\n        /* \"#utility.yul\":1070:1101   */\n      swap1\n      pop\n        /* \"#utility.yul\":1018:1107   */\n      swap2\n      swap1\n      pop\n      jump\t// out\n        /* \"#utility.yul\":1113:1222   */\n    tag_22:\n        /* \"#utility.yul\":1194:1215   */\n      tag_40\n        /* \"#utility.yul\":1209:1214   */\n      dup2\n        /* \"#utility.yul\":1194:1215   */\n      tag_21\n      jump\t// in\n    tag_40:\n        /* \"#utility.yul\":1189:1192   */\n      dup3\n        /* \"#utility.yul\":1182:1216   */\n      mstore\n        /* \"#utility.yul\":1113:1222   */\n      pop\n      pop\n      jump\t// out\n        /* \"#utility.yul\":1228:1438   */\n    tag_9:\n        /* \"#utility.yul\":1315:1319   */\n      0x00\n        /* \"#utility.yul\":1353:1355   */\n      0x20\n        /* \"#utility.yul\":1342:1351   */\n      dup3\n        /* \"#utility.yul\":1338:1356   */\n      add\n        /* \"#utility.yul\":1330:1356   */\n      swap1\n      pop\n        /* \"#utility.yul\":1366:1431   */\n      tag_42\n        /* \"#utility.yul\":1428:1429   */\n      0x00\n        /* \"#utility.yul\":1417:1426   */\n      dup4\n        /* \"#utility.yul\":1413:1430   */\n      add\n        /* \"#utility.yul\":1404:1410   */\n      dup5\n        /* \"#utility.yul\":1366:1431   */\n      tag_22\n      jump\t// in\n    tag_42:\n        /* \"#utility.yul\":1228:1438   */\n      swap3\n      swap2\n      pop\n      pop\n      jump\t// out\n        /* \"#utility.yul\":1444:1624   */\n    tag_23:\n        /* \"#utility.yul\":1492:1569   */\n      0x4e487b7100000000000000000000000000000000000000000000000000000000\n        /* \"#utility.yul\":1489:1490   */\n      0x00\n        /* \"#utility.yul\":1482:1570   */\n      mstore\n        /* \"#utility.yul\":1589:1593   */\n      0x12\n        /* \"#utility.yul\":1586:1587   */\n      0x04\n        /* \"#utility.yul\":1579:1594   */\n      mstore\n        /* \"#utility.yul\":1613:1617   */\n      0x24\n        /* \"#utility.yul\":1610:1611   */\n      0x00\n        /* \"#utility.yul\":1603:1618   */\n      revert\n        /* \"#utility.yul\":1630:1804   */\n    tag_12:\n        /* \"#utility.yul\":1661:1662   */\n      0x00\n        /* \"#utility.yul\":1678:1697   */\n      tag_45\n        /* \"#utility.yul\":1695:1696   */\n      dup3\n        /* \"#utility.yul\":1678:1697   */\n      tag_18\n      jump\t// in\n    tag_45:\n        /* \"#utility.yul\":1673:1697   */\n      swap2\n      pop\n        /* \"#utility.yul\":1711:1730   */\n      tag_46\n        /* \"#utility.yul\":1728:1729   */\n      dup4\n        /* \"#utility.yul\":1711:1730   */\n      tag_18\n      jump\t// in\n    tag_46:\n        /* \"#utility.yul\":1706:1730   */\n      swap3\n      pop\n        /* \"#utility.yul\":1749:1750   */\n      dup3\n        /* \"#utility.yul\":1739:1774   */\n      tag_47\n      jumpi\n        /* \"#utility.yul\":1754:1772   */\n      tag_48\n      tag_23\n      jump\t// in\n    tag_48:\n        /* \"#utility.yul\":1739:1774   */\n    tag_47:\n        /* \"#utility.yul\":1796:1797   */\n      dup3\n        /* \"#utility.yul\":1793:1794   */\n      dup3\n        /* \"#utility.yul\":1788:1798   */\n      smod\n        /* \"#utility.yul\":1783:1798   */\n      swap1\n      pop\n        /* \"#utility.yul\":1630:1804   */\n      swap3\n      swap2\n      pop\n      pop\n      jump\t// out\n\n    auxdata: 0xa26469706673582212209ab8dbf526341dc31c213eebc196b93610640b6365fc4e7f597b807f03d2834564736f6c634300081e0033\n}\n",
				"bytecode": {
					"linkReferences": {},
					"object": "6080604052348015600e575f5ffd5b506101ab8061001c5f395ff3fe608060405234801561000f575f5ffd5b5060043610610029575f3560e01c806384da15e11461002d575b5f5ffd5b610047600480360381019061004291906100ba565b61005d565b60405161005491906100ff565b60405180910390f35b5f5f60028361006c9190610145565b0361007a576001905061007e565b5f90505b919050565b5f5ffd5b5f819050919050565b61009981610087565b81146100a3575f5ffd5b50565b5f813590506100b481610090565b92915050565b5f602082840312156100cf576100ce610083565b5b5f6100dc848285016100a6565b91505092915050565b5f815f0b9050919050565b6100f9816100e5565b82525050565b5f6020820190506101125f8301846100f0565b92915050565b7f4e487b71000000000000000000000000000000000000000000000000000000005f52601260045260245ffd5b5f61014f82610087565b915061015a83610087565b92508261016a57610169610118565b5b82820790509291505056fea26469706673582212209ab8dbf526341dc31c213eebc196b93610640b6365fc4e7f597b807f03d2834564736f6c634300081e0033",
					"opcodes": "PUSH1 0x80 PUSH1 0x40 MSTORE CALLVALUE DUP1 ISZERO PUSH1 0xE JUMPI PUSH0 PUSH0 REVERT JUMPDEST POP PUSH2 0x1AB DUP1 PUSH2 0x1C PUSH0 CODECOPY PUSH0 RETURN INVALID PUSH1 0x80 PUSH1 0x40 MSTORE CALLVALUE DUP1 ISZERO PUSH2 0xF JUMPI PUSH0 PUSH0 REVERT JUMPDEST POP PUSH1 0x4 CALLDATASIZE LT PUSH2 0x29 JUMPI PUSH0 CALLDATALOAD PUSH1 0xE0 SHR DUP1 PUSH4 0x84DA15E1 EQ PUSH2 0x2D JUMPI JUMPDEST PUSH0 PUSH0 REVERT JUMPDEST PUSH2 0x47 PUSH1 0x4 DUP1 CALLDATASIZE SUB DUP2 ADD SWAP1 PUSH2 0x42 SWAP2 SWAP1 PUSH2 0xBA JUMP JUMPDEST PUSH2 0x5D JUMP JUMPDEST PUSH1 0x40 MLOAD PUSH2 0x54 SWAP2 SWAP1 PUSH2 0xFF JUMP JUMPDEST PUSH1 0x40 MLOAD DUP1 SWAP2 SUB SWAP1 RETURN JUMPDEST PUSH0 PUSH0 PUSH1 0x2 DUP4 PUSH2 0x6C SWAP2 SWAP1 PUSH2 0x145 JUMP JUMPDEST SUB PUSH2 0x7A JUMPI PUSH1 0x1 SWAP1 POP PUSH2 0x7E JUMP JUMPDEST PUSH0 SWAP1 POP JUMPDEST SWAP2 SWAP1 POP JUMP JUMPDEST PUSH0 PUSH0 REVERT JUMPDEST PUSH0 DUP2 SWAP1 POP SWAP2 SWAP1 POP JUMP JUMPDEST PUSH2 0x99 DUP2 PUSH2 0x87 JUMP JUMPDEST DUP2 EQ PUSH2 0xA3 JUMPI PUSH0 PUSH0 REVERT JUMPDEST POP JUMP JUMPDEST PUSH0 DUP2 CALLDATALOAD SWAP1 POP PUSH2 0xB4 DUP2 PUSH2 0x90 JUMP JUMPDEST SWAP3 SWAP2 POP POP JUMP JUMPDEST PUSH0 PUSH1 0x20 DUP3 DUP5 SUB SLT ISZERO PUSH2 0xCF JUMPI PUSH2 0xCE PUSH2 0x83 JUMP JUMPDEST JUMPDEST PUSH0 PUSH2 0xDC DUP5 DUP3 DUP6 ADD PUSH2 0xA6 JUMP JUMPDEST SWAP2 POP POP SWAP3 SWAP2 POP POP JUMP JUMPDEST PUSH0 DUP2 PUSH0 SIGNEXTEND SWAP1 POP SWAP2 SWAP1 POP JUMP JUMPDEST PUSH2 0xF9 DUP2 PUSH2 0xE5 JUMP JUMPDEST DUP3 MSTORE POP POP JUMP JUMPDEST PUSH0 PUSH1 0x20 DUP3 ADD SWAP1 POP PUSH2 0x112 PUSH0 DUP4 ADD DUP5 PUSH2 0xF0 JUMP JUMPDEST SWAP3 SWAP2 POP POP JUMP JUMPDEST PUSH32 0x4E487B7100000000000000000000000000000000000000000000000000000000 PUSH0 MSTORE PUSH1 0x12 PUSH1 0x4 MSTORE PUSH1 0x24 PUSH0 REVERT JUMPDEST PUSH0 PUSH2 0x14F DUP3 PUSH2 0x87 JUMP JUMPDEST SWAP2 POP PUSH2 0x15A DUP4 PUSH2 0x87 JUMP JUMPDEST SWAP3 POP DUP3 PUSH2 0x16A JUMPI PUSH2 0x169 PUSH2 0x118 JUMP JUMPDEST JUMPDEST DUP3 DUP3 SMOD SWAP1 POP SWAP3 SWAP2 POP POP JUMP INVALID LOG2 PUSH5 0x6970667358 0x22 SLT KECCAK256 SWAP11 0xB8 0xDB CREATE2 0x26 CALLVALUE SAR 0xC3 SHR 0x21 RETURNDATACOPY 0xEB 0xC1 SWAP7 0xB9 CALLDATASIZE LT PUSH5 0xB6365FC4E PUSH32 0x597B807F03D2834564736F6C634300081E003300000000000000000000000000 "
				},
				"gasEstimates": {
					"creation": {
						"codeDepositCost": "85400",
						"executionCost": "133",
						"totalCost": "85533"
					},
					"external": {
						"even(int256)": "infinite"
					}
				},
				"methodIdentifiers": {
					"even(int256)": "84da15e1"
				}
			},
			"storageLayout": {
				"storage": [],
				"types": null
			},
			"userdoc": {
				"kind": "user",
				"methods": {},
				"version": 1
			}
		}
	}
}