{
	"contracts/LabCycle/StringExample.sol": {
		"StringExample": {
			"abi": [
				{
					"inputs": [],
					"name": "compare",
					"outputs": [
						{
							"internalType": "bool",
							"name": "",
							"type": "bool"
						}
					],
					"stateMutability": "view",
					"type": "function"
				},
				{
					"inputs": [],
					"name": "concatenate",
					"outputs": [
						{
							"internalType": "string",
							"name": "",
							"type": "string"
						}
					],
					"stateMutability": "view",
					"type": "function"
				},
				{
					"inputs": [],
					"name": "concatenateString",
					"outputs": [
						{
							"internalType": "string",
							"name": "",
							"type": "string"
						}
					],
					"stateMutability": "view",
					"type": "function"
				},
				{
					"inputs": [],
					"name": "retrieveValues",
					"outputs": [
						{
							"internalType": "string",
							"name": "",
							"type": "string"
						},
						{
							"internalType": "string",
							"name": "",
							"type": "string"
						}
					],
					"stateMutability": "view",
					"type": "function"
				},
				{
					"inputs": [],
					"name": "returnLength",
					"outputs": [
						{
							"internalType": "uint256",
							"name": "",
							"type": "uint256"
						},
						{
							"internalType": "uint256",
							"name": "",
							"type": "uint256"
						}
					],
					"stateMutability": "view",
					"type": "function"
				},
				{
					"inputs": [],
					"name": "s1",
					"outputs": [
						{
							"internalType": "string",
							"name": "",
							"type": "string"
						}
					],
					"stateMutability": "view",
					"type": "function"
				},
				{
					"inputs": [],
					"name": "s2",
					"outputs": [
						{
							"internalType": "string",
							"name": "",
							"type": "string"
						}
					],
					"stateMutability": "view",
					"type": "function"
				},
				{
					"inputs": [
						{
							"internalType": "string",
							"name": "_s1",
							"type": "string"
						},
						{
							"internalType": "string",
							"name": "_s2",
							"type": "string"
						}
					],
					"name": "setValues",
					"outputs": [],
					"stateMutability": "nonpayable",
					"type": "function"
				}
			],
			"devdoc": {
				"kind": "dev",
				"methods": {},
				"version": 1
			},
			"evm": {
				"assembly": "    /* \"contracts/LabCycle/StringExample.sol\":64:891  contract StringExample{... */\n  mstore(0x40, 0x80)\n  callvalue\n  dup1\n  iszero\n  tag_1\n  jumpi\n  revert(0x00, 0x00)\ntag_1:\n  pop\n  dataSize(sub_0)\n  dup1\n  dataOffset(sub_0)\n  0x00\n  codecopy\n  0x00\n  return\nstop\n\nsub_0: assembly {\n        /* \"contracts/LabCycle/StringExample.sol\":64:891  contract StringExample{... */\n      mstore(0x40, 0x80)\n      callvalue\n      dup1\n      iszero\n      tag_1\n      jumpi\n      revert(0x00, 0x00)\n    tag_1:\n      pop\n      jumpi(tag_2, lt(calldatasize, 0x04))\n      shr(0xe0, calldataload(0x00))\n      dup1\n      0xa314150f\n      gt\n      tag_11\n      jumpi\n      dup1\n      0xa314150f\n      eq\n      tag_7\n      jumpi\n      dup1\n      0xa4081e16\n      eq\n      tag_8\n      jumpi\n      dup1\n      0xc852cf7d\n      eq\n      tag_9\n      jumpi\n      dup1\n      0xd4dd2a4b\n      eq\n      tag_10\n      jumpi\n      jump(tag_2)\n    tag_11:\n      dup1\n      0x3da0ac79\n      eq\n      tag_3\n      jumpi\n      dup1\n      0x6cc014de\n      eq\n      tag_4\n      jumpi\n      dup1\n      0x7ce5b8b3\n      eq\n      tag_5\n      jumpi\n      dup1\n      0x7ffaa4b6\n      eq\n      tag_6\n      jumpi\n    tag_2:\n      revert(0x00, 0x00)\n        /* \"contracts/LabCycle/StringExample.sol\":629:766  function compare() public view returns(bool){... */\n    tag_3:\n      tag_12\n      tag_13\n      jump\t// in\n    tag_12:\n      mload(0x40)\n      tag_14\n      swap2\n      swap1\n      tag_15\n      jump\t// in\n    tag_14:\n      mload(0x40)\n      dup1\n      swap2\n      sub\n      swap1\n      return\n        /* \"contracts/LabCycle/StringExample.sol\":93:109  string public s1 */\n    tag_4:\n      tag_16\n      tag_17\n      jump\t// in\n    tag_16:\n      mload(0x40)\n      tag_18\n      swap2\n      swap1\n      tag_19\n      jump\t// in\n    tag_18:\n      mload(0x40)\n      dup1\n      swap2\n      sub\n      swap1\n      return\n        /* \"contracts/LabCycle/StringExample.sol\":374:484  function concatenate()public view returns(string memory){... */\n    tag_5:\n      tag_20\n      tag_21\n      jump\t// in\n    tag_20:\n      mload(0x40)\n      tag_22\n      swap2\n      swap1\n      tag_19\n      jump\t// in\n    tag_22:\n      mload(0x40)\n      dup1\n      swap2\n      sub\n      swap1\n      return\n        /* \"contracts/LabCycle/StringExample.sol\":141:251  function setValues(string memory _s1, string memory _s2) public {... */\n    tag_6:\n      tag_23\n      0x04\n      dup1\n      calldatasize\n      sub\n      dup2\n      add\n      swap1\n      tag_24\n      swap2\n      swap1\n      tag_25\n      jump\t// in\n    tag_24:\n      tag_26\n      jump\t// in\n    tag_23:\n      stop\n        /* \"contracts/LabCycle/StringExample.sol\":116:132  string public s2 */\n    tag_7:\n      tag_27\n      tag_28\n      jump\t// in\n    tag_27:\n      mload(0x40)\n      tag_29\n      swap2\n      swap1\n      tag_19\n      jump\t// in\n    tag_29:\n      mload(0x40)\n      dup1\n      swap2\n      sub\n      swap1\n      return\n        /* \"contracts/LabCycle/StringExample.sol\":774:888  function returnLength()public view returns(uint,uint){... */\n    tag_8:\n      tag_30\n      tag_31\n      jump\t// in\n    tag_30:\n      mload(0x40)\n      tag_32\n      swap3\n      swap2\n      swap1\n      tag_33\n      jump\t// in\n    tag_32:\n      mload(0x40)\n      dup1\n      swap2\n      sub\n      swap1\n      return\n        /* \"contracts/LabCycle/StringExample.sol\":492:621  function concatenateString()public view returns(string memory){... */\n    tag_9:\n      tag_34\n      tag_35\n      jump\t// in\n    tag_34:\n      mload(0x40)\n      tag_36\n      swap2\n      swap1\n      tag_19\n      jump\t// in\n    tag_36:\n      mload(0x40)\n      dup1\n      swap2\n      sub\n      swap1\n      return\n        /* \"contracts/LabCycle/StringExample.sol\":259:366  function retrieveValues()public view returns(string memory, string memory){... */\n    tag_10:\n      tag_37\n      tag_38\n      jump\t// in\n    tag_37:\n      mload(0x40)\n      tag_39\n      swap3\n      swap2\n      swap1\n      tag_40\n      jump\t// in\n    tag_39:\n      mload(0x40)\n      dup1\n      swap2\n      sub\n      swap1\n      return\n        /* \"contracts/LabCycle/StringExample.sol\":629:766  function compare() public view returns(bool){... */\n    tag_13:\n        /* \"contracts/LabCycle/StringExample.sol\":668:672  bool */\n      0x00\n        /* \"contracts/LabCycle/StringExample.sol\":753:755  s2 */\n      0x01\n        /* \"contracts/LabCycle/StringExample.sol\":736:756  abi.encodePacked(s2) */\n      add(0x20, mload(0x40))\n      tag_42\n      swap2\n      swap1\n      tag_43\n      jump\t// in\n    tag_42:\n      mload(0x40)\n      0x20\n      dup2\n      dup4\n      sub\n      sub\n      dup2\n      mstore\n      swap1\n      0x40\n      mstore\n        /* \"contracts/LabCycle/StringExample.sol\":726:757  keccak256(abi.encodePacked(s2)) */\n      dup1\n      mload\n      swap1\n      0x20\n      add\n      keccak256\n        /* \"contracts/LabCycle/StringExample.sol\":718:720  s1 */\n      0x00\n        /* \"contracts/LabCycle/StringExample.sol\":701:721  abi.encodePacked(s1) */\n      add(0x20, mload(0x40))\n      tag_44\n      swap2\n      swap1\n      tag_43\n      jump\t// in\n    tag_44:\n      mload(0x40)\n      0x20\n      dup2\n      dup4\n      sub\n      sub\n      dup2\n      mstore\n      swap1\n      0x40\n      mstore\n        /* \"contracts/LabCycle/StringExample.sol\":691:722  keccak256(abi.encodePacked(s1)) */\n      dup1\n      mload\n      swap1\n      0x20\n      add\n      keccak256\n        /* \"contracts/LabCycle/StringExample.sol\":691:757  keccak256(abi.encodePacked(s1)) == keccak256(abi.encodePacked(s2)) */\n      eq\n        /* \"contracts/LabCycle/StringExample.sol\":684:758  return(keccak256(abi.encodePacked(s1)) == keccak256(abi.encodePacked(s2))) */\n      swap1\n      pop\n        /* \"contracts/LabCycle/StringExample.sol\":629:766  function compare() public view returns(bool){... */\n      swap1\n      jump\t// out\n        /* \"contracts/LabCycle/StringExample.sol\":93:109  string public s1 */\n    tag_17:\n      0x00\n      dup1\n      sload\n      tag_45\n      swap1\n      tag_46\n      jump\t// in\n    tag_45:\n      dup1\n      0x1f\n      add\n      0x20\n      dup1\n      swap2\n      div\n      mul\n      0x20\n      add\n      mload(0x40)\n      swap1\n      dup2\n      add\n      0x40\n      mstore\n      dup1\n      swap3\n      swap2\n      swap1\n      dup2\n      dup2\n      mstore\n      0x20\n      add\n      dup3\n      dup1\n      sload\n      tag_47\n      swap1\n      tag_46\n      jump\t// in\n    tag_47:\n      dup1\n      iszero\n      tag_48\n      jumpi\n      dup1\n      0x1f\n      lt\n      tag_49\n      jumpi\n      0x0100\n      dup1\n      dup4\n      sload\n      div\n      mul\n      dup4\n      mstore\n      swap2\n      0x20\n      add\n      swap2\n      jump(tag_48)\n    tag_49:\n      dup3\n      add\n      swap2\n      swap1\n      0x00\n      mstore\n      keccak256(0x00, 0x20)\n      swap1\n    tag_50:\n      dup2\n      sload\n      dup2\n      mstore\n      swap1\n      0x01\n      add\n      swap1\n      0x20\n      add\n      dup1\n      dup4\n      gt\n      tag_50\n      jumpi\n      dup3\n      swap1\n      sub\n      0x1f\n      and\n      dup3\n      add\n      swap2\n    tag_48:\n      pop\n      pop\n      pop\n      pop\n      pop\n      dup2\n      jump\t// out\n        /* \"contracts/LabCycle/StringExample.sol\":374:484  function concatenate()public view returns(string memory){... */\n    tag_21:\n        /* \"contracts/LabCycle/StringExample.sol\":416:429  string memory */\n      0x60\n        /* \"contracts/LabCycle/StringExample.sol\":462:464  s1 */\n      0x00\n        /* \"contracts/LabCycle/StringExample.sol\":473:475  s2 */\n      0x01\n        /* \"contracts/LabCycle/StringExample.sol\":448:476  string.concat(s1,\" and \",s2) */\n      add(0x20, mload(0x40))\n      tag_52\n      swap3\n      swap2\n      swap1\n      tag_53\n      jump\t// in\n    tag_52:\n      mload(0x40)\n      0x20\n      dup2\n      dup4\n      sub\n      sub\n      dup2\n      mstore\n      swap1\n      0x40\n      mstore\n        /* \"contracts/LabCycle/StringExample.sol\":441:476  return string.concat(s1,\" and \",s2) */\n      swap1\n      pop\n        /* \"contracts/LabCycle/StringExample.sol\":374:484  function concatenate()public view returns(string memory){... */\n      swap1\n      jump\t// out\n        /* \"contracts/LabCycle/StringExample.sol\":141:251  function setValues(string memory _s1, string memory _s2) public {... */\n    tag_26:\n        /* \"contracts/LabCycle/StringExample.sol\":221:224  _s1 */\n      dup2\n        /* \"contracts/LabCycle/StringExample.sol\":216:218  s1 */\n      0x00\n        /* \"contracts/LabCycle/StringExample.sol\":216:224  s1 = _s1 */\n      swap1\n      dup2\n      tag_55\n      swap2\n      swap1\n      tag_56\n      jump\t// in\n    tag_55:\n      pop\n        /* \"contracts/LabCycle/StringExample.sol\":240:243  _s2 */\n      dup1\n        /* \"contracts/LabCycle/StringExample.sol\":235:237  s2 */\n      0x01\n        /* \"contracts/LabCycle/StringExample.sol\":235:243  s2 = _s2 */\n      swap1\n      dup2\n      tag_57\n      swap2\n      swap1\n      tag_56\n      jump\t// in\n    tag_57:\n      pop\n        /* \"contracts/LabCycle/StringExample.sol\":141:251  function setValues(string memory _s1, string memory _s2) public {... */\n      pop\n      pop\n      jump\t// out\n        /* \"contracts/LabCycle/StringExample.sol\":116:132  string public s2 */\n    tag_28:\n      0x01\n      dup1\n      sload\n      tag_58\n      swap1\n      tag_46\n      jump\t// in\n    tag_58:\n      dup1\n      0x1f\n      add\n      0x20\n      dup1\n      swap2\n      div\n      mul\n      0x20\n      add\n      mload(0x40)\n      swap1\n      dup2\n      add\n      0x40\n      mstore\n      dup1\n      swap3\n      swap2\n      swap1\n      dup2\n      dup2\n      mstore\n      0x20\n      add\n      dup3\n      dup1\n      sload\n      tag_59\n      swap1\n      tag_46\n      jump\t// in\n    tag_59:\n      dup1\n      iszero\n      tag_60\n      jumpi\n      dup1\n      0x1f\n      lt\n      tag_61\n      jumpi\n      0x0100\n      dup1\n      dup4\n      sload\n      div\n      mul\n      dup4\n      mstore\n      swap2\n      0x20\n      add\n      swap2\n      jump(tag_60)\n    tag_61:\n      dup3\n      add\n      swap2\n      swap1\n      0x00\n      mstore\n      keccak256(0x00, 0x20)\n      swap1\n    tag_62:\n      dup2\n      sload\n      dup2\n      mstore\n      swap1\n      0x01\n      add\n      swap1\n      0x20\n      add\n      dup1\n      dup4\n      gt\n      tag_62\n      jumpi\n      dup3\n      swap1\n      sub\n      0x1f\n      and\n      dup3\n      add\n      swap2\n    tag_60:\n      pop\n      pop\n      pop\n      pop\n      pop\n      dup2\n      jump\t// out\n        /* \"contracts/LabCycle/StringExample.sol\":774:888  function returnLength()public view returns(uint,uint){... */\n    tag_31:\n        /* \"contracts/LabCycle/StringExample.sol\":817:821  uint */\n      0x00\n        /* \"contracts/LabCycle/StringExample.sol\":822:826  uint */\n      0x00\n        /* \"contracts/LabCycle/StringExample.sol\":851:853  s1 */\n      0x00\n        /* \"contracts/LabCycle/StringExample.sol\":845:861  bytes(s1).length */\n      dup1\n      sload\n      tag_64\n      swap1\n      tag_46\n      jump\t// in\n    tag_64:\n      swap1\n      pop\n        /* \"contracts/LabCycle/StringExample.sol\":869:871  s2 */\n      0x01\n        /* \"contracts/LabCycle/StringExample.sol\":863:879  bytes(s2).length */\n      dup1\n      sload\n      tag_65\n      swap1\n      tag_46\n      jump\t// in\n    tag_65:\n      swap1\n      pop\n        /* \"contracts/LabCycle/StringExample.sol\":838:880  return(bytes(s1).length, bytes(s2).length) */\n      swap2\n      pop\n      swap2\n      pop\n        /* \"contracts/LabCycle/StringExample.sol\":774:888  function returnLength()public view returns(uint,uint){... */\n      swap1\n      swap2\n      jump\t// out\n        /* \"contracts/LabCycle/StringExample.sol\":492:621  function concatenateString()public view returns(string memory){... */\n    tag_35:\n        /* \"contracts/LabCycle/StringExample.sol\":540:553  string memory */\n      0x60\n        /* \"contracts/LabCycle/StringExample.sol\":597:599  s1 */\n      0x00\n        /* \"contracts/LabCycle/StringExample.sol\":608:610  s2 */\n      0x01\n        /* \"contracts/LabCycle/StringExample.sol\":580:611  abi.encodePacked(s1,\" and \",s2) */\n      add(0x20, mload(0x40))\n      tag_67\n      swap3\n      swap2\n      swap1\n      tag_68\n      jump\t// in\n    tag_67:\n      mload(0x40)\n      0x20\n      dup2\n      dup4\n      sub\n      sub\n      dup2\n      mstore\n      swap1\n      0x40\n      mstore\n        /* \"contracts/LabCycle/StringExample.sol\":565:613  return (string(abi.encodePacked(s1,\" and \",s2))) */\n      swap1\n      pop\n        /* \"contracts/LabCycle/StringExample.sol\":492:621  function concatenateString()public view returns(string memory){... */\n      swap1\n      jump\t// out\n        /* \"contracts/LabCycle/StringExample.sol\":259:366  function retrieveValues()public view returns(string memory, string memory){... */\n    tag_38:\n        /* \"contracts/LabCycle/StringExample.sol\":304:317  string memory */\n      0x60\n        /* \"contracts/LabCycle/StringExample.sol\":319:332  string memory */\n      dup1\n        /* \"contracts/LabCycle/StringExample.sol\":352:354  s1 */\n      0x00\n        /* \"contracts/LabCycle/StringExample.sol\":355:357  s2 */\n      0x01\n        /* \"contracts/LabCycle/StringExample.sol\":344:358  return (s1,s2) */\n      dup2\n      dup1\n      sload\n      tag_70\n      swap1\n      tag_46\n      jump\t// in\n    tag_70:\n      dup1\n      0x1f\n      add\n      0x20\n      dup1\n      swap2\n      div\n      mul\n      0x20\n      add\n      mload(0x40)\n      swap1\n      dup2\n      add\n      0x40\n      mstore\n      dup1\n      swap3\n      swap2\n      swap1\n      dup2\n      dup2\n      mstore\n      0x20\n      add\n      dup3\n      dup1\n      sload\n      tag_71\n      swap1\n      tag_46\n      jump\t// in\n    tag_71:\n      dup1\n      iszero\n      tag_72\n      jumpi\n      dup1\n      0x1f\n      lt\n      tag_73\n      jumpi\n      0x0100\n      dup1\n      dup4\n      sload\n      div\n      mul\n      dup4\n      mstore\n      swap2\n      0x20\n      add\n      swap2\n      jump(tag_72)\n    tag_73:\n      dup3\n      add\n      swap2\n      swap1\n      0x00\n      mstore\n      keccak256(0x00, 0x20)\n      swap1\n    tag_74:\n      dup2\n      sload\n      dup2\n      mstore\n      swap1\n      0x01\n      add\n      swap1\n      0x20\n      add\n      dup1\n      dup4\n      gt\n      tag_74\n      jumpi\n      dup3\n      swap1\n      sub\n      0x1f\n      and\n      dup3\n      add\n      swap2\n    tag_72:\n      pop\n      pop\n      pop\n      pop\n      pop\n      swap2\n      pop\n      dup1\n      dup1\n      sload\n      tag_75\n      swap1\n      tag_46\n      jump\t// in\n    tag_75:\n      dup1\n      0x1f\n      add\n      0x20\n      dup1\n      swap2\n      div\n      mul\n      0x20\n      add\n      mload(0x40)\n      swap1\n      dup2\n      add\n      0x40\n      mstore\n      dup1\n      swap3\n      swap2\n      swap1\n      dup2\n      dup2\n      mstore\n      0x20\n      add\n      dup3\n      dup1\n      sload\n      tag_76\n      swap1\n      tag_46\n      jump\t// in\n    tag_76:\n      dup1\n      iszero\n      tag_77\n      jumpi\n      dup1\n      0x1f\n      lt\n      tag_78\n      jumpi\n      0x0100\n      dup1\n      dup4\n      sload\n      div\n      mul\n      dup4\n      mstore\n      swap2\n      0x20\n      add\n      swap2\n      jump(tag_77)\n    tag_78:\n      dup3\n      add\n      swap2\n      swap1\n      0x00\n      mstore\n      keccak256(0x00, 0x20)\n      swap1\n    tag_79:\n      dup2\n      sload\n      dup2\n      mstore\n      swap1\n      0x01\n      add\n      swap1\n      0x20\n      add\n      dup1\n      dup4\n      gt\n      tag_79\n      jumpi\n      dup3\n      swap1\n      sub\n      0x1f\n      and\n      dup3\n      add\n      swap2\n    tag_77:\n      pop\n      pop\n      pop\n      pop\n      pop\n      swap1\n      pop\n      swap2\n      pop\n      swap2\n      pop\n        /* \"contracts/LabCycle/StringExample.sol\":259:366  function retrieveValues()public view returns(string memory, string memory){... */\n      swap1\n      swap2\n      jump\t// out\n        /* \"#utility.yul\":7:97   */\n    tag_80:\n        /* \"#utility.yul\":41:48   */\n      0x00\n        /* \"#utility.yul\":84:89   */\n      dup2\n        /* \"#utility.yul\":77:90   */\n      iszero\n        /* \"#utility.yul\":70:91   */\n      iszero\n        /* \"#utility.yul\":59:91   */\n      swap1\n      pop\n        /* \"#utility.yul\":7:97   */\n      swap2\n      swap1\n      pop\n      jump\t// out\n        /* \"#utility.yul\":103:212   */\n    tag_81:\n        /* \"#utility.yul\":184:205   */\n      tag_125\n        /* \"#utility.yul\":199:204   */\n      dup2\n        /* \"#utility.yul\":184:205   */\n      tag_80\n      jump\t// in\n    tag_125:\n        /* \"#utility.yul\":179:182   */\n      dup3\n        /* \"#utility.yul\":172:206   */\n      mstore\n        /* \"#utility.yul\":103:212   */\n      pop\n      pop\n      jump\t// out\n        /* \"#utility.yul\":218:428   */\n    tag_15:\n        /* \"#utility.yul\":305:309   */\n      0x00\n        /* \"#utility.yul\":343:345   */\n      0x20\n        /* \"#utility.yul\":332:341   */\n      dup3\n        /* \"#utility.yul\":328:346   */\n      add\n        /* \"#utility.yul\":320:346   */\n      swap1\n      pop\n        /* \"#utility.yul\":356:421   */\n      tag_127\n        /* \"#utility.yul\":418:419   */\n      0x00\n        /* \"#utility.yul\":407:416   */\n      dup4\n        /* \"#utility.yul\":403:420   */\n      add\n        /* \"#utility.yul\":394:400   */\n      dup5\n        /* \"#utility.yul\":356:421   */\n      tag_81\n      jump\t// in\n    tag_127:\n        /* \"#utility.yul\":218:428   */\n      swap3\n      swap2\n      pop\n      pop\n      jump\t// out\n        /* \"#utility.yul\":434:533   */\n    tag_82:\n        /* \"#utility.yul\":486:492   */\n      0x00\n        /* \"#utility.yul\":520:525   */\n      dup2\n        /* \"#utility.yul\":514:526   */\n      mload\n        /* \"#utility.yul\":504:526   */\n      swap1\n      pop\n        /* \"#utility.yul\":434:533   */\n      swap2\n      swap1\n      pop\n      jump\t// out\n        /* \"#utility.yul\":539:708   */\n    tag_83:\n        /* \"#utility.yul\":623:634   */\n      0x00\n        /* \"#utility.yul\":657:663   */\n      dup3\n        /* \"#utility.yul\":652:655   */\n      dup3\n        /* \"#utility.yul\":645:664   */\n      mstore\n        /* \"#utility.yul\":697:701   */\n      0x20\n        /* \"#utility.yul\":692:695   */\n      dup3\n        /* \"#utility.yul\":688:702   */\n      add\n        /* \"#utility.yul\":673:702   */\n      swap1\n      pop\n        /* \"#utility.yul\":539:708   */\n      swap3\n      swap2\n      pop\n      pop\n      jump\t// out\n        /* \"#utility.yul\":714:853   */\n    tag_84:\n        /* \"#utility.yul\":803:809   */\n      dup3\n        /* \"#utility.yul\":798:801   */\n      dup2\n        /* \"#utility.yul\":793:796   */\n      dup4\n        /* \"#utility.yul\":787:810   */\n      mcopy\n        /* \"#utility.yul\":844:845   */\n      0x00\n        /* \"#utility.yul\":835:841   */\n      dup4\n        /* \"#utility.yul\":830:833   */\n      dup4\n        /* \"#utility.yul\":826:842   */\n      add\n        /* \"#utility.yul\":819:846   */\n      mstore\n        /* \"#utility.yul\":714:853   */\n      pop\n      pop\n      pop\n      jump\t// out\n        /* \"#utility.yul\":859:961   */\n    tag_85:\n        /* \"#utility.yul\":900:906   */\n      0x00\n        /* \"#utility.yul\":951:953   */\n      0x1f\n        /* \"#utility.yul\":947:954   */\n      not\n        /* \"#utility.yul\":942:944   */\n      0x1f\n        /* \"#utility.yul\":935:940   */\n      dup4\n        /* \"#utility.yul\":931:945   */\n      add\n        /* \"#utility.yul\":927:955   */\n      and\n        /* \"#utility.yul\":917:955   */\n      swap1\n      pop\n        /* \"#utility.yul\":859:961   */\n      swap2\n      swap1\n      pop\n      jump\t// out\n        /* \"#utility.yul\":967:1344   */\n    tag_86:\n        /* \"#utility.yul\":1055:1058   */\n      0x00\n        /* \"#utility.yul\":1083:1122   */\n      tag_133\n        /* \"#utility.yul\":1116:1121   */\n      dup3\n        /* \"#utility.yul\":1083:1122   */\n      tag_82\n      jump\t// in\n    tag_133:\n        /* \"#utility.yul\":1138:1209   */\n      tag_134\n        /* \"#utility.yul\":1202:1208   */\n      dup2\n        /* \"#utility.yul\":1197:1200   */\n      dup6\n        /* \"#utility.yul\":1138:1209   */\n      tag_83\n      jump\t// in\n    tag_134:\n        /* \"#utility.yul\":1131:1209   */\n      swap4\n      pop\n        /* \"#utility.yul\":1218:1283   */\n      tag_135\n        /* \"#utility.yul\":1276:1282   */\n      dup2\n        /* \"#utility.yul\":1271:1274   */\n      dup6\n        /* \"#utility.yul\":1264:1268   */\n      0x20\n        /* \"#utility.yul\":1257:1262   */\n      dup7\n        /* \"#utility.yul\":1253:1269   */\n      add\n        /* \"#utility.yul\":1218:1283   */\n      tag_84\n      jump\t// in\n    tag_135:\n        /* \"#utility.yul\":1308:1337   */\n      tag_136\n        /* \"#utility.yul\":1330:1336   */\n      dup2\n        /* \"#utility.yul\":1308:1337   */\n      tag_85\n      jump\t// in\n    tag_136:\n        /* \"#utility.yul\":1303:1306   */\n      dup5\n        /* \"#utility.yul\":1299:1338   */\n      add\n        /* \"#utility.yul\":1292:1338   */\n      swap2\n      pop\n        /* \"#utility.yul\":1059:1344   */\n      pop\n        /* \"#utility.yul\":967:1344   */\n      swap3\n      swap2\n      pop\n      pop\n      jump\t// out\n        /* \"#utility.yul\":1350:1663   */\n    tag_19:\n        /* \"#utility.yul\":1463:1467   */\n      0x00\n        /* \"#utility.yul\":1501:1503   */\n      0x20\n        /* \"#utility.yul\":1490:1499   */\n      dup3\n        /* \"#utility.yul\":1486:1504   */\n      add\n        /* \"#utility.yul\":1478:1504   */\n      swap1\n      pop\n        /* \"#utility.yul\":1550:1559   */\n      dup2\n        /* \"#utility.yul\":1544:1548   */\n      dup2\n        /* \"#utility.yul\":1540:1560   */\n      sub\n        /* \"#utility.yul\":1536:1537   */\n      0x00\n        /* \"#utility.yul\":1525:1534   */\n      dup4\n        /* \"#utility.yul\":1521:1538   */\n      add\n        /* \"#utility.yul\":1514:1561   */\n      mstore\n        /* \"#utility.yul\":1578:1656   */\n      tag_138\n        /* \"#utility.yul\":1651:1655   */\n      dup2\n        /* \"#utility.yul\":1642:1648   */\n      dup5\n        /* \"#utility.yul\":1578:1656   */\n      tag_86\n      jump\t// in\n    tag_138:\n        /* \"#utility.yul\":1570:1656   */\n      swap1\n      pop\n        /* \"#utility.yul\":1350:1663   */\n      swap3\n      swap2\n      pop\n      pop\n      jump\t// out\n        /* \"#utility.yul\":1669:1744   */\n    tag_87:\n        /* \"#utility.yul\":1702:1708   */\n      0x00\n        /* \"#utility.yul\":1735:1737   */\n      0x40\n        /* \"#utility.yul\":1729:1738   */\n      mload\n        /* \"#utility.yul\":1719:1738   */\n      swap1\n      pop\n        /* \"#utility.yul\":1669:1744   */\n      swap1\n      jump\t// out\n        /* \"#utility.yul\":1750:1867   */\n    tag_88:\n        /* \"#utility.yul\":1859:1860   */\n      0x00\n        /* \"#utility.yul\":1856:1857   */\n      0x00\n        /* \"#utility.yul\":1849:1861   */\n      revert\n        /* \"#utility.yul\":1873:1990   */\n    tag_89:\n        /* \"#utility.yul\":1982:1983   */\n      0x00\n        /* \"#utility.yul\":1979:1980   */\n      0x00\n        /* \"#utility.yul\":1972:1984   */\n      revert\n        /* \"#utility.yul\":1996:2113   */\n    tag_90:\n        /* \"#utility.yul\":2105:2106   */\n      0x00\n        /* \"#utility.yul\":2102:2103   */\n      0x00\n        /* \"#utility.yul\":2095:2107   */\n      revert\n        /* \"#utility.yul\":2119:2236   */\n    tag_91:\n        /* \"#utility.yul\":2228:2229   */\n      0x00\n        /* \"#utility.yul\":2225:2226   */\n      0x00\n        /* \"#utility.yul\":2218:2230   */\n      revert\n        /* \"#utility.yul\":2242:2422   */\n    tag_92:\n        /* \"#utility.yul\":2290:2367   */\n      0x4e487b7100000000000000000000000000000000000000000000000000000000\n        /* \"#utility.yul\":2287:2288   */\n      0x00\n        /* \"#utility.yul\":2280:2368   */\n      mstore\n        /* \"#utility.yul\":2387:2391   */\n      0x41\n        /* \"#utility.yul\":2384:2385   */\n      0x04\n        /* \"#utility.yul\":2377:2392   */\n      mstore\n        /* \"#utility.yul\":2411:2415   */\n      0x24\n        /* \"#utility.yul\":2408:2409   */\n      0x00\n        /* \"#utility.yul\":2401:2416   */\n      revert\n        /* \"#utility.yul\":2428:2709   */\n    tag_93:\n        /* \"#utility.yul\":2511:2538   */\n      tag_146\n        /* \"#utility.yul\":2533:2537   */\n      dup3\n        /* \"#utility.yul\":2511:2538   */\n      tag_85\n      jump\t// in\n    tag_146:\n        /* \"#utility.yul\":2503:2509   */\n      dup2\n        /* \"#utility.yul\":2499:2539   */\n      add\n        /* \"#utility.yul\":2641:2647   */\n      dup2\n        /* \"#utility.yul\":2629:2639   */\n      dup2\n        /* \"#utility.yul\":2626:2648   */\n      lt\n        /* \"#utility.yul\":2605:2623   */\n      0xffffffffffffffff\n        /* \"#utility.yul\":2593:2603   */\n      dup3\n        /* \"#utility.yul\":2590:2624   */\n      gt\n        /* \"#utility.yul\":2587:2649   */\n      or\n        /* \"#utility.yul\":2584:2672   */\n      iszero\n      tag_147\n      jumpi\n        /* \"#utility.yul\":2652:2670   */\n      tag_148\n      tag_92\n      jump\t// in\n    tag_148:\n        /* \"#utility.yul\":2584:2672   */\n    tag_147:\n        /* \"#utility.yul\":2692:2702   */\n      dup1\n        /* \"#utility.yul\":2688:2690   */\n      0x40\n        /* \"#utility.yul\":2681:2703   */\n      mstore\n        /* \"#utility.yul\":2471:2709   */\n      pop\n        /* \"#utility.yul\":2428:2709   */\n      pop\n      pop\n      jump\t// out\n        /* \"#utility.yul\":2715:2844   */\n    tag_94:\n        /* \"#utility.yul\":2749:2755   */\n      0x00\n        /* \"#utility.yul\":2776:2796   */\n      tag_150\n      tag_87\n      jump\t// in\n    tag_150:\n        /* \"#utility.yul\":2766:2796   */\n      swap1\n      pop\n        /* \"#utility.yul\":2805:2838   */\n      tag_151\n        /* \"#utility.yul\":2833:2837   */\n      dup3\n        /* \"#utility.yul\":2825:2831   */\n      dup3\n        /* \"#utility.yul\":2805:2838   */\n      tag_93\n      jump\t// in\n    tag_151:\n        /* \"#utility.yul\":2715:2844   */\n      swap2\n      swap1\n      pop\n      jump\t// out\n        /* \"#utility.yul\":2850:3158   */\n    tag_95:\n        /* \"#utility.yul\":2912:2916   */\n      0x00\n        /* \"#utility.yul\":3002:3020   */\n      0xffffffffffffffff\n        /* \"#utility.yul\":2994:3000   */\n      dup3\n        /* \"#utility.yul\":2991:3021   */\n      gt\n        /* \"#utility.yul\":2988:3044   */\n      iszero\n      tag_153\n      jumpi\n        /* \"#utility.yul\":3024:3042   */\n      tag_154\n      tag_92\n      jump\t// in\n    tag_154:\n        /* \"#utility.yul\":2988:3044   */\n    tag_153:\n        /* \"#utility.yul\":3062:3091   */\n      tag_155\n        /* \"#utility.yul\":3084:3090   */\n      dup3\n        /* \"#utility.yul\":3062:3091   */\n      tag_85\n      jump\t// in\n    tag_155:\n        /* \"#utility.yul\":3054:3091   */\n      swap1\n      pop\n        /* \"#utility.yul\":3146:3150   */\n      0x20\n        /* \"#utility.yul\":3140:3144   */\n      dup2\n        /* \"#utility.yul\":3136:3151   */\n      add\n        /* \"#utility.yul\":3128:3151   */\n      swap1\n      pop\n        /* \"#utility.yul\":2850:3158   */\n      swap2\n      swap1\n      pop\n      jump\t// out\n        /* \"#utility.yul\":3164:3312   */\n    tag_96:\n        /* \"#utility.yul\":3262:3268   */\n      dup3\n        /* \"#utility.yul\":3257:3260   */\n      dup2\n        /* \"#utility.yul\":3252:3255   */\n      dup4\n        /* \"#utility.yul\":3239:3269   */\n      calldatacopy\n        /* \"#utility.yul\":3303:3304   */\n      0x00\n        /* \"#utility.yul\":3294:3300   */\n      dup4\n        /* \"#utility.yul\":3289:3292   */\n      dup4\n        /* \"#utility.yul\":3285:3301   */\n      add\n        /* \"#utility.yul\":3278:3305   */\n      mstore\n        /* \"#utility.yul\":3164:3312   */\n      pop\n      pop\n      pop\n      jump\t// out\n        /* \"#utility.yul\":3318:3743   */\n    tag_97:\n        /* \"#utility.yul\":3396:3401   */\n      0x00\n        /* \"#utility.yul\":3421:3487   */\n      tag_158\n        /* \"#utility.yul\":3437:3486   */\n      tag_159\n        /* \"#utility.yul\":3479:3485   */\n      dup5\n        /* \"#utility.yul\":3437:3486   */\n      tag_95\n      jump\t// in\n    tag_159:\n        /* \"#utility.yul\":3421:3487   */\n      tag_94\n      jump\t// in\n    tag_158:\n        /* \"#utility.yul\":3412:3487   */\n      swap1\n      pop\n        /* \"#utility.yul\":3510:3516   */\n      dup3\n        /* \"#utility.yul\":3503:3508   */\n      dup2\n        /* \"#utility.yul\":3496:3517   */\n      mstore\n        /* \"#utility.yul\":3548:3552   */\n      0x20\n        /* \"#utility.yul\":3541:3546   */\n      dup2\n        /* \"#utility.yul\":3537:3553   */\n      add\n        /* \"#utility.yul\":3586:3589   */\n      dup5\n        /* \"#utility.yul\":3577:3583   */\n      dup5\n        /* \"#utility.yul\":3572:3575   */\n      dup5\n        /* \"#utility.yul\":3568:3584   */\n      add\n        /* \"#utility.yul\":3565:3590   */\n      gt\n        /* \"#utility.yul\":3562:3674   */\n      iszero\n      tag_160\n      jumpi\n        /* \"#utility.yul\":3593:3672   */\n      tag_161\n      tag_91\n      jump\t// in\n    tag_161:\n        /* \"#utility.yul\":3562:3674   */\n    tag_160:\n        /* \"#utility.yul\":3683:3737   */\n      tag_162\n        /* \"#utility.yul\":3730:3736   */\n      dup5\n        /* \"#utility.yul\":3725:3728   */\n      dup3\n        /* \"#utility.yul\":3720:3723   */\n      dup6\n        /* \"#utility.yul\":3683:3737   */\n      tag_96\n      jump\t// in\n    tag_162:\n        /* \"#utility.yul\":3402:3743   */\n      pop\n        /* \"#utility.yul\":3318:3743   */\n      swap4\n      swap3\n      pop\n      pop\n      pop\n      jump\t// out\n        /* \"#utility.yul\":3763:4103   */\n    tag_98:\n        /* \"#utility.yul\":3819:3824   */\n      0x00\n        /* \"#utility.yul\":3868:3871   */\n      dup3\n        /* \"#utility.yul\":3861:3865   */\n      0x1f\n        /* \"#utility.yul\":3853:3859   */\n      dup4\n        /* \"#utility.yul\":3849:3866   */\n      add\n        /* \"#utility.yul\":3845:3872   */\n      slt\n        /* \"#utility.yul\":3835:3957   */\n      tag_164\n      jumpi\n        /* \"#utility.yul\":3876:3955   */\n      tag_165\n      tag_90\n      jump\t// in\n    tag_165:\n        /* \"#utility.yul\":3835:3957   */\n    tag_164:\n        /* \"#utility.yul\":3993:3999   */\n      dup2\n        /* \"#utility.yul\":3980:4000   */\n      calldataload\n        /* \"#utility.yul\":4018:4097   */\n      tag_166\n        /* \"#utility.yul\":4093:4096   */\n      dup5\n        /* \"#utility.yul\":4085:4091   */\n      dup3\n        /* \"#utility.yul\":4078:4082   */\n      0x20\n        /* \"#utility.yul\":4070:4076   */\n      dup7\n        /* \"#utility.yul\":4066:4083   */\n      add\n        /* \"#utility.yul\":4018:4097   */\n      tag_97\n      jump\t// in\n    tag_166:\n        /* \"#utility.yul\":4009:4097   */\n      swap2\n      pop\n        /* \"#utility.yul\":3825:4103   */\n      pop\n        /* \"#utility.yul\":3763:4103   */\n      swap3\n      swap2\n      pop\n      pop\n      jump\t// out\n        /* \"#utility.yul\":4109:4943   */\n    tag_25:\n        /* \"#utility.yul\":4197:4203   */\n      0x00\n        /* \"#utility.yul\":4205:4211   */\n      0x00\n        /* \"#utility.yul\":4254:4256   */\n      0x40\n        /* \"#utility.yul\":4242:4251   */\n      dup4\n        /* \"#utility.yul\":4233:4240   */\n      dup6\n        /* \"#utility.yul\":4229:4252   */\n      sub\n        /* \"#utility.yul\":4225:4257   */\n      slt\n        /* \"#utility.yul\":4222:4341   */\n      iszero\n      tag_168\n      jumpi\n        /* \"#utility.yul\":4260:4339   */\n      tag_169\n      tag_88\n      jump\t// in\n    tag_169:\n        /* \"#utility.yul\":4222:4341   */\n    tag_168:\n        /* \"#utility.yul\":4408:4409   */\n      0x00\n        /* \"#utility.yul\":4397:4406   */\n      dup4\n        /* \"#utility.yul\":4393:4410   */\n      add\n        /* \"#utility.yul\":4380:4411   */\n      calldataload\n        /* \"#utility.yul\":4438:4456   */\n      0xffffffffffffffff\n        /* \"#utility.yul\":4430:4436   */\n      dup2\n        /* \"#utility.yul\":4427:4457   */\n      gt\n        /* \"#utility.yul\":4424:4541   */\n      iszero\n      tag_170\n      jumpi\n        /* \"#utility.yul\":4460:4539   */\n      tag_171\n      tag_89\n      jump\t// in\n    tag_171:\n        /* \"#utility.yul\":4424:4541   */\n    tag_170:\n        /* \"#utility.yul\":4565:4628   */\n      tag_172\n        /* \"#utility.yul\":4620:4627   */\n      dup6\n        /* \"#utility.yul\":4611:4617   */\n      dup3\n        /* \"#utility.yul\":4600:4609   */\n      dup7\n        /* \"#utility.yul\":4596:4618   */\n      add\n        /* \"#utility.yul\":4565:4628   */\n      tag_98\n      jump\t// in\n    tag_172:\n        /* \"#utility.yul\":4555:4628   */\n      swap3\n      pop\n        /* \"#utility.yul\":4351:4638   */\n      pop\n        /* \"#utility.yul\":4705:4707   */\n      0x20\n        /* \"#utility.yul\":4694:4703   */\n      dup4\n        /* \"#utility.yul\":4690:4708   */\n      add\n        /* \"#utility.yul\":4677:4709   */\n      calldataload\n        /* \"#utility.yul\":4736:4754   */\n      0xffffffffffffffff\n        /* \"#utility.yul\":4728:4734   */\n      dup2\n        /* \"#utility.yul\":4725:4755   */\n      gt\n        /* \"#utility.yul\":4722:4839   */\n      iszero\n      tag_173\n      jumpi\n        /* \"#utility.yul\":4758:4837   */\n      tag_174\n      tag_89\n      jump\t// in\n    tag_174:\n        /* \"#utility.yul\":4722:4839   */\n    tag_173:\n        /* \"#utility.yul\":4863:4926   */\n      tag_175\n        /* \"#utility.yul\":4918:4925   */\n      dup6\n        /* \"#utility.yul\":4909:4915   */\n      dup3\n        /* \"#utility.yul\":4898:4907   */\n      dup7\n        /* \"#utility.yul\":4894:4916   */\n      add\n        /* \"#utility.yul\":4863:4926   */\n      tag_98\n      jump\t// in\n    tag_175:\n        /* \"#utility.yul\":4853:4926   */\n      swap2\n      pop\n        /* \"#utility.yul\":4648:4936   */\n      pop\n        /* \"#utility.yul\":4109:4943   */\n      swap3\n      pop\n      swap3\n      swap1\n      pop\n      jump\t// out\n        /* \"#utility.yul\":4949:5026   */\n    tag_99:\n        /* \"#utility.yul\":4986:4993   */\n      0x00\n        /* \"#utility.yul\":5015:5020   */\n      dup2\n        /* \"#utility.yul\":5004:5020   */\n      swap1\n      pop\n        /* \"#utility.yul\":4949:5026   */\n      swap2\n      swap1\n      pop\n      jump\t// out\n        /* \"#utility.yul\":5032:5150   */\n    tag_100:\n        /* \"#utility.yul\":5119:5143   */\n      tag_178\n        /* \"#utility.yul\":5137:5142   */\n      dup2\n        /* \"#utility.yul\":5119:5143   */\n      tag_99\n      jump\t// in\n    tag_178:\n        /* \"#utility.yul\":5114:5117   */\n      dup3\n        /* \"#utility.yul\":5107:5144   */\n      mstore\n        /* \"#utility.yul\":5032:5150   */\n      pop\n      pop\n      jump\t// out\n        /* \"#utility.yul\":5156:5488   */\n    tag_33:\n        /* \"#utility.yul\":5277:5281   */\n      0x00\n        /* \"#utility.yul\":5315:5317   */\n      0x40\n        /* \"#utility.yul\":5304:5313   */\n      dup3\n        /* \"#utility.yul\":5300:5318   */\n      add\n        /* \"#utility.yul\":5292:5318   */\n      swap1\n      pop\n        /* \"#utility.yul\":5328:5399   */\n      tag_180\n        /* \"#utility.yul\":5396:5397   */\n      0x00\n        /* \"#utility.yul\":5385:5394   */\n      dup4\n        /* \"#utility.yul\":5381:5398   */\n      add\n        /* \"#utility.yul\":5372:5378   */\n      dup6\n        /* \"#utility.yul\":5328:5399   */\n      tag_100\n      jump\t// in\n    tag_180:\n        /* \"#utility.yul\":5409:5481   */\n      tag_181\n        /* \"#utility.yul\":5477:5479   */\n      0x20\n        /* \"#utility.yul\":5466:5475   */\n      dup4\n        /* \"#utility.yul\":5462:5480   */\n      add\n        /* \"#utility.yul\":5453:5459   */\n      dup5\n        /* \"#utility.yul\":5409:5481   */\n      tag_100\n      jump\t// in\n    tag_181:\n        /* \"#utility.yul\":5156:5488   */\n      swap4\n      swap3\n      pop\n      pop\n      pop\n      jump\t// out\n        /* \"#utility.yul\":5494:6008   */\n    tag_40:\n        /* \"#utility.yul\":5655:5659   */\n      0x00\n        /* \"#utility.yul\":5693:5695   */\n      0x40\n        /* \"#utility.yul\":5682:5691   */\n      dup3\n        /* \"#utility.yul\":5678:5696   */\n      add\n        /* \"#utility.yul\":5670:5696   */\n      swap1\n      pop\n        /* \"#utility.yul\":5742:5751   */\n      dup2\n        /* \"#utility.yul\":5736:5740   */\n      dup2\n        /* \"#utility.yul\":5732:5752   */\n      sub\n        /* \"#utility.yul\":5728:5729   */\n      0x00\n        /* \"#utility.yul\":5717:5726   */\n      dup4\n        /* \"#utility.yul\":5713:5730   */\n      add\n        /* \"#utility.yul\":5706:5753   */\n      mstore\n        /* \"#utility.yul\":5770:5848   */\n      tag_183\n        /* \"#utility.yul\":5843:5847   */\n      dup2\n        /* \"#utility.yul\":5834:5840   */\n      dup6\n        /* \"#utility.yul\":5770:5848   */\n      tag_86\n      jump\t// in\n    tag_183:\n        /* \"#utility.yul\":5762:5848   */\n      swap1\n      pop\n        /* \"#utility.yul\":5895:5904   */\n      dup2\n        /* \"#utility.yul\":5889:5893   */\n      dup2\n        /* \"#utility.yul\":5885:5905   */\n      sub\n        /* \"#utility.yul\":5880:5882   */\n      0x20\n        /* \"#utility.yul\":5869:5878   */\n      dup4\n        /* \"#utility.yul\":5865:5883   */\n      add\n        /* \"#utility.yul\":5858:5906   */\n      mstore\n        /* \"#utility.yul\":5923:6001   */\n      tag_184\n        /* \"#utility.yul\":5996:6000   */\n      dup2\n        /* \"#utility.yul\":5987:5993   */\n      dup5\n        /* \"#utility.yul\":5923:6001   */\n      tag_86\n      jump\t// in\n    tag_184:\n        /* \"#utility.yul\":5915:6001   */\n      swap1\n      pop\n        /* \"#utility.yul\":5494:6008   */\n      swap4\n      swap3\n      pop\n      pop\n      pop\n      jump\t// out\n        /* \"#utility.yul\":6014:6194   */\n    tag_101:\n        /* \"#utility.yul\":6062:6139   */\n      0x4e487b7100000000000000000000000000000000000000000000000000000000\n        /* \"#utility.yul\":6059:6060   */\n      0x00\n        /* \"#utility.yul\":6052:6140   */\n      mstore\n        /* \"#utility.yul\":6159:6163   */\n      0x22\n        /* \"#utility.yul\":6156:6157   */\n      0x04\n        /* \"#utility.yul\":6149:6164   */\n      mstore\n        /* \"#utility.yul\":6183:6187   */\n      0x24\n        /* \"#utility.yul\":6180:6181   */\n      0x00\n        /* \"#utility.yul\":6173:6188   */\n      revert\n        /* \"#utility.yul\":6200:6520   */\n    tag_46:\n        /* \"#utility.yul\":6244:6250   */\n      0x00\n        /* \"#utility.yul\":6281:6282   */\n      0x02\n        /* \"#utility.yul\":6275:6279   */\n      dup3\n        /* \"#utility.yul\":6271:6283   */\n      div\n        /* \"#utility.yul\":6261:6283   */\n      swap1\n      pop\n        /* \"#utility.yul\":6328:6329   */\n      0x01\n        /* \"#utility.yul\":6322:6326   */\n      dup3\n        /* \"#utility.yul\":6318:6330   */\n      and\n        /* \"#utility.yul\":6349:6367   */\n      dup1\n        /* \"#utility.yul\":6339:6420   */\n      tag_187\n      jumpi\n        /* \"#utility.yul\":6405:6409   */\n      0x7f\n        /* \"#utility.yul\":6397:6403   */\n      dup3\n        /* \"#utility.yul\":6393:6410   */\n      and\n        /* \"#utility.yul\":6383:6410   */\n      swap2\n      pop\n        /* \"#utility.yul\":6339:6420   */\n    tag_187:\n        /* \"#utility.yul\":6467:6469   */\n      0x20\n        /* \"#utility.yul\":6459:6465   */\n      dup3\n        /* \"#utility.yul\":6456:6470   */\n      lt\n        /* \"#utility.yul\":6436:6454   */\n      dup2\n        /* \"#utility.yul\":6433:6471   */\n      sub\n        /* \"#utility.yul\":6430:6514   */\n      tag_188\n      jumpi\n        /* \"#utility.yul\":6486:6504   */\n      tag_189\n      tag_101\n      jump\t// in\n    tag_189:\n        /* \"#utility.yul\":6430:6514   */\n    tag_188:\n        /* \"#utility.yul\":6251:6520   */\n      pop\n        /* \"#utility.yul\":6200:6520   */\n      swap2\n      swap1\n      pop\n      jump\t// out\n        /* \"#utility.yul\":6526:6674   */\n    tag_102:\n        /* \"#utility.yul\":6628:6639   */\n      0x00\n        /* \"#utility.yul\":6665:6668   */\n      dup2\n        /* \"#utility.yul\":6650:6668   */\n      swap1\n      pop\n        /* \"#utility.yul\":6526:6674   */\n      swap3\n      swap2\n      pop\n      pop\n      jump\t// out\n        /* \"#utility.yul\":6680:6821   */\n    tag_103:\n        /* \"#utility.yul\":6729:6733   */\n      0x00\n        /* \"#utility.yul\":6752:6755   */\n      dup2\n        /* \"#utility.yul\":6744:6755   */\n      swap1\n      pop\n        /* \"#utility.yul\":6775:6778   */\n      dup2\n        /* \"#utility.yul\":6772:6773   */\n      0x00\n        /* \"#utility.yul\":6765:6779   */\n      mstore\n        /* \"#utility.yul\":6809:6813   */\n      0x20\n        /* \"#utility.yul\":6806:6807   */\n      0x00\n        /* \"#utility.yul\":6796:6814   */\n      keccak256\n        /* \"#utility.yul\":6788:6814   */\n      swap1\n      pop\n        /* \"#utility.yul\":6680:6821   */\n      swap2\n      swap1\n      pop\n      jump\t// out\n        /* \"#utility.yul\":6851:7725   */\n    tag_104:\n        /* \"#utility.yul\":6954:6957   */\n      0x00\n        /* \"#utility.yul\":6991:6996   */\n      dup2\n        /* \"#utility.yul\":6985:6997   */\n      sload\n        /* \"#utility.yul\":7020:7056   */\n      tag_193\n        /* \"#utility.yul\":7046:7055   */\n      dup2\n        /* \"#utility.yul\":7020:7056   */\n      tag_46\n      jump\t// in\n    tag_193:\n        /* \"#utility.yul\":7072:7161   */\n      tag_194\n        /* \"#utility.yul\":7154:7160   */\n      dup2\n        /* \"#utility.yul\":7149:7152   */\n      dup7\n        /* \"#utility.yul\":7072:7161   */\n      tag_102\n      jump\t// in\n    tag_194:\n        /* \"#utility.yul\":7065:7161   */\n      swap5\n      pop\n        /* \"#utility.yul\":7192:7193   */\n      0x01\n        /* \"#utility.yul\":7181:7190   */\n      dup3\n        /* \"#utility.yul\":7177:7194   */\n      and\n        /* \"#utility.yul\":7208:7209   */\n      0x00\n        /* \"#utility.yul\":7203:7369   */\n      dup2\n      eq\n      tag_196\n      jumpi\n        /* \"#utility.yul\":7383:7384   */\n      0x01\n        /* \"#utility.yul\":7378:7719   */\n      dup2\n      eq\n      tag_197\n      jumpi\n        /* \"#utility.yul\":7170:7719   */\n      jump(tag_195)\n        /* \"#utility.yul\":7203:7369   */\n    tag_196:\n        /* \"#utility.yul\":7287:7291   */\n      0xff\n        /* \"#utility.yul\":7283:7292   */\n      not\n        /* \"#utility.yul\":7272:7281   */\n      dup4\n        /* \"#utility.yul\":7268:7293   */\n      and\n        /* \"#utility.yul\":7263:7266   */\n      dup7\n        /* \"#utility.yul\":7256:7294   */\n      mstore\n        /* \"#utility.yul\":7349:7355   */\n      dup2\n        /* \"#utility.yul\":7342:7356   */\n      iszero\n        /* \"#utility.yul\":7335:7357   */\n      iszero\n        /* \"#utility.yul\":7327:7333   */\n      dup3\n        /* \"#utility.yul\":7323:7358   */\n      mul\n        /* \"#utility.yul\":7318:7321   */\n      dup7\n        /* \"#utility.yul\":7314:7359   */\n      add\n        /* \"#utility.yul\":7307:7359   */\n      swap4\n      pop\n        /* \"#utility.yul\":7203:7369   */\n      jump(tag_195)\n        /* \"#utility.yul\":7378:7719   */\n    tag_197:\n        /* \"#utility.yul\":7445:7483   */\n      tag_198\n        /* \"#utility.yul\":7477:7482   */\n      dup6\n        /* \"#utility.yul\":7445:7483   */\n      tag_103\n      jump\t// in\n    tag_198:\n        /* \"#utility.yul\":7505:7506   */\n      0x00\n        /* \"#utility.yul\":7519:7673   */\n    tag_199:\n        /* \"#utility.yul\":7533:7539   */\n      dup4\n        /* \"#utility.yul\":7530:7531   */\n      dup2\n        /* \"#utility.yul\":7527:7540   */\n      lt\n        /* \"#utility.yul\":7519:7673   */\n      iszero\n      tag_201\n      jumpi\n        /* \"#utility.yul\":7607:7614   */\n      dup2\n        /* \"#utility.yul\":7601:7615   */\n      sload\n        /* \"#utility.yul\":7597:7598   */\n      dup2\n        /* \"#utility.yul\":7592:7595   */\n      dup10\n        /* \"#utility.yul\":7588:7599   */\n      add\n        /* \"#utility.yul\":7581:7616   */\n      mstore\n        /* \"#utility.yul\":7657:7658   */\n      0x01\n        /* \"#utility.yul\":7648:7655   */\n      dup3\n        /* \"#utility.yul\":7644:7659   */\n      add\n        /* \"#utility.yul\":7633:7659   */\n      swap2\n      pop\n        /* \"#utility.yul\":7555:7559   */\n      0x20\n        /* \"#utility.yul\":7552:7553   */\n      dup2\n        /* \"#utility.yul\":7548:7560   */\n      add\n        /* \"#utility.yul\":7543:7560   */\n      swap1\n      pop\n        /* \"#utility.yul\":7519:7673   */\n      jump(tag_199)\n    tag_201:\n        /* \"#utility.yul\":7702:7708   */\n      dup4\n        /* \"#utility.yul\":7697:7700   */\n      dup9\n        /* \"#utility.yul\":7693:7709   */\n      add\n        /* \"#utility.yul\":7686:7709   */\n      swap6\n      pop\n        /* \"#utility.yul\":7385:7719   */\n      pop\n      pop\n        /* \"#utility.yul\":7170:7719   */\n    tag_195:\n      pop\n        /* \"#utility.yul\":6958:7725   */\n      pop\n      pop\n        /* \"#utility.yul\":6851:7725   */\n      swap3\n      swap2\n      pop\n      pop\n      jump\t// out\n        /* \"#utility.yul\":7731:8000   */\n    tag_43:\n        /* \"#utility.yul\":7860:7863   */\n      0x00\n        /* \"#utility.yul\":7882:7974   */\n      tag_203\n        /* \"#utility.yul\":7970:7973   */\n      dup3\n        /* \"#utility.yul\":7961:7967   */\n      dup5\n        /* \"#utility.yul\":7882:7974   */\n      tag_104\n      jump\t// in\n    tag_203:\n        /* \"#utility.yul\":7875:7974   */\n      swap2\n      pop\n        /* \"#utility.yul\":7991:7994   */\n      dup2\n        /* \"#utility.yul\":7984:7994   */\n      swap1\n      pop\n        /* \"#utility.yul\":7731:8000   */\n      swap3\n      swap2\n      pop\n      pop\n      jump\t// out\n        /* \"#utility.yul\":8006:8188   */\n    tag_105:\n        /* \"#utility.yul\":8174:8181   */\n      0x20616e6420000000000000000000000000000000000000000000000000000000\n        /* \"#utility.yul\":8169:8172   */\n      dup2\n        /* \"#utility.yul\":8162:8182   */\n      mstore\n        /* \"#utility.yul\":8006:8188   */\n      pop\n      jump\t// out\n        /* \"#utility.yul\":8194:8881   */\n    tag_53:\n        /* \"#utility.yul\":8458:8461   */\n      0x00\n        /* \"#utility.yul\":8480:8572   */\n      tag_206\n        /* \"#utility.yul\":8568:8571   */\n      dup3\n        /* \"#utility.yul\":8559:8565   */\n      dup6\n        /* \"#utility.yul\":8480:8572   */\n      tag_104\n      jump\t// in\n    tag_206:\n        /* \"#utility.yul\":8473:8572   */\n      swap2\n      pop\n        /* \"#utility.yul\":8582:8719   */\n      tag_207\n        /* \"#utility.yul\":8715:8718   */\n      dup3\n        /* \"#utility.yul\":8582:8719   */\n      tag_105\n      jump\t// in\n    tag_207:\n        /* \"#utility.yul\":8744:8745   */\n      0x05\n        /* \"#utility.yul\":8739:8742   */\n      dup3\n        /* \"#utility.yul\":8735:8746   */\n      add\n        /* \"#utility.yul\":8728:8746   */\n      swap2\n      pop\n        /* \"#utility.yul\":8763:8855   */\n      tag_208\n        /* \"#utility.yul\":8851:8854   */\n      dup3\n        /* \"#utility.yul\":8842:8848   */\n      dup5\n        /* \"#utility.yul\":8763:8855   */\n      tag_104\n      jump\t// in\n    tag_208:\n        /* \"#utility.yul\":8756:8855   */\n      swap2\n      pop\n        /* \"#utility.yul\":8872:8875   */\n      dup2\n        /* \"#utility.yul\":8865:8875   */\n      swap1\n      pop\n        /* \"#utility.yul\":8194:8881   */\n      swap4\n      swap3\n      pop\n      pop\n      pop\n      jump\t// out\n        /* \"#utility.yul\":8887:8980   */\n    tag_106:\n        /* \"#utility.yul\":8924:8930   */\n      0x00\n        /* \"#utility.yul\":8971:8973   */\n      0x20\n        /* \"#utility.yul\":8966:8968   */\n      0x1f\n        /* \"#utility.yul\":8959:8964   */\n      dup4\n        /* \"#utility.yul\":8955:8969   */\n      add\n        /* \"#utility.yul\":8951:8974   */\n      div\n        /* \"#utility.yul\":8941:8974   */\n      swap1\n      pop\n        /* \"#utility.yul\":8887:8980   */\n      swap2\n      swap1\n      pop\n      jump\t// out\n        /* \"#utility.yul\":8986:9093   */\n    tag_107:\n        /* \"#utility.yul\":9030:9038   */\n      0x00\n        /* \"#utility.yul\":9080:9085   */\n      dup3\n        /* \"#utility.yul\":9074:9078   */\n      dup3\n        /* \"#utility.yul\":9070:9086   */\n      shl\n        /* \"#utility.yul\":9049:9086   */\n      swap1\n      pop\n        /* \"#utility.yul\":8986:9093   */\n      swap3\n      swap2\n      pop\n      pop\n      jump\t// out\n        /* \"#utility.yul\":9099:9492   */\n    tag_108:\n        /* \"#utility.yul\":9168:9174   */\n      0x00\n        /* \"#utility.yul\":9218:9219   */\n      0x08\n        /* \"#utility.yul\":9206:9216   */\n      dup4\n        /* \"#utility.yul\":9202:9220   */\n      mul\n        /* \"#utility.yul\":9241:9338   */\n      tag_212\n        /* \"#utility.yul\":9271:9337   */\n      0xffffffffffffffffffffffffffffffffffffffffffffffffffffffffffffffff\n        /* \"#utility.yul\":9260:9269   */\n      dup3\n        /* \"#utility.yul\":9241:9338   */\n      tag_107\n      jump\t// in\n    tag_212:\n        /* \"#utility.yul\":9359:9398   */\n      tag_213\n        /* \"#utility.yul\":9389:9397   */\n      dup7\n        /* \"#utility.yul\":9378:9387   */\n      dup4\n        /* \"#utility.yul\":9359:9398   */\n      tag_107\n      jump\t// in\n    tag_213:\n        /* \"#utility.yul\":9347:9398   */\n      swap6\n      pop\n        /* \"#utility.yul\":9431:9435   */\n      dup1\n        /* \"#utility.yul\":9427:9436   */\n      not\n        /* \"#utility.yul\":9420:9425   */\n      dup5\n        /* \"#utility.yul\":9416:9437   */\n      and\n        /* \"#utility.yul\":9407:9437   */\n      swap4\n      pop\n        /* \"#utility.yul\":9480:9484   */\n      dup1\n        /* \"#utility.yul\":9470:9478   */\n      dup7\n        /* \"#utility.yul\":9466:9485   */\n      and\n        /* \"#utility.yul\":9459:9464   */\n      dup5\n        /* \"#utility.yul\":9456:9486   */\n      or\n        /* \"#utility.yul\":9446:9486   */\n      swap3\n      pop\n        /* \"#utility.yul\":9175:9492   */\n      pop\n      pop\n        /* \"#utility.yul\":9099:9492   */\n      swap4\n      swap3\n      pop\n      pop\n      pop\n      jump\t// out\n        /* \"#utility.yul\":9498:9558   */\n    tag_109:\n        /* \"#utility.yul\":9526:9529   */\n      0x00\n        /* \"#utility.yul\":9547:9552   */\n      dup2\n        /* \"#utility.yul\":9540:9552   */\n      swap1\n      pop\n        /* \"#utility.yul\":9498:9558   */\n      swap2\n      swap1\n      pop\n      jump\t// out\n        /* \"#utility.yul\":9564:9706   */\n    tag_110:\n        /* \"#utility.yul\":9614:9623   */\n      0x00\n        /* \"#utility.yul\":9647:9700   */\n      tag_216\n        /* \"#utility.yul\":9665:9699   */\n      tag_217\n        /* \"#utility.yul\":9674:9698   */\n      tag_218\n        /* \"#utility.yul\":9692:9697   */\n      dup5\n        /* \"#utility.yul\":9674:9698   */\n      tag_99\n      jump\t// in\n    tag_218:\n        /* \"#utility.yul\":9665:9699   */\n      tag_109\n      jump\t// in\n    tag_217:\n        /* \"#utility.yul\":9647:9700   */\n      tag_99\n      jump\t// in\n    tag_216:\n        /* \"#utility.yul\":9634:9700   */\n      swap1\n      pop\n        /* \"#utility.yul\":9564:9706   */\n      swap2\n      swap1\n      pop\n      jump\t// out\n        /* \"#utility.yul\":9712:9787   */\n    tag_111:\n        /* \"#utility.yul\":9755:9758   */\n      0x00\n        /* \"#utility.yul\":9776:9781   */\n      dup2\n        /* \"#utility.yul\":9769:9781   */\n      swap1\n      pop\n        /* \"#utility.yul\":9712:9787   */\n      swap2\n      swap1\n      pop\n      jump\t// out\n        /* \"#utility.yul\":9793:10062   */\n    tag_112:\n        /* \"#utility.yul\":9903:9942   */\n      tag_221\n        /* \"#utility.yul\":9934:9941   */\n      dup4\n        /* \"#utility.yul\":9903:9942   */\n      tag_110\n      jump\t// in\n    tag_221:\n        /* \"#utility.yul\":9964:10055   */\n      tag_222\n        /* \"#utility.yul\":10013:10054   */\n      tag_223\n        /* \"#utility.yul\":10037:10053   */\n      dup3\n        /* \"#utility.yul\":10013:10054   */\n      tag_111\n      jump\t// in\n    tag_223:\n        /* \"#utility.yul\":10005:10011   */\n      dup5\n        /* \"#utility.yul\":9998:10002   */\n      dup5\n        /* \"#utility.yul\":9992:10003   */\n      sload\n        /* \"#utility.yul\":9964:10055   */\n      tag_108\n      jump\t// in\n    tag_222:\n        /* \"#utility.yul\":9958:9962   */\n      dup3\n        /* \"#utility.yul\":9951:10056   */\n      sstore\n        /* \"#utility.yul\":9869:10062   */\n      pop\n        /* \"#utility.yul\":9793:10062   */\n      pop\n      pop\n      pop\n      jump\t// out\n        /* \"#utility.yul\":10068:10141   */\n    tag_113:\n        /* \"#utility.yul\":10113:10116   */\n      0x00\n        /* \"#utility.yul\":10134:10135   */\n      0x00\n        /* \"#utility.yul\":10127:10135   */\n      swap1\n      pop\n        /* \"#utility.yul\":10068:10141   */\n      swap1\n      jump\t// out\n        /* \"#utility.yul\":10147:10336   */\n    tag_114:\n        /* \"#utility.yul\":10224:10256   */\n      tag_226\n      tag_113\n      jump\t// in\n    tag_226:\n        /* \"#utility.yul\":10265:10330   */\n      tag_227\n        /* \"#utility.yul\":10323:10329   */\n      dup2\n        /* \"#utility.yul\":10315:10321   */\n      dup5\n        /* \"#utility.yul\":10309:10313   */\n      dup5\n        /* \"#utility.yul\":10265:10330   */\n      tag_112\n      jump\t// in\n    tag_227:\n        /* \"#utility.yul\":10200:10336   */\n      pop\n        /* \"#utility.yul\":10147:10336   */\n      pop\n      pop\n      jump\t// out\n        /* \"#utility.yul\":10342:10528   */\n    tag_115:\n        /* \"#utility.yul\":10402:10522   */\n    tag_229:\n        /* \"#utility.yul\":10419:10422   */\n      dup2\n        /* \"#utility.yul\":10412:10417   */\n      dup2\n        /* \"#utility.yul\":10409:10423   */\n      lt\n        /* \"#utility.yul\":10402:10522   */\n      iszero\n      tag_231\n      jumpi\n        /* \"#utility.yul\":10473:10512   */\n      tag_232\n        /* \"#utility.yul\":10510:10511   */\n      0x00\n        /* \"#utility.yul\":10503:10508   */\n      dup3\n        /* \"#utility.yul\":10473:10512   */\n      tag_114\n      jump\t// in\n    tag_232:\n        /* \"#utility.yul\":10446:10447   */\n      0x01\n        /* \"#utility.yul\":10439:10444   */\n      dup2\n        /* \"#utility.yul\":10435:10448   */\n      add\n        /* \"#utility.yul\":10426:10448   */\n      swap1\n      pop\n        /* \"#utility.yul\":10402:10522   */\n      jump(tag_229)\n    tag_231:\n        /* \"#utility.yul\":10342:10528   */\n      pop\n      pop\n      jump\t// out\n        /* \"#utility.yul\":10534:11077   */\n    tag_116:\n        /* \"#utility.yul\":10635:10637   */\n      0x1f\n        /* \"#utility.yul\":10630:10633   */\n      dup3\n        /* \"#utility.yul\":10627:10638   */\n      gt\n        /* \"#utility.yul\":10624:11070   */\n      iszero\n      tag_234\n      jumpi\n        /* \"#utility.yul\":10669:10707   */\n      tag_235\n        /* \"#utility.yul\":10701:10706   */\n      dup2\n        /* \"#utility.yul\":10669:10707   */\n      tag_103\n      jump\t// in\n    tag_235:\n        /* \"#utility.yul\":10753:10782   */\n      tag_236\n        /* \"#utility.yul\":10771:10781   */\n      dup5\n        /* \"#utility.yul\":10753:10782   */\n      tag_106\n      jump\t// in\n    tag_236:\n        /* \"#utility.yul\":10743:10751   */\n      dup2\n        /* \"#utility.yul\":10739:10783   */\n      add\n        /* \"#utility.yul\":10936:10938   */\n      0x20\n        /* \"#utility.yul\":10924:10934   */\n      dup6\n        /* \"#utility.yul\":10921:10939   */\n      lt\n        /* \"#utility.yul\":10918:10967   */\n      iszero\n      tag_237\n      jumpi\n        /* \"#utility.yul\":10957:10965   */\n      dup2\n        /* \"#utility.yul\":10942:10965   */\n      swap1\n      pop\n        /* \"#utility.yul\":10918:10967   */\n    tag_237:\n        /* \"#utility.yul\":10980:11060   */\n      tag_238\n        /* \"#utility.yul\":11036:11058   */\n      tag_239\n        /* \"#utility.yul\":11054:11057   */\n      dup6\n        /* \"#utility.yul\":11036:11058   */\n      tag_106\n      jump\t// in\n    tag_239:\n        /* \"#utility.yul\":11026:11034   */\n      dup4\n        /* \"#utility.yul\":11022:11059   */\n      add\n        /* \"#utility.yul\":11009:11020   */\n      dup3\n        /* \"#utility.yul\":10980:11060   */\n      tag_115\n      jump\t// in\n    tag_238:\n        /* \"#utility.yul\":10639:11070   */\n      pop\n      pop\n        /* \"#utility.yul\":10624:11070   */\n    tag_234:\n        /* \"#utility.yul\":10534:11077   */\n      pop\n      pop\n      pop\n      jump\t// out\n        /* \"#utility.yul\":11083:11200   */\n    tag_117:\n        /* \"#utility.yul\":11137:11145   */\n      0x00\n        /* \"#utility.yul\":11187:11192   */\n      dup3\n        /* \"#utility.yul\":11181:11185   */\n      dup3\n        /* \"#utility.yul\":11177:11193   */\n      shr\n        /* \"#utility.yul\":11156:11193   */\n      swap1\n      pop\n        /* \"#utility.yul\":11083:11200   */\n      swap3\n      swap2\n      pop\n      pop\n      jump\t// out\n        /* \"#utility.yul\":11206:11375   */\n    tag_118:\n        /* \"#utility.yul\":11250:11256   */\n      0x00\n        /* \"#utility.yul\":11283:11334   */\n      tag_242\n        /* \"#utility.yul\":11331:11332   */\n      0x00\n        /* \"#utility.yul\":11327:11333   */\n      not\n        /* \"#utility.yul\":11319:11324   */\n      dup5\n        /* \"#utility.yul\":11316:11317   */\n      0x08\n        /* \"#utility.yul\":11312:11325   */\n      mul\n        /* \"#utility.yul\":11283:11334   */\n      tag_117\n      jump\t// in\n    tag_242:\n        /* \"#utility.yul\":11279:11335   */\n      not\n        /* \"#utility.yul\":11364:11368   */\n      dup1\n        /* \"#utility.yul\":11358:11362   */\n      dup4\n        /* \"#utility.yul\":11354:11369   */\n      and\n        /* \"#utility.yul\":11344:11369   */\n      swap2\n      pop\n        /* \"#utility.yul\":11257:11375   */\n      pop\n        /* \"#utility.yul\":11206:11375   */\n      swap3\n      swap2\n      pop\n      pop\n      jump\t// out\n        /* \"#utility.yul\":11380:11675   */\n    tag_119:\n        /* \"#utility.yul\":11456:11460   */\n      0x00\n        /* \"#utility.yul\":11602:11631   */\n      tag_244\n        /* \"#utility.yul\":11627:11630   */\n      dup4\n        /* \"#utility.yul\":11621:11625   */\n      dup4\n        /* \"#utility.yul\":11602:11631   */\n      tag_118\n      jump\t// in\n    tag_244:\n        /* \"#utility.yul\":11594:11631   */\n      swap2\n      pop\n        /* \"#utility.yul\":11664:11667   */\n      dup3\n        /* \"#utility.yul\":11661:11662   */\n      0x02\n        /* \"#utility.yul\":11657:11668   */\n      mul\n        /* \"#utility.yul\":11651:11655   */\n      dup3\n        /* \"#utility.yul\":11648:11669   */\n      or\n        /* \"#utility.yul\":11640:11669   */\n      swap1\n      pop\n        /* \"#utility.yul\":11380:11675   */\n      swap3\n      swap2\n      pop\n      pop\n      jump\t// out\n        /* \"#utility.yul\":11680:13075   */\n    tag_56:\n        /* \"#utility.yul\":11797:11834   */\n      tag_246\n        /* \"#utility.yul\":11830:11833   */\n      dup3\n        /* \"#utility.yul\":11797:11834   */\n      tag_82\n      jump\t// in\n    tag_246:\n        /* \"#utility.yul\":11899:11917   */\n      0xffffffffffffffff\n        /* \"#utility.yul\":11891:11897   */\n      dup2\n        /* \"#utility.yul\":11888:11918   */\n      gt\n        /* \"#utility.yul\":11885:11941   */\n      iszero\n      tag_247\n      jumpi\n        /* \"#utility.yul\":11921:11939   */\n      tag_248\n      tag_92\n      jump\t// in\n    tag_248:\n        /* \"#utility.yul\":11885:11941   */\n    tag_247:\n        /* \"#utility.yul\":11965:12003   */\n      tag_249\n        /* \"#utility.yul\":11997:12001   */\n      dup3\n        /* \"#utility.yul\":11991:12002   */\n      sload\n        /* \"#utility.yul\":11965:12003   */\n      tag_46\n      jump\t// in\n    tag_249:\n        /* \"#utility.yul\":12050:12117   */\n      tag_250\n        /* \"#utility.yul\":12110:12116   */\n      dup3\n        /* \"#utility.yul\":12102:12108   */\n      dup3\n        /* \"#utility.yul\":12096:12100   */\n      dup6\n        /* \"#utility.yul\":12050:12117   */\n      tag_116\n      jump\t// in\n    tag_250:\n        /* \"#utility.yul\":12144:12145   */\n      0x00\n        /* \"#utility.yul\":12168:12172   */\n      0x20\n        /* \"#utility.yul\":12155:12172   */\n      swap1\n      pop\n        /* \"#utility.yul\":12200:12202   */\n      0x1f\n        /* \"#utility.yul\":12192:12198   */\n      dup4\n        /* \"#utility.yul\":12189:12203   */\n      gt\n        /* \"#utility.yul\":12217:12218   */\n      0x01\n        /* \"#utility.yul\":12212:12830   */\n      dup2\n      eq\n      tag_252\n      jumpi\n        /* \"#utility.yul\":12874:12875   */\n      0x00\n        /* \"#utility.yul\":12891:12897   */\n      dup5\n        /* \"#utility.yul\":12888:12965   */\n      iszero\n      tag_253\n      jumpi\n        /* \"#utility.yul\":12940:12949   */\n      dup3\n        /* \"#utility.yul\":12935:12938   */\n      dup8\n        /* \"#utility.yul\":12931:12950   */\n      add\n        /* \"#utility.yul\":12925:12951   */\n      mload\n        /* \"#utility.yul\":12916:12951   */\n      swap1\n      pop\n        /* \"#utility.yul\":12888:12965   */\n    tag_253:\n        /* \"#utility.yul\":12991:13058   */\n      tag_254\n        /* \"#utility.yul\":13051:13057   */\n      dup6\n        /* \"#utility.yul\":13044:13049   */\n      dup3\n        /* \"#utility.yul\":12991:13058   */\n      tag_119\n      jump\t// in\n    tag_254:\n        /* \"#utility.yul\":12985:12989   */\n      dup7\n        /* \"#utility.yul\":12978:13059   */\n      sstore\n        /* \"#utility.yul\":12847:13069   */\n      pop\n        /* \"#utility.yul\":12182:13069   */\n      jump(tag_251)\n        /* \"#utility.yul\":12212:12830   */\n    tag_252:\n        /* \"#utility.yul\":12264:12268   */\n      0x1f\n        /* \"#utility.yul\":12260:12269   */\n      not\n        /* \"#utility.yul\":12252:12258   */\n      dup5\n        /* \"#utility.yul\":12248:12270   */\n      and\n        /* \"#utility.yul\":12298:12335   */\n      tag_255\n        /* \"#utility.yul\":12330:12334   */\n      dup7\n        /* \"#utility.yul\":12298:12335   */\n      tag_103\n      jump\t// in\n    tag_255:\n        /* \"#utility.yul\":12357:12358   */\n      0x00\n        /* \"#utility.yul\":12371:12579   */\n    tag_256:\n        /* \"#utility.yul\":12385:12392   */\n      dup3\n        /* \"#utility.yul\":12382:12383   */\n      dup2\n        /* \"#utility.yul\":12379:12393   */\n      lt\n        /* \"#utility.yul\":12371:12579   */\n      iszero\n      tag_258\n      jumpi\n        /* \"#utility.yul\":12464:12473   */\n      dup5\n        /* \"#utility.yul\":12459:12462   */\n      dup10\n        /* \"#utility.yul\":12455:12474   */\n      add\n        /* \"#utility.yul\":12449:12475   */\n      mload\n        /* \"#utility.yul\":12441:12447   */\n      dup3\n        /* \"#utility.yul\":12434:12476   */\n      sstore\n        /* \"#utility.yul\":12515:12516   */\n      0x01\n        /* \"#utility.yul\":12507:12513   */\n      dup3\n        /* \"#utility.yul\":12503:12517   */\n      add\n        /* \"#utility.yul\":12493:12517   */\n      swap2\n      pop\n        /* \"#utility.yul\":12562:12564   */\n      0x20\n        /* \"#utility.yul\":12551:12560   */\n      dup6\n        /* \"#utility.yul\":12547:12565   */\n      add\n        /* \"#utility.yul\":12534:12565   */\n      swap5\n      pop\n        /* \"#utility.yul\":12408:12412   */\n      0x20\n        /* \"#utility.yul\":12405:12406   */\n      dup2\n        /* \"#utility.yul\":12401:12413   */\n      add\n        /* \"#utility.yul\":12396:12413   */\n      swap1\n      pop\n        /* \"#utility.yul\":12371:12579   */\n      jump(tag_256)\n    tag_258:\n        /* \"#utility.yul\":12607:12613   */\n      dup7\n        /* \"#utility.yul\":12598:12605   */\n      dup4\n        /* \"#utility.yul\":12595:12614   */\n      lt\n        /* \"#utility.yul\":12592:12771   */\n      iszero\n      tag_259\n      jumpi\n        /* \"#utility.yul\":12665:12674   */\n      dup5\n        /* \"#utility.yul\":12660:12663   */\n      dup10\n        /* \"#utility.yul\":12656:12675   */\n      add\n        /* \"#utility.yul\":12650:12676   */\n      mload\n        /* \"#utility.yul\":12708:12756   */\n      tag_260\n        /* \"#utility.yul\":12750:12754   */\n      0x1f\n        /* \"#utility.yul\":12742:12748   */\n      dup10\n        /* \"#utility.yul\":12738:12755   */\n      and\n        /* \"#utility.yul\":12727:12736   */\n      dup3\n        /* \"#utility.yul\":12708:12756   */\n      tag_118\n      jump\t// in\n    tag_260:\n        /* \"#utility.yul\":12700:12706   */\n      dup4\n        /* \"#utility.yul\":12693:12757   */\n      sstore\n        /* \"#utility.yul\":12615:12771   */\n      pop\n        /* \"#utility.yul\":12592:12771   */\n    tag_259:\n        /* \"#utility.yul\":12817:12818   */\n      0x01\n        /* \"#utility.yul\":12813:12814   */\n      0x02\n        /* \"#utility.yul\":12805:12811   */\n      dup9\n        /* \"#utility.yul\":12801:12815   */\n      mul\n        /* \"#utility.yul\":12797:12819   */\n      add\n        /* \"#utility.yul\":12791:12795   */\n      dup9\n        /* \"#utility.yul\":12784:12820   */\n      sstore\n        /* \"#utility.yul\":12219:12830   */\n      pop\n      pop\n      pop\n        /* \"#utility.yul\":12182:13069   */\n    tag_251:\n      pop\n        /* \"#utility.yul\":11772:13075   */\n      pop\n      pop\n      pop\n        /* \"#utility.yul\":11680:13075   */\n      pop\n      pop\n      jump\t// out\n        /* \"#utility.yul\":13081:13236   */\n    tag_120:\n        /* \"#utility.yul\":13221:13228   */\n      0x20616e6420000000000000000000000000000000000000000000000000000000\n        /* \"#utility.yul\":13217:13218   */\n      0x00\n        /* \"#utility.yul\":13209:13215   */\n      dup3\n        /* \"#utility.yul\":13205:13219   */\n      add\n        /* \"#utility.yul\":13198:13229   */\n      mstore\n        /* \"#utility.yul\":13081:13236   */\n      pop\n      jump\t// out\n        /* \"#utility.yul\":13242:13642   */\n    tag_121:\n        /* \"#utility.yul\":13402:13405   */\n      0x00\n        /* \"#utility.yul\":13423:13507   */\n      tag_263\n        /* \"#utility.yul\":13505:13506   */\n      0x05\n        /* \"#utility.yul\":13500:13503   */\n      dup4\n        /* \"#utility.yul\":13423:13507   */\n      tag_102\n      jump\t// in\n    tag_263:\n        /* \"#utility.yul\":13416:13507   */\n      swap2\n      pop\n        /* \"#utility.yul\":13516:13609   */\n      tag_264\n        /* \"#utility.yul\":13605:13608   */\n      dup3\n        /* \"#utility.yul\":13516:13609   */\n      tag_120\n      jump\t// in\n    tag_264:\n        /* \"#utility.yul\":13634:13635   */\n      0x05\n        /* \"#utility.yul\":13629:13632   */\n      dup3\n        /* \"#utility.yul\":13625:13636   */\n      add\n        /* \"#utility.yul\":13618:13636   */\n      swap1\n      pop\n        /* \"#utility.yul\":13242:13642   */\n      swap2\n      swap1\n      pop\n      jump\t// out\n        /* \"#utility.yul\":13648:14337   */\n    tag_68:\n        /* \"#utility.yul\":13923:13926   */\n      0x00\n        /* \"#utility.yul\":13945:14037   */\n      tag_266\n        /* \"#utility.yul\":14033:14036   */\n      dup3\n        /* \"#utility.yul\":14024:14030   */\n      dup6\n        /* \"#utility.yul\":13945:14037   */\n      tag_104\n      jump\t// in\n    tag_266:\n        /* \"#utility.yul\":13938:14037   */\n      swap2\n      pop\n        /* \"#utility.yul\":14054:14202   */\n      tag_267\n        /* \"#utility.yul\":14198:14201   */\n      dup3\n        /* \"#utility.yul\":14054:14202   */\n      tag_121\n      jump\t// in\n    tag_267:\n        /* \"#utility.yul\":14047:14202   */\n      swap2\n      pop\n        /* \"#utility.yul\":14219:14311   */\n      tag_268\n        /* \"#utility.yul\":14307:14310   */\n      dup3\n        /* \"#utility.yul\":14298:14304   */\n      dup5\n        /* \"#utility.yul\":14219:14311   */\n      tag_104\n      jump\t// in\n    tag_268:\n        /* \"#utility.yul\":14212:14311   */\n      swap2\n      pop\n        /* \"#utility.yul\":14328:14331   */\n      dup2\n        /* \"#utility.yul\":14321:14331   */\n      swap1\n      pop\n        /* \"#utility.yul\":13648:14337   */\n      swap4\n      swap3\n      pop\n      pop\n      pop\n      jump\t// out\n\n    auxdata: 0xa264697066735822122077842f9ab4dd8bbf57e6423f3d1b9c6e6ba4fa37f7b50781c1490b7e1aaec60564736f6c634300081e0033\n}\n",
				"bytecode": {
					"linkReferences": {},
					"object": "6080604052348015600e575f5ffd5b50610c038061001c5f395ff3fe608060405234801561000f575f5ffd5b5060043610610086575f3560e01c8063a314150f11610059578063a314150f14610100578063a4081e161461011e578063c852cf7d1461013d578063d4dd2a4b1461015b57610086565b80633da0ac791461008a5780636cc014de146100a85780637ce5b8b3146100c65780637ffaa4b6146100e4575b5f5ffd5b61009261017a565b60405161009f91906104c1565b60405180910390f35b6100b06101d0565b6040516100bd919061054a565b60405180910390f35b6100ce61025b565b6040516100db919061054a565b60405180910390f35b6100fe60048036038101906100f991906106a7565b610285565b005b6101086102a8565b604051610115919061054a565b60405180910390f35b610126610334565b604051610134929190610735565b60405180910390f35b61014561035b565b604051610152919061054a565b60405180910390f35b610163610385565b60405161017192919061075c565b60405180910390f35b5f600160405160200161018d919061088a565b604051602081830303815290604052805190602001205f6040516020016101b4919061088a565b6040516020818303038152906040528051906020012014905090565b5f80546101dc906107be565b80601f0160208091040260200160405190810160405280929190818152602001828054610208906107be565b80156102535780601f1061022a57610100808354040283529160200191610253565b820191905f5260205f20905b81548152906001019060200180831161023657829003601f168201915b505050505081565b60605f60016040516020016102719291906108c6565b604051602081830303815290604052905090565b815f90816102939190610a86565b5080600190816102a39190610a86565b505050565b600180546102b5906107be565b80601f01602080910402602001604051908101604052809291908181526020018280546102e1906107be565b801561032c5780601f106103035761010080835404028352916020019161032c565b820191905f5260205f20905b81548152906001019060200180831161030f57829003601f168201915b505050505081565b5f5f5f8054610342906107be565b905060018054610351906107be565b9050915091509091565b60605f6001604051602001610371929190610b9f565b604051602081830303815290604052905090565b6060805f6001818054610397906107be565b80601f01602080910402602001604051908101604052809291908181526020018280546103c3906107be565b801561040e5780601f106103e55761010080835404028352916020019161040e565b820191905f5260205f20905b8154815290600101906020018083116103f157829003601f168201915b50505050509150808054610421906107be565b80601f016020809104026020016040519081016040528092919081815260200182805461044d906107be565b80156104985780601f1061046f57610100808354040283529160200191610498565b820191905f5260205f20905b81548152906001019060200180831161047b57829003601f168201915b50505050509050915091509091565b5f8115159050919050565b6104bb816104a7565b82525050565b5f6020820190506104d45f8301846104b2565b92915050565b5f81519050919050565b5f82825260208201905092915050565b8281835e5f83830152505050565b5f601f19601f8301169050919050565b5f61051c826104da565b61052681856104e4565b93506105368185602086016104f4565b61053f81610502565b840191505092915050565b5f6020820190508181035f8301526105628184610512565b905092915050565b5f604051905090565b5f5ffd5b5f5ffd5b5f5ffd5b5f5ffd5b7f4e487b71000000000000000000000000000000000000000000000000000000005f52604160045260245ffd5b6105b982610502565b810181811067ffffffffffffffff821117156105d8576105d7610583565b5b80604052505050565b5f6105ea61056a565b90506105f682826105b0565b919050565b5f67ffffffffffffffff82111561061557610614610583565b5b61061e82610502565b9050602081019050919050565b828183375f83830152505050565b5f61064b610646846105fb565b6105e1565b9050828152602081018484840111156106675761066661057f565b5b61067284828561062b565b509392505050565b5f82601f83011261068e5761068d61057b565b5b813561069e848260208601610639565b91505092915050565b5f5f604083850312156106bd576106bc610573565b5b5f83013567ffffffffffffffff8111156106da576106d9610577565b5b6106e68582860161067a565b925050602083013567ffffffffffffffff81111561070757610706610577565b5b6107138582860161067a565b9150509250929050565b5f819050919050565b61072f8161071d565b82525050565b5f6040820190506107485f830185610726565b6107556020830184610726565b9392505050565b5f6040820190508181035f8301526107748185610512565b905081810360208301526107888184610512565b90509392505050565b7f4e487b71000000000000000000000000000000000000000000000000000000005f52602260045260245ffd5b5f60028204905060018216806107d557607f821691505b6020821081036107e8576107e7610791565b5b50919050565b5f81905092915050565b5f819050815f5260205f209050919050565b5f8154610816816107be565b61082081866107ee565b9450600182165f811461083a576001811461084f57610881565b60ff1983168652811515820286019350610881565b610858856107f8565b5f5b838110156108795781548189015260018201915060208101905061085a565b838801955050505b50505092915050565b5f610895828461080a565b915081905092915050565b7f20616e6420000000000000000000000000000000000000000000000000000000815250565b5f6108d1828561080a565b91506108dc826108a0565b6005820191506108ec828461080a565b91508190509392505050565b5f6020601f8301049050919050565b5f82821b905092915050565b5f600883026109427fffffffffffffffffffffffffffffffffffffffffffffffffffffffffffffffff82610907565b61094c8683610907565b95508019841693508086168417925050509392505050565b5f819050919050565b5f61098761098261097d8461071d565b610964565b61071d565b9050919050565b5f819050919050565b6109a08361096d565b6109b46109ac8261098e565b848454610913565b825550505050565b5f5f905090565b6109cb6109bc565b6109d6818484610997565b505050565b5b818110156109f9576109ee5f826109c3565b6001810190506109dc565b5050565b601f821115610a3e57610a0f816107f8565b610a18846108f8565b81016020851015610a27578190505b610a3b610a33856108f8565b8301826109db565b50505b505050565b5f82821c905092915050565b5f610a5e5f1984600802610a43565b1980831691505092915050565b5f610a768383610a4f565b9150826002028217905092915050565b610a8f826104da565b67ffffffffffffffff811115610aa857610aa7610583565b5b610ab282546107be565b610abd8282856109fd565b5f60209050601f831160018114610aee575f8415610adc578287015190505b610ae68582610a6b565b865550610b4d565b601f198416610afc866107f8565b5f5b82811015610b2357848901518255600182019150602085019450602081019050610afe565b86831015610b405784890151610b3c601f891682610a4f565b8355505b6001600288020188555050505b505050505050565b7f20616e64200000000000000000000000000000000000000000000000000000005f82015250565b5f610b896005836107ee565b9150610b9482610b55565b600582019050919050565b5f610baa828561080a565b9150610bb582610b7d565b9150610bc1828461080a565b9150819050939250505056fea264697066735822122077842f9ab4dd8bbf57e6423f3d1b9c6e6ba4fa37f7b50781c1490b7e1aaec60564736f6c634300081e0033",
					"opcodes": "PUSH1 0x80 PUSH1 0x40 MSTORE CALLVALUE DUP1 ISZERO PUSH1 0xE JUMPI PUSH0 PUSH0 REVERT JUMPDEST POP PUSH2 0xC03 DUP1 PUSH2 0x1C PUSH0 CODECOPY PUSH0 RETURN INVALID PUSH1 0x80 PUSH1 0x40 MSTORE CALLVALUE DUP1 ISZERO PUSH2 0xF JUMPI PUSH0 PUSH0 REVERT JUMPDEST POP PUSH1 0x4 CALLDATASIZE LT PUSH2 0x86 JUMPI PUSH0 CALLDATALOAD PUSH1 0xE0 SHR DUP1 PUSH4 0xA314150F GT PUSH2 0x59 JUMPI DUP1 PUSH4 0xA314150F EQ PUSH2 0x100 JUMPI DUP1 PUSH4 0xA4081E16 EQ PUSH2 0x11E JUMPI DUP1 PUSH4 0xC852CF7D EQ PUSH2 0x13D JUMPI DUP1 PUSH4 0xD4DD2A4B EQ PUSH2 0x15B JUMPI PUSH2 0x86 JUMP JUMPDEST DUP1 PUSH4 0x3DA0AC79 EQ PUSH2 0x8A JUMPI DUP1 PUSH4 0x6CC014DE EQ PUSH2 0xA8 JUMPI DUP1 PUSH4 0x7CE5B8B3 EQ PUSH2 0xC6 JUMPI DUP1 PUSH4 0x7FFAA4B6 EQ PUSH2 0xE4 JUMPI JUMPDEST PUSH0 PUSH0 REVERT JUMPDEST PUSH2 0x92 PUSH2 0x17A JUMP JUMPDEST PUSH1 0x40 MLOAD PUSH2 0x9F SWAP2 SWAP1 PUSH2 0x4C1 JUMP JUMPDEST PUSH1 0x40 MLOAD DUP1 SWAP2 SUB SWAP1 RETURN JUMPDEST PUSH2 0xB0 PUSH2 0x1D0 JUMP JUMPDEST PUSH1 0x40 MLOAD PUSH2 0xBD SWAP2 SWAP1 PUSH2 0x54A JUMP JUMPDEST PUSH1 0x40 MLOAD DUP1 SWAP2 SUB SWAP1 RETURN JUMPDEST PUSH2 0xCE PUSH2 0x25B JUMP JUMPDEST PUSH1 0x40 MLOAD PUSH2 0xDB SWAP2 SWAP1 PUSH2 0x54A JUMP JUMPDEST PUSH1 0x40 MLOAD DUP1 SWAP2 SUB SWAP1 RETURN JUMPDEST PUSH2 0xFE PUSH1 0x4 DUP1 CALLDATASIZE SUB DUP2 ADD SWAP1 PUSH2 0xF9 SWAP2 SWAP1 PUSH2 0x6A7 JUMP JUMPDEST PUSH2 0x285 JUMP JUMPDEST STOP JUMPDEST PUSH2 0x108 PUSH2 0x2A8 JUMP JUMPDEST PUSH1 0x40 MLOAD PUSH2 0x115 SWAP2 SWAP1 PUSH2 0x54A JUMP JUMPDEST PUSH1 0x40 MLOAD DUP1 SWAP2 SUB SWAP1 RETURN JUMPDEST PUSH2 0x126 PUSH2 0x334 JUMP JUMPDEST PUSH1 0x40 MLOAD PUSH2 0x134 SWAP3 SWAP2 SWAP1 PUSH2 0x735 JUMP JUMPDEST PUSH1 0x40 MLOAD DUP1 SWAP2 SUB SWAP1 RETURN JUMPDEST PUSH2 0x145 PUSH2 0x35B JUMP JUMPDEST PUSH1 0x40 MLOAD PUSH2 0x152 SWAP2 SWAP1 PUSH2 0x54A JUMP JUMPDEST PUSH1 0x40 MLOAD DUP1 SWAP2 SUB SWAP1 RETURN JUMPDEST PUSH2 0x163 PUSH2 0x385 JUMP JUMPDEST PUSH1 0x40 MLOAD PUSH2 0x171 SWAP3 SWAP2 SWAP1 PUSH2 0x75C JUMP JUMPDEST PUSH1 0x40 MLOAD DUP1 SWAP2 SUB SWAP1 RETURN JUMPDEST PUSH0 PUSH1 0x1 PUSH1 0x40 MLOAD PUSH1 0x20 ADD PUSH2 0x18D SWAP2 SWAP1 PUSH2 0x88A JUMP JUMPDEST PUSH1 0x40 MLOAD PUSH1 0x20 DUP2 DUP4 SUB SUB DUP2 MSTORE SWAP1 PUSH1 0x40 MSTORE DUP1 MLOAD SWAP1 PUSH1 0x20 ADD KECCAK256 PUSH0 PUSH1 0x40 MLOAD PUSH1 0x20 ADD PUSH2 0x1B4 SWAP2 SWAP1 PUSH2 0x88A JUMP JUMPDEST PUSH1 0x40 MLOAD PUSH1 0x20 DUP2 DUP4 SUB SUB DUP2 MSTORE SWAP1 PUSH1 0x40 MSTORE DUP1 MLOAD SWAP1 PUSH1 0x20 ADD KECCAK256 EQ SWAP1 POP SWAP1 JUMP JUMPDEST PUSH0 DUP1 SLOAD PUSH2 0x1DC SWAP1 PUSH2 0x7BE JUMP JUMPDEST DUP1 PUSH1 0x1F ADD PUSH1 0x20 DUP1 SWAP2 DIV MUL PUSH1 0x20 ADD PUSH1 0x40 MLOAD SWAP1 DUP2 ADD PUSH1 0x40 MSTORE DUP1 SWAP3 SWAP2 SWAP1 DUP2 DUP2 MSTORE PUSH1 0x20 ADD DUP3 DUP1 SLOAD PUSH2 0x208 SWAP1 PUSH2 0x7BE JUMP JUMPDEST DUP1 ISZERO PUSH2 0x253 JUMPI DUP1 PUSH1 0x1F LT PUSH2 0x22A JUMPI PUSH2 0x100 DUP1 DUP4 SLOAD DIV MUL DUP4 MSTORE SWAP2 PUSH1 0x20 ADD SWAP2 PUSH2 0x253 JUMP JUMPDEST DUP3 ADD SWAP2 SWAP1 PUSH0 MSTORE PUSH1 0x20 PUSH0 KECCAK256 SWAP1 JUMPDEST DUP2 SLOAD DUP2 MSTORE SWAP1 PUSH1 0x1 ADD SWAP1 PUSH1 0x20 ADD DUP1 DUP4 GT PUSH2 0x236 JUMPI DUP3 SWAP1 SUB PUSH1 0x1F AND DUP3 ADD SWAP2 JUMPDEST POP POP POP POP POP DUP2 JUMP JUMPDEST PUSH1 0x60 PUSH0 PUSH1 0x1 PUSH1 0x40 MLOAD PUSH1 0x20 ADD PUSH2 0x271 SWAP3 SWAP2 SWAP1 PUSH2 0x8C6 JUMP JUMPDEST PUSH1 0x40 MLOAD PUSH1 0x20 DUP2 DUP4 SUB SUB DUP2 MSTORE SWAP1 PUSH1 0x40 MSTORE SWAP1 POP SWAP1 JUMP JUMPDEST DUP2 PUSH0 SWAP1 DUP2 PUSH2 0x293 SWAP2 SWAP1 PUSH2 0xA86 JUMP JUMPDEST POP DUP1 PUSH1 0x1 SWAP1 DUP2 PUSH2 0x2A3 SWAP2 SWAP1 PUSH2 0xA86 JUMP JUMPDEST POP POP POP JUMP JUMPDEST PUSH1 0x1 DUP1 SLOAD PUSH2 0x2B5 SWAP1 PUSH2 0x7BE JUMP JUMPDEST DUP1 PUSH1 0x1F ADD PUSH1 0x20 DUP1 SWAP2 DIV MUL PUSH1 0x20 ADD PUSH1 0x40 MLOAD SWAP1 DUP2 ADD PUSH1 0x40 MSTORE DUP1 SWAP3 SWAP2 SWAP1 DUP2 DUP2 MSTORE PUSH1 0x20 ADD DUP3 DUP1 SLOAD PUSH2 0x2E1 SWAP1 PUSH2 0x7BE JUMP JUMPDEST DUP1 ISZERO PUSH2 0x32C JUMPI DUP1 PUSH1 0x1F LT PUSH2 0x303 JUMPI PUSH2 0x100 DUP1 DUP4 SLOAD DIV MUL DUP4 MSTORE SWAP2 PUSH1 0x20 ADD SWAP2 PUSH2 0x32C JUMP JUMPDEST DUP3 ADD SWAP2 SWAP1 PUSH0 MSTORE PUSH1 0x20 PUSH0 KECCAK256 SWAP1 JUMPDEST DUP2 SLOAD DUP2 MSTORE SWAP1 PUSH1 0x1 ADD SWAP1 PUSH1 0x20 ADD DUP1 DUP4 GT PUSH2 0x30F JUMPI DUP3 SWAP1 SUB PUSH1 0x1F AND DUP3 ADD SWAP2 JUMPDEST POP POP POP POP POP DUP2 JUMP JUMPDEST PUSH0 PUSH0 PUSH0 DUP1 SLOAD PUSH2 0x342 SWAP1 PUSH2 0x7BE JUMP JUMPDEST SWAP1 POP PUSH1 0x1 DUP1 SLOAD PUSH2 0x351 SWAP1 PUSH2 0x7BE JUMP JUMPDEST SWAP1 POP SWAP2 POP SWAP2 POP SWAP1 SWAP2 JUMP JUMPDEST PUSH1 0x60 PUSH0 PUSH1 0x1 PUSH1 0x40 MLOAD PUSH1 0x20 ADD PUSH2 0x371 SWAP3 SWAP2 SWAP1 PUSH2 0xB9F JUMP JUMPDEST PUSH1 0x40 MLOAD PUSH1 0x20 DUP2 DUP4 SUB SUB DUP2 MSTORE SWAP1 PUSH1 0x40 MSTORE SWAP1 POP SWAP1 JUMP JUMPDEST PUSH1 0x60 DUP1 PUSH0 PUSH1 0x1 DUP2 DUP1 SLOAD PUSH2 0x397 SWAP1 PUSH2 0x7BE JUMP JUMPDEST DUP1 PUSH1 0x1F ADD PUSH1 0x20 DUP1 SWAP2 DIV MUL PUSH1 0x20 ADD PUSH1 0x40 MLOAD SWAP1 DUP2 ADD PUSH1 0x40 MSTORE DUP1 SWAP3 SWAP2 SWAP1 DUP2 DUP2 MSTORE PUSH1 0x20 ADD DUP3 DUP1 SLOAD PUSH2 0x3C3 SWAP1 PUSH2 0x7BE JUMP JUMPDEST DUP1 ISZERO PUSH2 0x40E JUMPI DUP1 PUSH1 0x1F LT PUSH2 0x3E5 JUMPI PUSH2 0x100 DUP1 DUP4 SLOAD DIV MUL DUP4 MSTORE SWAP2 PUSH1 0x20 ADD SWAP2 PUSH2 0x40E JUMP JUMPDEST DUP3 ADD SWAP2 SWAP1 PUSH0 MSTORE PUSH1 0x20 PUSH0 KECCAK256 SWAP1 JUMPDEST DUP2 SLOAD DUP2 MSTORE SWAP1 PUSH1 0x1 ADD SWAP1 PUSH1 0x20 ADD DUP1 DUP4 GT PUSH2 0x3F1 JUMPI DUP3 SWAP1 SUB PUSH1 0x1F AND DUP3 ADD SWAP2 JUMPDEST POP POP POP POP POP SWAP2 POP DUP1 DUP1 SLOAD PUSH2 0x421 SWAP1 PUSH2 0x7BE JUMP JUMPDEST DUP1 PUSH1 0x1F ADD PUSH1 0x20 DUP1 SWAP2 DIV MUL PUSH1 0x20 ADD PUSH1 0x40 MLOAD SWAP1 DUP2 ADD PUSH1 0x40 MSTORE DUP1 SWAP3 SWAP2 SWAP1 DUP2 DUP2 MSTORE PUSH1 0x20 ADD DUP3 DUP1 SLOAD PUSH2 0x44D SWAP1 PUSH2 0x7BE JUMP JUMPDEST DUP1 ISZERO PUSH2 0x498 JUMPI DUP1 PUSH1 0x1F LT PUSH2 0x46F JUMPI PUSH2 0x100 DUP1 DUP4 SLOAD DIV MUL DUP4 MSTORE SWAP2 PUSH1 0x20 ADD SWAP2 PUSH2 0x498 JUMP JUMPDEST DUP3 ADD SWAP2 SWAP1 PUSH0 MSTORE PUSH1 0x20 PUSH0 KECCAK256 SWAP1 JUMPDEST DUP2 SLOAD DUP2 MSTORE SWAP1 PUSH1 0x1 ADD SWAP1 PUSH1 0x20 ADD DUP1 DUP4 GT PUSH2 0x47B JUMPI DUP3 SWAP1 SUB PUSH1 0x1F AND DUP3 ADD SWAP2 JUMPDEST POP POP POP POP POP SWAP1 POP SWAP2 POP SWAP2 POP SWAP1 SWAP2 JUMP JUMPDEST PUSH0 DUP2 ISZERO ISZERO SWAP1 POP SWAP2 SWAP1 POP JUMP JUMPDEST PUSH2 0x4BB DUP2 PUSH2 0x4A7 JUMP JUMPDEST DUP3 MSTORE POP POP JUMP JUMPDEST PUSH0 PUSH1 0x20 DUP3 ADD SWAP1 POP PUSH2 0x4D4 PUSH0 DUP4 ADD DUP5 PUSH2 0x4B2 JUMP JUMPDEST SWAP3 SWAP2 POP POP JUMP JUMPDEST PUSH0 DUP2 MLOAD SWAP1 POP SWAP2 SWAP1 POP JUMP JUMPDEST PUSH0 DUP3 DUP3 MSTORE PUSH1 0x20 DUP3 ADD SWAP1 POP SWAP3 SWAP2 POP POP JUMP JUMPDEST DUP3 DUP2 DUP4 MCOPY PUSH0 DUP4 DUP4 ADD MSTORE POP POP POP JUMP JUMPDEST PUSH0 PUSH1 0x1F NOT PUSH1 0x1F DUP4 ADD AND SWAP1 POP SWAP2 SWAP1 POP JUMP JUMPDEST PUSH0 PUSH2 0x51C DUP3 PUSH2 0x4DA JUMP JUMPDEST PUSH2 0x526 DUP2 DUP6 PUSH2 0x4E4 JUMP JUMPDEST SWAP4 POP PUSH2 0x536 DUP2 DUP6 PUSH1 0x20 DUP7 ADD PUSH2 0x4F4 JUMP JUMPDEST PUSH2 0x53F DUP2 PUSH2 0x502 JUMP JUMPDEST DUP5 ADD SWAP2 POP POP SWAP3 SWAP2 POP POP JUMP JUMPDEST PUSH0 PUSH1 0x20 DUP3 ADD SWAP1 POP DUP2 DUP2 SUB PUSH0 DUP4 ADD MSTORE PUSH2 0x562 DUP2 DUP5 PUSH2 0x512 JUMP JUMPDEST SWAP1 POP SWAP3 SWAP2 POP POP JUMP JUMPDEST PUSH0 PUSH1 0x40 MLOAD SWAP1 POP SWAP1 JUMP JUMPDEST PUSH0 PUSH0 REVERT JUMPDEST PUSH0 PUSH0 REVERT JUMPDEST PUSH0 PUSH0 REVERT JUMPDEST PUSH0 PUSH0 REVERT JUMPDEST PUSH32 0x4E487B7100000000000000000000000000000000000000000000000000000000 PUSH0 MSTORE PUSH1 0x41 PUSH1 0x4 MSTORE PUSH1 0x24 PUSH0 REVERT JUMPDEST PUSH2 0x5B9 DUP3 PUSH2 0x502 JUMP JUMPDEST DUP2 ADD DUP2 DUP2 LT PUSH8 0xFFFFFFFFFFFFFFFF DUP3 GT OR ISZERO PUSH2 0x5D8 JUMPI PUSH2 0x5D7 PUSH2 0x583 JUMP JUMPDEST JUMPDEST DUP1 PUSH1 0x40 MSTORE POP POP POP JUMP JUMPDEST PUSH0 PUSH2 0x5EA PUSH2 0x56A JUMP JUMPDEST SWAP1 POP PUSH2 0x5F6 DUP3 DUP3 PUSH2 0x5B0 JUMP JUMPDEST SWAP2 SWAP1 POP JUMP JUMPDEST PUSH0 PUSH8 0xFFFFFFFFFFFFFFFF DUP3 GT ISZERO PUSH2 0x615 JUMPI PUSH2 0x614 PUSH2 0x583 JUMP JUMPDEST JUMPDEST PUSH2 0x61E DUP3 PUSH2 0x502 JUMP JUMPDEST SWAP1 POP PUSH1 0x20 DUP2 ADD SWAP1 POP SWAP2 SWAP1 POP JUMP JUMPDEST DUP3 DUP2 DUP4 CALLDATACOPY PUSH0 DUP4 DUP4 ADD MSTORE POP POP POP JUMP JUMPDEST PUSH0 PUSH2 0x64B PUSH2 0x646 DUP5 PUSH2 0x5FB JUMP JUMPDEST PUSH2 0x5E1 JUMP JUMPDEST SWAP1 POP DUP3 DUP2 MSTORE PUSH1 0x20 DUP2 ADD DUP5 DUP5 DUP5 ADD GT ISZERO PUSH2 0x667 JUMPI PUSH2 0x666 PUSH2 0x57F JUMP JUMPDEST JUMPDEST PUSH2 0x672 DUP5 DUP3 DUP6 PUSH2 0x62B JUMP JUMPDEST POP SWAP4 SWAP3 POP POP POP JUMP JUMPDEST PUSH0 DUP3 PUSH1 0x1F DUP4 ADD SLT PUSH2 0x68E JUMPI PUSH2 0x68D PUSH2 0x57B JUMP JUMPDEST JUMPDEST DUP2 CALLDATALOAD PUSH2 0x69E DUP5 DUP3 PUSH1 0x20 DUP7 ADD PUSH2 0x639 JUMP JUMPDEST SWAP2 POP POP SWAP3 SWAP2 POP POP JUMP JUMPDEST PUSH0 PUSH0 PUSH1 0x40 DUP4 DUP6 SUB SLT ISZERO PUSH2 0x6BD JUMPI PUSH2 0x6BC PUSH2 0x573 JUMP JUMPDEST JUMPDEST PUSH0 DUP4 ADD CALLDATALOAD PUSH8 0xFFFFFFFFFFFFFFFF DUP2 GT ISZERO PUSH2 0x6DA JUMPI PUSH2 0x6D9 PUSH2 0x577 JUMP JUMPDEST JUMPDEST PUSH2 0x6E6 DUP6 DUP3 DUP7 ADD PUSH2 0x67A JUMP JUMPDEST SWAP3 POP POP PUSH1 0x20 DUP4 ADD CALLDATALOAD PUSH8 0xFFFFFFFFFFFFFFFF DUP2 GT ISZERO PUSH2 0x707 JUMPI PUSH2 0x706 PUSH2 0x577 JUMP JUMPDEST JUMPDEST PUSH2 0x713 DUP6 DUP3 DUP7 ADD PUSH2 0x67A JUMP JUMPDEST SWAP2 POP POP SWAP3 POP SWAP3 SWAP1 POP JUMP JUMPDEST PUSH0 DUP2 SWAP1 POP SWAP2 SWAP1 POP JUMP JUMPDEST PUSH2 0x72F DUP2 PUSH2 0x71D JUMP JUMPDEST DUP3 MSTORE POP POP JUMP JUMPDEST PUSH0 PUSH1 0x40 DUP3 ADD SWAP1 POP PUSH2 0x748 PUSH0 DUP4 ADD DUP6 PUSH2 0x726 JUMP JUMPDEST PUSH2 0x755 PUSH1 0x20 DUP4 ADD DUP5 PUSH2 0x726 JUMP JUMPDEST SWAP4 SWAP3 POP POP POP JUMP JUMPDEST PUSH0 PUSH1 0x40 DUP3 ADD SWAP1 POP DUP2 DUP2 SUB PUSH0 DUP4 ADD MSTORE PUSH2 0x774 DUP2 DUP6 PUSH2 0x512 JUMP JUMPDEST SWAP1 POP DUP2 DUP2 SUB PUSH1 0x20 DUP4 ADD MSTORE PUSH2 0x788 DUP2 DUP5 PUSH2 0x512 JUMP JUMPDEST SWAP1 POP SWAP4 SWAP3 POP POP POP JUMP JUMPDEST PUSH32 0x4E487B7100000000000000000000000000000000000000000000000000000000 PUSH0 MSTORE PUSH1 0x22 PUSH1 0x4 MSTORE PUSH1 0x24 PUSH0 REVERT JUMPDEST PUSH0 PUSH1 0x2 DUP3 DIV SWAP1 POP PUSH1 0x1 DUP3 AND DUP1 PUSH2 0x7D5 JUMPI PUSH1 0x7F DUP3 AND SWAP2 POP JUMPDEST PUSH1 0x20 DUP3 LT DUP2 SUB PUSH2 0x7E8 JUMPI PUSH2 0x7E7 PUSH2 0x791 JUMP JUMPDEST JUMPDEST POP SWAP2 SWAP1 POP JUMP JUMPDEST PUSH0 DUP2 SWAP1 POP SWAP3 SWAP2 POP POP JUMP JUMPDEST PUSH0 DUP2 SWAP1 POP DUP2 PUSH0 MSTORE PUSH1 0x20 PUSH0 KECCAK256 SWAP1 POP SWAP2 SWAP1 POP JUMP JUMPDEST PUSH0 DUP2 SLOAD PUSH2 0x816 DUP2 PUSH2 0x7BE JUMP JUMPDEST PUSH2 0x820 DUP2 DUP7 PUSH2 0x7EE JUMP JUMPDEST SWAP5 POP PUSH1 0x1 DUP3 AND PUSH0 DUP2 EQ PUSH2 0x83A JUMPI PUSH1 0x1 DUP2 EQ PUSH2 0x84F JUMPI PUSH2 0x881 JUMP JUMPDEST PUSH1 0xFF NOT DUP4 AND DUP7 MSTORE DUP2 ISZERO ISZERO DUP3 MUL DUP7 ADD SWAP4 POP PUSH2 0x881 JUMP JUMPDEST PUSH2 0x858 DUP6 PUSH2 0x7F8 JUMP JUMPDEST PUSH0 JUMPDEST DUP4 DUP2 LT ISZERO PUSH2 0x879 JUMPI DUP2 SLOAD DUP2 DUP10 ADD MSTORE PUSH1 0x1 DUP3 ADD SWAP2 POP PUSH1 0x20 DUP2 ADD SWAP1 POP PUSH2 0x85A JUMP JUMPDEST DUP4 DUP9 ADD SWAP6 POP POP POP JUMPDEST POP POP POP SWAP3 SWAP2 POP POP JUMP JUMPDEST PUSH0 PUSH2 0x895 DUP3 DUP5 PUSH2 0x80A JUMP JUMPDEST SWAP2 POP DUP2 SWAP1 POP SWAP3 SWAP2 POP POP JUMP JUMPDEST PUSH32 0x20616E6420000000000000000000000000000000000000000000000000000000 DUP2 MSTORE POP JUMP JUMPDEST PUSH0 PUSH2 0x8D1 DUP3 DUP6 PUSH2 0x80A JUMP JUMPDEST SWAP2 POP PUSH2 0x8DC DUP3 PUSH2 0x8A0 JUMP JUMPDEST PUSH1 0x5 DUP3 ADD SWAP2 POP PUSH2 0x8EC DUP3 DUP5 PUSH2 0x80A JUMP JUMPDEST SWAP2 POP DUP2 SWAP1 POP SWAP4 SWAP3 POP POP POP JUMP JUMPDEST PUSH0 PUSH1 0x20 PUSH1 0x1F DUP4 ADD DIV SWAP1 POP SWAP2 SWAP1 POP JUMP JUMPDEST PUSH0 DUP3 DUP3 SHL SWAP1 POP SWAP3 SWAP2 POP POP JUMP JUMPDEST PUSH0 PUSH1 0x8 DUP4 MUL PUSH2 0x942 PUSH32 0xFFFFFFFFFFFFFFFFFFFFFFFFFFFFFFFFFFFFFFFFFFFFFFFFFFFFFFFFFFFFFFFF DUP3 PUSH2 0x907 JUMP JUMPDEST PUSH2 0x94C DUP7 DUP4 PUSH2 0x907 JUMP JUMPDEST SWAP6 POP DUP1 NOT DUP5 AND SWAP4 POP DUP1 DUP7 AND DUP5 OR SWAP3 POP POP POP SWAP4 SWAP3 POP POP POP JUMP JUMPDEST PUSH0 DUP2 SWAP1 POP SWAP2 SWAP1 POP JUMP JUMPDEST PUSH0 PUSH2 0x987 PUSH2 0x982 PUSH2 0x97D DUP5 PUSH2 0x71D JUMP JUMPDEST PUSH2 0x964 JUMP JUMPDEST PUSH2 0x71D JUMP JUMPDEST SWAP1 POP SWAP2 SWAP1 POP JUMP JUMPDEST PUSH0 DUP2 SWAP1 POP SWAP2 SWAP1 POP JUMP JUMPDEST PUSH2 0x9A0 DUP4 PUSH2 0x96D JUMP JUMPDEST PUSH2 0x9B4 PUSH2 0x9AC DUP3 PUSH2 0x98E JUMP JUMPDEST DUP5 DUP5 SLOAD PUSH2 0x913 JUMP JUMPDEST DUP3 SSTORE POP POP POP POP JUMP JUMPDEST PUSH0 PUSH0 SWAP1 POP SWAP1 JUMP JUMPDEST PUSH2 0x9CB PUSH2 0x9BC JUMP JUMPDEST PUSH2 0x9D6 DUP2 DUP5 DUP5 PUSH2 0x997 JUMP JUMPDEST POP POP POP JUMP JUMPDEST JUMPDEST DUP2 DUP2 LT ISZERO PUSH2 0x9F9 JUMPI PUSH2 0x9EE PUSH0 DUP3 PUSH2 0x9C3 JUMP JUMPDEST PUSH1 0x1 DUP2 ADD SWAP1 POP PUSH2 0x9DC JUMP JUMPDEST POP POP JUMP JUMPDEST PUSH1 0x1F DUP3 GT ISZERO PUSH2 0xA3E JUMPI PUSH2 0xA0F DUP2 PUSH2 0x7F8 JUMP JUMPDEST PUSH2 0xA18 DUP5 PUSH2 0x8F8 JUMP JUMPDEST DUP2 ADD PUSH1 0x20 DUP6 LT ISZERO PUSH2 0xA27 JUMPI DUP2 SWAP1 POP JUMPDEST PUSH2 0xA3B PUSH2 0xA33 DUP6 PUSH2 0x8F8 JUMP JUMPDEST DUP4 ADD DUP3 PUSH2 0x9DB JUMP JUMPDEST POP POP JUMPDEST POP POP POP JUMP JUMPDEST PUSH0 DUP3 DUP3 SHR SWAP1 POP SWAP3 SWAP2 POP POP JUMP JUMPDEST PUSH0 PUSH2 0xA5E PUSH0 NOT DUP5 PUSH1 0x8 MUL PUSH2 0xA43 JUMP JUMPDEST NOT DUP1 DUP4 AND SWAP2 POP POP SWAP3 SWAP2 POP POP JUMP JUMPDEST PUSH0 PUSH2 0xA76 DUP4 DUP4 PUSH2 0xA4F JUMP JUMPDEST SWAP2 POP DUP3 PUSH1 0x2 MUL DUP3 OR SWAP1 POP SWAP3 SWAP2 POP POP JUMP JUMPDEST PUSH2 0xA8F DUP3 PUSH2 0x4DA JUMP JUMPDEST PUSH8 0xFFFFFFFFFFFFFFFF DUP2 GT ISZERO PUSH2 0xAA8 JUMPI PUSH2 0xAA7 PUSH2 0x583 JUMP JUMPDEST JUMPDEST PUSH2 0xAB2 DUP3 SLOAD PUSH2 0x7BE JUMP JUMPDEST PUSH2 0xABD DUP3 DUP3 DUP6 PUSH2 0x9FD JUMP JUMPDEST PUSH0 PUSH1 0x20 SWAP1 POP PUSH1 0x1F DUP4 GT PUSH1 0x1 DUP2 EQ PUSH2 0xAEE JUMPI PUSH0 DUP5 ISZERO PUSH2 0xADC JUMPI DUP3 DUP8 ADD MLOAD SWAP1 POP JUMPDEST PUSH2 0xAE6 DUP6 DUP3 PUSH2 0xA6B JUMP JUMPDEST DUP7 SSTORE POP PUSH2 0xB4D JUMP JUMPDEST PUSH1 0x1F NOT DUP5 AND PUSH2 0xAFC DUP7 PUSH2 0x7F8 JUMP JUMPDEST PUSH0 JUMPDEST DUP3 DUP2 LT ISZERO PUSH2 0xB23 JUMPI DUP5 DUP10 ADD MLOAD DUP3 SSTORE PUSH1 0x1 DUP3 ADD SWAP2 POP PUSH1 0x20 DUP6 ADD SWAP5 POP PUSH1 0x20 DUP2 ADD SWAP1 POP PUSH2 0xAFE JUMP JUMPDEST DUP7 DUP4 LT ISZERO PUSH2 0xB40 JUMPI DUP5 DUP10 ADD MLOAD PUSH2 0xB3C PUSH1 0x1F DUP10 AND DUP3 PUSH2 0xA4F JUMP JUMPDEST DUP4 SSTORE POP JUMPDEST PUSH1 0x1 PUSH1 0x2 DUP9 MUL ADD DUP9 SSTORE POP POP POP JUMPDEST POP POP POP POP POP POP JUMP JUMPDEST PUSH32 0x20616E6420000000000000000000000000000000000000000000000000000000 PUSH0 DUP3 ADD MSTORE POP JUMP JUMPDEST PUSH0 PUSH2 0xB89 PUSH1 0x5 DUP4 PUSH2 0x7EE JUMP JUMPDEST SWAP2 POP PUSH2 0xB94 DUP3 PUSH2 0xB55 JUMP JUMPDEST PUSH1 0x5 DUP3 ADD SWAP1 POP SWAP2 SWAP1 POP JUMP JUMPDEST PUSH0 PUSH2 0xBAA DUP3 DUP6 PUSH2 0x80A JUMP JUMPDEST SWAP2 POP PUSH2 0xBB5 DUP3 PUSH2 0xB7D JUMP JUMPDEST SWAP2 POP PUSH2 0xBC1 DUP3 DUP5 PUSH2 0x80A JUMP JUMPDEST SWAP2 POP DUP2 SWAP1 POP SWAP4 SWAP3 POP POP POP JUMP INVALID LOG2 PUSH5 0x6970667358 0x22 SLT KECCAK256 PUSH24 0x842F9AB4DD8BBF57E6423F3D1B9C6E6BA4FA37F7B50781C1 BLOBHASH SIGNEXTEND PUSH31 0x1AAEC60564736F6C634300081E003300000000000000000000000000000000 "
				},
				"gasEstimates": {
					"creation": {
						"codeDepositCost": "615000",
						"executionCost": "649",
						"totalCost": "615649"
					},
					"external": {
						"compare()": "infinite",
						"concatenate()": "infinite",
						"concatenateString()": "infinite",
						"retrieveValues()": "infinite",
						"returnLength()": "infinite",
						"s1()": "infinite",
						"s2()": "infinite",
						"setValues(string,string)": "infinite"
					}
				},
				"methodIdentifiers": {
					"compare()": "3da0ac79",
					"concatenate()": "7ce5b8b3",
					"concatenateString()": "c852cf7d",
					"retrieveValues()": "d4dd2a4b",
					"returnLength()": "a4081e16",
					"s1()": "6cc014de",
					"s2()": "a314150f",
					"setValues(string,string)": "7ffaa4b6"
				}
			},
			"storageLayout": {
				"storage": [
					{
						"astId": 3,
						"contract": "contracts/LabCycle/StringExample.sol:StringExample",
						"label": "s1",
						"offset": 0,
						"slot": "0",
						"type": "t_string_storage"
					},
					{
						"astId": 5,
						"contract": "contracts/LabCycle/StringExample.sol:StringExample",
						"label": "s2",
						"offset": 0,
						"slot": "1",
						"type": "t_string_storage"
					}
				],
				"types": {
					"t_string_storage": {
						"encoding": "bytes",
						"label": "string",
						"numberOfBytes": "32"
					}
				}
			},
			"userdoc": {
				"kind": "user",
				"methods": {},
				"version": 1
			}
		}
	}
}