{
	"contracts/LabCycle/Assignment3/SumOfEle.sol": {
		"SumOfEle": {
			"abi": [
				{
					"inputs": [],
					"name": "sumOfEle",
					"outputs": [
						{
							"internalType": "uint256",
							"name": "",
							"type": "uint256"
						}
					],
					"stateMutability": "view",
					"type": "function"
				}
			],
			"devdoc": {
				"kind": "dev",
				"methods": {},
				"version": 1
			},
			"evm": {
				"assembly": "    /* \"contracts/LabCycle/Assignment3/SumOfEle.sol\":66:354  contract SumOfEle{... */\n  mstore(0x40, 0x80)\n    /* \"contracts/LabCycle/Assignment3/SumOfEle.sol\":90:150  uint[12] arr = [2, 433, 1, 4, 3, 235, 656, 9, 87, 6, 50, 15] */\n  mload(0x40)\n  dup1\n  0x0180\n  add\n  0x40\n  mstore\n  dup1\n    /* \"contracts/LabCycle/Assignment3/SumOfEle.sol\":106:107  2 */\n  0x02\n    /* \"contracts/LabCycle/Assignment3/SumOfEle.sol\":90:150  uint[12] arr = [2, 433, 1, 4, 3, 235, 656, 9, 87, 6, 50, 15] */\n  0xffff\n  and\n  dup2\n  mstore\n  0x20\n  add\n    /* \"contracts/LabCycle/Assignment3/SumOfEle.sol\":109:112  433 */\n  0x01b1\n    /* \"contracts/LabCycle/Assignment3/SumOfEle.sol\":90:150  uint[12] arr = [2, 433, 1, 4, 3, 235, 656, 9, 87, 6, 50, 15] */\n  0xffff\n  and\n  dup2\n  mstore\n  0x20\n  add\n    /* \"contracts/LabCycle/Assignment3/SumOfEle.sol\":114:115  1 */\n  0x01\n    /* \"contracts/LabCycle/Assignment3/SumOfEle.sol\":90:150  uint[12] arr = [2, 433, 1, 4, 3, 235, 656, 9, 87, 6, 50, 15] */\n  0xffff\n  and\n  dup2\n  mstore\n  0x20\n  add\n    /* \"contracts/LabCycle/Assignment3/SumOfEle.sol\":117:118  4 */\n  0x04\n    /* \"contracts/LabCycle/Assignment3/SumOfEle.sol\":90:150  uint[12] arr = [2, 433, 1, 4, 3, 235, 656, 9, 87, 6, 50, 15] */\n  0xffff\n  and\n  dup2\n  mstore\n  0x20\n  add\n    /* \"contracts/LabCycle/Assignment3/SumOfEle.sol\":120:121  3 */\n  0x03\n    /* \"contracts/LabCycle/Assignment3/SumOfEle.sol\":90:150  uint[12] arr = [2, 433, 1, 4, 3, 235, 656, 9, 87, 6, 50, 15] */\n  0xffff\n  and\n  dup2\n  mstore\n  0x20\n  add\n    /* \"contracts/LabCycle/Assignment3/SumOfEle.sol\":123:126  235 */\n  0xeb\n    /* \"contracts/LabCycle/Assignment3/SumOfEle.sol\":90:150  uint[12] arr = [2, 433, 1, 4, 3, 235, 656, 9, 87, 6, 50, 15] */\n  0xffff\n  and\n  dup2\n  mstore\n  0x20\n  add\n    /* \"contracts/LabCycle/Assignment3/SumOfEle.sol\":128:131  656 */\n  0x0290\n    /* \"contracts/LabCycle/Assignment3/SumOfEle.sol\":90:150  uint[12] arr = [2, 433, 1, 4, 3, 235, 656, 9, 87, 6, 50, 15] */\n  0xffff\n  and\n  dup2\n  mstore\n  0x20\n  add\n    /* \"contracts/LabCycle/Assignment3/SumOfEle.sol\":133:134  9 */\n  0x09\n    /* \"contracts/LabCycle/Assignment3/SumOfEle.sol\":90:150  uint[12] arr = [2, 433, 1, 4, 3, 235, 656, 9, 87, 6, 50, 15] */\n  0xffff\n  and\n  dup2\n  mstore\n  0x20\n  add\n    /* \"contracts/LabCycle/Assignment3/SumOfEle.sol\":136:138  87 */\n  0x57\n    /* \"contracts/LabCycle/Assignment3/SumOfEle.sol\":90:150  uint[12] arr = [2, 433, 1, 4, 3, 235, 656, 9, 87, 6, 50, 15] */\n  0xffff\n  and\n  dup2\n  mstore\n  0x20\n  add\n    /* \"contracts/LabCycle/Assignment3/SumOfEle.sol\":140:141  6 */\n  0x06\n    /* \"contracts/LabCycle/Assignment3/SumOfEle.sol\":90:150  uint[12] arr = [2, 433, 1, 4, 3, 235, 656, 9, 87, 6, 50, 15] */\n  0xffff\n  and\n  dup2\n  mstore\n  0x20\n  add\n    /* \"contracts/LabCycle/Assignment3/SumOfEle.sol\":143:145  50 */\n  0x32\n    /* \"contracts/LabCycle/Assignment3/SumOfEle.sol\":90:150  uint[12] arr = [2, 433, 1, 4, 3, 235, 656, 9, 87, 6, 50, 15] */\n  0xffff\n  and\n  dup2\n  mstore\n  0x20\n  add\n    /* \"contracts/LabCycle/Assignment3/SumOfEle.sol\":147:149  15 */\n  0x0f\n    /* \"contracts/LabCycle/Assignment3/SumOfEle.sol\":90:150  uint[12] arr = [2, 433, 1, 4, 3, 235, 656, 9, 87, 6, 50, 15] */\n  0xffff\n  and\n  dup2\n  mstore\n  pop\n  0x00\n  swap1\n  0x0c\n  tag_1\n  swap3\n  swap2\n  swap1\n  tag_2\n  jump\t// in\ntag_1:\n  pop\n    /* \"contracts/LabCycle/Assignment3/SumOfEle.sol\":66:354  contract SumOfEle{... */\n  callvalue\n  dup1\n  iszero\n  tag_3\n  jumpi\n  revert(0x00, 0x00)\ntag_3:\n  pop\n  jump(tag_4)\ntag_2:\n  dup3\n  0x0c\n  dup2\n  add\n  swap3\n  dup3\n  iszero\n  tag_5\n  jumpi\n  swap2\n  0x20\n  mul\n  dup3\n  add\ntag_6:\n  dup3\n  dup2\n  gt\n  iszero\n  tag_7\n  jumpi\n  dup3\n  mload\n  dup3\n  swap1\n  0xffff\n  and\n  swap1\n  sstore\n  swap2\n  0x20\n  add\n  swap2\n  swap1\n  0x01\n  add\n  swap1\n  jump(tag_6)\ntag_7:\ntag_5:\n  pop\n  swap1\n  pop\n  tag_8\n  swap2\n  swap1\n  tag_9\n  jump\t// in\ntag_8:\n  pop\n  swap1\n  jump\t// out\ntag_9:\ntag_10:\n  dup1\n  dup3\n  gt\n  iszero\n  tag_11\n  jumpi\n  0x00\n  dup2\n  0x00\n  swap1\n  sstore\n  pop\n  0x01\n  add\n  jump(tag_10)\ntag_11:\n  pop\n  swap1\n  jump\t// out\ntag_4:\n  dataSize(sub_0)\n  dup1\n  dataOffset(sub_0)\n  0x00\n  codecopy\n  0x00\n  return\nstop\n\nsub_0: assembly {\n        /* \"contracts/LabCycle/Assignment3/SumOfEle.sol\":66:354  contract SumOfEle{... */\n      mstore(0x40, 0x80)\n      callvalue\n      dup1\n      iszero\n      tag_1\n      jumpi\n      revert(0x00, 0x00)\n    tag_1:\n      pop\n      jumpi(tag_2, lt(calldatasize, 0x04))\n      shr(0xe0, calldataload(0x00))\n      dup1\n      0x7009cfe3\n      eq\n      tag_3\n      jumpi\n    tag_2:\n      revert(0x00, 0x00)\n        /* \"contracts/LabCycle/Assignment3/SumOfEle.sol\":159:351  function sumOfEle()public view returns(uint){... */\n    tag_3:\n      tag_4\n      tag_5\n      jump\t// in\n    tag_4:\n      mload(0x40)\n      tag_6\n      swap2\n      swap1\n      tag_7\n      jump\t// in\n    tag_6:\n      mload(0x40)\n      dup1\n      swap2\n      sub\n      swap1\n      return\n    tag_5:\n        /* \"contracts/LabCycle/Assignment3/SumOfEle.sol\":198:202  uint */\n      0x00\n        /* \"contracts/LabCycle/Assignment3/SumOfEle.sol\":214:222  uint sum */\n      0x00\n        /* \"contracts/LabCycle/Assignment3/SumOfEle.sol\":225:226  0 */\n      0x00\n        /* \"contracts/LabCycle/Assignment3/SumOfEle.sol\":214:226  uint sum = 0 */\n      swap1\n      pop\n        /* \"contracts/LabCycle/Assignment3/SumOfEle.sol\":242:249  uint8 i */\n      0x00\n        /* \"contracts/LabCycle/Assignment3/SumOfEle.sol\":250:251  0 */\n      0x00\n        /* \"contracts/LabCycle/Assignment3/SumOfEle.sol\":242:251  uint8 i=0 */\n      swap1\n      pop\n        /* \"contracts/LabCycle/Assignment3/SumOfEle.sol\":237:321  for (uint8 i=0; i<arr.length;i++) ... */\n    tag_9:\n        /* \"contracts/LabCycle/Assignment3/SumOfEle.sol\":255:265  arr.length */\n      0x0c\n        /* \"contracts/LabCycle/Assignment3/SumOfEle.sol\":253:254  i */\n      dup2\n        /* \"contracts/LabCycle/Assignment3/SumOfEle.sol\":253:265  i<arr.length */\n      0xff\n      and\n      lt\n        /* \"contracts/LabCycle/Assignment3/SumOfEle.sol\":237:321  for (uint8 i=0; i<arr.length;i++) ... */\n      iszero\n      tag_10\n      jumpi\n        /* \"contracts/LabCycle/Assignment3/SumOfEle.sol\":303:306  arr */\n      0x00\n        /* \"contracts/LabCycle/Assignment3/SumOfEle.sol\":307:308  i */\n      dup2\n        /* \"contracts/LabCycle/Assignment3/SumOfEle.sol\":303:309  arr[i] */\n      0xff\n      and\n      0x0c\n      dup2\n      lt\n      tag_12\n      jumpi\n      tag_13\n      tag_14\n      jump\t// in\n    tag_13:\n    tag_12:\n      add\n      sload\n        /* \"contracts/LabCycle/Assignment3/SumOfEle.sol\":296:309  sum += arr[i] */\n      dup3\n      tag_16\n      swap2\n      swap1\n      tag_17\n      jump\t// in\n    tag_16:\n      swap2\n      pop\n        /* \"contracts/LabCycle/Assignment3/SumOfEle.sol\":266:269  i++ */\n      dup1\n      dup1\n      tag_18\n      swap1\n      tag_19\n      jump\t// in\n    tag_18:\n      swap2\n      pop\n      pop\n        /* \"contracts/LabCycle/Assignment3/SumOfEle.sol\":237:321  for (uint8 i=0; i<arr.length;i++) ... */\n      jump(tag_9)\n    tag_10:\n      pop\n        /* \"contracts/LabCycle/Assignment3/SumOfEle.sol\":340:343  sum */\n      dup1\n        /* \"contracts/LabCycle/Assignment3/SumOfEle.sol\":333:343  return sum */\n      swap2\n      pop\n      pop\n        /* \"contracts/LabCycle/Assignment3/SumOfEle.sol\":159:351  function sumOfEle()public view returns(uint){... */\n      swap1\n      jump\t// out\n        /* \"#utility.yul\":7:84   */\n    tag_20:\n        /* \"#utility.yul\":44:51   */\n      0x00\n        /* \"#utility.yul\":73:78   */\n      dup2\n        /* \"#utility.yul\":62:78   */\n      swap1\n      pop\n        /* \"#utility.yul\":7:84   */\n      swap2\n      swap1\n      pop\n      jump\t// out\n        /* \"#utility.yul\":90:208   */\n    tag_21:\n        /* \"#utility.yul\":177:201   */\n      tag_27\n        /* \"#utility.yul\":195:200   */\n      dup2\n        /* \"#utility.yul\":177:201   */\n      tag_20\n      jump\t// in\n    tag_27:\n        /* \"#utility.yul\":172:175   */\n      dup3\n        /* \"#utility.yul\":165:202   */\n      mstore\n        /* \"#utility.yul\":90:208   */\n      pop\n      pop\n      jump\t// out\n        /* \"#utility.yul\":214:436   */\n    tag_7:\n        /* \"#utility.yul\":307:311   */\n      0x00\n        /* \"#utility.yul\":345:347   */\n      0x20\n        /* \"#utility.yul\":334:343   */\n      dup3\n        /* \"#utility.yul\":330:348   */\n      add\n        /* \"#utility.yul\":322:348   */\n      swap1\n      pop\n        /* \"#utility.yul\":358:429   */\n      tag_29\n        /* \"#utility.yul\":426:427   */\n      0x00\n        /* \"#utility.yul\":415:424   */\n      dup4\n        /* \"#utility.yul\":411:428   */\n      add\n        /* \"#utility.yul\":402:408   */\n      dup5\n        /* \"#utility.yul\":358:429   */\n      tag_21\n      jump\t// in\n    tag_29:\n        /* \"#utility.yul\":214:436   */\n      swap3\n      swap2\n      pop\n      pop\n      jump\t// out\n        /* \"#utility.yul\":442:622   */\n    tag_14:\n        /* \"#utility.yul\":490:567   */\n      0x4e487b7100000000000000000000000000000000000000000000000000000000\n        /* \"#utility.yul\":487:488   */\n      0x00\n        /* \"#utility.yul\":480:568   */\n      mstore\n        /* \"#utility.yul\":587:591   */\n      0x32\n        /* \"#utility.yul\":584:585   */\n      0x04\n        /* \"#utility.yul\":577:592   */\n      mstore\n        /* \"#utility.yul\":611:615   */\n      0x24\n        /* \"#utility.yul\":608:609   */\n      0x00\n        /* \"#utility.yul\":601:616   */\n      revert\n        /* \"#utility.yul\":628:808   */\n    tag_22:\n        /* \"#utility.yul\":676:753   */\n      0x4e487b7100000000000000000000000000000000000000000000000000000000\n        /* \"#utility.yul\":673:674   */\n      0x00\n        /* \"#utility.yul\":666:754   */\n      mstore\n        /* \"#utility.yul\":773:777   */\n      0x11\n        /* \"#utility.yul\":770:771   */\n      0x04\n        /* \"#utility.yul\":763:778   */\n      mstore\n        /* \"#utility.yul\":797:801   */\n      0x24\n        /* \"#utility.yul\":794:795   */\n      0x00\n        /* \"#utility.yul\":787:802   */\n      revert\n        /* \"#utility.yul\":814:1005   */\n    tag_17:\n        /* \"#utility.yul\":854:857   */\n      0x00\n        /* \"#utility.yul\":873:893   */\n      tag_33\n        /* \"#utility.yul\":891:892   */\n      dup3\n        /* \"#utility.yul\":873:893   */\n      tag_20\n      jump\t// in\n    tag_33:\n        /* \"#utility.yul\":868:893   */\n      swap2\n      pop\n        /* \"#utility.yul\":907:927   */\n      tag_34\n        /* \"#utility.yul\":925:926   */\n      dup4\n        /* \"#utility.yul\":907:927   */\n      tag_20\n      jump\t// in\n    tag_34:\n        /* \"#utility.yul\":902:927   */\n      swap3\n      pop\n        /* \"#utility.yul\":950:951   */\n      dup3\n        /* \"#utility.yul\":947:948   */\n      dup3\n        /* \"#utility.yul\":943:952   */\n      add\n        /* \"#utility.yul\":936:952   */\n      swap1\n      pop\n        /* \"#utility.yul\":971:974   */\n      dup1\n        /* \"#utility.yul\":968:969   */\n      dup3\n        /* \"#utility.yul\":965:975   */\n      gt\n        /* \"#utility.yul\":962:998   */\n      iszero\n      tag_35\n      jumpi\n        /* \"#utility.yul\":978:996   */\n      tag_36\n      tag_22\n      jump\t// in\n    tag_36:\n        /* \"#utility.yul\":962:998   */\n    tag_35:\n        /* \"#utility.yul\":814:1005   */\n      swap3\n      swap2\n      pop\n      pop\n      jump\t// out\n        /* \"#utility.yul\":1011:1097   */\n    tag_23:\n        /* \"#utility.yul\":1046:1053   */\n      0x00\n        /* \"#utility.yul\":1086:1090   */\n      0xff\n        /* \"#utility.yul\":1079:1084   */\n      dup3\n        /* \"#utility.yul\":1075:1091   */\n      and\n        /* \"#utility.yul\":1064:1091   */\n      swap1\n      pop\n        /* \"#utility.yul\":1011:1097   */\n      swap2\n      swap1\n      pop\n      jump\t// out\n        /* \"#utility.yul\":1103:1270   */\n    tag_19:\n        /* \"#utility.yul\":1140:1143   */\n      0x00\n        /* \"#utility.yul\":1163:1185   */\n      tag_39\n        /* \"#utility.yul\":1179:1184   */\n      dup3\n        /* \"#utility.yul\":1163:1185   */\n      tag_23\n      jump\t// in\n    tag_39:\n        /* \"#utility.yul\":1154:1185   */\n      swap2\n      pop\n        /* \"#utility.yul\":1207:1211   */\n      0xff\n        /* \"#utility.yul\":1200:1205   */\n      dup3\n        /* \"#utility.yul\":1197:1212   */\n      sub\n        /* \"#utility.yul\":1194:1235   */\n      tag_40\n      jumpi\n        /* \"#utility.yul\":1215:1233   */\n      tag_41\n      tag_22\n      jump\t// in\n    tag_41:\n        /* \"#utility.yul\":1194:1235   */\n    tag_40:\n        /* \"#utility.yul\":1262:1263   */\n      0x01\n        /* \"#utility.yul\":1255:1260   */\n      dup3\n        /* \"#utility.yul\":1251:1264   */\n      add\n        /* \"#utility.yul\":1244:1264   */\n      swap1\n      pop\n        /* \"#utility.yul\":1103:1270   */\n      swap2\n      swap1\n      pop\n      jump\t// out\n\n    auxdata: 0xa2646970667358221220e4d9021c2b012f2f9b191c88a42c84fe5ede954f7bf66ec336ee251bbaf396f564736f6c634300081e0033\n}\n",
				"bytecode": {
					"linkReferences": {},
					"object": "6080604052604051806101800160405280600261ffff1681526020016101b161ffff168152602001600161ffff168152602001600461ffff168152602001600361ffff16815260200160eb61ffff16815260200161029061ffff168152602001600961ffff168152602001605761ffff168152602001600661ffff168152602001603261ffff168152602001600f61ffff168152505f90600c6100a39291906100b5565b503480156100af575f5ffd5b50610116565b82600c81019282156100ea579160200282015b828111156100e9578251829061ffff169055916020019190600101906100c8565b5b5090506100f791906100fb565b5090565b5b80821115610112575f815f9055506001016100fc565b5090565b6101c9806101235f395ff3fe608060405234801561000f575f5ffd5b5060043610610029575f3560e01c80637009cfe31461002d575b5f5ffd5b61003561004b565b60405161004291906100b9565b60405180910390f35b5f5f5f90505f5f90505b600c8160ff161015610099575f8160ff16600c8110610077576100766100d2565b5b015482610084919061012c565b915080806100919061016b565b915050610055565b508091505090565b5f819050919050565b6100b3816100a1565b82525050565b5f6020820190506100cc5f8301846100aa565b92915050565b7f4e487b71000000000000000000000000000000000000000000000000000000005f52603260045260245ffd5b7f4e487b71000000000000000000000000000000000000000000000000000000005f52601160045260245ffd5b5f610136826100a1565b9150610141836100a1565b9250828201905080821115610159576101586100ff565b5b92915050565b5f60ff82169050919050565b5f6101758261015f565b915060ff8203610188576101876100ff565b5b60018201905091905056fea2646970667358221220e4d9021c2b012f2f9b191c88a42c84fe5ede954f7bf66ec336ee251bbaf396f564736f6c634300081e0033",
					"opcodes": "PUSH1 0x80 PUSH1 0x40 MSTORE PUSH1 0x40 MLOAD DUP1 PUSH2 0x180 ADD PUSH1 0x40 MSTORE DUP1 PUSH1 0x2 PUSH2 0xFFFF AND DUP2 MSTORE PUSH1 0x20 ADD PUSH2 0x1B1 PUSH2 0xFFFF AND DUP2 MSTORE PUSH1 0x20 ADD PUSH1 0x1 PUSH2 0xFFFF AND DUP2 MSTORE PUSH1 0x20 ADD PUSH1 0x4 PUSH2 0xFFFF AND DUP2 MSTORE PUSH1 0x20 ADD PUSH1 0x3 PUSH2 0xFFFF AND DUP2 MSTORE PUSH1 0x20 ADD PUSH1 0xEB PUSH2 0xFFFF AND DUP2 MSTORE PUSH1 0x20 ADD PUSH2 0x290 PUSH2 0xFFFF AND DUP2 MSTORE PUSH1 0x20 ADD PUSH1 0x9 PUSH2 0xFFFF AND DUP2 MSTORE PUSH1 0x20 ADD PUSH1 0x57 PUSH2 0xFFFF AND DUP2 MSTORE PUSH1 0x20 ADD PUSH1 0x6 PUSH2 0xFFFF AND DUP2 MSTORE PUSH1 0x20 ADD PUSH1 0x32 PUSH2 0xFFFF AND DUP2 MSTORE PUSH1 0x20 ADD PUSH1 0xF PUSH2 0xFFFF AND DUP2 MSTORE POP PUSH0 SWAP1 PUSH1 0xC PUSH2 0xA3 SWAP3 SWAP2 SWAP1 PUSH2 0xB5 JUMP JUMPDEST POP CALLVALUE DUP1 ISZERO PUSH2 0xAF JUMPI PUSH0 PUSH0 REVERT JUMPDEST POP PUSH2 0x116 JUMP JUMPDEST DUP3 PUSH1 0xC DUP2 ADD SWAP3 DUP3 ISZERO PUSH2 0xEA JUMPI SWAP2 PUSH1 0x20 MUL DUP3 ADD JUMPDEST DUP3 DUP2 GT ISZERO PUSH2 0xE9 JUMPI DUP3 MLOAD DUP3 SWAP1 PUSH2 0xFFFF AND SWAP1 SSTORE SWAP2 PUSH1 0x20 ADD SWAP2 SWAP1 PUSH1 0x1 ADD SWAP1 PUSH2 0xC8 JUMP JUMPDEST JUMPDEST POP SWAP1 POP PUSH2 0xF7 SWAP2 SWAP1 PUSH2 0xFB JUMP JUMPDEST POP SWAP1 JUMP JUMPDEST JUMPDEST DUP1 DUP3 GT ISZERO PUSH2 0x112 JUMPI PUSH0 DUP2 PUSH0 SWAP1 SSTORE POP PUSH1 0x1 ADD PUSH2 0xFC JUMP JUMPDEST POP SWAP1 JUMP JUMPDEST PUSH2 0x1C9 DUP1 PUSH2 0x123 PUSH0 CODECOPY PUSH0 RETURN INVALID PUSH1 0x80 PUSH1 0x40 MSTORE CALLVALUE DUP1 ISZERO PUSH2 0xF JUMPI PUSH0 PUSH0 REVERT JUMPDEST POP PUSH1 0x4 CALLDATASIZE LT PUSH2 0x29 JUMPI PUSH0 CALLDATALOAD PUSH1 0xE0 SHR DUP1 PUSH4 0x7009CFE3 EQ PUSH2 0x2D JUMPI JUMPDEST PUSH0 PUSH0 REVERT JUMPDEST PUSH2 0x35 PUSH2 0x4B JUMP JUMPDEST PUSH1 0x40 MLOAD PUSH2 0x42 SWAP2 SWAP1 PUSH2 0xB9 JUMP JUMPDEST PUSH1 0x40 MLOAD DUP1 SWAP2 SUB SWAP1 RETURN JUMPDEST PUSH0 PUSH0 PUSH0 SWAP1 POP PUSH0 PUSH0 SWAP1 POP JUMPDEST PUSH1 0xC DUP2 PUSH1 0xFF AND LT ISZERO PUSH2 0x99 JUMPI PUSH0 DUP2 PUSH1 0xFF AND PUSH1 0xC DUP2 LT PUSH2 0x77 JUMPI PUSH2 0x76 PUSH2 0xD2 JUMP JUMPDEST JUMPDEST ADD SLOAD DUP3 PUSH2 0x84 SWAP2 SWAP1 PUSH2 0x12C JUMP JUMPDEST SWAP2 POP DUP1 DUP1 PUSH2 0x91 SWAP1 PUSH2 0x16B JUMP JUMPDEST SWAP2 POP POP PUSH2 0x55 JUMP JUMPDEST POP DUP1 SWAP2 POP POP SWAP1 JUMP JUMPDEST PUSH0 DUP2 SWAP1 POP SWAP2 SWAP1 POP JUMP JUMPDEST PUSH2 0xB3 DUP2 PUSH2 0xA1 JUMP JUMPDEST DUP3 MSTORE POP POP JUMP JUMPDEST PUSH0 PUSH1 0x20 DUP3 ADD SWAP1 POP PUSH2 0xCC PUSH0 DUP4 ADD DUP5 PUSH2 0xAA JUMP JUMPDEST SWAP3 SWAP2 POP POP JUMP JUMPDEST PUSH32 0x4E487B7100000000000000000000000000000000000000000000000000000000 PUSH0 MSTORE PUSH1 0x32 PUSH1 0x4 MSTORE PUSH1 0x24 PUSH0 REVERT JUMPDEST PUSH32 0x4E487B7100000000000000000000000000000000000000000000000000000000 PUSH0 MSTORE PUSH1 0x11 PUSH1 0x4 MSTORE PUSH1 0x24 PUSH0 REVERT JUMPDEST PUSH0 PUSH2 0x136 DUP3 PUSH2 0xA1 JUMP JUMPDEST SWAP2 POP PUSH2 0x141 DUP4 PUSH2 0xA1 JUMP JUMPDEST SWAP3 POP DUP3 DUP3 ADD SWAP1 POP DUP1 DUP3 GT ISZERO PUSH2 0x159 JUMPI PUSH2 0x158 PUSH2 0xFF JUMP JUMPDEST JUMPDEST SWAP3 SWAP2 POP POP JUMP JUMPDEST PUSH0 PUSH1 0xFF DUP3 AND SWAP1 POP SWAP2 SWAP1 POP JUMP JUMPDEST PUSH0 PUSH2 0x175 DUP3 PUSH2 0x15F JUMP JUMPDEST SWAP2 POP PUSH1 0xFF DUP3 SUB PUSH2 0x188 JUMPI PUSH2 0x187 PUSH2 0xFF JUMP JUMPDEST JUMPDEST PUSH1 0x1 DUP3 ADD SWAP1 POP SWAP2 SWAP1 POP JUMP INVALID LOG2 PUSH5 0x6970667358 0x22 SLT KECCAK256 RETF 0xD9 MUL SHR 0x2B ADD 0x2F 0x2F SWAP12 NOT SHR DUP9 LOG4 0x2C DUP5 INVALID MCOPY 0xDE SWAP6 0x4F PUSH28 0xF66EC336EE251BBAF396F564736F6C634300081E0033000000000000 "
				},
				"gasEstimates": {
					"creation": {
						"codeDepositCost": "91400",
						"executionCost": "infinite",
						"totalCost": "infinite"
					},
					"external": {
						"sumOfEle()": "infinite"
					}
				},
				"methodIdentifiers": {
					"sumOfEle()": "7009cfe3"
				}
			},
			"storageLayout": {
				"storage": [
					{
						"astId": 18,
						"contract": "contracts/LabCycle/Assignment3/SumOfEle.sol:SumOfEle",
						"label": "arr",
						"offset": 0,
						"slot": "0",
						"type": "t_array(t_uint256)12_storage"
					}
				],
				"types": {
					"t_array(t_uint256)12_storage": {
						"base": "t_uint256",
						"encoding": "inplace",
						"label": "uint256[12]",
						"numberOfBytes": "384"
					},
					"t_uint256": {
						"encoding": "inplace",
						"label": "uint256",
						"numberOfBytes": "32"
					}
				}
			},
			"userdoc": {
				"kind": "user",
				"methods": {},
				"version": 1
			}
		}
	}
}