{
	"contracts/LabCycle/PimeCheck.sol": {
		"PrimeCheck": {
			"abi": [
				{
					"inputs": [
						{
							"internalType": "uint256",
							"name": "n",
							"type": "uint256"
						}
					],
					"name": "prime",
					"outputs": [
						{
							"internalType": "string",
							"name": "",
							"type": "string"
						}
					],
					"stateMutability": "pure",
					"type": "function"
				}
			],
			"devdoc": {
				"kind": "dev",
				"methods": {},
				"version": 1
			},
			"evm": {
				"assembly": "    /* \"contracts/LabCycle/PimeCheck.sol\":65:412  contract PrimeCheck {... */\n  mstore(0x40, 0x80)\n  callvalue\n  dup1\n  iszero\n  tag_1\n  jumpi\n  revert(0x00, 0x00)\ntag_1:\n  pop\n  dataSize(sub_0)\n  dup1\n  dataOffset(sub_0)\n  0x00\n  codecopy\n  0x00\n  return\nstop\n\nsub_0: assembly {\n        /* \"contracts/LabCycle/PimeCheck.sol\":65:412  contract PrimeCheck {... */\n      mstore(0x40, 0x80)\n      callvalue\n      dup1\n      iszero\n      tag_1\n      jumpi\n      revert(0x00, 0x00)\n    tag_1:\n      pop\n      jumpi(tag_2, lt(calldatasize, 0x04))\n      shr(0xe0, calldataload(0x00))\n      dup1\n      0x72e0e984\n      eq\n      tag_3\n      jumpi\n    tag_2:\n      revert(0x00, 0x00)\n        /* \"contracts/LabCycle/PimeCheck.sol\":92:409  function prime(uint n) public pure returns (string memory) {... */\n    tag_3:\n      tag_4\n      0x04\n      dup1\n      calldatasize\n      sub\n      dup2\n      add\n      swap1\n      tag_5\n      swap2\n      swap1\n      tag_6\n      jump\t// in\n    tag_5:\n      tag_7\n      jump\t// in\n    tag_4:\n      mload(0x40)\n      tag_8\n      swap2\n      swap1\n      tag_9\n      jump\t// in\n    tag_8:\n      mload(0x40)\n      dup1\n      swap2\n      sub\n      swap1\n      return\n    tag_7:\n        /* \"contracts/LabCycle/PimeCheck.sol\":136:149  string memory */\n      0x60\n        /* \"contracts/LabCycle/PimeCheck.sol\":170:171  2 */\n      0x02\n        /* \"contracts/LabCycle/PimeCheck.sol\":166:167  n */\n      dup3\n        /* \"contracts/LabCycle/PimeCheck.sol\":166:171  n < 2 */\n      lt\n        /* \"contracts/LabCycle/PimeCheck.sol\":162:218  if (n < 2) {... */\n      iszero\n      tag_11\n      jumpi\n        /* \"contracts/LabCycle/PimeCheck.sol\":188:206  return \"Not Prime\" */\n      mload(0x40)\n      dup1\n      0x40\n      add\n      0x40\n      mstore\n      dup1\n      0x09\n      dup2\n      mstore\n      0x20\n      add\n      0x4e6f74205072696d650000000000000000000000000000000000000000000000\n      dup2\n      mstore\n      pop\n      swap1\n      pop\n      jump(tag_10)\n        /* \"contracts/LabCycle/PimeCheck.sol\":162:218  if (n < 2) {... */\n    tag_11:\n        /* \"contracts/LabCycle/PimeCheck.sol\":243:249  uint i */\n      0x00\n        /* \"contracts/LabCycle/PimeCheck.sol\":252:253  2 */\n      0x02\n        /* \"contracts/LabCycle/PimeCheck.sol\":243:253  uint i = 2 */\n      swap1\n      pop\n        /* \"contracts/LabCycle/PimeCheck.sol\":238:367  for (uint i = 2; i <= n / 2; i++) {... */\n    tag_12:\n        /* \"contracts/LabCycle/PimeCheck.sol\":264:265  2 */\n      0x02\n        /* \"contracts/LabCycle/PimeCheck.sol\":260:261  n */\n      dup4\n        /* \"contracts/LabCycle/PimeCheck.sol\":260:265  n / 2 */\n      tag_15\n      swap2\n      swap1\n      tag_16\n      jump\t// in\n    tag_15:\n        /* \"contracts/LabCycle/PimeCheck.sol\":255:256  i */\n      dup2\n        /* \"contracts/LabCycle/PimeCheck.sol\":255:265  i <= n / 2 */\n      gt\n        /* \"contracts/LabCycle/PimeCheck.sol\":238:367  for (uint i = 2; i <= n / 2; i++) {... */\n      tag_13\n      jumpi\n        /* \"contracts/LabCycle/PimeCheck.sol\":300:301  0 */\n      0x00\n        /* \"contracts/LabCycle/PimeCheck.sol\":295:296  i */\n      dup2\n        /* \"contracts/LabCycle/PimeCheck.sol\":291:292  n */\n      dup5\n        /* \"contracts/LabCycle/PimeCheck.sol\":291:296  n % i */\n      tag_17\n      swap2\n      swap1\n      tag_18\n      jump\t// in\n    tag_17:\n        /* \"contracts/LabCycle/PimeCheck.sol\":291:301  n % i == 0 */\n      sub\n        /* \"contracts/LabCycle/PimeCheck.sol\":287:356  if (n % i == 0) {... */\n      tag_19\n      jumpi\n        /* \"contracts/LabCycle/PimeCheck.sol\":322:340  return \"Not Prime\" */\n      mload(0x40)\n      dup1\n      0x40\n      add\n      0x40\n      mstore\n      dup1\n      0x09\n      dup2\n      mstore\n      0x20\n      add\n      0x4e6f74205072696d650000000000000000000000000000000000000000000000\n      dup2\n      mstore\n      pop\n      swap2\n      pop\n      pop\n      jump(tag_10)\n        /* \"contracts/LabCycle/PimeCheck.sol\":287:356  if (n % i == 0) {... */\n    tag_19:\n        /* \"contracts/LabCycle/PimeCheck.sol\":267:270  i++ */\n      dup1\n      dup1\n      tag_20\n      swap1\n      tag_21\n      jump\t// in\n    tag_20:\n      swap2\n      pop\n      pop\n        /* \"contracts/LabCycle/PimeCheck.sol\":238:367  for (uint i = 2; i <= n / 2; i++) {... */\n      jump(tag_12)\n    tag_13:\n      pop\n        /* \"contracts/LabCycle/PimeCheck.sol\":387:401  return \"Prime\" */\n      mload(0x40)\n      dup1\n      0x40\n      add\n      0x40\n      mstore\n      dup1\n      0x05\n      dup2\n      mstore\n      0x20\n      add\n      0x5072696d65000000000000000000000000000000000000000000000000000000\n      dup2\n      mstore\n      pop\n      swap1\n      pop\n        /* \"contracts/LabCycle/PimeCheck.sol\":92:409  function prime(uint n) public pure returns (string memory) {... */\n    tag_10:\n      swap2\n      swap1\n      pop\n      jump\t// out\n        /* \"#utility.yul\":88:205   */\n    tag_23:\n        /* \"#utility.yul\":197:198   */\n      0x00\n        /* \"#utility.yul\":194:195   */\n      0x00\n        /* \"#utility.yul\":187:199   */\n      revert\n        /* \"#utility.yul\":334:411   */\n    tag_25:\n        /* \"#utility.yul\":371:378   */\n      0x00\n        /* \"#utility.yul\":400:405   */\n      dup2\n        /* \"#utility.yul\":389:405   */\n      swap1\n      pop\n        /* \"#utility.yul\":334:411   */\n      swap2\n      swap1\n      pop\n      jump\t// out\n        /* \"#utility.yul\":417:539   */\n    tag_26:\n        /* \"#utility.yul\":490:514   */\n      tag_41\n        /* \"#utility.yul\":508:513   */\n      dup2\n        /* \"#utility.yul\":490:514   */\n      tag_25\n      jump\t// in\n    tag_41:\n        /* \"#utility.yul\":483:488   */\n      dup2\n        /* \"#utility.yul\":480:515   */\n      eq\n        /* \"#utility.yul\":470:533   */\n      tag_42\n      jumpi\n        /* \"#utility.yul\":529:530   */\n      0x00\n        /* \"#utility.yul\":526:527   */\n      0x00\n        /* \"#utility.yul\":519:531   */\n      revert\n        /* \"#utility.yul\":470:533   */\n    tag_42:\n        /* \"#utility.yul\":417:539   */\n      pop\n      jump\t// out\n        /* \"#utility.yul\":545:684   */\n    tag_27:\n        /* \"#utility.yul\":591:596   */\n      0x00\n        /* \"#utility.yul\":629:635   */\n      dup2\n        /* \"#utility.yul\":616:636   */\n      calldataload\n        /* \"#utility.yul\":607:636   */\n      swap1\n      pop\n        /* \"#utility.yul\":645:678   */\n      tag_44\n        /* \"#utility.yul\":672:677   */\n      dup2\n        /* \"#utility.yul\":645:678   */\n      tag_26\n      jump\t// in\n    tag_44:\n        /* \"#utility.yul\":545:684   */\n      swap3\n      swap2\n      pop\n      pop\n      jump\t// out\n        /* \"#utility.yul\":690:1019   */\n    tag_6:\n        /* \"#utility.yul\":749:755   */\n      0x00\n        /* \"#utility.yul\":798:800   */\n      0x20\n        /* \"#utility.yul\":786:795   */\n      dup3\n        /* \"#utility.yul\":777:784   */\n      dup5\n        /* \"#utility.yul\":773:796   */\n      sub\n        /* \"#utility.yul\":769:801   */\n      slt\n        /* \"#utility.yul\":766:885   */\n      iszero\n      tag_46\n      jumpi\n        /* \"#utility.yul\":804:883   */\n      tag_47\n      tag_23\n      jump\t// in\n    tag_47:\n        /* \"#utility.yul\":766:885   */\n    tag_46:\n        /* \"#utility.yul\":924:925   */\n      0x00\n        /* \"#utility.yul\":949:1002   */\n      tag_48\n        /* \"#utility.yul\":994:1001   */\n      dup5\n        /* \"#utility.yul\":985:991   */\n      dup3\n        /* \"#utility.yul\":974:983   */\n      dup6\n        /* \"#utility.yul\":970:992   */\n      add\n        /* \"#utility.yul\":949:1002   */\n      tag_27\n      jump\t// in\n    tag_48:\n        /* \"#utility.yul\":939:1002   */\n      swap2\n      pop\n        /* \"#utility.yul\":895:1012   */\n      pop\n        /* \"#utility.yul\":690:1019   */\n      swap3\n      swap2\n      pop\n      pop\n      jump\t// out\n        /* \"#utility.yul\":1025:1124   */\n    tag_28:\n        /* \"#utility.yul\":1077:1083   */\n      0x00\n        /* \"#utility.yul\":1111:1116   */\n      dup2\n        /* \"#utility.yul\":1105:1117   */\n      mload\n        /* \"#utility.yul\":1095:1117   */\n      swap1\n      pop\n        /* \"#utility.yul\":1025:1124   */\n      swap2\n      swap1\n      pop\n      jump\t// out\n        /* \"#utility.yul\":1130:1299   */\n    tag_29:\n        /* \"#utility.yul\":1214:1225   */\n      0x00\n        /* \"#utility.yul\":1248:1254   */\n      dup3\n        /* \"#utility.yul\":1243:1246   */\n      dup3\n        /* \"#utility.yul\":1236:1255   */\n      mstore\n        /* \"#utility.yul\":1288:1292   */\n      0x20\n        /* \"#utility.yul\":1283:1286   */\n      dup3\n        /* \"#utility.yul\":1279:1293   */\n      add\n        /* \"#utility.yul\":1264:1293   */\n      swap1\n      pop\n        /* \"#utility.yul\":1130:1299   */\n      swap3\n      swap2\n      pop\n      pop\n      jump\t// out\n        /* \"#utility.yul\":1305:1444   */\n    tag_30:\n        /* \"#utility.yul\":1394:1400   */\n      dup3\n        /* \"#utility.yul\":1389:1392   */\n      dup2\n        /* \"#utility.yul\":1384:1387   */\n      dup4\n        /* \"#utility.yul\":1378:1401   */\n      mcopy\n        /* \"#utility.yul\":1435:1436   */\n      0x00\n        /* \"#utility.yul\":1426:1432   */\n      dup4\n        /* \"#utility.yul\":1421:1424   */\n      dup4\n        /* \"#utility.yul\":1417:1433   */\n      add\n        /* \"#utility.yul\":1410:1437   */\n      mstore\n        /* \"#utility.yul\":1305:1444   */\n      pop\n      pop\n      pop\n      jump\t// out\n        /* \"#utility.yul\":1450:1552   */\n    tag_31:\n        /* \"#utility.yul\":1491:1497   */\n      0x00\n        /* \"#utility.yul\":1542:1544   */\n      0x1f\n        /* \"#utility.yul\":1538:1545   */\n      not\n        /* \"#utility.yul\":1533:1535   */\n      0x1f\n        /* \"#utility.yul\":1526:1531   */\n      dup4\n        /* \"#utility.yul\":1522:1536   */\n      add\n        /* \"#utility.yul\":1518:1546   */\n      and\n        /* \"#utility.yul\":1508:1546   */\n      swap1\n      pop\n        /* \"#utility.yul\":1450:1552   */\n      swap2\n      swap1\n      pop\n      jump\t// out\n        /* \"#utility.yul\":1558:1935   */\n    tag_32:\n        /* \"#utility.yul\":1646:1649   */\n      0x00\n        /* \"#utility.yul\":1674:1713   */\n      tag_54\n        /* \"#utility.yul\":1707:1712   */\n      dup3\n        /* \"#utility.yul\":1674:1713   */\n      tag_28\n      jump\t// in\n    tag_54:\n        /* \"#utility.yul\":1729:1800   */\n      tag_55\n        /* \"#utility.yul\":1793:1799   */\n      dup2\n        /* \"#utility.yul\":1788:1791   */\n      dup6\n        /* \"#utility.yul\":1729:1800   */\n      tag_29\n      jump\t// in\n    tag_55:\n        /* \"#utility.yul\":1722:1800   */\n      swap4\n      pop\n        /* \"#utility.yul\":1809:1874   */\n      tag_56\n        /* \"#utility.yul\":1867:1873   */\n      dup2\n        /* \"#utility.yul\":1862:1865   */\n      dup6\n        /* \"#utility.yul\":1855:1859   */\n      0x20\n        /* \"#utility.yul\":1848:1853   */\n      dup7\n        /* \"#utility.yul\":1844:1860   */\n      add\n        /* \"#utility.yul\":1809:1874   */\n      tag_30\n      jump\t// in\n    tag_56:\n        /* \"#utility.yul\":1899:1928   */\n      tag_57\n        /* \"#utility.yul\":1921:1927   */\n      dup2\n        /* \"#utility.yul\":1899:1928   */\n      tag_31\n      jump\t// in\n    tag_57:\n        /* \"#utility.yul\":1894:1897   */\n      dup5\n        /* \"#utility.yul\":1890:1929   */\n      add\n        /* \"#utility.yul\":1883:1929   */\n      swap2\n      pop\n        /* \"#utility.yul\":1650:1935   */\n      pop\n        /* \"#utility.yul\":1558:1935   */\n      swap3\n      swap2\n      pop\n      pop\n      jump\t// out\n        /* \"#utility.yul\":1941:2254   */\n    tag_9:\n        /* \"#utility.yul\":2054:2058   */\n      0x00\n        /* \"#utility.yul\":2092:2094   */\n      0x20\n        /* \"#utility.yul\":2081:2090   */\n      dup3\n        /* \"#utility.yul\":2077:2095   */\n      add\n        /* \"#utility.yul\":2069:2095   */\n      swap1\n      pop\n        /* \"#utility.yul\":2141:2150   */\n      dup2\n        /* \"#utility.yul\":2135:2139   */\n      dup2\n        /* \"#utility.yul\":2131:2151   */\n      sub\n        /* \"#utility.yul\":2127:2128   */\n      0x00\n        /* \"#utility.yul\":2116:2125   */\n      dup4\n        /* \"#utility.yul\":2112:2129   */\n      add\n        /* \"#utility.yul\":2105:2152   */\n      mstore\n        /* \"#utility.yul\":2169:2247   */\n      tag_59\n        /* \"#utility.yul\":2242:2246   */\n      dup2\n        /* \"#utility.yul\":2233:2239   */\n      dup5\n        /* \"#utility.yul\":2169:2247   */\n      tag_32\n      jump\t// in\n    tag_59:\n        /* \"#utility.yul\":2161:2247   */\n      swap1\n      pop\n        /* \"#utility.yul\":1941:2254   */\n      swap3\n      swap2\n      pop\n      pop\n      jump\t// out\n        /* \"#utility.yul\":2260:2440   */\n    tag_33:\n        /* \"#utility.yul\":2308:2385   */\n      0x4e487b7100000000000000000000000000000000000000000000000000000000\n        /* \"#utility.yul\":2305:2306   */\n      0x00\n        /* \"#utility.yul\":2298:2386   */\n      mstore\n        /* \"#utility.yul\":2405:2409   */\n      0x12\n        /* \"#utility.yul\":2402:2403   */\n      0x04\n        /* \"#utility.yul\":2395:2410   */\n      mstore\n        /* \"#utility.yul\":2429:2433   */\n      0x24\n        /* \"#utility.yul\":2426:2427   */\n      0x00\n        /* \"#utility.yul\":2419:2434   */\n      revert\n        /* \"#utility.yul\":2446:2626   */\n    tag_34:\n        /* \"#utility.yul\":2494:2571   */\n      0x4e487b7100000000000000000000000000000000000000000000000000000000\n        /* \"#utility.yul\":2491:2492   */\n      0x00\n        /* \"#utility.yul\":2484:2572   */\n      mstore\n        /* \"#utility.yul\":2591:2595   */\n      0x11\n        /* \"#utility.yul\":2588:2589   */\n      0x04\n        /* \"#utility.yul\":2581:2596   */\n      mstore\n        /* \"#utility.yul\":2615:2619   */\n      0x24\n        /* \"#utility.yul\":2612:2613   */\n      0x00\n        /* \"#utility.yul\":2605:2620   */\n      revert\n        /* \"#utility.yul\":2632:2817   */\n    tag_16:\n        /* \"#utility.yul\":2672:2673   */\n      0x00\n        /* \"#utility.yul\":2689:2709   */\n      tag_63\n        /* \"#utility.yul\":2707:2708   */\n      dup3\n        /* \"#utility.yul\":2689:2709   */\n      tag_25\n      jump\t// in\n    tag_63:\n        /* \"#utility.yul\":2684:2709   */\n      swap2\n      pop\n        /* \"#utility.yul\":2723:2743   */\n      tag_64\n        /* \"#utility.yul\":2741:2742   */\n      dup4\n        /* \"#utility.yul\":2723:2743   */\n      tag_25\n      jump\t// in\n    tag_64:\n        /* \"#utility.yul\":2718:2743   */\n      swap3\n      pop\n        /* \"#utility.yul\":2762:2763   */\n      dup3\n        /* \"#utility.yul\":2752:2787   */\n      tag_65\n      jumpi\n        /* \"#utility.yul\":2767:2785   */\n      tag_66\n      tag_33\n      jump\t// in\n    tag_66:\n        /* \"#utility.yul\":2752:2787   */\n    tag_65:\n        /* \"#utility.yul\":2809:2810   */\n      dup3\n        /* \"#utility.yul\":2806:2807   */\n      dup3\n        /* \"#utility.yul\":2802:2811   */\n      div\n        /* \"#utility.yul\":2797:2811   */\n      swap1\n      pop\n        /* \"#utility.yul\":2632:2817   */\n      swap3\n      swap2\n      pop\n      pop\n      jump\t// out\n        /* \"#utility.yul\":2823:2999   */\n    tag_18:\n        /* \"#utility.yul\":2855:2856   */\n      0x00\n        /* \"#utility.yul\":2872:2892   */\n      tag_68\n        /* \"#utility.yul\":2890:2891   */\n      dup3\n        /* \"#utility.yul\":2872:2892   */\n      tag_25\n      jump\t// in\n    tag_68:\n        /* \"#utility.yul\":2867:2892   */\n      swap2\n      pop\n        /* \"#utility.yul\":2906:2926   */\n      tag_69\n        /* \"#utility.yul\":2924:2925   */\n      dup4\n        /* \"#utility.yul\":2906:2926   */\n      tag_25\n      jump\t// in\n    tag_69:\n        /* \"#utility.yul\":2901:2926   */\n      swap3\n      pop\n        /* \"#utility.yul\":2945:2946   */\n      dup3\n        /* \"#utility.yul\":2935:2970   */\n      tag_70\n      jumpi\n        /* \"#utility.yul\":2950:2968   */\n      tag_71\n      tag_33\n      jump\t// in\n    tag_71:\n        /* \"#utility.yul\":2935:2970   */\n    tag_70:\n        /* \"#utility.yul\":2991:2992   */\n      dup3\n        /* \"#utility.yul\":2988:2989   */\n      dup3\n        /* \"#utility.yul\":2984:2993   */\n      mod\n        /* \"#utility.yul\":2979:2993   */\n      swap1\n      pop\n        /* \"#utility.yul\":2823:2999   */\n      swap3\n      swap2\n      pop\n      pop\n      jump\t// out\n        /* \"#utility.yul\":3005:3238   */\n    tag_21:\n        /* \"#utility.yul\":3044:3047   */\n      0x00\n        /* \"#utility.yul\":3067:3091   */\n      tag_73\n        /* \"#utility.yul\":3085:3090   */\n      dup3\n        /* \"#utility.yul\":3067:3091   */\n      tag_25\n      jump\t// in\n    tag_73:\n        /* \"#utility.yul\":3058:3091   */\n      swap2\n      pop\n        /* \"#utility.yul\":3113:3179   */\n      0xffffffffffffffffffffffffffffffffffffffffffffffffffffffffffffffff\n        /* \"#utility.yul\":3106:3111   */\n      dup3\n        /* \"#utility.yul\":3103:3180   */\n      sub\n        /* \"#utility.yul\":3100:3203   */\n      tag_74\n      jumpi\n        /* \"#utility.yul\":3183:3201   */\n      tag_75\n      tag_34\n      jump\t// in\n    tag_75:\n        /* \"#utility.yul\":3100:3203   */\n    tag_74:\n        /* \"#utility.yul\":3230:3231   */\n      0x01\n        /* \"#utility.yul\":3223:3228   */\n      dup3\n        /* \"#utility.yul\":3219:3232   */\n      add\n        /* \"#utility.yul\":3212:3232   */\n      swap1\n      pop\n        /* \"#utility.yul\":3005:3238   */\n      swap2\n      swap1\n      pop\n      jump\t// out\n\n    auxdata: 0xa26469706673582212202bd6a8b1a2203f7e71ef152c59fc45bab973808e630b11d6be1609a832c3964a64736f6c634300081e0033\n}\n",
				"bytecode": {
					"linkReferences": {},
					"object": "6080604052348015600e575f5ffd5b506103898061001c5f395ff3fe608060405234801561000f575f5ffd5b5060043610610029575f3560e01c806372e0e9841461002d575b5f5ffd5b61004760048036038101906100429190610197565b61005d565b6040516100549190610232565b60405180910390f35b606060028210156100a5576040518060400160405280600981526020017f4e6f74205072696d650000000000000000000000000000000000000000000000815250905061015b565b5f600290505b6002836100b891906102ac565b8111610121575f81846100cb91906102dc565b0361010e576040518060400160405280600981526020017f4e6f74205072696d65000000000000000000000000000000000000000000000081525091505061015b565b80806101199061030c565b9150506100ab565b506040518060400160405280600581526020017f5072696d6500000000000000000000000000000000000000000000000000000081525090505b919050565b5f5ffd5b5f819050919050565b61017681610164565b8114610180575f5ffd5b50565b5f813590506101918161016d565b92915050565b5f602082840312156101ac576101ab610160565b5b5f6101b984828501610183565b91505092915050565b5f81519050919050565b5f82825260208201905092915050565b8281835e5f83830152505050565b5f601f19601f8301169050919050565b5f610204826101c2565b61020e81856101cc565b935061021e8185602086016101dc565b610227816101ea565b840191505092915050565b5f6020820190508181035f83015261024a81846101fa565b905092915050565b7f4e487b71000000000000000000000000000000000000000000000000000000005f52601260045260245ffd5b7f4e487b71000000000000000000000000000000000000000000000000000000005f52601160045260245ffd5b5f6102b682610164565b91506102c183610164565b9250826102d1576102d0610252565b5b828204905092915050565b5f6102e682610164565b91506102f183610164565b92508261030157610300610252565b5b828206905092915050565b5f61031682610164565b91507fffffffffffffffffffffffffffffffffffffffffffffffffffffffffffffffff82036103485761034761027f565b5b60018201905091905056fea26469706673582212202bd6a8b1a2203f7e71ef152c59fc45bab973808e630b11d6be1609a832c3964a64736f6c634300081e0033",
					"opcodes": "PUSH1 0x80 PUSH1 0x40 MSTORE CALLVALUE DUP1 ISZERO PUSH1 0xE JUMPI PUSH0 PUSH0 REVERT JUMPDEST POP PUSH2 0x389 DUP1 PUSH2 0x1C PUSH0 CODECOPY PUSH0 RETURN INVALID PUSH1 0x80 PUSH1 0x40 MSTORE CALLVALUE DUP1 ISZERO PUSH2 0xF JUMPI PUSH0 PUSH0 REVERT JUMPDEST POP PUSH1 0x4 CALLDATASIZE LT PUSH2 0x29 JUMPI PUSH0 CALLDATALOAD PUSH1 0xE0 SHR DUP1 PUSH4 0x72E0E984 EQ PUSH2 0x2D JUMPI JUMPDEST PUSH0 PUSH0 REVERT JUMPDEST PUSH2 0x47 PUSH1 0x4 DUP1 CALLDATASIZE SUB DUP2 ADD SWAP1 PUSH2 0x42 SWAP2 SWAP1 PUSH2 0x197 JUMP JUMPDEST PUSH2 0x5D JUMP JUMPDEST PUSH1 0x40 MLOAD PUSH2 0x54 SWAP2 SWAP1 PUSH2 0x232 JUMP JUMPDEST PUSH1 0x40 MLOAD DUP1 SWAP2 SUB SWAP1 RETURN JUMPDEST PUSH1 0x60 PUSH1 0x2 DUP3 LT ISZERO PUSH2 0xA5 JUMPI PUSH1 0x40 MLOAD DUP1 PUSH1 0x40 ADD PUSH1 0x40 MSTORE DUP1 PUSH1 0x9 DUP2 MSTORE PUSH1 0x20 ADD PUSH32 0x4E6F74205072696D650000000000000000000000000000000000000000000000 DUP2 MSTORE POP SWAP1 POP PUSH2 0x15B JUMP JUMPDEST PUSH0 PUSH1 0x2 SWAP1 POP JUMPDEST PUSH1 0x2 DUP4 PUSH2 0xB8 SWAP2 SWAP1 PUSH2 0x2AC JUMP JUMPDEST DUP2 GT PUSH2 0x121 JUMPI PUSH0 DUP2 DUP5 PUSH2 0xCB SWAP2 SWAP1 PUSH2 0x2DC JUMP JUMPDEST SUB PUSH2 0x10E JUMPI PUSH1 0x40 MLOAD DUP1 PUSH1 0x40 ADD PUSH1 0x40 MSTORE DUP1 PUSH1 0x9 DUP2 MSTORE PUSH1 0x20 ADD PUSH32 0x4E6F74205072696D650000000000000000000000000000000000000000000000 DUP2 MSTORE POP SWAP2 POP POP PUSH2 0x15B JUMP JUMPDEST DUP1 DUP1 PUSH2 0x119 SWAP1 PUSH2 0x30C JUMP JUMPDEST SWAP2 POP POP PUSH2 0xAB JUMP JUMPDEST POP PUSH1 0x40 MLOAD DUP1 PUSH1 0x40 ADD PUSH1 0x40 MSTORE DUP1 PUSH1 0x5 DUP2 MSTORE PUSH1 0x20 ADD PUSH32 0x5072696D65000000000000000000000000000000000000000000000000000000 DUP2 MSTORE POP SWAP1 POP JUMPDEST SWAP2 SWAP1 POP JUMP JUMPDEST PUSH0 PUSH0 REVERT JUMPDEST PUSH0 DUP2 SWAP1 POP SWAP2 SWAP1 POP JUMP JUMPDEST PUSH2 0x176 DUP2 PUSH2 0x164 JUMP JUMPDEST DUP2 EQ PUSH2 0x180 JUMPI PUSH0 PUSH0 REVERT JUMPDEST POP JUMP JUMPDEST PUSH0 DUP2 CALLDATALOAD SWAP1 POP PUSH2 0x191 DUP2 PUSH2 0x16D JUMP JUMPDEST SWAP3 SWAP2 POP POP JUMP JUMPDEST PUSH0 PUSH1 0x20 DUP3 DUP5 SUB SLT ISZERO PUSH2 0x1AC JUMPI PUSH2 0x1AB PUSH2 0x160 JUMP JUMPDEST JUMPDEST PUSH0 PUSH2 0x1B9 DUP5 DUP3 DUP6 ADD PUSH2 0x183 JUMP JUMPDEST SWAP2 POP POP SWAP3 SWAP2 POP POP JUMP JUMPDEST PUSH0 DUP2 MLOAD SWAP1 POP SWAP2 SWAP1 POP JUMP JUMPDEST PUSH0 DUP3 DUP3 MSTORE PUSH1 0x20 DUP3 ADD SWAP1 POP SWAP3 SWAP2 POP POP JUMP JUMPDEST DUP3 DUP2 DUP4 MCOPY PUSH0 DUP4 DUP4 ADD MSTORE POP POP POP JUMP JUMPDEST PUSH0 PUSH1 0x1F NOT PUSH1 0x1F DUP4 ADD AND SWAP1 POP SWAP2 SWAP1 POP JUMP JUMPDEST PUSH0 PUSH2 0x204 DUP3 PUSH2 0x1C2 JUMP JUMPDEST PUSH2 0x20E DUP2 DUP6 PUSH2 0x1CC JUMP JUMPDEST SWAP4 POP PUSH2 0x21E DUP2 DUP6 PUSH1 0x20 DUP7 ADD PUSH2 0x1DC JUMP JUMPDEST PUSH2 0x227 DUP2 PUSH2 0x1EA JUMP JUMPDEST DUP5 ADD SWAP2 POP POP SWAP3 SWAP2 POP POP JUMP JUMPDEST PUSH0 PUSH1 0x20 DUP3 ADD SWAP1 POP DUP2 DUP2 SUB PUSH0 DUP4 ADD MSTORE PUSH2 0x24A DUP2 DUP5 PUSH2 0x1FA JUMP JUMPDEST SWAP1 POP SWAP3 SWAP2 POP POP JUMP JUMPDEST PUSH32 0x4E487B7100000000000000000000000000000000000000000000000000000000 PUSH0 MSTORE PUSH1 0x12 PUSH1 0x4 MSTORE PUSH1 0x24 PUSH0 REVERT JUMPDEST PUSH32 0x4E487B7100000000000000000000000000000000000000000000000000000000 PUSH0 MSTORE PUSH1 0x11 PUSH1 0x4 MSTORE PUSH1 0x24 PUSH0 REVERT JUMPDEST PUSH0 PUSH2 0x2B6 DUP3 PUSH2 0x164 JUMP JUMPDEST SWAP2 POP PUSH2 0x2C1 DUP4 PUSH2 0x164 JUMP JUMPDEST SWAP3 POP DUP3 PUSH2 0x2D1 JUMPI PUSH2 0x2D0 PUSH2 0x252 JUMP JUMPDEST JUMPDEST DUP3 DUP3 DIV SWAP1 POP SWAP3 SWAP2 POP POP JUMP JUMPDEST PUSH0 PUSH2 0x2E6 DUP3 PUSH2 0x164 JUMP JUMPDEST SWAP2 POP PUSH2 0x2F1 DUP4 PUSH2 0x164 JUMP JUMPDEST SWAP3 POP DUP3 PUSH2 0x301 JUMPI PUSH2 0x300 PUSH2 0x252 JUMP JUMPDEST JUMPDEST DUP3 DUP3 MOD SWAP1 POP SWAP3 SWAP2 POP POP JUMP JUMPDEST PUSH0 PUSH2 0x316 DUP3 PUSH2 0x164 JUMP JUMPDEST SWAP2 POP PUSH32 0xFFFFFFFFFFFFFFFFFFFFFFFFFFFFFFFFFFFFFFFFFFFFFFFFFFFFFFFFFFFFFFFF DUP3 SUB PUSH2 0x348 JUMPI PUSH2 0x347 PUSH2 0x27F JUMP JUMPDEST JUMPDEST PUSH1 0x1 DUP3 ADD SWAP1 POP SWAP2 SWAP1 POP JUMP INVALID LOG2 PUSH5 0x6970667358 0x22 SLT KECCAK256 0x2B 0xD6 0xA8 0xB1 LOG2 KECCAK256 EXTCODEHASH PUSH31 0x71EF152C59FC45BAB973808E630B11D6BE1609A832C3964A64736F6C634300 ADDMOD 0x1E STOP CALLER "
				},
				"gasEstimates": {
					"creation": {
						"codeDepositCost": "181000",
						"executionCost": "224",
						"totalCost": "181224"
					},
					"external": {
						"prime(uint256)": "infinite"
					}
				},
				"methodIdentifiers": {
					"prime(uint256)": "72e0e984"
				}
			},
			"storageLayout": {
				"storage": [],
				"types": null
			},
			"userdoc": {
				"kind": "user",
				"methods": {},
				"version": 1
			}
		}
	}
}