{
	"contracts/LabCycle/LargeEleInArr.sol": {
		"LargeEle": {
			"abi": [
				{
					"inputs": [],
					"name": "largeEle",
					"outputs": [
						{
							"internalType": "uint256",
							"name": "",
							"type": "uint256"
						}
					],
					"stateMutability": "view",
					"type": "function"
				}
			],
			"devdoc": {
				"kind": "dev",
				"methods": {},
				"version": 1
			},
			"evm": {
				"assembly": "    /* \"contracts/LabCycle/LargeEleInArr.sol\":64:366  contract LargeEle{... */\n  mstore(0x40, 0x80)\n    /* \"contracts/LabCycle/LargeEleInArr.sol\":88:131  uint[12] arr = [2,433,1,4,3,235,656,9,87,6] */\n  mload(0x40)\n  dup1\n  0x0140\n  add\n  0x40\n  mstore\n  dup1\n    /* \"contracts/LabCycle/LargeEleInArr.sol\":104:105  2 */\n  0x02\n    /* \"contracts/LabCycle/LargeEleInArr.sol\":88:131  uint[12] arr = [2,433,1,4,3,235,656,9,87,6] */\n  0xffff\n  and\n  dup2\n  mstore\n  0x20\n  add\n    /* \"contracts/LabCycle/LargeEleInArr.sol\":106:109  433 */\n  0x01b1\n    /* \"contracts/LabCycle/LargeEleInArr.sol\":88:131  uint[12] arr = [2,433,1,4,3,235,656,9,87,6] */\n  0xffff\n  and\n  dup2\n  mstore\n  0x20\n  add\n    /* \"contracts/LabCycle/LargeEleInArr.sol\":110:111  1 */\n  0x01\n    /* \"contracts/LabCycle/LargeEleInArr.sol\":88:131  uint[12] arr = [2,433,1,4,3,235,656,9,87,6] */\n  0xffff\n  and\n  dup2\n  mstore\n  0x20\n  add\n    /* \"contracts/LabCycle/LargeEleInArr.sol\":112:113  4 */\n  0x04\n    /* \"contracts/LabCycle/LargeEleInArr.sol\":88:131  uint[12] arr = [2,433,1,4,3,235,656,9,87,6] */\n  0xffff\n  and\n  dup2\n  mstore\n  0x20\n  add\n    /* \"contracts/LabCycle/LargeEleInArr.sol\":114:115  3 */\n  0x03\n    /* \"contracts/LabCycle/LargeEleInArr.sol\":88:131  uint[12] arr = [2,433,1,4,3,235,656,9,87,6] */\n  0xffff\n  and\n  dup2\n  mstore\n  0x20\n  add\n    /* \"contracts/LabCycle/LargeEleInArr.sol\":116:119  235 */\n  0xeb\n    /* \"contracts/LabCycle/LargeEleInArr.sol\":88:131  uint[12] arr = [2,433,1,4,3,235,656,9,87,6] */\n  0xffff\n  and\n  dup2\n  mstore\n  0x20\n  add\n    /* \"contracts/LabCycle/LargeEleInArr.sol\":120:123  656 */\n  0x0290\n    /* \"contracts/LabCycle/LargeEleInArr.sol\":88:131  uint[12] arr = [2,433,1,4,3,235,656,9,87,6] */\n  0xffff\n  and\n  dup2\n  mstore\n  0x20\n  add\n    /* \"contracts/LabCycle/LargeEleInArr.sol\":124:125  9 */\n  0x09\n    /* \"contracts/LabCycle/LargeEleInArr.sol\":88:131  uint[12] arr = [2,433,1,4,3,235,656,9,87,6] */\n  0xffff\n  and\n  dup2\n  mstore\n  0x20\n  add\n    /* \"contracts/LabCycle/LargeEleInArr.sol\":126:128  87 */\n  0x57\n    /* \"contracts/LabCycle/LargeEleInArr.sol\":88:131  uint[12] arr = [2,433,1,4,3,235,656,9,87,6] */\n  0xffff\n  and\n  dup2\n  mstore\n  0x20\n  add\n    /* \"contracts/LabCycle/LargeEleInArr.sol\":129:130  6 */\n  0x06\n    /* \"contracts/LabCycle/LargeEleInArr.sol\":88:131  uint[12] arr = [2,433,1,4,3,235,656,9,87,6] */\n  0xffff\n  and\n  dup2\n  mstore\n  pop\n  0x00\n  swap1\n  0x0a\n  tag_1\n  swap3\n  swap2\n  swap1\n  tag_2\n  jump\t// in\ntag_1:\n  pop\n    /* \"contracts/LabCycle/LargeEleInArr.sol\":64:366  contract LargeEle{... */\n  callvalue\n  dup1\n  iszero\n  tag_3\n  jumpi\n  revert(0x00, 0x00)\ntag_3:\n  pop\n  jump(tag_4)\ntag_2:\n  dup3\n  0x0c\n  dup2\n  add\n  swap3\n  dup3\n  iszero\n  tag_5\n  jumpi\n  swap2\n  0x20\n  mul\n  dup3\n  add\ntag_6:\n  dup3\n  dup2\n  gt\n  iszero\n  tag_7\n  jumpi\n  dup3\n  mload\n  dup3\n  swap1\n  0xffff\n  and\n  swap1\n  sstore\n  swap2\n  0x20\n  add\n  swap2\n  swap1\n  0x01\n  add\n  swap1\n  jump(tag_6)\ntag_7:\ntag_5:\n  pop\n  swap1\n  pop\n  tag_8\n  swap2\n  swap1\n  tag_9\n  jump\t// in\ntag_8:\n  pop\n  swap1\n  jump\t// out\ntag_9:\ntag_10:\n  dup1\n  dup3\n  gt\n  iszero\n  tag_11\n  jumpi\n  0x00\n  dup2\n  0x00\n  swap1\n  sstore\n  pop\n  0x01\n  add\n  jump(tag_10)\ntag_11:\n  pop\n  swap1\n  jump\t// out\ntag_4:\n  dataSize(sub_0)\n  dup1\n  dataOffset(sub_0)\n  0x00\n  codecopy\n  0x00\n  return\nstop\n\nsub_0: assembly {\n        /* \"contracts/LabCycle/LargeEleInArr.sol\":64:366  contract LargeEle{... */\n      mstore(0x40, 0x80)\n      callvalue\n      dup1\n      iszero\n      tag_1\n      jumpi\n      revert(0x00, 0x00)\n    tag_1:\n      pop\n      jumpi(tag_2, lt(calldatasize, 0x04))\n      shr(0xe0, calldataload(0x00))\n      dup1\n      0x4add8717\n      eq\n      tag_3\n      jumpi\n    tag_2:\n      revert(0x00, 0x00)\n        /* \"contracts/LabCycle/LargeEleInArr.sol\":140:363  function largeEle() public view returns(uint){... */\n    tag_3:\n      tag_4\n      tag_5\n      jump\t// in\n    tag_4:\n      mload(0x40)\n      tag_6\n      swap2\n      swap1\n      tag_7\n      jump\t// in\n    tag_6:\n      mload(0x40)\n      dup1\n      swap2\n      sub\n      swap1\n      return\n    tag_5:\n        /* \"contracts/LabCycle/LargeEleInArr.sol\":180:184  uint */\n      0x00\n        /* \"contracts/LabCycle/LargeEleInArr.sol\":196:204  uint max */\n      0x00\n        /* \"contracts/LabCycle/LargeEleInArr.sol\":207:208  0 */\n      0x00\n        /* \"contracts/LabCycle/LargeEleInArr.sol\":196:208  uint max = 0 */\n      swap1\n      pop\n        /* \"contracts/LabCycle/LargeEleInArr.sol\":224:230  uint i */\n      0x00\n        /* \"contracts/LabCycle/LargeEleInArr.sol\":231:232  0 */\n      0x00\n        /* \"contracts/LabCycle/LargeEleInArr.sol\":224:232  uint i=0 */\n      swap1\n      pop\n        /* \"contracts/LabCycle/LargeEleInArr.sol\":219:333  for (uint i=0; i<arr.length;i++) ... */\n    tag_9:\n        /* \"contracts/LabCycle/LargeEleInArr.sol\":236:246  arr.length */\n      0x0c\n        /* \"contracts/LabCycle/LargeEleInArr.sol\":234:235  i */\n      dup2\n        /* \"contracts/LabCycle/LargeEleInArr.sol\":234:246  i<arr.length */\n      lt\n        /* \"contracts/LabCycle/LargeEleInArr.sol\":219:333  for (uint i=0; i<arr.length;i++) ... */\n      iszero\n      tag_10\n      jumpi\n        /* \"contracts/LabCycle/LargeEleInArr.sol\":287:290  max */\n      dup2\n        /* \"contracts/LabCycle/LargeEleInArr.sol\":280:283  arr */\n      0x00\n        /* \"contracts/LabCycle/LargeEleInArr.sol\":284:285  i */\n      dup3\n        /* \"contracts/LabCycle/LargeEleInArr.sol\":280:286  arr[i] */\n      0x0c\n      dup2\n      lt\n      tag_12\n      jumpi\n      tag_13\n      tag_14\n      jump\t// in\n    tag_13:\n    tag_12:\n      add\n      sload\n        /* \"contracts/LabCycle/LargeEleInArr.sol\":280:290  arr[i]>max */\n      gt\n        /* \"contracts/LabCycle/LargeEleInArr.sol\":277:321  if(arr[i]>max)... */\n      iszero\n      tag_16\n      jumpi\n        /* \"contracts/LabCycle/LargeEleInArr.sol\":315:318  arr */\n      0x00\n        /* \"contracts/LabCycle/LargeEleInArr.sol\":319:320  i */\n      dup2\n        /* \"contracts/LabCycle/LargeEleInArr.sol\":315:321  arr[i] */\n      0x0c\n      dup2\n      lt\n      tag_17\n      jumpi\n      tag_18\n      tag_14\n      jump\t// in\n    tag_18:\n    tag_17:\n      add\n      sload\n        /* \"contracts/LabCycle/LargeEleInArr.sol\":309:321  max = arr[i] */\n      swap2\n      pop\n        /* \"contracts/LabCycle/LargeEleInArr.sol\":277:321  if(arr[i]>max)... */\n    tag_16:\n        /* \"contracts/LabCycle/LargeEleInArr.sol\":247:250  i++ */\n      dup1\n      dup1\n      0x01\n      add\n      swap2\n      pop\n      pop\n        /* \"contracts/LabCycle/LargeEleInArr.sol\":219:333  for (uint i=0; i<arr.length;i++) ... */\n      jump(tag_9)\n    tag_10:\n      pop\n        /* \"contracts/LabCycle/LargeEleInArr.sol\":352:355  max */\n      dup1\n        /* \"contracts/LabCycle/LargeEleInArr.sol\":345:355  return max */\n      swap2\n      pop\n      pop\n        /* \"contracts/LabCycle/LargeEleInArr.sol\":140:363  function largeEle() public view returns(uint){... */\n      swap1\n      jump\t// out\n        /* \"#utility.yul\":7:84   */\n    tag_20:\n        /* \"#utility.yul\":44:51   */\n      0x00\n        /* \"#utility.yul\":73:78   */\n      dup2\n        /* \"#utility.yul\":62:78   */\n      swap1\n      pop\n        /* \"#utility.yul\":7:84   */\n      swap2\n      swap1\n      pop\n      jump\t// out\n        /* \"#utility.yul\":90:208   */\n    tag_21:\n        /* \"#utility.yul\":177:201   */\n      tag_25\n        /* \"#utility.yul\":195:200   */\n      dup2\n        /* \"#utility.yul\":177:201   */\n      tag_20\n      jump\t// in\n    tag_25:\n        /* \"#utility.yul\":172:175   */\n      dup3\n        /* \"#utility.yul\":165:202   */\n      mstore\n        /* \"#utility.yul\":90:208   */\n      pop\n      pop\n      jump\t// out\n        /* \"#utility.yul\":214:436   */\n    tag_7:\n        /* \"#utility.yul\":307:311   */\n      0x00\n        /* \"#utility.yul\":345:347   */\n      0x20\n        /* \"#utility.yul\":334:343   */\n      dup3\n        /* \"#utility.yul\":330:348   */\n      add\n        /* \"#utility.yul\":322:348   */\n      swap1\n      pop\n        /* \"#utility.yul\":358:429   */\n      tag_27\n        /* \"#utility.yul\":426:427   */\n      0x00\n        /* \"#utility.yul\":415:424   */\n      dup4\n        /* \"#utility.yul\":411:428   */\n      add\n        /* \"#utility.yul\":402:408   */\n      dup5\n        /* \"#utility.yul\":358:429   */\n      tag_21\n      jump\t// in\n    tag_27:\n        /* \"#utility.yul\":214:436   */\n      swap3\n      swap2\n      pop\n      pop\n      jump\t// out\n        /* \"#utility.yul\":442:622   */\n    tag_14:\n        /* \"#utility.yul\":490:567   */\n      0x4e487b7100000000000000000000000000000000000000000000000000000000\n        /* \"#utility.yul\":487:488   */\n      0x00\n        /* \"#utility.yul\":480:568   */\n      mstore\n        /* \"#utility.yul\":587:591   */\n      0x32\n        /* \"#utility.yul\":584:585   */\n      0x04\n        /* \"#utility.yul\":577:592   */\n      mstore\n        /* \"#utility.yul\":611:615   */\n      0x24\n        /* \"#utility.yul\":608:609   */\n      0x00\n        /* \"#utility.yul\":601:616   */\n      revert\n\n    auxdata: 0xa26469706673582212200e039f156a0b63c172113586c20d7127db0344b77bd3089ca49d0af9250a88c864736f6c634300081e0033\n}\n",
				"bytecode": {
					"linkReferences": {},
					"object": "6080604052604051806101400160405280600261ffff1681526020016101b161ffff168152602001600161ffff168152602001600461ffff168152602001600361ffff16815260200160eb61ffff16815260200161029061ffff168152602001600961ffff168152602001605761ffff168152602001600661ffff168152505f90600a61008d92919061009f565b50348015610099575f5ffd5b50610100565b82600c81019282156100d4579160200282015b828111156100d3578251829061ffff169055916020019190600101906100b2565b5b5090506100e191906100e5565b5090565b5b808211156100fc575f815f9055506001016100e6565b5090565b6101278061010d5f395ff3fe6080604052348015600e575f5ffd5b50600436106026575f3560e01c80634add871714602a575b5f5ffd5b60306044565b604051603b919060ad565b60405180910390f35b5f5f5f90505f5f90505b600c811015608f57815f82600c8110606757606660c4565b5b015411156083575f81600c8110607e57607d60c4565b5b015491505b8080600101915050604e565b508091505090565b5f819050919050565b60a7816097565b82525050565b5f60208201905060be5f83018460a0565b92915050565b7f4e487b71000000000000000000000000000000000000000000000000000000005f52603260045260245ffdfea26469706673582212200e039f156a0b63c172113586c20d7127db0344b77bd3089ca49d0af9250a88c864736f6c634300081e0033",
					"opcodes": "PUSH1 0x80 PUSH1 0x40 MSTORE PUSH1 0x40 MLOAD DUP1 PUSH2 0x140 ADD PUSH1 0x40 MSTORE DUP1 PUSH1 0x2 PUSH2 0xFFFF AND DUP2 MSTORE PUSH1 0x20 ADD PUSH2 0x1B1 PUSH2 0xFFFF AND DUP2 MSTORE PUSH1 0x20 ADD PUSH1 0x1 PUSH2 0xFFFF AND DUP2 MSTORE PUSH1 0x20 ADD PUSH1 0x4 PUSH2 0xFFFF AND DUP2 MSTORE PUSH1 0x20 ADD PUSH1 0x3 PUSH2 0xFFFF AND DUP2 MSTORE PUSH1 0x20 ADD PUSH1 0xEB PUSH2 0xFFFF AND DUP2 MSTORE PUSH1 0x20 ADD PUSH2 0x290 PUSH2 0xFFFF AND DUP2 MSTORE PUSH1 0x20 ADD PUSH1 0x9 PUSH2 0xFFFF AND DUP2 MSTORE PUSH1 0x20 ADD PUSH1 0x57 PUSH2 0xFFFF AND DUP2 MSTORE PUSH1 0x20 ADD PUSH1 0x6 PUSH2 0xFFFF AND DUP2 MSTORE POP PUSH0 SWAP1 PUSH1 0xA PUSH2 0x8D SWAP3 SWAP2 SWAP1 PUSH2 0x9F JUMP JUMPDEST POP CALLVALUE DUP1 ISZERO PUSH2 0x99 JUMPI PUSH0 PUSH0 REVERT JUMPDEST POP PUSH2 0x100 JUMP JUMPDEST DUP3 PUSH1 0xC DUP2 ADD SWAP3 DUP3 ISZERO PUSH2 0xD4 JUMPI SWAP2 PUSH1 0x20 MUL DUP3 ADD JUMPDEST DUP3 DUP2 GT ISZERO PUSH2 0xD3 JUMPI DUP3 MLOAD DUP3 SWAP1 PUSH2 0xFFFF AND SWAP1 SSTORE SWAP2 PUSH1 0x20 ADD SWAP2 SWAP1 PUSH1 0x1 ADD SWAP1 PUSH2 0xB2 JUMP JUMPDEST JUMPDEST POP SWAP1 POP PUSH2 0xE1 SWAP2 SWAP1 PUSH2 0xE5 JUMP JUMPDEST POP SWAP1 JUMP JUMPDEST JUMPDEST DUP1 DUP3 GT ISZERO PUSH2 0xFC JUMPI PUSH0 DUP2 PUSH0 SWAP1 SSTORE POP PUSH1 0x1 ADD PUSH2 0xE6 JUMP JUMPDEST POP SWAP1 JUMP JUMPDEST PUSH2 0x127 DUP1 PUSH2 0x10D PUSH0 CODECOPY PUSH0 RETURN INVALID PUSH1 0x80 PUSH1 0x40 MSTORE CALLVALUE DUP1 ISZERO PUSH1 0xE JUMPI PUSH0 PUSH0 REVERT JUMPDEST POP PUSH1 0x4 CALLDATASIZE LT PUSH1 0x26 JUMPI PUSH0 CALLDATALOAD PUSH1 0xE0 SHR DUP1 PUSH4 0x4ADD8717 EQ PUSH1 0x2A JUMPI JUMPDEST PUSH0 PUSH0 REVERT JUMPDEST PUSH1 0x30 PUSH1 0x44 JUMP JUMPDEST PUSH1 0x40 MLOAD PUSH1 0x3B SWAP2 SWAP1 PUSH1 0xAD JUMP JUMPDEST PUSH1 0x40 MLOAD DUP1 SWAP2 SUB SWAP1 RETURN JUMPDEST PUSH0 PUSH0 PUSH0 SWAP1 POP PUSH0 PUSH0 SWAP1 POP JUMPDEST PUSH1 0xC DUP2 LT ISZERO PUSH1 0x8F JUMPI DUP2 PUSH0 DUP3 PUSH1 0xC DUP2 LT PUSH1 0x67 JUMPI PUSH1 0x66 PUSH1 0xC4 JUMP JUMPDEST JUMPDEST ADD SLOAD GT ISZERO PUSH1 0x83 JUMPI PUSH0 DUP2 PUSH1 0xC DUP2 LT PUSH1 0x7E JUMPI PUSH1 0x7D PUSH1 0xC4 JUMP JUMPDEST JUMPDEST ADD SLOAD SWAP2 POP JUMPDEST DUP1 DUP1 PUSH1 0x1 ADD SWAP2 POP POP PUSH1 0x4E JUMP JUMPDEST POP DUP1 SWAP2 POP POP SWAP1 JUMP JUMPDEST PUSH0 DUP2 SWAP1 POP SWAP2 SWAP1 POP JUMP JUMPDEST PUSH1 0xA7 DUP2 PUSH1 0x97 JUMP JUMPDEST DUP3 MSTORE POP POP JUMP JUMPDEST PUSH0 PUSH1 0x20 DUP3 ADD SWAP1 POP PUSH1 0xBE PUSH0 DUP4 ADD DUP5 PUSH1 0xA0 JUMP JUMPDEST SWAP3 SWAP2 POP POP JUMP JUMPDEST PUSH32 0x4E487B7100000000000000000000000000000000000000000000000000000000 PUSH0 MSTORE PUSH1 0x32 PUSH1 0x4 MSTORE PUSH1 0x24 PUSH0 REVERT INVALID LOG2 PUSH5 0x6970667358 0x22 SLT KECCAK256 0xE SUB SWAP16 ISZERO PUSH11 0xB63C172113586C20D7127 0xDB SUB PREVRANDAO 0xB7 PUSH28 0xD3089CA49D0AF9250A88C864736F6C634300081E0033000000000000 "
				},
				"gasEstimates": {
					"creation": {
						"codeDepositCost": "59000",
						"executionCost": "infinite",
						"totalCost": "infinite"
					},
					"external": {
						"largeEle()": "infinite"
					}
				},
				"methodIdentifiers": {
					"largeEle()": "4add8717"
				}
			},
			"storageLayout": {
				"storage": [
					{
						"astId": 16,
						"contract": "contracts/LabCycle/LargeEleInArr.sol:LargeEle",
						"label": "arr",
						"offset": 0,
						"slot": "0",
						"type": "t_array(t_uint256)12_storage"
					}
				],
				"types": {
					"t_array(t_uint256)12_storage": {
						"base": "t_uint256",
						"encoding": "inplace",
						"label": "uint256[12]",
						"numberOfBytes": "384"
					},
					"t_uint256": {
						"encoding": "inplace",
						"label": "uint256",
						"numberOfBytes": "32"
					}
				}
			},
			"userdoc": {
				"kind": "user",
				"methods": {},
				"version": 1
			}
		}
	}
}