{
	"contracts/LabCycle/SortArr.sol": {
		"SortArr": {
			"abi": [
				{
					"inputs": [],
					"name": "sort",
					"outputs": [
						{
							"internalType": "uint256[12]",
							"name": "",
							"type": "uint256[12]"
						}
					],
					"stateMutability": "view",
					"type": "function"
				}
			],
			"devdoc": {
				"kind": "dev",
				"methods": {},
				"version": 1
			},
			"evm": {
				"assembly": "    /* \"contracts/LabCycle/SortArr.sol\":65:625  contract SortArr {... */\n  mstore(0x40, 0x80)\n    /* \"contracts/LabCycle/SortArr.sol\":89:149  uint[12] arr = [2, 433, 1, 4, 3, 235, 656, 9, 87, 6, 50, 15] */\n  mload(0x40)\n  dup1\n  0x0180\n  add\n  0x40\n  mstore\n  dup1\n    /* \"contracts/LabCycle/SortArr.sol\":105:106  2 */\n  0x02\n    /* \"contracts/LabCycle/SortArr.sol\":89:149  uint[12] arr = [2, 433, 1, 4, 3, 235, 656, 9, 87, 6, 50, 15] */\n  0xffff\n  and\n  dup2\n  mstore\n  0x20\n  add\n    /* \"contracts/LabCycle/SortArr.sol\":108:111  433 */\n  0x01b1\n    /* \"contracts/LabCycle/SortArr.sol\":89:149  uint[12] arr = [2, 433, 1, 4, 3, 235, 656, 9, 87, 6, 50, 15] */\n  0xffff\n  and\n  dup2\n  mstore\n  0x20\n  add\n    /* \"contracts/LabCycle/SortArr.sol\":113:114  1 */\n  0x01\n    /* \"contracts/LabCycle/SortArr.sol\":89:149  uint[12] arr = [2, 433, 1, 4, 3, 235, 656, 9, 87, 6, 50, 15] */\n  0xffff\n  and\n  dup2\n  mstore\n  0x20\n  add\n    /* \"contracts/LabCycle/SortArr.sol\":116:117  4 */\n  0x04\n    /* \"contracts/LabCycle/SortArr.sol\":89:149  uint[12] arr = [2, 433, 1, 4, 3, 235, 656, 9, 87, 6, 50, 15] */\n  0xffff\n  and\n  dup2\n  mstore\n  0x20\n  add\n    /* \"contracts/LabCycle/SortArr.sol\":119:120  3 */\n  0x03\n    /* \"contracts/LabCycle/SortArr.sol\":89:149  uint[12] arr = [2, 433, 1, 4, 3, 235, 656, 9, 87, 6, 50, 15] */\n  0xffff\n  and\n  dup2\n  mstore\n  0x20\n  add\n    /* \"contracts/LabCycle/SortArr.sol\":122:125  235 */\n  0xeb\n    /* \"contracts/LabCycle/SortArr.sol\":89:149  uint[12] arr = [2, 433, 1, 4, 3, 235, 656, 9, 87, 6, 50, 15] */\n  0xffff\n  and\n  dup2\n  mstore\n  0x20\n  add\n    /* \"contracts/LabCycle/SortArr.sol\":127:130  656 */\n  0x0290\n    /* \"contracts/LabCycle/SortArr.sol\":89:149  uint[12] arr = [2, 433, 1, 4, 3, 235, 656, 9, 87, 6, 50, 15] */\n  0xffff\n  and\n  dup2\n  mstore\n  0x20\n  add\n    /* \"contracts/LabCycle/SortArr.sol\":132:133  9 */\n  0x09\n    /* \"contracts/LabCycle/SortArr.sol\":89:149  uint[12] arr = [2, 433, 1, 4, 3, 235, 656, 9, 87, 6, 50, 15] */\n  0xffff\n  and\n  dup2\n  mstore\n  0x20\n  add\n    /* \"contracts/LabCycle/SortArr.sol\":135:137  87 */\n  0x57\n    /* \"contracts/LabCycle/SortArr.sol\":89:149  uint[12] arr = [2, 433, 1, 4, 3, 235, 656, 9, 87, 6, 50, 15] */\n  0xffff\n  and\n  dup2\n  mstore\n  0x20\n  add\n    /* \"contracts/LabCycle/SortArr.sol\":139:140  6 */\n  0x06\n    /* \"contracts/LabCycle/SortArr.sol\":89:149  uint[12] arr = [2, 433, 1, 4, 3, 235, 656, 9, 87, 6, 50, 15] */\n  0xffff\n  and\n  dup2\n  mstore\n  0x20\n  add\n    /* \"contracts/LabCycle/SortArr.sol\":142:144  50 */\n  0x32\n    /* \"contracts/LabCycle/SortArr.sol\":89:149  uint[12] arr = [2, 433, 1, 4, 3, 235, 656, 9, 87, 6, 50, 15] */\n  0xffff\n  and\n  dup2\n  mstore\n  0x20\n  add\n    /* \"contracts/LabCycle/SortArr.sol\":146:148  15 */\n  0x0f\n    /* \"contracts/LabCycle/SortArr.sol\":89:149  uint[12] arr = [2, 433, 1, 4, 3, 235, 656, 9, 87, 6, 50, 15] */\n  0xffff\n  and\n  dup2\n  mstore\n  pop\n  0x00\n  swap1\n  0x0c\n  tag_1\n  swap3\n  swap2\n  swap1\n  tag_2\n  jump\t// in\ntag_1:\n  pop\n    /* \"contracts/LabCycle/SortArr.sol\":65:625  contract SortArr {... */\n  callvalue\n  dup1\n  iszero\n  tag_3\n  jumpi\n  revert(0x00, 0x00)\ntag_3:\n  pop\n  jump(tag_4)\ntag_2:\n  dup3\n  0x0c\n  dup2\n  add\n  swap3\n  dup3\n  iszero\n  tag_5\n  jumpi\n  swap2\n  0x20\n  mul\n  dup3\n  add\ntag_6:\n  dup3\n  dup2\n  gt\n  iszero\n  tag_7\n  jumpi\n  dup3\n  mload\n  dup3\n  swap1\n  0xffff\n  and\n  swap1\n  sstore\n  swap2\n  0x20\n  add\n  swap2\n  swap1\n  0x01\n  add\n  swap1\n  jump(tag_6)\ntag_7:\ntag_5:\n  pop\n  swap1\n  pop\n  tag_8\n  swap2\n  swap1\n  tag_9\n  jump\t// in\ntag_8:\n  pop\n  swap1\n  jump\t// out\ntag_9:\ntag_10:\n  dup1\n  dup3\n  gt\n  iszero\n  tag_11\n  jumpi\n  0x00\n  dup2\n  0x00\n  swap1\n  sstore\n  pop\n  0x01\n  add\n  jump(tag_10)\ntag_11:\n  pop\n  swap1\n  jump\t// out\ntag_4:\n  dataSize(sub_0)\n  dup1\n  dataOffset(sub_0)\n  0x00\n  codecopy\n  0x00\n  return\nstop\n\nsub_0: assembly {\n        /* \"contracts/LabCycle/SortArr.sol\":65:625  contract SortArr {... */\n      mstore(0x40, 0x80)\n      callvalue\n      dup1\n      iszero\n      tag_1\n      jumpi\n      revert(0x00, 0x00)\n    tag_1:\n      pop\n      jumpi(tag_2, lt(calldatasize, 0x04))\n      shr(0xe0, calldataload(0x00))\n      dup1\n      0x8cdc86a6\n      eq\n      tag_3\n      jumpi\n    tag_2:\n      revert(0x00, 0x00)\n        /* \"contracts/LabCycle/SortArr.sol\":158:622  function sort() public view returns (uint[12] memory) {... */\n    tag_3:\n      tag_4\n      tag_5\n      jump\t// in\n    tag_4:\n      mload(0x40)\n      tag_6\n      swap2\n      swap1\n      tag_7\n      jump\t// in\n    tag_6:\n      mload(0x40)\n      dup1\n      swap2\n      sub\n      swap1\n      return\n    tag_5:\n        /* \"contracts/LabCycle/SortArr.sol\":195:210  uint[12] memory */\n      tag_8\n      tag_9\n      jump\t// in\n    tag_8:\n        /* \"contracts/LabCycle/SortArr.sol\":223:248  uint[12] memory sortedArr */\n      0x00\n        /* \"contracts/LabCycle/SortArr.sol\":251:254  arr */\n      0x00\n        /* \"contracts/LabCycle/SortArr.sol\":223:254  uint[12] memory sortedArr = arr */\n      0x0c\n      dup1\n      0x20\n      mul\n      mload(0x40)\n      swap1\n      dup2\n      add\n      0x40\n      mstore\n      dup1\n      swap3\n      swap2\n      swap1\n      dup3\n      0x0c\n      dup1\n      iszero\n      tag_11\n      jumpi\n      0x20\n      mul\n      dup3\n      add\n      swap2\n    tag_12:\n      dup2\n      sload\n      dup2\n      mstore\n      0x20\n      add\n      swap1\n      0x01\n      add\n      swap1\n      dup1\n      dup4\n      gt\n      tag_12\n      jumpi\n    tag_11:\n      pop\n      pop\n      pop\n      pop\n      pop\n      swap1\n      pop\n        /* \"contracts/LabCycle/SortArr.sol\":295:301  uint i */\n      0x00\n        /* \"contracts/LabCycle/SortArr.sol\":304:305  1 */\n      0x01\n        /* \"contracts/LabCycle/SortArr.sol\":295:305  uint i = 1 */\n      swap1\n      pop\n        /* \"contracts/LabCycle/SortArr.sol\":290:586  for (uint i = 1; i < sortedArr.length; i++) {... */\n    tag_13:\n        /* \"contracts/LabCycle/SortArr.sol\":311:327  sortedArr.length */\n      0x0c\n        /* \"contracts/LabCycle/SortArr.sol\":307:308  i */\n      dup2\n        /* \"contracts/LabCycle/SortArr.sol\":307:327  i < sortedArr.length */\n      lt\n        /* \"contracts/LabCycle/SortArr.sol\":290:586  for (uint i = 1; i < sortedArr.length; i++) {... */\n      iszero\n      tag_14\n      jumpi\n        /* \"contracts/LabCycle/SortArr.sol\":349:357  uint key */\n      0x00\n        /* \"contracts/LabCycle/SortArr.sol\":360:369  sortedArr */\n      dup3\n        /* \"contracts/LabCycle/SortArr.sol\":370:371  i */\n      dup3\n        /* \"contracts/LabCycle/SortArr.sol\":360:372  sortedArr[i] */\n      0x0c\n      dup2\n      lt\n      tag_16\n      jumpi\n      tag_17\n      tag_18\n      jump\t// in\n    tag_17:\n    tag_16:\n      0x20\n      mul\n      add\n      mload\n        /* \"contracts/LabCycle/SortArr.sol\":349:372  uint key = sortedArr[i] */\n      swap1\n      pop\n        /* \"contracts/LabCycle/SortArr.sol\":387:393  uint j */\n      0x00\n        /* \"contracts/LabCycle/SortArr.sol\":396:397  i */\n      dup3\n        /* \"contracts/LabCycle/SortArr.sol\":387:397  uint j = i */\n      swap1\n      pop\n        /* \"contracts/LabCycle/SortArr.sol\":414:542  while (j > 0 && sortedArr[j - 1] > key) {... */\n    tag_19:\n        /* \"contracts/LabCycle/SortArr.sol\":425:426  0 */\n      0x00\n        /* \"contracts/LabCycle/SortArr.sol\":421:422  j */\n      dup2\n        /* \"contracts/LabCycle/SortArr.sol\":421:426  j > 0 */\n      gt\n        /* \"contracts/LabCycle/SortArr.sol\":421:452  j > 0 && sortedArr[j - 1] > key */\n      dup1\n      iszero\n      tag_21\n      jumpi\n      pop\n        /* \"contracts/LabCycle/SortArr.sol\":449:452  key */\n      dup2\n        /* \"contracts/LabCycle/SortArr.sol\":430:439  sortedArr */\n      dup5\n        /* \"contracts/LabCycle/SortArr.sol\":444:445  1 */\n      0x01\n        /* \"contracts/LabCycle/SortArr.sol\":440:441  j */\n      dup4\n        /* \"contracts/LabCycle/SortArr.sol\":440:445  j - 1 */\n      tag_22\n      swap2\n      swap1\n      tag_23\n      jump\t// in\n    tag_22:\n        /* \"contracts/LabCycle/SortArr.sol\":430:446  sortedArr[j - 1] */\n      0x0c\n      dup2\n      lt\n      tag_24\n      jumpi\n      tag_25\n      tag_18\n      jump\t// in\n    tag_25:\n    tag_24:\n      0x20\n      mul\n      add\n      mload\n        /* \"contracts/LabCycle/SortArr.sol\":430:452  sortedArr[j - 1] > key */\n      gt\n        /* \"contracts/LabCycle/SortArr.sol\":421:452  j > 0 && sortedArr[j - 1] > key */\n    tag_21:\n        /* \"contracts/LabCycle/SortArr.sol\":414:542  while (j > 0 && sortedArr[j - 1] > key) {... */\n      iszero\n      tag_20\n      jumpi\n        /* \"contracts/LabCycle/SortArr.sol\":488:497  sortedArr */\n      dup4\n        /* \"contracts/LabCycle/SortArr.sol\":502:503  1 */\n      0x01\n        /* \"contracts/LabCycle/SortArr.sol\":498:499  j */\n      dup3\n        /* \"contracts/LabCycle/SortArr.sol\":498:503  j - 1 */\n      tag_26\n      swap2\n      swap1\n      tag_23\n      jump\t// in\n    tag_26:\n        /* \"contracts/LabCycle/SortArr.sol\":488:504  sortedArr[j - 1] */\n      0x0c\n      dup2\n      lt\n      tag_27\n      jumpi\n      tag_28\n      tag_18\n      jump\t// in\n    tag_28:\n    tag_27:\n      0x20\n      mul\n      add\n      mload\n        /* \"contracts/LabCycle/SortArr.sol\":473:482  sortedArr */\n      dup5\n        /* \"contracts/LabCycle/SortArr.sol\":483:484  j */\n      dup3\n        /* \"contracts/LabCycle/SortArr.sol\":473:485  sortedArr[j] */\n      0x0c\n      dup2\n      lt\n      tag_29\n      jumpi\n      tag_30\n      tag_18\n      jump\t// in\n    tag_30:\n    tag_29:\n      0x20\n      mul\n      add\n        /* \"contracts/LabCycle/SortArr.sol\":473:504  sortedArr[j] = sortedArr[j - 1] */\n      dup2\n      dup2\n      mstore\n      pop\n      pop\n        /* \"contracts/LabCycle/SortArr.sol\":523:526  j-- */\n      dup1\n      dup1\n      tag_31\n      swap1\n      tag_32\n      jump\t// in\n    tag_31:\n      swap2\n      pop\n      pop\n        /* \"contracts/LabCycle/SortArr.sol\":414:542  while (j > 0 && sortedArr[j - 1] > key) {... */\n      jump(tag_19)\n    tag_20:\n        /* \"contracts/LabCycle/SortArr.sol\":571:574  key */\n      dup2\n        /* \"contracts/LabCycle/SortArr.sol\":556:565  sortedArr */\n      dup5\n        /* \"contracts/LabCycle/SortArr.sol\":566:567  j */\n      dup3\n        /* \"contracts/LabCycle/SortArr.sol\":556:568  sortedArr[j] */\n      0x0c\n      dup2\n      lt\n      tag_33\n      jumpi\n      tag_34\n      tag_18\n      jump\t// in\n    tag_34:\n    tag_33:\n      0x20\n      mul\n      add\n        /* \"contracts/LabCycle/SortArr.sol\":556:574  sortedArr[j] = key */\n      dup2\n      dup2\n      mstore\n      pop\n      pop\n        /* \"contracts/LabCycle/SortArr.sol\":334:586  {... */\n      pop\n      pop\n        /* \"contracts/LabCycle/SortArr.sol\":329:332  i++ */\n      dup1\n      dup1\n      0x01\n      add\n      swap2\n      pop\n      pop\n        /* \"contracts/LabCycle/SortArr.sol\":290:586  for (uint i = 1; i < sortedArr.length; i++) {... */\n      jump(tag_13)\n    tag_14:\n      pop\n        /* \"contracts/LabCycle/SortArr.sol\":605:614  sortedArr */\n      dup1\n        /* \"contracts/LabCycle/SortArr.sol\":598:614  return sortedArr */\n      swap2\n      pop\n      pop\n        /* \"contracts/LabCycle/SortArr.sol\":158:622  function sort() public view returns (uint[12] memory) {... */\n      swap1\n      jump\t// out\n    tag_9:\n      mload(0x40)\n      dup1\n      0x0180\n      add\n      0x40\n      mstore\n      dup1\n      0x0c\n      swap1\n      0x20\n      dup3\n      mul\n      dup1\n      calldatasize\n      dup4\n      calldatacopy\n      dup1\n      dup3\n      add\n      swap2\n      pop\n      pop\n      swap1\n      pop\n      pop\n      swap1\n      jump\t// out\n        /* \"#utility.yul\":7:112   */\n    tag_35:\n        /* \"#utility.yul\":73:79   */\n      0x00\n        /* \"#utility.yul\":101:105   */\n      0x0c\n        /* \"#utility.yul\":91:105   */\n      swap1\n      pop\n        /* \"#utility.yul\":7:112   */\n      swap2\n      swap1\n      pop\n      jump\t// out\n        /* \"#utility.yul\":118:262   */\n    tag_36:\n        /* \"#utility.yul\":216:227   */\n      0x00\n        /* \"#utility.yul\":253:256   */\n      dup2\n        /* \"#utility.yul\":238:256   */\n      swap1\n      pop\n        /* \"#utility.yul\":118:262   */\n      swap3\n      swap2\n      pop\n      pop\n      jump\t// out\n        /* \"#utility.yul\":268:367   */\n    tag_37:\n        /* \"#utility.yul\":334:338   */\n      0x00\n        /* \"#utility.yul\":357:360   */\n      dup2\n        /* \"#utility.yul\":349:360   */\n      swap1\n      pop\n        /* \"#utility.yul\":268:367   */\n      swap2\n      swap1\n      pop\n      jump\t// out\n        /* \"#utility.yul\":373:450   */\n    tag_38:\n        /* \"#utility.yul\":410:417   */\n      0x00\n        /* \"#utility.yul\":439:444   */\n      dup2\n        /* \"#utility.yul\":428:444   */\n      swap1\n      pop\n        /* \"#utility.yul\":373:450   */\n      swap2\n      swap1\n      pop\n      jump\t// out\n        /* \"#utility.yul\":456:564   */\n    tag_39:\n        /* \"#utility.yul\":533:557   */\n      tag_50\n        /* \"#utility.yul\":551:556   */\n      dup2\n        /* \"#utility.yul\":533:557   */\n      tag_38\n      jump\t// in\n    tag_50:\n        /* \"#utility.yul\":528:531   */\n      dup3\n        /* \"#utility.yul\":521:558   */\n      mstore\n        /* \"#utility.yul\":456:564   */\n      pop\n      pop\n      jump\t// out\n        /* \"#utility.yul\":570:749   */\n    tag_40:\n        /* \"#utility.yul\":639:649   */\n      0x00\n        /* \"#utility.yul\":660:706   */\n      tag_52\n        /* \"#utility.yul\":702:705   */\n      dup4\n        /* \"#utility.yul\":694:700   */\n      dup4\n        /* \"#utility.yul\":660:706   */\n      tag_39\n      jump\t// in\n    tag_52:\n        /* \"#utility.yul\":738:742   */\n      0x20\n        /* \"#utility.yul\":733:736   */\n      dup4\n        /* \"#utility.yul\":729:743   */\n      add\n        /* \"#utility.yul\":715:743   */\n      swap1\n      pop\n        /* \"#utility.yul\":570:749   */\n      swap3\n      swap2\n      pop\n      pop\n      jump\t// out\n        /* \"#utility.yul\":755:867   */\n    tag_41:\n        /* \"#utility.yul\":824:828   */\n      0x00\n        /* \"#utility.yul\":856:860   */\n      0x20\n        /* \"#utility.yul\":851:854   */\n      dup3\n        /* \"#utility.yul\":847:861   */\n      add\n        /* \"#utility.yul\":839:861   */\n      swap1\n      pop\n        /* \"#utility.yul\":755:867   */\n      swap2\n      swap1\n      pop\n      jump\t// out\n        /* \"#utility.yul\":907:1607   */\n    tag_42:\n        /* \"#utility.yul\":1045:1098   */\n      tag_55\n        /* \"#utility.yul\":1092:1097   */\n      dup2\n        /* \"#utility.yul\":1045:1098   */\n      tag_35\n      jump\t// in\n    tag_55:\n        /* \"#utility.yul\":1114:1199   */\n      tag_56\n        /* \"#utility.yul\":1192:1198   */\n      dup2\n        /* \"#utility.yul\":1187:1190   */\n      dup5\n        /* \"#utility.yul\":1114:1199   */\n      tag_36\n      jump\t// in\n    tag_56:\n        /* \"#utility.yul\":1107:1199   */\n      swap3\n      pop\n        /* \"#utility.yul\":1223:1278   */\n      tag_57\n        /* \"#utility.yul\":1272:1277   */\n      dup3\n        /* \"#utility.yul\":1223:1278   */\n      tag_37\n      jump\t// in\n    tag_57:\n        /* \"#utility.yul\":1301:1308   */\n      dup1\n        /* \"#utility.yul\":1332:1333   */\n      0x00\n        /* \"#utility.yul\":1317:1600   */\n    tag_58:\n        /* \"#utility.yul\":1342:1348   */\n      dup4\n        /* \"#utility.yul\":1339:1340   */\n      dup2\n        /* \"#utility.yul\":1336:1349   */\n      lt\n        /* \"#utility.yul\":1317:1600   */\n      iszero\n      tag_60\n      jumpi\n        /* \"#utility.yul\":1418:1424   */\n      dup2\n        /* \"#utility.yul\":1412:1425   */\n      mload\n        /* \"#utility.yul\":1445:1508   */\n      tag_61\n        /* \"#utility.yul\":1504:1507   */\n      dup8\n        /* \"#utility.yul\":1489:1502   */\n      dup3\n        /* \"#utility.yul\":1445:1508   */\n      tag_40\n      jump\t// in\n    tag_61:\n        /* \"#utility.yul\":1438:1508   */\n      swap7\n      pop\n        /* \"#utility.yul\":1531:1590   */\n      tag_62\n        /* \"#utility.yul\":1583:1589   */\n      dup4\n        /* \"#utility.yul\":1531:1590   */\n      tag_41\n      jump\t// in\n    tag_62:\n        /* \"#utility.yul\":1521:1590   */\n      swap3\n      pop\n        /* \"#utility.yul\":1377:1600   */\n      pop\n        /* \"#utility.yul\":1364:1365   */\n      0x01\n        /* \"#utility.yul\":1361:1362   */\n      dup2\n        /* \"#utility.yul\":1357:1366   */\n      add\n        /* \"#utility.yul\":1352:1366   */\n      swap1\n      pop\n        /* \"#utility.yul\":1317:1600   */\n      jump(tag_58)\n    tag_60:\n        /* \"#utility.yul\":1321:1335   */\n      pop\n        /* \"#utility.yul\":1021:1607   */\n      pop\n      pop\n      pop\n        /* \"#utility.yul\":907:1607   */\n      pop\n      pop\n      jump\t// out\n        /* \"#utility.yul\":1613:1932   */\n    tag_7:\n        /* \"#utility.yul\":1754:1758   */\n      0x00\n        /* \"#utility.yul\":1792:1795   */\n      0x0180\n        /* \"#utility.yul\":1781:1790   */\n      dup3\n        /* \"#utility.yul\":1777:1796   */\n      add\n        /* \"#utility.yul\":1769:1796   */\n      swap1\n      pop\n        /* \"#utility.yul\":1806:1925   */\n      tag_64\n        /* \"#utility.yul\":1922:1923   */\n      0x00\n        /* \"#utility.yul\":1911:1920   */\n      dup4\n        /* \"#utility.yul\":1907:1924   */\n      add\n        /* \"#utility.yul\":1898:1904   */\n      dup5\n        /* \"#utility.yul\":1806:1925   */\n      tag_42\n      jump\t// in\n    tag_64:\n        /* \"#utility.yul\":1613:1932   */\n      swap3\n      swap2\n      pop\n      pop\n      jump\t// out\n        /* \"#utility.yul\":1938:2118   */\n    tag_18:\n        /* \"#utility.yul\":1986:2063   */\n      0x4e487b7100000000000000000000000000000000000000000000000000000000\n        /* \"#utility.yul\":1983:1984   */\n      0x00\n        /* \"#utility.yul\":1976:2064   */\n      mstore\n        /* \"#utility.yul\":2083:2087   */\n      0x32\n        /* \"#utility.yul\":2080:2081   */\n      0x04\n        /* \"#utility.yul\":2073:2088   */\n      mstore\n        /* \"#utility.yul\":2107:2111   */\n      0x24\n        /* \"#utility.yul\":2104:2105   */\n      0x00\n        /* \"#utility.yul\":2097:2112   */\n      revert\n        /* \"#utility.yul\":2124:2304   */\n    tag_43:\n        /* \"#utility.yul\":2172:2249   */\n      0x4e487b7100000000000000000000000000000000000000000000000000000000\n        /* \"#utility.yul\":2169:2170   */\n      0x00\n        /* \"#utility.yul\":2162:2250   */\n      mstore\n        /* \"#utility.yul\":2269:2273   */\n      0x11\n        /* \"#utility.yul\":2266:2267   */\n      0x04\n        /* \"#utility.yul\":2259:2274   */\n      mstore\n        /* \"#utility.yul\":2293:2297   */\n      0x24\n        /* \"#utility.yul\":2290:2291   */\n      0x00\n        /* \"#utility.yul\":2283:2298   */\n      revert\n        /* \"#utility.yul\":2310:2504   */\n    tag_23:\n        /* \"#utility.yul\":2350:2354   */\n      0x00\n        /* \"#utility.yul\":2370:2390   */\n      tag_68\n        /* \"#utility.yul\":2388:2389   */\n      dup3\n        /* \"#utility.yul\":2370:2390   */\n      tag_38\n      jump\t// in\n    tag_68:\n        /* \"#utility.yul\":2365:2390   */\n      swap2\n      pop\n        /* \"#utility.yul\":2404:2424   */\n      tag_69\n        /* \"#utility.yul\":2422:2423   */\n      dup4\n        /* \"#utility.yul\":2404:2424   */\n      tag_38\n      jump\t// in\n    tag_69:\n        /* \"#utility.yul\":2399:2424   */\n      swap3\n      pop\n        /* \"#utility.yul\":2448:2449   */\n      dup3\n        /* \"#utility.yul\":2445:2446   */\n      dup3\n        /* \"#utility.yul\":2441:2450   */\n      sub\n        /* \"#utility.yul\":2433:2450   */\n      swap1\n      pop\n        /* \"#utility.yul\":2472:2473   */\n      dup2\n        /* \"#utility.yul\":2466:2470   */\n      dup2\n        /* \"#utility.yul\":2463:2474   */\n      gt\n        /* \"#utility.yul\":2460:2497   */\n      iszero\n      tag_70\n      jumpi\n        /* \"#utility.yul\":2477:2495   */\n      tag_71\n      tag_43\n      jump\t// in\n    tag_71:\n        /* \"#utility.yul\":2460:2497   */\n    tag_70:\n        /* \"#utility.yul\":2310:2504   */\n      swap3\n      swap2\n      pop\n      pop\n      jump\t// out\n        /* \"#utility.yul\":2510:2681   */\n    tag_32:\n        /* \"#utility.yul\":2549:2552   */\n      0x00\n        /* \"#utility.yul\":2572:2596   */\n      tag_73\n        /* \"#utility.yul\":2590:2595   */\n      dup3\n        /* \"#utility.yul\":2572:2596   */\n      tag_38\n      jump\t// in\n    tag_73:\n        /* \"#utility.yul\":2563:2596   */\n      swap2\n      pop\n        /* \"#utility.yul\":2618:2622   */\n      0x00\n        /* \"#utility.yul\":2611:2616   */\n      dup3\n        /* \"#utility.yul\":2608:2623   */\n      sub\n        /* \"#utility.yul\":2605:2646   */\n      tag_74\n      jumpi\n        /* \"#utility.yul\":2626:2644   */\n      tag_75\n      tag_43\n      jump\t// in\n    tag_75:\n        /* \"#utility.yul\":2605:2646   */\n    tag_74:\n        /* \"#utility.yul\":2673:2674   */\n      0x01\n        /* \"#utility.yul\":2666:2671   */\n      dup3\n        /* \"#utility.yul\":2662:2675   */\n      sub\n        /* \"#utility.yul\":2655:2675   */\n      swap1\n      pop\n        /* \"#utility.yul\":2510:2681   */\n      swap2\n      swap1\n      pop\n      jump\t// out\n\n    auxdata: 0xa2646970667358221220255a1c1ca4075b77b3606dd5569e8cb294041f0677369e6970347b261fa8a62e64736f6c634300081e0033\n}\n",
				"bytecode": {
					"linkReferences": {},
					"object": "6080604052604051806101800160405280600261ffff1681526020016101b161ffff168152602001600161ffff168152602001600461ffff168152602001600361ffff16815260200160eb61ffff16815260200161029061ffff168152602001600961ffff168152602001605761ffff168152602001600661ffff168152602001603261ffff168152602001600f61ffff168152505f90600c6100a39291906100b5565b503480156100af575f5ffd5b50610116565b82600c81019282156100ea579160200282015b828111156100e9578251829061ffff169055916020019190600101906100c8565b5b5090506100f791906100fb565b5090565b5b80821115610112575f815f9055506001016100fc565b5090565b610354806101235f395ff3fe608060405234801561000f575f5ffd5b5060043610610029575f3560e01c80638cdc86a61461002d575b5f5ffd5b61003561004b565b6040516100429190610250565b60405180910390f35b61005361017f565b5f5f600c806020026040519081016040528092919082600c801561008c576020028201915b815481526020019060010190808311610078575b505050505090505f600190505b600c811015610177575f8282600c81106100b6576100b561026a565b5b602002015190505f8290505b5f811180156100f3575081846001836100db91906102c4565b600c81106100ec576100eb61026a565b5b6020020151115b1561014b578360018261010691906102c4565b600c81106101175761011661026a565b5b60200201518482600c811061012f5761012e61026a565b5b6020020181815250508080610143906102f7565b9150506100c2565b818482600c811061015f5761015e61026a565b5b60200201818152505050508080600101915050610099565b508091505090565b604051806101800160405280600c90602082028036833780820191505090505090565b5f600c9050919050565b5f81905092915050565b5f819050919050565b5f819050919050565b6101d1816101bf565b82525050565b5f6101e283836101c8565b60208301905092915050565b5f602082019050919050565b610203816101a2565b61020d81846101ac565b9250610218826101b6565b805f5b8381101561024857815161022f87826101d7565b965061023a836101ee565b92505060018101905061021b565b505050505050565b5f610180820190506102645f8301846101fa565b92915050565b7f4e487b71000000000000000000000000000000000000000000000000000000005f52603260045260245ffd5b7f4e487b71000000000000000000000000000000000000000000000000000000005f52601160045260245ffd5b5f6102ce826101bf565b91506102d9836101bf565b92508282039050818111156102f1576102f0610297565b5b92915050565b5f610301826101bf565b91505f820361031357610312610297565b5b60018203905091905056fea2646970667358221220255a1c1ca4075b77b3606dd5569e8cb294041f0677369e6970347b261fa8a62e64736f6c634300081e0033",
					"opcodes": "PUSH1 0x80 PUSH1 0x40 MSTORE PUSH1 0x40 MLOAD DUP1 PUSH2 0x180 ADD PUSH1 0x40 MSTORE DUP1 PUSH1 0x2 PUSH2 0xFFFF AND DUP2 MSTORE PUSH1 0x20 ADD PUSH2 0x1B1 PUSH2 0xFFFF AND DUP2 MSTORE PUSH1 0x20 ADD PUSH1 0x1 PUSH2 0xFFFF AND DUP2 MSTORE PUSH1 0x20 ADD PUSH1 0x4 PUSH2 0xFFFF AND DUP2 MSTORE PUSH1 0x20 ADD PUSH1 0x3 PUSH2 0xFFFF AND DUP2 MSTORE PUSH1 0x20 ADD PUSH1 0xEB PUSH2 0xFFFF AND DUP2 MSTORE PUSH1 0x20 ADD PUSH2 0x290 PUSH2 0xFFFF AND DUP2 MSTORE PUSH1 0x20 ADD PUSH1 0x9 PUSH2 0xFFFF AND DUP2 MSTORE PUSH1 0x20 ADD PUSH1 0x57 PUSH2 0xFFFF AND DUP2 MSTORE PUSH1 0x20 ADD PUSH1 0x6 PUSH2 0xFFFF AND DUP2 MSTORE PUSH1 0x20 ADD PUSH1 0x32 PUSH2 0xFFFF AND DUP2 MSTORE PUSH1 0x20 ADD PUSH1 0xF PUSH2 0xFFFF AND DUP2 MSTORE POP PUSH0 SWAP1 PUSH1 0xC PUSH2 0xA3 SWAP3 SWAP2 SWAP1 PUSH2 0xB5 JUMP JUMPDEST POP CALLVALUE DUP1 ISZERO PUSH2 0xAF JUMPI PUSH0 PUSH0 REVERT JUMPDEST POP PUSH2 0x116 JUMP JUMPDEST DUP3 PUSH1 0xC DUP2 ADD SWAP3 DUP3 ISZERO PUSH2 0xEA JUMPI SWAP2 PUSH1 0x20 MUL DUP3 ADD JUMPDEST DUP3 DUP2 GT ISZERO PUSH2 0xE9 JUMPI DUP3 MLOAD DUP3 SWAP1 PUSH2 0xFFFF AND SWAP1 SSTORE SWAP2 PUSH1 0x20 ADD SWAP2 SWAP1 PUSH1 0x1 ADD SWAP1 PUSH2 0xC8 JUMP JUMPDEST JUMPDEST POP SWAP1 POP PUSH2 0xF7 SWAP2 SWAP1 PUSH2 0xFB JUMP JUMPDEST POP SWAP1 JUMP JUMPDEST JUMPDEST DUP1 DUP3 GT ISZERO PUSH2 0x112 JUMPI PUSH0 DUP2 PUSH0 SWAP1 SSTORE POP PUSH1 0x1 ADD PUSH2 0xFC JUMP JUMPDEST POP SWAP1 JUMP JUMPDEST PUSH2 0x354 DUP1 PUSH2 0x123 PUSH0 CODECOPY PUSH0 RETURN INVALID PUSH1 0x80 PUSH1 0x40 MSTORE CALLVALUE DUP1 ISZERO PUSH2 0xF JUMPI PUSH0 PUSH0 REVERT JUMPDEST POP PUSH1 0x4 CALLDATASIZE LT PUSH2 0x29 JUMPI PUSH0 CALLDATALOAD PUSH1 0xE0 SHR DUP1 PUSH4 0x8CDC86A6 EQ PUSH2 0x2D JUMPI JUMPDEST PUSH0 PUSH0 REVERT JUMPDEST PUSH2 0x35 PUSH2 0x4B JUMP JUMPDEST PUSH1 0x40 MLOAD PUSH2 0x42 SWAP2 SWAP1 PUSH2 0x250 JUMP JUMPDEST PUSH1 0x40 MLOAD DUP1 SWAP2 SUB SWAP1 RETURN JUMPDEST PUSH2 0x53 PUSH2 0x17F JUMP JUMPDEST PUSH0 PUSH0 PUSH1 0xC DUP1 PUSH1 0x20 MUL PUSH1 0x40 MLOAD SWAP1 DUP2 ADD PUSH1 0x40 MSTORE DUP1 SWAP3 SWAP2 SWAP1 DUP3 PUSH1 0xC DUP1 ISZERO PUSH2 0x8C JUMPI PUSH1 0x20 MUL DUP3 ADD SWAP2 JUMPDEST DUP2 SLOAD DUP2 MSTORE PUSH1 0x20 ADD SWAP1 PUSH1 0x1 ADD SWAP1 DUP1 DUP4 GT PUSH2 0x78 JUMPI JUMPDEST POP POP POP POP POP SWAP1 POP PUSH0 PUSH1 0x1 SWAP1 POP JUMPDEST PUSH1 0xC DUP2 LT ISZERO PUSH2 0x177 JUMPI PUSH0 DUP3 DUP3 PUSH1 0xC DUP2 LT PUSH2 0xB6 JUMPI PUSH2 0xB5 PUSH2 0x26A JUMP JUMPDEST JUMPDEST PUSH1 0x20 MUL ADD MLOAD SWAP1 POP PUSH0 DUP3 SWAP1 POP JUMPDEST PUSH0 DUP2 GT DUP1 ISZERO PUSH2 0xF3 JUMPI POP DUP2 DUP5 PUSH1 0x1 DUP4 PUSH2 0xDB SWAP2 SWAP1 PUSH2 0x2C4 JUMP JUMPDEST PUSH1 0xC DUP2 LT PUSH2 0xEC JUMPI PUSH2 0xEB PUSH2 0x26A JUMP JUMPDEST JUMPDEST PUSH1 0x20 MUL ADD MLOAD GT JUMPDEST ISZERO PUSH2 0x14B JUMPI DUP4 PUSH1 0x1 DUP3 PUSH2 0x106 SWAP2 SWAP1 PUSH2 0x2C4 JUMP JUMPDEST PUSH1 0xC DUP2 LT PUSH2 0x117 JUMPI PUSH2 0x116 PUSH2 0x26A JUMP JUMPDEST JUMPDEST PUSH1 0x20 MUL ADD MLOAD DUP5 DUP3 PUSH1 0xC DUP2 LT PUSH2 0x12F JUMPI PUSH2 0x12E PUSH2 0x26A JUMP JUMPDEST JUMPDEST PUSH1 0x20 MUL ADD DUP2 DUP2 MSTORE POP POP DUP1 DUP1 PUSH2 0x143 SWAP1 PUSH2 0x2F7 JUMP JUMPDEST SWAP2 POP POP PUSH2 0xC2 JUMP JUMPDEST DUP2 DUP5 DUP3 PUSH1 0xC DUP2 LT PUSH2 0x15F JUMPI PUSH2 0x15E PUSH2 0x26A JUMP JUMPDEST JUMPDEST PUSH1 0x20 MUL ADD DUP2 DUP2 MSTORE POP POP POP POP DUP1 DUP1 PUSH1 0x1 ADD SWAP2 POP POP PUSH2 0x99 JUMP JUMPDEST POP DUP1 SWAP2 POP POP SWAP1 JUMP JUMPDEST PUSH1 0x40 MLOAD DUP1 PUSH2 0x180 ADD PUSH1 0x40 MSTORE DUP1 PUSH1 0xC SWAP1 PUSH1 0x20 DUP3 MUL DUP1 CALLDATASIZE DUP4 CALLDATACOPY DUP1 DUP3 ADD SWAP2 POP POP SWAP1 POP POP SWAP1 JUMP JUMPDEST PUSH0 PUSH1 0xC SWAP1 POP SWAP2 SWAP1 POP JUMP JUMPDEST PUSH0 DUP2 SWAP1 POP SWAP3 SWAP2 POP POP JUMP JUMPDEST PUSH0 DUP2 SWAP1 POP SWAP2 SWAP1 POP JUMP JUMPDEST PUSH0 DUP2 SWAP1 POP SWAP2 SWAP1 POP JUMP JUMPDEST PUSH2 0x1D1 DUP2 PUSH2 0x1BF JUMP JUMPDEST DUP3 MSTORE POP POP JUMP JUMPDEST PUSH0 PUSH2 0x1E2 DUP4 DUP4 PUSH2 0x1C8 JUMP JUMPDEST PUSH1 0x20 DUP4 ADD SWAP1 POP SWAP3 SWAP2 POP POP JUMP JUMPDEST PUSH0 PUSH1 0x20 DUP3 ADD SWAP1 POP SWAP2 SWAP1 POP JUMP JUMPDEST PUSH2 0x203 DUP2 PUSH2 0x1A2 JUMP JUMPDEST PUSH2 0x20D DUP2 DUP5 PUSH2 0x1AC JUMP JUMPDEST SWAP3 POP PUSH2 0x218 DUP3 PUSH2 0x1B6 JUMP JUMPDEST DUP1 PUSH0 JUMPDEST DUP4 DUP2 LT ISZERO PUSH2 0x248 JUMPI DUP2 MLOAD PUSH2 0x22F DUP8 DUP3 PUSH2 0x1D7 JUMP JUMPDEST SWAP7 POP PUSH2 0x23A DUP4 PUSH2 0x1EE JUMP JUMPDEST SWAP3 POP POP PUSH1 0x1 DUP2 ADD SWAP1 POP PUSH2 0x21B JUMP JUMPDEST POP POP POP POP POP POP JUMP JUMPDEST PUSH0 PUSH2 0x180 DUP3 ADD SWAP1 POP PUSH2 0x264 PUSH0 DUP4 ADD DUP5 PUSH2 0x1FA JUMP JUMPDEST SWAP3 SWAP2 POP POP JUMP JUMPDEST PUSH32 0x4E487B7100000000000000000000000000000000000000000000000000000000 PUSH0 MSTORE PUSH1 0x32 PUSH1 0x4 MSTORE PUSH1 0x24 PUSH0 REVERT JUMPDEST PUSH32 0x4E487B7100000000000000000000000000000000000000000000000000000000 PUSH0 MSTORE PUSH1 0x11 PUSH1 0x4 MSTORE PUSH1 0x24 PUSH0 REVERT JUMPDEST PUSH0 PUSH2 0x2CE DUP3 PUSH2 0x1BF JUMP JUMPDEST SWAP2 POP PUSH2 0x2D9 DUP4 PUSH2 0x1BF JUMP JUMPDEST SWAP3 POP DUP3 DUP3 SUB SWAP1 POP DUP2 DUP2 GT ISZERO PUSH2 0x2F1 JUMPI PUSH2 0x2F0 PUSH2 0x297 JUMP JUMPDEST JUMPDEST SWAP3 SWAP2 POP POP JUMP JUMPDEST PUSH0 PUSH2 0x301 DUP3 PUSH2 0x1BF JUMP JUMPDEST SWAP2 POP PUSH0 DUP3 SUB PUSH2 0x313 JUMPI PUSH2 0x312 PUSH2 0x297 JUMP JUMPDEST JUMPDEST PUSH1 0x1 DUP3 SUB SWAP1 POP SWAP2 SWAP1 POP JUMP INVALID LOG2 PUSH5 0x6970667358 0x22 SLT KECCAK256 0x25 GAS SHR SHR LOG4 SMOD JUMPDEST PUSH24 0xB3606DD5569E8CB294041F0677369E6970347B261FA8A62E PUSH5 0x736F6C6343 STOP ADDMOD 0x1E STOP CALLER "
				},
				"gasEstimates": {
					"creation": {
						"codeDepositCost": "170400",
						"executionCost": "infinite",
						"totalCost": "infinite"
					},
					"external": {
						"sort()": "infinite"
					}
				},
				"methodIdentifiers": {
					"sort()": "8cdc86a6"
				}
			},
			"storageLayout": {
				"storage": [
					{
						"astId": 18,
						"contract": "contracts/LabCycle/SortArr.sol:SortArr",
						"label": "arr",
						"offset": 0,
						"slot": "0",
						"type": "t_array(t_uint256)12_storage"
					}
				],
				"types": {
					"t_array(t_uint256)12_storage": {
						"base": "t_uint256",
						"encoding": "inplace",
						"label": "uint256[12]",
						"numberOfBytes": "384"
					},
					"t_uint256": {
						"encoding": "inplace",
						"label": "uint256",
						"numberOfBytes": "32"
					}
				}
			},
			"userdoc": {
				"kind": "user",
				"methods": {},
				"version": 1
			}
		}
	}
}