{
	"contracts/LabCycle/SumOfDigits.sol": {
		"SumOfDigits": {
			"abi": [
				{
					"inputs": [
						{
							"internalType": "int16",
							"name": "n",
							"type": "int16"
						}
					],
					"name": "sumOfDigits",
					"outputs": [
						{
							"internalType": "int16",
							"name": "",
							"type": "int16"
						}
					],
					"stateMutability": "pure",
					"type": "function"
				}
			],
			"devdoc": {
				"kind": "dev",
				"methods": {},
				"version": 1
			},
			"evm": {
				"assembly": "    /* \"contracts/LabCycle/SumOfDigits.sol\":66:329  contract SumOfDigits{... */\n  mstore(0x40, 0x80)\n  callvalue\n  dup1\n  iszero\n  tag_1\n  jumpi\n  revert(0x00, 0x00)\ntag_1:\n  pop\n  dataSize(sub_0)\n  dup1\n  dataOffset(sub_0)\n  0x00\n  codecopy\n  0x00\n  return\nstop\n\nsub_0: assembly {\n        /* \"contracts/LabCycle/SumOfDigits.sol\":66:329  contract SumOfDigits{... */\n      mstore(0x40, 0x80)\n      callvalue\n      dup1\n      iszero\n      tag_1\n      jumpi\n      revert(0x00, 0x00)\n    tag_1:\n      pop\n      jumpi(tag_2, lt(calldatasize, 0x04))\n      shr(0xe0, calldataload(0x00))\n      dup1\n      0xf0e57d0f\n      eq\n      tag_3\n      jumpi\n    tag_2:\n      revert(0x00, 0x00)\n        /* \"contracts/LabCycle/SumOfDigits.sol\":95:324  function sumOfDigits(int16 n)public pure returns(int16){... */\n    tag_3:\n      tag_4\n      0x04\n      dup1\n      calldatasize\n      sub\n      dup2\n      add\n      swap1\n      tag_5\n      swap2\n      swap1\n      tag_6\n      jump\t// in\n    tag_5:\n      tag_7\n      jump\t// in\n    tag_4:\n      mload(0x40)\n      tag_8\n      swap2\n      swap1\n      tag_9\n      jump\t// in\n    tag_8:\n      mload(0x40)\n      dup1\n      swap2\n      sub\n      swap1\n      return\n    tag_7:\n        /* \"contracts/LabCycle/SumOfDigits.sol\":144:149  int16 */\n      0x00\n        /* \"contracts/LabCycle/SumOfDigits.sol\":181:190  int16 sum */\n      0x00\n        /* \"contracts/LabCycle/SumOfDigits.sol\":193:194  0 */\n      0x00\n        /* \"contracts/LabCycle/SumOfDigits.sol\":181:194  int16 sum = 0 */\n      swap1\n      pop\n        /* \"contracts/LabCycle/SumOfDigits.sol\":225:296  while(n!=0){... */\n    tag_11:\n        /* \"contracts/LabCycle/SumOfDigits.sol\":234:235  0 */\n      0x00\n        /* \"contracts/LabCycle/SumOfDigits.sol\":231:232  n */\n      dup4\n        /* \"contracts/LabCycle/SumOfDigits.sol\":231:235  n!=0 */\n      0x01\n      signextend\n      eq\n        /* \"contracts/LabCycle/SumOfDigits.sol\":225:296  while(n!=0){... */\n      tag_12\n      jumpi\n        /* \"contracts/LabCycle/SumOfDigits.sol\":260:262  10 */\n      0x0a\n        /* \"contracts/LabCycle/SumOfDigits.sol\":258:259  n */\n      dup4\n        /* \"contracts/LabCycle/SumOfDigits.sol\":258:262  n%10 */\n      tag_13\n      swap2\n      swap1\n      tag_14\n      jump\t// in\n    tag_13:\n        /* \"contracts/LabCycle/SumOfDigits.sol\":251:262  sum += n%10 */\n      dup2\n      tag_15\n      swap2\n      swap1\n      tag_16\n      jump\t// in\n    tag_15:\n      swap1\n      pop\n        /* \"contracts/LabCycle/SumOfDigits.sol\":282:284  10 */\n      0x0a\n        /* \"contracts/LabCycle/SumOfDigits.sol\":277:284  n /= 10 */\n      dup4\n      tag_17\n      swap2\n      swap1\n      tag_18\n      jump\t// in\n    tag_17:\n      swap3\n      pop\n        /* \"contracts/LabCycle/SumOfDigits.sol\":225:296  while(n!=0){... */\n      jump(tag_11)\n    tag_12:\n        /* \"contracts/LabCycle/SumOfDigits.sol\":313:316  sum */\n      dup1\n        /* \"contracts/LabCycle/SumOfDigits.sol\":306:316  return sum */\n      swap2\n      pop\n      pop\n        /* \"contracts/LabCycle/SumOfDigits.sol\":95:324  function sumOfDigits(int16 n)public pure returns(int16){... */\n      swap2\n      swap1\n      pop\n      jump\t// out\n        /* \"#utility.yul\":88:205   */\n    tag_20:\n        /* \"#utility.yul\":197:198   */\n      0x00\n        /* \"#utility.yul\":194:195   */\n      0x00\n        /* \"#utility.yul\":187:199   */\n      revert\n        /* \"#utility.yul\":334:424   */\n    tag_22:\n        /* \"#utility.yul\":369:376   */\n      0x00\n        /* \"#utility.yul\":412:417   */\n      dup2\n        /* \"#utility.yul\":409:410   */\n      0x01\n        /* \"#utility.yul\":398:418   */\n      signextend\n        /* \"#utility.yul\":387:418   */\n      swap1\n      pop\n        /* \"#utility.yul\":334:424   */\n      swap2\n      swap1\n      pop\n      jump\t// out\n        /* \"#utility.yul\":430:548   */\n    tag_23:\n        /* \"#utility.yul\":501:523   */\n      tag_34\n        /* \"#utility.yul\":517:522   */\n      dup2\n        /* \"#utility.yul\":501:523   */\n      tag_22\n      jump\t// in\n    tag_34:\n        /* \"#utility.yul\":494:499   */\n      dup2\n        /* \"#utility.yul\":491:524   */\n      eq\n        /* \"#utility.yul\":481:542   */\n      tag_35\n      jumpi\n        /* \"#utility.yul\":538:539   */\n      0x00\n        /* \"#utility.yul\":535:536   */\n      0x00\n        /* \"#utility.yul\":528:540   */\n      revert\n        /* \"#utility.yul\":481:542   */\n    tag_35:\n        /* \"#utility.yul\":430:548   */\n      pop\n      jump\t// out\n        /* \"#utility.yul\":554:689   */\n    tag_24:\n        /* \"#utility.yul\":598:603   */\n      0x00\n        /* \"#utility.yul\":636:642   */\n      dup2\n        /* \"#utility.yul\":623:643   */\n      calldataload\n        /* \"#utility.yul\":614:643   */\n      swap1\n      pop\n        /* \"#utility.yul\":652:683   */\n      tag_37\n        /* \"#utility.yul\":677:682   */\n      dup2\n        /* \"#utility.yul\":652:683   */\n      tag_23\n      jump\t// in\n    tag_37:\n        /* \"#utility.yul\":554:689   */\n      swap3\n      swap2\n      pop\n      pop\n      jump\t// out\n        /* \"#utility.yul\":695:1020   */\n    tag_6:\n        /* \"#utility.yul\":752:758   */\n      0x00\n        /* \"#utility.yul\":801:803   */\n      0x20\n        /* \"#utility.yul\":789:798   */\n      dup3\n        /* \"#utility.yul\":780:787   */\n      dup5\n        /* \"#utility.yul\":776:799   */\n      sub\n        /* \"#utility.yul\":772:804   */\n      slt\n        /* \"#utility.yul\":769:888   */\n      iszero\n      tag_39\n      jumpi\n        /* \"#utility.yul\":807:886   */\n      tag_40\n      tag_20\n      jump\t// in\n    tag_40:\n        /* \"#utility.yul\":769:888   */\n    tag_39:\n        /* \"#utility.yul\":927:928   */\n      0x00\n        /* \"#utility.yul\":952:1003   */\n      tag_41\n        /* \"#utility.yul\":995:1002   */\n      dup5\n        /* \"#utility.yul\":986:992   */\n      dup3\n        /* \"#utility.yul\":975:984   */\n      dup6\n        /* \"#utility.yul\":971:993   */\n      add\n        /* \"#utility.yul\":952:1003   */\n      tag_24\n      jump\t// in\n    tag_41:\n        /* \"#utility.yul\":942:1003   */\n      swap2\n      pop\n        /* \"#utility.yul\":898:1013   */\n      pop\n        /* \"#utility.yul\":695:1020   */\n      swap3\n      swap2\n      pop\n      pop\n      jump\t// out\n        /* \"#utility.yul\":1026:1138   */\n    tag_25:\n        /* \"#utility.yul\":1109:1131   */\n      tag_43\n        /* \"#utility.yul\":1125:1130   */\n      dup2\n        /* \"#utility.yul\":1109:1131   */\n      tag_22\n      jump\t// in\n    tag_43:\n        /* \"#utility.yul\":1104:1107   */\n      dup3\n        /* \"#utility.yul\":1097:1132   */\n      mstore\n        /* \"#utility.yul\":1026:1138   */\n      pop\n      pop\n      jump\t// out\n        /* \"#utility.yul\":1144:1358   */\n    tag_9:\n        /* \"#utility.yul\":1233:1237   */\n      0x00\n        /* \"#utility.yul\":1271:1273   */\n      0x20\n        /* \"#utility.yul\":1260:1269   */\n      dup3\n        /* \"#utility.yul\":1256:1274   */\n      add\n        /* \"#utility.yul\":1248:1274   */\n      swap1\n      pop\n        /* \"#utility.yul\":1284:1351   */\n      tag_45\n        /* \"#utility.yul\":1348:1349   */\n      0x00\n        /* \"#utility.yul\":1337:1346   */\n      dup4\n        /* \"#utility.yul\":1333:1350   */\n      add\n        /* \"#utility.yul\":1324:1330   */\n      dup5\n        /* \"#utility.yul\":1284:1351   */\n      tag_25\n      jump\t// in\n    tag_45:\n        /* \"#utility.yul\":1144:1358   */\n      swap3\n      swap2\n      pop\n      pop\n      jump\t// out\n        /* \"#utility.yul\":1364:1544   */\n    tag_26:\n        /* \"#utility.yul\":1412:1489   */\n      0x4e487b7100000000000000000000000000000000000000000000000000000000\n        /* \"#utility.yul\":1409:1410   */\n      0x00\n        /* \"#utility.yul\":1402:1490   */\n      mstore\n        /* \"#utility.yul\":1509:1513   */\n      0x12\n        /* \"#utility.yul\":1506:1507   */\n      0x04\n        /* \"#utility.yul\":1499:1514   */\n      mstore\n        /* \"#utility.yul\":1533:1537   */\n      0x24\n        /* \"#utility.yul\":1530:1531   */\n      0x00\n        /* \"#utility.yul\":1523:1538   */\n      revert\n        /* \"#utility.yul\":1550:1721   */\n    tag_14:\n        /* \"#utility.yul\":1580:1581   */\n      0x00\n        /* \"#utility.yul\":1597:1615   */\n      tag_48\n        /* \"#utility.yul\":1613:1614   */\n      dup3\n        /* \"#utility.yul\":1597:1615   */\n      tag_22\n      jump\t// in\n    tag_48:\n        /* \"#utility.yul\":1592:1615   */\n      swap2\n      pop\n        /* \"#utility.yul\":1629:1647   */\n      tag_49\n        /* \"#utility.yul\":1645:1646   */\n      dup4\n        /* \"#utility.yul\":1629:1647   */\n      tag_22\n      jump\t// in\n    tag_49:\n        /* \"#utility.yul\":1624:1647   */\n      swap3\n      pop\n        /* \"#utility.yul\":1666:1667   */\n      dup3\n        /* \"#utility.yul\":1656:1691   */\n      tag_50\n      jumpi\n        /* \"#utility.yul\":1671:1689   */\n      tag_51\n      tag_26\n      jump\t// in\n    tag_51:\n        /* \"#utility.yul\":1656:1691   */\n    tag_50:\n        /* \"#utility.yul\":1713:1714   */\n      dup3\n        /* \"#utility.yul\":1710:1711   */\n      dup3\n        /* \"#utility.yul\":1705:1715   */\n      smod\n        /* \"#utility.yul\":1700:1715   */\n      swap1\n      pop\n        /* \"#utility.yul\":1550:1721   */\n      swap3\n      swap2\n      pop\n      pop\n      jump\t// out\n        /* \"#utility.yul\":1727:1907   */\n    tag_27:\n        /* \"#utility.yul\":1775:1852   */\n      0x4e487b7100000000000000000000000000000000000000000000000000000000\n        /* \"#utility.yul\":1772:1773   */\n      0x00\n        /* \"#utility.yul\":1765:1853   */\n      mstore\n        /* \"#utility.yul\":1872:1876   */\n      0x11\n        /* \"#utility.yul\":1869:1870   */\n      0x04\n        /* \"#utility.yul\":1862:1877   */\n      mstore\n        /* \"#utility.yul\":1896:1900   */\n      0x24\n        /* \"#utility.yul\":1893:1894   */\n      0x00\n        /* \"#utility.yul\":1886:1901   */\n      revert\n        /* \"#utility.yul\":1913:2220   */\n    tag_16:\n        /* \"#utility.yul\":1951:1954   */\n      0x00\n        /* \"#utility.yul\":1970:1988   */\n      tag_54\n        /* \"#utility.yul\":1986:1987   */\n      dup3\n        /* \"#utility.yul\":1970:1988   */\n      tag_22\n      jump\t// in\n    tag_54:\n        /* \"#utility.yul\":1965:1988   */\n      swap2\n      pop\n        /* \"#utility.yul\":2002:2020   */\n      tag_55\n        /* \"#utility.yul\":2018:2019   */\n      dup4\n        /* \"#utility.yul\":2002:2020   */\n      tag_22\n      jump\t// in\n    tag_55:\n        /* \"#utility.yul\":1997:2020   */\n      swap3\n      pop\n        /* \"#utility.yul\":2043:2044   */\n      dup3\n        /* \"#utility.yul\":2040:2041   */\n      dup3\n        /* \"#utility.yul\":2036:2045   */\n      add\n        /* \"#utility.yul\":2029:2045   */\n      swap1\n      pop\n        /* \"#utility.yul\":2113:2179   */\n      0xffffffffffffffffffffffffffffffffffffffffffffffffffffffffffff8000\n        /* \"#utility.yul\":2108:2111   */\n      dup2\n        /* \"#utility.yul\":2104:2180   */\n      slt\n        /* \"#utility.yul\":2083:2089   */\n      0x7fff\n        /* \"#utility.yul\":2078:2081   */\n      dup3\n        /* \"#utility.yul\":2074:2090   */\n      sgt\n        /* \"#utility.yul\":2058:2190   */\n      or\n        /* \"#utility.yul\":2055:2213   */\n      iszero\n      tag_56\n      jumpi\n        /* \"#utility.yul\":2193:2211   */\n      tag_57\n      tag_27\n      jump\t// in\n    tag_57:\n        /* \"#utility.yul\":2055:2213   */\n    tag_56:\n        /* \"#utility.yul\":1913:2220   */\n      swap3\n      swap2\n      pop\n      pop\n      jump\t// out\n        /* \"#utility.yul\":2226:2608   */\n    tag_18:\n        /* \"#utility.yul\":2264:2265   */\n      0x00\n        /* \"#utility.yul\":2281:2299   */\n      tag_59\n        /* \"#utility.yul\":2297:2298   */\n      dup3\n        /* \"#utility.yul\":2281:2299   */\n      tag_22\n      jump\t// in\n    tag_59:\n        /* \"#utility.yul\":2276:2299   */\n      swap2\n      pop\n        /* \"#utility.yul\":2313:2331   */\n      tag_60\n        /* \"#utility.yul\":2329:2330   */\n      dup4\n        /* \"#utility.yul\":2313:2331   */\n      tag_22\n      jump\t// in\n    tag_60:\n        /* \"#utility.yul\":2308:2331   */\n      swap3\n      pop\n        /* \"#utility.yul\":2350:2351   */\n      dup3\n        /* \"#utility.yul\":2340:2375   */\n      tag_61\n      jumpi\n        /* \"#utility.yul\":2355:2373   */\n      tag_62\n      tag_26\n      jump\t// in\n    tag_62:\n        /* \"#utility.yul\":2340:2375   */\n    tag_61:\n        /* \"#utility.yul\":2541:2542   */\n      0x01\n        /* \"#utility.yul\":2538:2539   */\n      0x00\n        /* \"#utility.yul\":2534:2543   */\n      sub\n        /* \"#utility.yul\":2531:2532   */\n      dup4\n        /* \"#utility.yul\":2528:2544   */\n      eq\n        /* \"#utility.yul\":2447:2513   */\n      0xffffffffffffffffffffffffffffffffffffffffffffffffffffffffffff8000\n        /* \"#utility.yul\":2444:2445   */\n      dup4\n        /* \"#utility.yul\":2441:2514   */\n      eq\n        /* \"#utility.yul\":2424:2554   */\n      and\n        /* \"#utility.yul\":2421:2577   */\n      iszero\n      tag_63\n      jumpi\n        /* \"#utility.yul\":2557:2575   */\n      tag_64\n      tag_27\n      jump\t// in\n    tag_64:\n        /* \"#utility.yul\":2421:2577   */\n    tag_63:\n        /* \"#utility.yul\":2600:2601   */\n      dup3\n        /* \"#utility.yul\":2597:2598   */\n      dup3\n        /* \"#utility.yul\":2592:2602   */\n      sdiv\n        /* \"#utility.yul\":2587:2602   */\n      swap1\n      pop\n        /* \"#utility.yul\":2226:2608   */\n      swap3\n      swap2\n      pop\n      pop\n      jump\t// out\n\n    auxdata: 0xa2646970667358221220ae4319939373f819c2fc2f03a38a69f0d8a23dd0af0f871465de4eae1113ba9f64736f6c634300081e0033\n}\n",
				"bytecode": {
					"linkReferences": {},
					"object": "6080604052348015600e575f5ffd5b506102b28061001c5f395ff3fe608060405234801561000f575f5ffd5b5060043610610029575f3560e01c8063f0e57d0f1461002d575b5f5ffd5b610047600480360381019061004291906100de565b61005d565b6040516100549190610118565b60405180910390f35b5f5f5f90505b5f8360010b1461009b57600a8361007a919061015e565b8161008591906101bb565b9050600a836100949190610214565b9250610063565b80915050919050565b5f5ffd5b5f8160010b9050919050565b6100bd816100a8565b81146100c7575f5ffd5b50565b5f813590506100d8816100b4565b92915050565b5f602082840312156100f3576100f26100a4565b5b5f610100848285016100ca565b91505092915050565b610112816100a8565b82525050565b5f60208201905061012b5f830184610109565b92915050565b7f4e487b71000000000000000000000000000000000000000000000000000000005f52601260045260245ffd5b5f610168826100a8565b9150610173836100a8565b92508261018357610182610131565b5b828207905092915050565b7f4e487b71000000000000000000000000000000000000000000000000000000005f52601160045260245ffd5b5f6101c5826100a8565b91506101d0836100a8565b925082820190507fffffffffffffffffffffffffffffffffffffffffffffffffffffffffffff80008112617fff8213171561020e5761020d61018e565b5b92915050565b5f61021e826100a8565b9150610229836100a8565b92508261023957610238610131565b5b60015f0383147fffffffffffffffffffffffffffffffffffffffffffffffffffffffffffff8000831416156102715761027061018e565b5b82820590509291505056fea2646970667358221220ae4319939373f819c2fc2f03a38a69f0d8a23dd0af0f871465de4eae1113ba9f64736f6c634300081e0033",
					"opcodes": "PUSH1 0x80 PUSH1 0x40 MSTORE CALLVALUE DUP1 ISZERO PUSH1 0xE JUMPI PUSH0 PUSH0 REVERT JUMPDEST POP PUSH2 0x2B2 DUP1 PUSH2 0x1C PUSH0 CODECOPY PUSH0 RETURN INVALID PUSH1 0x80 PUSH1 0x40 MSTORE CALLVALUE DUP1 ISZERO PUSH2 0xF JUMPI PUSH0 PUSH0 REVERT JUMPDEST POP PUSH1 0x4 CALLDATASIZE LT PUSH2 0x29 JUMPI PUSH0 CALLDATALOAD PUSH1 0xE0 SHR DUP1 PUSH4 0xF0E57D0F EQ PUSH2 0x2D JUMPI JUMPDEST PUSH0 PUSH0 REVERT JUMPDEST PUSH2 0x47 PUSH1 0x4 DUP1 CALLDATASIZE SUB DUP2 ADD SWAP1 PUSH2 0x42 SWAP2 SWAP1 PUSH2 0xDE JUMP JUMPDEST PUSH2 0x5D JUMP JUMPDEST PUSH1 0x40 MLOAD PUSH2 0x54 SWAP2 SWAP1 PUSH2 0x118 JUMP JUMPDEST PUSH1 0x40 MLOAD DUP1 SWAP2 SUB SWAP1 RETURN JUMPDEST PUSH0 PUSH0 PUSH0 SWAP1 POP JUMPDEST PUSH0 DUP4 PUSH1 0x1 SIGNEXTEND EQ PUSH2 0x9B JUMPI PUSH1 0xA DUP4 PUSH2 0x7A SWAP2 SWAP1 PUSH2 0x15E JUMP JUMPDEST DUP2 PUSH2 0x85 SWAP2 SWAP1 PUSH2 0x1BB JUMP JUMPDEST SWAP1 POP PUSH1 0xA DUP4 PUSH2 0x94 SWAP2 SWAP1 PUSH2 0x214 JUMP JUMPDEST SWAP3 POP PUSH2 0x63 JUMP JUMPDEST DUP1 SWAP2 POP POP SWAP2 SWAP1 POP JUMP JUMPDEST PUSH0 PUSH0 REVERT JUMPDEST PUSH0 DUP2 PUSH1 0x1 SIGNEXTEND SWAP1 POP SWAP2 SWAP1 POP JUMP JUMPDEST PUSH2 0xBD DUP2 PUSH2 0xA8 JUMP JUMPDEST DUP2 EQ PUSH2 0xC7 JUMPI PUSH0 PUSH0 REVERT JUMPDEST POP JUMP JUMPDEST PUSH0 DUP2 CALLDATALOAD SWAP1 POP PUSH2 0xD8 DUP2 PUSH2 0xB4 JUMP JUMPDEST SWAP3 SWAP2 POP POP JUMP JUMPDEST PUSH0 PUSH1 0x20 DUP3 DUP5 SUB SLT ISZERO PUSH2 0xF3 JUMPI PUSH2 0xF2 PUSH2 0xA4 JUMP JUMPDEST JUMPDEST PUSH0 PUSH2 0x100 DUP5 DUP3 DUP6 ADD PUSH2 0xCA JUMP JUMPDEST SWAP2 POP POP SWAP3 SWAP2 POP POP JUMP JUMPDEST PUSH2 0x112 DUP2 PUSH2 0xA8 JUMP JUMPDEST DUP3 MSTORE POP POP JUMP JUMPDEST PUSH0 PUSH1 0x20 DUP3 ADD SWAP1 POP PUSH2 0x12B PUSH0 DUP4 ADD DUP5 PUSH2 0x109 JUMP JUMPDEST SWAP3 SWAP2 POP POP JUMP JUMPDEST PUSH32 0x4E487B7100000000000000000000000000000000000000000000000000000000 PUSH0 MSTORE PUSH1 0x12 PUSH1 0x4 MSTORE PUSH1 0x24 PUSH0 REVERT JUMPDEST PUSH0 PUSH2 0x168 DUP3 PUSH2 0xA8 JUMP JUMPDEST SWAP2 POP PUSH2 0x173 DUP4 PUSH2 0xA8 JUMP JUMPDEST SWAP3 POP DUP3 PUSH2 0x183 JUMPI PUSH2 0x182 PUSH2 0x131 JUMP JUMPDEST JUMPDEST DUP3 DUP3 SMOD SWAP1 POP SWAP3 SWAP2 POP POP JUMP JUMPDEST PUSH32 0x4E487B7100000000000000000000000000000000000000000000000000000000 PUSH0 MSTORE PUSH1 0x11 PUSH1 0x4 MSTORE PUSH1 0x24 PUSH0 REVERT JUMPDEST PUSH0 PUSH2 0x1C5 DUP3 PUSH2 0xA8 JUMP JUMPDEST SWAP2 POP PUSH2 0x1D0 DUP4 PUSH2 0xA8 JUMP JUMPDEST SWAP3 POP DUP3 DUP3 ADD SWAP1 POP PUSH32 0xFFFFFFFFFFFFFFFFFFFFFFFFFFFFFFFFFFFFFFFFFFFFFFFFFFFFFFFFFFFF8000 DUP2 SLT PUSH2 0x7FFF DUP3 SGT OR ISZERO PUSH2 0x20E JUMPI PUSH2 0x20D PUSH2 0x18E JUMP JUMPDEST JUMPDEST SWAP3 SWAP2 POP POP JUMP JUMPDEST PUSH0 PUSH2 0x21E DUP3 PUSH2 0xA8 JUMP JUMPDEST SWAP2 POP PUSH2 0x229 DUP4 PUSH2 0xA8 JUMP JUMPDEST SWAP3 POP DUP3 PUSH2 0x239 JUMPI PUSH2 0x238 PUSH2 0x131 JUMP JUMPDEST JUMPDEST PUSH1 0x1 PUSH0 SUB DUP4 EQ PUSH32 0xFFFFFFFFFFFFFFFFFFFFFFFFFFFFFFFFFFFFFFFFFFFFFFFFFFFFFFFFFFFF8000 DUP4 EQ AND ISZERO PUSH2 0x271 JUMPI PUSH2 0x270 PUSH2 0x18E JUMP JUMPDEST JUMPDEST DUP3 DUP3 SDIV SWAP1 POP SWAP3 SWAP2 POP POP JUMP INVALID LOG2 PUSH5 0x6970667358 0x22 SLT KECCAK256 0xAE NUMBER NOT SWAP4 SWAP4 PUSH20 0xF819C2FC2F03A38A69F0D8A23DD0AF0F871465DE 0x4E 0xAE GT SGT 0xBA SWAP16 PUSH5 0x736F6C6343 STOP ADDMOD 0x1E STOP CALLER "
				},
				"gasEstimates": {
					"creation": {
						"codeDepositCost": "138000",
						"executionCost": "181",
						"totalCost": "138181"
					},
					"external": {
						"sumOfDigits(int16)": "infinite"
					}
				},
				"methodIdentifiers": {
					"sumOfDigits(int16)": "f0e57d0f"
				}
			},
			"storageLayout": {
				"storage": [],
				"types": null
			},
			"userdoc": {
				"kind": "user",
				"methods": {},
				"version": 1
			}
		}
	}
}