{
	"contracts/variablesDemo.sol": {
		"VariableDemo": {
			"abi": [
				{
					"inputs": [],
					"stateMutability": "nonpayable",
					"type": "constructor"
				},
				{
					"inputs": [],
					"name": "a",
					"outputs": [
						{
							"internalType": "int256",
							"name": "",
							"type": "int256"
						}
					],
					"stateMutability": "view",
					"type": "function"
				},
				{
					"inputs": [],
					"name": "b",
					"outputs": [
						{
							"internalType": "int8",
							"name": "",
							"type": "int8"
						}
					],
					"stateMutability": "view",
					"type": "function"
				},
				{
					"inputs": [],
					"name": "getValue",
					"outputs": [
						{
							"internalType": "int256",
							"name": "",
							"type": "int256"
						}
					],
					"stateMutability": "view",
					"type": "function"
				},
				{
					"inputs": [
						{
							"internalType": "int8",
							"name": "_c",
							"type": "int8"
						}
					],
					"name": "setValue",
					"outputs": [],
					"stateMutability": "nonpayable",
					"type": "function"
				}
			],
			"devdoc": {
				"kind": "dev",
				"methods": {},
				"version": 1
			},
			"evm": {
				"assembly": "    /* \"contracts/variablesDemo.sol\":63:376  contract VariableDemo{... */\n  mstore(0x40, 0xa0)\n    /* \"contracts/variablesDemo.sol\":167:224  constructor(){... */\n  callvalue\n  dup1\n  iszero\n  tag_1\n  jumpi\n  revert(0x00, 0x00)\ntag_1:\n  pop\n    /* \"contracts/variablesDemo.sol\":195:198  100 */\n  0x64\n    /* \"contracts/variablesDemo.sol\":191:192  b */\n  0x00\n  0x00\n    /* \"contracts/variablesDemo.sol\":191:198  b = 100 */\n  0x0100\n  exp\n  dup2\n  sload\n  dup2\n  0xff\n  mul\n  not\n  and\n  swap1\n  dup4\n  0x00\n  signextend\n  0xff\n  and\n  mul\n  or\n  swap1\n  sstore\n  pop\n    /* \"contracts/variablesDemo.sol\":213:216  100 */\n  0x64\n    /* \"contracts/variablesDemo.sol\":209:216  a = 100 */\n  0x80\n  dup2\n  dup2\n  mstore\n  pop\n  pop\n    /* \"contracts/variablesDemo.sol\":63:376  contract VariableDemo{... */\n  mload(0x80)\n  codecopy(0x00, dataOffset(sub_0), dataSize(sub_0))\n  0x00\n  assignImmutable(\"0x2a80e1ef1d7842f27f2e6be0972bb708b9a135c38860dbe73c27c3486c34f4de\")\n  return(0x00, dataSize(sub_0))\nstop\n\nsub_0: assembly {\n        /* \"contracts/variablesDemo.sol\":63:376  contract VariableDemo{... */\n      mstore(0x40, 0x80)\n      callvalue\n      dup1\n      iszero\n      tag_1\n      jumpi\n      revert(0x00, 0x00)\n    tag_1:\n      pop\n      jumpi(tag_2, lt(calldatasize, 0x04))\n      shr(0xe0, calldataload(0x00))\n      dup1\n      0x0dbe671f\n      eq\n      tag_3\n      jumpi\n      dup1\n      0x20965255\n      eq\n      tag_4\n      jumpi\n      dup1\n      0x4298954f\n      eq\n      tag_5\n      jumpi\n      dup1\n      0x4df7e3d0\n      eq\n      tag_6\n      jumpi\n    tag_2:\n      revert(0x00, 0x00)\n        /* \"contracts/variablesDemo.sol\":91:116  int256 public immutable a */\n    tag_3:\n      tag_7\n      tag_8\n      jump\t// in\n    tag_7:\n      mload(0x40)\n      tag_9\n      swap2\n      swap1\n      tag_10\n      jump\t// in\n    tag_9:\n      mload(0x40)\n      dup1\n      swap2\n      sub\n      swap1\n      return\n        /* \"contracts/variablesDemo.sol\":299:373  function getValue() public view returns(int256){... */\n    tag_4:\n      tag_11\n      tag_12\n      jump\t// in\n    tag_11:\n      mload(0x40)\n      tag_13\n      swap2\n      swap1\n      tag_10\n      jump\t// in\n    tag_13:\n      mload(0x40)\n      dup1\n      swap2\n      sub\n      swap1\n      return\n        /* \"contracts/variablesDemo.sol\":232:291  function setValue(int8 _c) public {... */\n    tag_5:\n      tag_14\n      0x04\n      dup1\n      calldatasize\n      sub\n      dup2\n      add\n      swap1\n      tag_15\n      swap2\n      swap1\n      tag_16\n      jump\t// in\n    tag_15:\n      tag_17\n      jump\t// in\n    tag_14:\n      stop\n        /* \"contracts/variablesDemo.sol\":147:160  int8 public b */\n    tag_6:\n      tag_18\n      tag_19\n      jump\t// in\n    tag_18:\n      mload(0x40)\n      tag_20\n      swap2\n      swap1\n      tag_21\n      jump\t// in\n    tag_20:\n      mload(0x40)\n      dup1\n      swap2\n      sub\n      swap1\n      return\n        /* \"contracts/variablesDemo.sol\":91:116  int256 public immutable a */\n    tag_8:\n      immutable(\"0x2a80e1ef1d7842f27f2e6be0972bb708b9a135c38860dbe73c27c3486c34f4de\")\n      dup2\n      jump\t// out\n        /* \"contracts/variablesDemo.sol\":299:373  function getValue() public view returns(int256){... */\n    tag_12:\n        /* \"contracts/variablesDemo.sol\":339:345  int256 */\n      0x00\n        /* \"contracts/variablesDemo.sol\":364:365  a */\n      immutable(\"0x2a80e1ef1d7842f27f2e6be0972bb708b9a135c38860dbe73c27c3486c34f4de\")\n        /* \"contracts/variablesDemo.sol\":357:365  return a */\n      swap1\n      pop\n        /* \"contracts/variablesDemo.sol\":299:373  function getValue() public view returns(int256){... */\n      swap1\n      jump\t// out\n        /* \"contracts/variablesDemo.sol\":232:291  function setValue(int8 _c) public {... */\n    tag_17:\n        /* \"contracts/variablesDemo.sol\":281:283  _c */\n      dup1\n        /* \"contracts/variablesDemo.sol\":277:278  b */\n      0x00\n      0x00\n        /* \"contracts/variablesDemo.sol\":277:283  b = _c */\n      0x0100\n      exp\n      dup2\n      sload\n      dup2\n      0xff\n      mul\n      not\n      and\n      swap1\n      dup4\n      0x00\n      signextend\n      0xff\n      and\n      mul\n      or\n      swap1\n      sstore\n      pop\n        /* \"contracts/variablesDemo.sol\":232:291  function setValue(int8 _c) public {... */\n      pop\n      jump\t// out\n        /* \"contracts/variablesDemo.sol\":147:160  int8 public b */\n    tag_19:\n      0x00\n      0x00\n      swap1\n      sload\n      swap1\n      0x0100\n      exp\n      swap1\n      div\n      0x00\n      signextend\n      dup2\n      jump\t// out\n        /* \"#utility.yul\":7:83   */\n    tag_24:\n        /* \"#utility.yul\":43:50   */\n      0x00\n        /* \"#utility.yul\":72:77   */\n      dup2\n        /* \"#utility.yul\":61:77   */\n      swap1\n      pop\n        /* \"#utility.yul\":7:83   */\n      swap2\n      swap1\n      pop\n      jump\t// out\n        /* \"#utility.yul\":89:204   */\n    tag_25:\n        /* \"#utility.yul\":174:197   */\n      tag_36\n        /* \"#utility.yul\":191:196   */\n      dup2\n        /* \"#utility.yul\":174:197   */\n      tag_24\n      jump\t// in\n    tag_36:\n        /* \"#utility.yul\":169:172   */\n      dup3\n        /* \"#utility.yul\":162:198   */\n      mstore\n        /* \"#utility.yul\":89:204   */\n      pop\n      pop\n      jump\t// out\n        /* \"#utility.yul\":210:428   */\n    tag_10:\n        /* \"#utility.yul\":301:305   */\n      0x00\n        /* \"#utility.yul\":339:341   */\n      0x20\n        /* \"#utility.yul\":328:337   */\n      dup3\n        /* \"#utility.yul\":324:342   */\n      add\n        /* \"#utility.yul\":316:342   */\n      swap1\n      pop\n        /* \"#utility.yul\":352:421   */\n      tag_38\n        /* \"#utility.yul\":418:419   */\n      0x00\n        /* \"#utility.yul\":407:416   */\n      dup4\n        /* \"#utility.yul\":403:420   */\n      add\n        /* \"#utility.yul\":394:400   */\n      dup5\n        /* \"#utility.yul\":352:421   */\n      tag_25\n      jump\t// in\n    tag_38:\n        /* \"#utility.yul\":210:428   */\n      swap3\n      swap2\n      pop\n      pop\n      jump\t// out\n        /* \"#utility.yul\":515:632   */\n    tag_27:\n        /* \"#utility.yul\":624:625   */\n      0x00\n        /* \"#utility.yul\":621:622   */\n      0x00\n        /* \"#utility.yul\":614:626   */\n      revert\n        /* \"#utility.yul\":761:850   */\n    tag_29:\n        /* \"#utility.yul\":795:802   */\n      0x00\n        /* \"#utility.yul\":838:843   */\n      dup2\n        /* \"#utility.yul\":835:836   */\n      0x00\n        /* \"#utility.yul\":824:844   */\n      signextend\n        /* \"#utility.yul\":813:844   */\n      swap1\n      pop\n        /* \"#utility.yul\":761:850   */\n      swap2\n      swap1\n      pop\n      jump\t// out\n        /* \"#utility.yul\":856:972   */\n    tag_30:\n        /* \"#utility.yul\":926:947   */\n      tag_44\n        /* \"#utility.yul\":941:946   */\n      dup2\n        /* \"#utility.yul\":926:947   */\n      tag_29\n      jump\t// in\n    tag_44:\n        /* \"#utility.yul\":919:924   */\n      dup2\n        /* \"#utility.yul\":916:948   */\n      eq\n        /* \"#utility.yul\":906:966   */\n      tag_45\n      jumpi\n        /* \"#utility.yul\":962:963   */\n      0x00\n        /* \"#utility.yul\":959:960   */\n      0x00\n        /* \"#utility.yul\":952:964   */\n      revert\n        /* \"#utility.yul\":906:966   */\n    tag_45:\n        /* \"#utility.yul\":856:972   */\n      pop\n      jump\t// out\n        /* \"#utility.yul\":978:1111   */\n    tag_31:\n        /* \"#utility.yul\":1021:1026   */\n      0x00\n        /* \"#utility.yul\":1059:1065   */\n      dup2\n        /* \"#utility.yul\":1046:1066   */\n      calldataload\n        /* \"#utility.yul\":1037:1066   */\n      swap1\n      pop\n        /* \"#utility.yul\":1075:1105   */\n      tag_47\n        /* \"#utility.yul\":1099:1104   */\n      dup2\n        /* \"#utility.yul\":1075:1105   */\n      tag_30\n      jump\t// in\n    tag_47:\n        /* \"#utility.yul\":978:1111   */\n      swap3\n      swap2\n      pop\n      pop\n      jump\t// out\n        /* \"#utility.yul\":1117:1440   */\n    tag_16:\n        /* \"#utility.yul\":1173:1179   */\n      0x00\n        /* \"#utility.yul\":1222:1224   */\n      0x20\n        /* \"#utility.yul\":1210:1219   */\n      dup3\n        /* \"#utility.yul\":1201:1208   */\n      dup5\n        /* \"#utility.yul\":1197:1220   */\n      sub\n        /* \"#utility.yul\":1193:1225   */\n      slt\n        /* \"#utility.yul\":1190:1309   */\n      iszero\n      tag_49\n      jumpi\n        /* \"#utility.yul\":1228:1307   */\n      tag_50\n      tag_27\n      jump\t// in\n    tag_50:\n        /* \"#utility.yul\":1190:1309   */\n    tag_49:\n        /* \"#utility.yul\":1348:1349   */\n      0x00\n        /* \"#utility.yul\":1373:1423   */\n      tag_51\n        /* \"#utility.yul\":1415:1422   */\n      dup5\n        /* \"#utility.yul\":1406:1412   */\n      dup3\n        /* \"#utility.yul\":1395:1404   */\n      dup6\n        /* \"#utility.yul\":1391:1413   */\n      add\n        /* \"#utility.yul\":1373:1423   */\n      tag_31\n      jump\t// in\n    tag_51:\n        /* \"#utility.yul\":1363:1423   */\n      swap2\n      pop\n        /* \"#utility.yul\":1319:1433   */\n      pop\n        /* \"#utility.yul\":1117:1440   */\n      swap3\n      swap2\n      pop\n      pop\n      jump\t// out\n        /* \"#utility.yul\":1446:1555   */\n    tag_32:\n        /* \"#utility.yul\":1527:1548   */\n      tag_53\n        /* \"#utility.yul\":1542:1547   */\n      dup2\n        /* \"#utility.yul\":1527:1548   */\n      tag_29\n      jump\t// in\n    tag_53:\n        /* \"#utility.yul\":1522:1525   */\n      dup3\n        /* \"#utility.yul\":1515:1549   */\n      mstore\n        /* \"#utility.yul\":1446:1555   */\n      pop\n      pop\n      jump\t// out\n        /* \"#utility.yul\":1561:1771   */\n    tag_21:\n        /* \"#utility.yul\":1648:1652   */\n      0x00\n        /* \"#utility.yul\":1686:1688   */\n      0x20\n        /* \"#utility.yul\":1675:1684   */\n      dup3\n        /* \"#utility.yul\":1671:1689   */\n      add\n        /* \"#utility.yul\":1663:1689   */\n      swap1\n      pop\n        /* \"#utility.yul\":1699:1764   */\n      tag_55\n        /* \"#utility.yul\":1761:1762   */\n      0x00\n        /* \"#utility.yul\":1750:1759   */\n      dup4\n        /* \"#utility.yul\":1746:1763   */\n      add\n        /* \"#utility.yul\":1737:1743   */\n      dup5\n        /* \"#utility.yul\":1699:1764   */\n      tag_32\n      jump\t// in\n    tag_55:\n        /* \"#utility.yul\":1561:1771   */\n      swap3\n      swap2\n      pop\n      pop\n      jump\t// out\n\n    auxdata: 0xa264697066735822122072879b54e8e0269d3c1c8545d9586296986058f2c932b1fe56c0689b255f706e64736f6c634300081e0033\n}\n",
				"bytecode": {
					"linkReferences": {},
					"object": "60a0604052348015600e575f5ffd5b5060645f5f6101000a81548160ff02191690835f0b60ff1602179055506064608081815250506080516102306100515f395f818160c6015260eb01526102305ff3fe608060405234801561000f575f5ffd5b506004361061004a575f3560e01c80630dbe671f1461004e578063209652551461006c5780634298954f1461008a5780634df7e3d0146100a6575b5f5ffd5b6100566100c4565b6040516100639190610155565b60405180910390f35b6100746100e8565b6040516100819190610155565b60405180910390f35b6100a4600480360381019061009f91906101a7565b61010f565b005b6100ae61012d565b6040516100bb91906101e1565b60405180910390f35b7f000000000000000000000000000000000000000000000000000000000000000081565b5f7f0000000000000000000000000000000000000000000000000000000000000000905090565b805f5f6101000a81548160ff02191690835f0b60ff16021790555050565b5f5f9054906101000a90045f0b81565b5f819050919050565b61014f8161013d565b82525050565b5f6020820190506101685f830184610146565b92915050565b5f5ffd5b5f815f0b9050919050565b61018681610172565b8114610190575f5ffd5b50565b5f813590506101a18161017d565b92915050565b5f602082840312156101bc576101bb61016e565b5b5f6101c984828501610193565b91505092915050565b6101db81610172565b82525050565b5f6020820190506101f45f8301846101d2565b9291505056fea264697066735822122072879b54e8e0269d3c1c8545d9586296986058f2c932b1fe56c0689b255f706e64736f6c634300081e0033",
					"opcodes": "PUSH1 0xA0 PUSH1 0x40 MSTORE CALLVALUE DUP1 ISZERO PUSH1 0xE JUMPI PUSH0 PUSH0 REVERT JUMPDEST POP PUSH1 0x64 PUSH0 PUSH0 PUSH2 0x100 EXP DUP2 SLOAD DUP2 PUSH1 0xFF MUL NOT AND SWAP1 DUP4 PUSH0 SIGNEXTEND PUSH1 0xFF AND MUL OR SWAP1 SSTORE POP PUSH1 0x64 PUSH1 0x80 DUP2 DUP2 MSTORE POP POP PUSH1 0x80 MLOAD PUSH2 0x230 PUSH2 0x51 PUSH0 CODECOPY PUSH0 DUP2 DUP2 PUSH1 0xC6 ADD MSTORE PUSH1 0xEB ADD MSTORE PUSH2 0x230 PUSH0 RETURN INVALID PUSH1 0x80 PUSH1 0x40 MSTORE CALLVALUE DUP1 ISZERO PUSH2 0xF JUMPI PUSH0 PUSH0 REVERT JUMPDEST POP PUSH1 0x4 CALLDATASIZE LT PUSH2 0x4A JUMPI PUSH0 CALLDATALOAD PUSH1 0xE0 SHR DUP1 PUSH4 0xDBE671F EQ PUSH2 0x4E JUMPI DUP1 PUSH4 0x20965255 EQ PUSH2 0x6C JUMPI DUP1 PUSH4 0x4298954F EQ PUSH2 0x8A JUMPI DUP1 PUSH4 0x4DF7E3D0 EQ PUSH2 0xA6 JUMPI JUMPDEST PUSH0 PUSH0 REVERT JUMPDEST PUSH2 0x56 PUSH2 0xC4 JUMP JUMPDEST PUSH1 0x40 MLOAD PUSH2 0x63 SWAP2 SWAP1 PUSH2 0x155 JUMP JUMPDEST PUSH1 0x40 MLOAD DUP1 SWAP2 SUB SWAP1 RETURN JUMPDEST PUSH2 0x74 PUSH2 0xE8 JUMP JUMPDEST PUSH1 0x40 MLOAD PUSH2 0x81 SWAP2 SWAP1 PUSH2 0x155 JUMP JUMPDEST PUSH1 0x40 MLOAD DUP1 SWAP2 SUB SWAP1 RETURN JUMPDEST PUSH2 0xA4 PUSH1 0x4 DUP1 CALLDATASIZE SUB DUP2 ADD SWAP1 PUSH2 0x9F SWAP2 SWAP1 PUSH2 0x1A7 JUMP JUMPDEST PUSH2 0x10F JUMP JUMPDEST STOP JUMPDEST PUSH2 0xAE PUSH2 0x12D JUMP JUMPDEST PUSH1 0x40 MLOAD PUSH2 0xBB SWAP2 SWAP1 PUSH2 0x1E1 JUMP JUMPDEST PUSH1 0x40 MLOAD DUP1 SWAP2 SUB SWAP1 RETURN JUMPDEST PUSH32 0x0 DUP2 JUMP JUMPDEST PUSH0 PUSH32 0x0 SWAP1 POP SWAP1 JUMP JUMPDEST DUP1 PUSH0 PUSH0 PUSH2 0x100 EXP DUP2 SLOAD DUP2 PUSH1 0xFF MUL NOT AND SWAP1 DUP4 PUSH0 SIGNEXTEND PUSH1 0xFF AND MUL OR SWAP1 SSTORE POP POP JUMP JUMPDEST PUSH0 PUSH0 SWAP1 SLOAD SWAP1 PUSH2 0x100 EXP SWAP1 DIV PUSH0 SIGNEXTEND DUP2 JUMP JUMPDEST PUSH0 DUP2 SWAP1 POP SWAP2 SWAP1 POP JUMP JUMPDEST PUSH2 0x14F DUP2 PUSH2 0x13D JUMP JUMPDEST DUP3 MSTORE POP POP JUMP JUMPDEST PUSH0 PUSH1 0x20 DUP3 ADD SWAP1 POP PUSH2 0x168 PUSH0 DUP4 ADD DUP5 PUSH2 0x146 JUMP JUMPDEST SWAP3 SWAP2 POP POP JUMP JUMPDEST PUSH0 PUSH0 REVERT JUMPDEST PUSH0 DUP2 PUSH0 SIGNEXTEND SWAP1 POP SWAP2 SWAP1 POP JUMP JUMPDEST PUSH2 0x186 DUP2 PUSH2 0x172 JUMP JUMPDEST DUP2 EQ PUSH2 0x190 JUMPI PUSH0 PUSH0 REVERT JUMPDEST POP JUMP JUMPDEST PUSH0 DUP2 CALLDATALOAD SWAP1 POP PUSH2 0x1A1 DUP2 PUSH2 0x17D JUMP JUMPDEST SWAP3 SWAP2 POP POP JUMP JUMPDEST PUSH0 PUSH1 0x20 DUP3 DUP5 SUB SLT ISZERO PUSH2 0x1BC JUMPI PUSH2 0x1BB PUSH2 0x16E JUMP JUMPDEST JUMPDEST PUSH0 PUSH2 0x1C9 DUP5 DUP3 DUP6 ADD PUSH2 0x193 JUMP JUMPDEST SWAP2 POP POP SWAP3 SWAP2 POP POP JUMP JUMPDEST PUSH2 0x1DB DUP2 PUSH2 0x172 JUMP JUMPDEST DUP3 MSTORE POP POP JUMP JUMPDEST PUSH0 PUSH1 0x20 DUP3 ADD SWAP1 POP PUSH2 0x1F4 PUSH0 DUP4 ADD DUP5 PUSH2 0x1D2 JUMP JUMPDEST SWAP3 SWAP2 POP POP JUMP INVALID LOG2 PUSH5 0x6970667358 0x22 SLT KECCAK256 PUSH19 0x879B54E8E0269D3C1C8545D9586296986058F2 0xC9 ORIGIN 0xB1 INVALID JUMP 0xC0 PUSH9 0x9B255F706E64736F6C PUSH4 0x4300081E STOP CALLER "
				},
				"gasEstimates": {
					"creation": {
						"codeDepositCost": "112000",
						"executionCost": "infinite",
						"totalCost": "infinite"
					},
					"external": {
						"a()": "infinite",
						"b()": "2511",
						"getValue()": "infinite",
						"setValue(int8)": "24702"
					}
				},
				"methodIdentifiers": {
					"a()": "0dbe671f",
					"b()": "4df7e3d0",
					"getValue()": "20965255",
					"setValue(int8)": "4298954f"
				}
			},
			"storageLayout": {
				"storage": [
					{
						"astId": 5,
						"contract": "contracts/variablesDemo.sol:VariableDemo",
						"label": "b",
						"offset": 0,
						"slot": "0",
						"type": "t_int8"
					}
				],
				"types": {
					"t_int8": {
						"encoding": "inplace",
						"label": "int8",
						"numberOfBytes": "1"
					}
				}
			},
			"userdoc": {
				"kind": "user",
				"methods": {},
				"version": 1
			}
		}
	}
}