{
	"contracts/LabCycle/Assignment5/StudentInfo.sol": {
		"StudentRegistry": {
			"abi": [
				{
					"inputs": [],
					"stateMutability": "nonpayable",
					"type": "constructor"
				},
				{
					"inputs": [
						{
							"internalType": "uint256",
							"name": "_id",
							"type": "uint256"
						},
						{
							"internalType": "string",
							"name": "_name",
							"type": "string"
						},
						{
							"internalType": "uint256",
							"name": "_age",
							"type": "uint256"
						},
						{
							"internalType": "uint256",
							"name": "_class",
							"type": "uint256"
						}
					],
					"name": "addOrEditStudent",
					"outputs": [],
					"stateMutability": "nonpayable",
					"type": "function"
				},
				{
					"inputs": [
						{
							"internalType": "uint256",
							"name": "_id",
							"type": "uint256"
						}
					],
					"name": "getStudentDetails",
					"outputs": [
						{
							"internalType": "string",
							"name": "name",
							"type": "string"
						},
						{
							"internalType": "uint256",
							"name": "age",
							"type": "uint256"
						},
						{
							"internalType": "uint256",
							"name": "studentClass",
							"type": "uint256"
						}
					],
					"stateMutability": "view",
					"type": "function"
				},
				{
					"inputs": [
						{
							"internalType": "uint256",
							"name": "",
							"type": "uint256"
						}
					],
					"name": "students",
					"outputs": [
						{
							"internalType": "string",
							"name": "name",
							"type": "string"
						},
						{
							"internalType": "uint256",
							"name": "age",
							"type": "uint256"
						},
						{
							"internalType": "uint256",
							"name": "studentClass",
							"type": "uint256"
						},
						{
							"internalType": "bool",
							"name": "exists",
							"type": "bool"
						}
					],
					"stateMutability": "view",
					"type": "function"
				},
				{
					"inputs": [],
					"name": "teacherAddress",
					"outputs": [
						{
							"internalType": "address",
							"name": "",
							"type": "address"
						}
					],
					"stateMutability": "view",
					"type": "function"
				},
				{
					"inputs": [
						{
							"internalType": "address",
							"name": "_newTeacher",
							"type": "address"
						}
					],
					"name": "transferTeacherRole",
					"outputs": [],
					"stateMutability": "nonpayable",
					"type": "function"
				}
			],
			"devdoc": {
				"kind": "dev",
				"methods": {},
				"version": 1
			},
			"evm": {
				"assembly": "    /* \"contracts/LabCycle/Assignment5/StudentInfo.sol\":60:1383  contract StudentRegistry {... */\n  mstore(0x40, 0x80)\n    /* \"contracts/LabCycle/Assignment5/StudentInfo.sol\":464:524  constructor() {... */\n  callvalue\n  dup1\n  iszero\n  tag_1\n  jumpi\n  revert(0x00, 0x00)\ntag_1:\n  pop\n    /* \"contracts/LabCycle/Assignment5/StudentInfo.sol\":506:516  msg.sender */\n  caller\n    /* \"contracts/LabCycle/Assignment5/StudentInfo.sol\":489:503  teacherAddress */\n  0x00\n  0x00\n    /* \"contracts/LabCycle/Assignment5/StudentInfo.sol\":489:516  teacherAddress = msg.sender */\n  0x0100\n  exp\n  dup2\n  sload\n  dup2\n  0xffffffffffffffffffffffffffffffffffffffff\n  mul\n  not\n  and\n  swap1\n  dup4\n  0xffffffffffffffffffffffffffffffffffffffff\n  and\n  mul\n  or\n  swap1\n  sstore\n  pop\n    /* \"contracts/LabCycle/Assignment5/StudentInfo.sol\":60:1383  contract StudentRegistry {... */\n  dataSize(sub_0)\n  dup1\n  dataOffset(sub_0)\n  0x00\n  codecopy\n  0x00\n  return\nstop\n\nsub_0: assembly {\n        /* \"contracts/LabCycle/Assignment5/StudentInfo.sol\":60:1383  contract StudentRegistry {... */\n      mstore(0x40, 0x80)\n      callvalue\n      dup1\n      iszero\n      tag_1\n      jumpi\n      revert(0x00, 0x00)\n    tag_1:\n      pop\n      jumpi(tag_2, lt(calldatasize, 0x04))\n      shr(0xe0, calldataload(0x00))\n      dup1\n      0x06ead22e\n      eq\n      tag_3\n      jumpi\n      dup1\n      0x22da2d9a\n      eq\n      tag_4\n      jumpi\n      dup1\n      0x5f92040a\n      eq\n      tag_5\n      jumpi\n      dup1\n      0x86a9b364\n      eq\n      tag_6\n      jumpi\n      dup1\n      0x9c28fdf8\n      eq\n      tag_7\n      jumpi\n    tag_2:\n      revert(0x00, 0x00)\n        /* \"contracts/LabCycle/Assignment5/StudentInfo.sol\":252:292  mapping(uint => Student) public students */\n    tag_3:\n      tag_8\n      0x04\n      dup1\n      calldatasize\n      sub\n      dup2\n      add\n      swap1\n      tag_9\n      swap2\n      swap1\n      tag_10\n      jump\t// in\n    tag_9:\n      tag_11\n      jump\t// in\n    tag_8:\n      mload(0x40)\n      tag_12\n      swap5\n      swap4\n      swap3\n      swap2\n      swap1\n      tag_13\n      jump\t// in\n    tag_12:\n      mload(0x40)\n      dup1\n      swap2\n      sub\n      swap1\n      return\n        /* \"contracts/LabCycle/Assignment5/StudentInfo.sol\":532:877  function addOrEditStudent(... */\n    tag_4:\n      tag_14\n      0x04\n      dup1\n      calldatasize\n      sub\n      dup2\n      add\n      swap1\n      tag_15\n      swap2\n      swap1\n      tag_16\n      jump\t// in\n    tag_15:\n      tag_17\n      jump\t// in\n    tag_14:\n      stop\n        /* \"contracts/LabCycle/Assignment5/StudentInfo.sol\":1180:1380  function transferTeacherRole(address _newTeacher) public onlyTeacher {... */\n    tag_5:\n      tag_18\n      0x04\n      dup1\n      calldatasize\n      sub\n      dup2\n      add\n      swap1\n      tag_19\n      swap2\n      swap1\n      tag_20\n      jump\t// in\n    tag_19:\n      tag_21\n      jump\t// in\n    tag_18:\n      stop\n        /* \"contracts/LabCycle/Assignment5/StudentInfo.sol\":885:1172  function getStudentDetails(uint _id) public view returns (string memory name, uint age, uint studentClass) {... */\n    tag_6:\n      tag_22\n      0x04\n      dup1\n      calldatasize\n      sub\n      dup2\n      add\n      swap1\n      tag_23\n      swap2\n      swap1\n      tag_10\n      jump\t// in\n    tag_23:\n      tag_24\n      jump\t// in\n    tag_22:\n      mload(0x40)\n      tag_25\n      swap4\n      swap3\n      swap2\n      swap1\n      tag_26\n      jump\t// in\n    tag_25:\n      mload(0x40)\n      dup1\n      swap2\n      sub\n      swap1\n      return\n        /* \"contracts/LabCycle/Assignment5/StudentInfo.sol\":92:121  address public teacherAddress */\n    tag_7:\n      tag_27\n      tag_28\n      jump\t// in\n    tag_27:\n      mload(0x40)\n      tag_29\n      swap2\n      swap1\n      tag_30\n      jump\t// in\n    tag_29:\n      mload(0x40)\n      dup1\n      swap2\n      sub\n      swap1\n      return\n        /* \"contracts/LabCycle/Assignment5/StudentInfo.sol\":252:292  mapping(uint => Student) public students */\n    tag_11:\n      mstore(0x20, 0x01)\n      dup1\n      0x00\n      mstore\n      keccak256(0x00, 0x40)\n      0x00\n      swap2\n      pop\n      swap1\n      pop\n      dup1\n      0x00\n      add\n      dup1\n      sload\n      tag_31\n      swap1\n      tag_32\n      jump\t// in\n    tag_31:\n      dup1\n      0x1f\n      add\n      0x20\n      dup1\n      swap2\n      div\n      mul\n      0x20\n      add\n      mload(0x40)\n      swap1\n      dup2\n      add\n      0x40\n      mstore\n      dup1\n      swap3\n      swap2\n      swap1\n      dup2\n      dup2\n      mstore\n      0x20\n      add\n      dup3\n      dup1\n      sload\n      tag_33\n      swap1\n      tag_32\n      jump\t// in\n    tag_33:\n      dup1\n      iszero\n      tag_34\n      jumpi\n      dup1\n      0x1f\n      lt\n      tag_35\n      jumpi\n      0x0100\n      dup1\n      dup4\n      sload\n      div\n      mul\n      dup4\n      mstore\n      swap2\n      0x20\n      add\n      swap2\n      jump(tag_34)\n    tag_35:\n      dup3\n      add\n      swap2\n      swap1\n      0x00\n      mstore\n      keccak256(0x00, 0x20)\n      swap1\n    tag_36:\n      dup2\n      sload\n      dup2\n      mstore\n      swap1\n      0x01\n      add\n      swap1\n      0x20\n      add\n      dup1\n      dup4\n      gt\n      tag_36\n      jumpi\n      dup3\n      swap1\n      sub\n      0x1f\n      and\n      dup3\n      add\n      swap2\n    tag_34:\n      pop\n      pop\n      pop\n      pop\n      pop\n      swap1\n      dup1\n      0x01\n      add\n      sload\n      swap1\n      dup1\n      0x02\n      add\n      sload\n      swap1\n      dup1\n      0x03\n      add\n      0x00\n      swap1\n      sload\n      swap1\n      0x0100\n      exp\n      swap1\n      div\n      0xff\n      and\n      swap1\n      pop\n      dup5\n      jump\t// out\n        /* \"contracts/LabCycle/Assignment5/StudentInfo.sol\":532:877  function addOrEditStudent(... */\n    tag_17:\n        /* \"contracts/LabCycle/Assignment5/StudentInfo.sol\":357:371  teacherAddress */\n      0x00\n      0x00\n      swap1\n      sload\n      swap1\n      0x0100\n      exp\n      swap1\n      div\n      0xffffffffffffffffffffffffffffffffffffffff\n      and\n        /* \"contracts/LabCycle/Assignment5/StudentInfo.sol\":343:371  msg.sender == teacherAddress */\n      0xffffffffffffffffffffffffffffffffffffffff\n      and\n        /* \"contracts/LabCycle/Assignment5/StudentInfo.sol\":343:353  msg.sender */\n      caller\n        /* \"contracts/LabCycle/Assignment5/StudentInfo.sol\":343:371  msg.sender == teacherAddress */\n      0xffffffffffffffffffffffffffffffffffffffff\n      and\n      eq\n        /* \"contracts/LabCycle/Assignment5/StudentInfo.sol\":335:436  require(msg.sender == teacherAddress, \"Permission denied: Only the teacher can perform this action.\") */\n      tag_38\n      jumpi\n      mload(0x40)\n      0x08c379a000000000000000000000000000000000000000000000000000000000\n      dup2\n      mstore\n      0x04\n      add\n      tag_39\n      swap1\n      tag_40\n      jump\t// in\n    tag_39:\n      mload(0x40)\n      dup1\n      swap2\n      sub\n      swap1\n      revert\n    tag_38:\n        /* \"contracts/LabCycle/Assignment5/StudentInfo.sol\":700:701  0 */\n      0x00\n        /* \"contracts/LabCycle/Assignment5/StudentInfo.sol\":694:697  _id */\n      dup5\n        /* \"contracts/LabCycle/Assignment5/StudentInfo.sol\":694:701  _id > 0 */\n      gt\n        /* \"contracts/LabCycle/Assignment5/StudentInfo.sol\":686:743  require(_id > 0, \"Student ID must be greater than zero.\") */\n      tag_42\n      jumpi\n      mload(0x40)\n      0x08c379a000000000000000000000000000000000000000000000000000000000\n      dup2\n      mstore\n      0x04\n      add\n      tag_43\n      swap1\n      tag_44\n      jump\t// in\n    tag_43:\n      mload(0x40)\n      dup1\n      swap2\n      sub\n      swap1\n      revert\n    tag_42:\n        /* \"contracts/LabCycle/Assignment5/StudentInfo.sol\":772:869  Student(... */\n      mload(0x40)\n      dup1\n      0x80\n      add\n      0x40\n      mstore\n      dup1\n        /* \"contracts/LabCycle/Assignment5/StudentInfo.sol\":794:799  _name */\n      dup5\n        /* \"contracts/LabCycle/Assignment5/StudentInfo.sol\":772:869  Student(... */\n      dup2\n      mstore\n      0x20\n      add\n        /* \"contracts/LabCycle/Assignment5/StudentInfo.sol\":814:818  _age */\n      dup4\n        /* \"contracts/LabCycle/Assignment5/StudentInfo.sol\":772:869  Student(... */\n      dup2\n      mstore\n      0x20\n      add\n        /* \"contracts/LabCycle/Assignment5/StudentInfo.sol\":833:839  _class */\n      dup3\n        /* \"contracts/LabCycle/Assignment5/StudentInfo.sol\":772:869  Student(... */\n      dup2\n      mstore\n      0x20\n      add\n        /* \"contracts/LabCycle/Assignment5/StudentInfo.sol\":854:858  true */\n      0x01\n        /* \"contracts/LabCycle/Assignment5/StudentInfo.sol\":772:869  Student(... */\n      iszero\n      iszero\n      dup2\n      mstore\n      pop\n        /* \"contracts/LabCycle/Assignment5/StudentInfo.sol\":756:764  students */\n      0x01\n        /* \"contracts/LabCycle/Assignment5/StudentInfo.sol\":756:769  students[_id] */\n      0x00\n        /* \"contracts/LabCycle/Assignment5/StudentInfo.sol\":765:768  _id */\n      dup7\n        /* \"contracts/LabCycle/Assignment5/StudentInfo.sol\":756:769  students[_id] */\n      dup2\n      mstore\n      0x20\n      add\n      swap1\n      dup2\n      mstore\n      0x20\n      add\n      0x00\n      keccak256\n        /* \"contracts/LabCycle/Assignment5/StudentInfo.sol\":756:869  students[_id] = Student(... */\n      0x00\n      dup3\n      add\n      mload\n      dup2\n      0x00\n      add\n      swap1\n      dup2\n      tag_45\n      swap2\n      swap1\n      tag_46\n      jump\t// in\n    tag_45:\n      pop\n      0x20\n      dup3\n      add\n      mload\n      dup2\n      0x01\n      add\n      sstore\n      0x40\n      dup3\n      add\n      mload\n      dup2\n      0x02\n      add\n      sstore\n      0x60\n      dup3\n      add\n      mload\n      dup2\n      0x03\n      add\n      exp(0x0100, 0x00)\n      dup2\n      sload\n      dup2\n      0xff\n      mul\n      not\n      and\n      swap1\n      dup4\n      iszero\n      iszero\n      mul\n      or\n      swap1\n      sstore\n      pop\n      swap1\n      pop\n      pop\n        /* \"contracts/LabCycle/Assignment5/StudentInfo.sol\":532:877  function addOrEditStudent(... */\n      pop\n      pop\n      pop\n      pop\n      jump\t// out\n        /* \"contracts/LabCycle/Assignment5/StudentInfo.sol\":1180:1380  function transferTeacherRole(address _newTeacher) public onlyTeacher {... */\n    tag_21:\n        /* \"contracts/LabCycle/Assignment5/StudentInfo.sol\":357:371  teacherAddress */\n      0x00\n      0x00\n      swap1\n      sload\n      swap1\n      0x0100\n      exp\n      swap1\n      div\n      0xffffffffffffffffffffffffffffffffffffffff\n      and\n        /* \"contracts/LabCycle/Assignment5/StudentInfo.sol\":343:371  msg.sender == teacherAddress */\n      0xffffffffffffffffffffffffffffffffffffffff\n      and\n        /* \"contracts/LabCycle/Assignment5/StudentInfo.sol\":343:353  msg.sender */\n      caller\n        /* \"contracts/LabCycle/Assignment5/StudentInfo.sol\":343:371  msg.sender == teacherAddress */\n      0xffffffffffffffffffffffffffffffffffffffff\n      and\n      eq\n        /* \"contracts/LabCycle/Assignment5/StudentInfo.sol\":335:436  require(msg.sender == teacherAddress, \"Permission denied: Only the teacher can perform this action.\") */\n      tag_48\n      jumpi\n      mload(0x40)\n      0x08c379a000000000000000000000000000000000000000000000000000000000\n      dup2\n      mstore\n      0x04\n      add\n      tag_49\n      swap1\n      tag_40\n      jump\t// in\n    tag_49:\n      mload(0x40)\n      dup1\n      swap2\n      sub\n      swap1\n      revert\n    tag_48:\n        /* \"contracts/LabCycle/Assignment5/StudentInfo.sol\":1291:1292  0 */\n      0x00\n        /* \"contracts/LabCycle/Assignment5/StudentInfo.sol\":1268:1293  _newTeacher != address(0) */\n      0xffffffffffffffffffffffffffffffffffffffff\n      and\n        /* \"contracts/LabCycle/Assignment5/StudentInfo.sol\":1268:1279  _newTeacher */\n      dup2\n        /* \"contracts/LabCycle/Assignment5/StudentInfo.sol\":1268:1293  _newTeacher != address(0) */\n      0xffffffffffffffffffffffffffffffffffffffff\n      and\n      sub\n        /* \"contracts/LabCycle/Assignment5/StudentInfo.sol\":1260:1333  require(_newTeacher != address(0), \"New teacher address cannot be zero.\") */\n      tag_51\n      jumpi\n      mload(0x40)\n      0x08c379a000000000000000000000000000000000000000000000000000000000\n      dup2\n      mstore\n      0x04\n      add\n      tag_52\n      swap1\n      tag_53\n      jump\t// in\n    tag_52:\n      mload(0x40)\n      dup1\n      swap2\n      sub\n      swap1\n      revert\n    tag_51:\n        /* \"contracts/LabCycle/Assignment5/StudentInfo.sol\":1361:1372  _newTeacher */\n      dup1\n        /* \"contracts/LabCycle/Assignment5/StudentInfo.sol\":1344:1358  teacherAddress */\n      0x00\n      0x00\n        /* \"contracts/LabCycle/Assignment5/StudentInfo.sol\":1344:1372  teacherAddress = _newTeacher */\n      0x0100\n      exp\n      dup2\n      sload\n      dup2\n      0xffffffffffffffffffffffffffffffffffffffff\n      mul\n      not\n      and\n      swap1\n      dup4\n      0xffffffffffffffffffffffffffffffffffffffff\n      and\n      mul\n      or\n      swap1\n      sstore\n      pop\n        /* \"contracts/LabCycle/Assignment5/StudentInfo.sol\":1180:1380  function transferTeacherRole(address _newTeacher) public onlyTeacher {... */\n      pop\n      jump\t// out\n        /* \"contracts/LabCycle/Assignment5/StudentInfo.sol\":885:1172  function getStudentDetails(uint _id) public view returns (string memory name, uint age, uint studentClass) {... */\n    tag_24:\n        /* \"contracts/LabCycle/Assignment5/StudentInfo.sol\":943:961  string memory name */\n      0x60\n        /* \"contracts/LabCycle/Assignment5/StudentInfo.sol\":963:971  uint age */\n      0x00\n        /* \"contracts/LabCycle/Assignment5/StudentInfo.sol\":973:990  uint studentClass */\n      0x00\n        /* \"contracts/LabCycle/Assignment5/StudentInfo.sol\":1003:1019  Student memory s */\n      0x00\n        /* \"contracts/LabCycle/Assignment5/StudentInfo.sol\":1022:1030  students */\n      0x01\n        /* \"contracts/LabCycle/Assignment5/StudentInfo.sol\":1022:1035  students[_id] */\n      0x00\n        /* \"contracts/LabCycle/Assignment5/StudentInfo.sol\":1031:1034  _id */\n      dup7\n        /* \"contracts/LabCycle/Assignment5/StudentInfo.sol\":1022:1035  students[_id] */\n      dup2\n      mstore\n      0x20\n      add\n      swap1\n      dup2\n      mstore\n      0x20\n      add\n      0x00\n      keccak256\n        /* \"contracts/LabCycle/Assignment5/StudentInfo.sol\":1003:1035  Student memory s = students[_id] */\n      mload(0x40)\n      dup1\n      0x80\n      add\n      0x40\n      mstore\n      swap1\n      dup2\n      0x00\n      dup3\n      add\n      dup1\n      sload\n      tag_55\n      swap1\n      tag_32\n      jump\t// in\n    tag_55:\n      dup1\n      0x1f\n      add\n      0x20\n      dup1\n      swap2\n      div\n      mul\n      0x20\n      add\n      mload(0x40)\n      swap1\n      dup2\n      add\n      0x40\n      mstore\n      dup1\n      swap3\n      swap2\n      swap1\n      dup2\n      dup2\n      mstore\n      0x20\n      add\n      dup3\n      dup1\n      sload\n      tag_56\n      swap1\n      tag_32\n      jump\t// in\n    tag_56:\n      dup1\n      iszero\n      tag_57\n      jumpi\n      dup1\n      0x1f\n      lt\n      tag_58\n      jumpi\n      0x0100\n      dup1\n      dup4\n      sload\n      div\n      mul\n      dup4\n      mstore\n      swap2\n      0x20\n      add\n      swap2\n      jump(tag_57)\n    tag_58:\n      dup3\n      add\n      swap2\n      swap1\n      0x00\n      mstore\n      keccak256(0x00, 0x20)\n      swap1\n    tag_59:\n      dup2\n      sload\n      dup2\n      mstore\n      swap1\n      0x01\n      add\n      swap1\n      0x20\n      add\n      dup1\n      dup4\n      gt\n      tag_59\n      jumpi\n      dup3\n      swap1\n      sub\n      0x1f\n      and\n      dup3\n      add\n      swap2\n    tag_57:\n      pop\n      pop\n      pop\n      pop\n      pop\n      dup2\n      mstore\n      0x20\n      add\n      0x01\n      dup3\n      add\n      sload\n      dup2\n      mstore\n      0x20\n      add\n      0x02\n      dup3\n      add\n      sload\n      dup2\n      mstore\n      0x20\n      add\n      0x03\n      dup3\n      add\n      0x00\n      swap1\n      sload\n      swap1\n      0x0100\n      exp\n      swap1\n      div\n      0xff\n      and\n      iszero\n      iszero\n      iszero\n      iszero\n      dup2\n      mstore\n      pop\n      pop\n      swap1\n      pop\n        /* \"contracts/LabCycle/Assignment5/StudentInfo.sol\":1064:1065  s */\n      dup1\n        /* \"contracts/LabCycle/Assignment5/StudentInfo.sol\":1064:1072  s.exists */\n      0x60\n      add\n      mload\n        /* \"contracts/LabCycle/Assignment5/StudentInfo.sol\":1056:1113  require(s.exists, \"Student with this ID does not exist.\") */\n      tag_60\n      jumpi\n      mload(0x40)\n      0x08c379a000000000000000000000000000000000000000000000000000000000\n      dup2\n      mstore\n      0x04\n      add\n      tag_61\n      swap1\n      tag_62\n      jump\t// in\n    tag_61:\n      mload(0x40)\n      dup1\n      swap2\n      sub\n      swap1\n      revert\n    tag_60:\n        /* \"contracts/LabCycle/Assignment5/StudentInfo.sol\":1134:1135  s */\n      dup1\n        /* \"contracts/LabCycle/Assignment5/StudentInfo.sol\":1134:1140  s.name */\n      0x00\n      add\n      mload\n        /* \"contracts/LabCycle/Assignment5/StudentInfo.sol\":1142:1143  s */\n      dup2\n        /* \"contracts/LabCycle/Assignment5/StudentInfo.sol\":1142:1147  s.age */\n      0x20\n      add\n      mload\n        /* \"contracts/LabCycle/Assignment5/StudentInfo.sol\":1149:1150  s */\n      dup3\n        /* \"contracts/LabCycle/Assignment5/StudentInfo.sol\":1149:1163  s.studentClass */\n      0x40\n      add\n      mload\n        /* \"contracts/LabCycle/Assignment5/StudentInfo.sol\":1126:1164  return (s.name, s.age, s.studentClass) */\n      swap4\n      pop\n      swap4\n      pop\n      swap4\n      pop\n      pop\n        /* \"contracts/LabCycle/Assignment5/StudentInfo.sol\":885:1172  function getStudentDetails(uint _id) public view returns (string memory name, uint age, uint studentClass) {... */\n      swap2\n      swap4\n      swap1\n      swap3\n      pop\n      jump\t// out\n        /* \"contracts/LabCycle/Assignment5/StudentInfo.sol\":92:121  address public teacherAddress */\n    tag_28:\n      0x00\n      0x00\n      swap1\n      sload\n      swap1\n      0x0100\n      exp\n      swap1\n      div\n      0xffffffffffffffffffffffffffffffffffffffff\n      and\n      dup2\n      jump\t// out\n        /* \"#utility.yul\":7:82   */\n    tag_63:\n        /* \"#utility.yul\":40:46   */\n      0x00\n        /* \"#utility.yul\":73:75   */\n      0x40\n        /* \"#utility.yul\":67:76   */\n      mload\n        /* \"#utility.yul\":57:76   */\n      swap1\n      pop\n        /* \"#utility.yul\":7:82   */\n      swap1\n      jump\t// out\n        /* \"#utility.yul\":88:205   */\n    tag_64:\n        /* \"#utility.yul\":197:198   */\n      0x00\n        /* \"#utility.yul\":194:195   */\n      0x00\n        /* \"#utility.yul\":187:199   */\n      revert\n        /* \"#utility.yul\":211:328   */\n    tag_65:\n        /* \"#utility.yul\":320:321   */\n      0x00\n        /* \"#utility.yul\":317:318   */\n      0x00\n        /* \"#utility.yul\":310:322   */\n      revert\n        /* \"#utility.yul\":334:411   */\n    tag_66:\n        /* \"#utility.yul\":371:378   */\n      0x00\n        /* \"#utility.yul\":400:405   */\n      dup2\n        /* \"#utility.yul\":389:405   */\n      swap1\n      pop\n        /* \"#utility.yul\":334:411   */\n      swap2\n      swap1\n      pop\n      jump\t// out\n        /* \"#utility.yul\":417:539   */\n    tag_67:\n        /* \"#utility.yul\":490:514   */\n      tag_121\n        /* \"#utility.yul\":508:513   */\n      dup2\n        /* \"#utility.yul\":490:514   */\n      tag_66\n      jump\t// in\n    tag_121:\n        /* \"#utility.yul\":483:488   */\n      dup2\n        /* \"#utility.yul\":480:515   */\n      eq\n        /* \"#utility.yul\":470:533   */\n      tag_122\n      jumpi\n        /* \"#utility.yul\":529:530   */\n      0x00\n        /* \"#utility.yul\":526:527   */\n      0x00\n        /* \"#utility.yul\":519:531   */\n      revert\n        /* \"#utility.yul\":470:533   */\n    tag_122:\n        /* \"#utility.yul\":417:539   */\n      pop\n      jump\t// out\n        /* \"#utility.yul\":545:684   */\n    tag_68:\n        /* \"#utility.yul\":591:596   */\n      0x00\n        /* \"#utility.yul\":629:635   */\n      dup2\n        /* \"#utility.yul\":616:636   */\n      calldataload\n        /* \"#utility.yul\":607:636   */\n      swap1\n      pop\n        /* \"#utility.yul\":645:678   */\n      tag_124\n        /* \"#utility.yul\":672:677   */\n      dup2\n        /* \"#utility.yul\":645:678   */\n      tag_67\n      jump\t// in\n    tag_124:\n        /* \"#utility.yul\":545:684   */\n      swap3\n      swap2\n      pop\n      pop\n      jump\t// out\n        /* \"#utility.yul\":690:1019   */\n    tag_10:\n        /* \"#utility.yul\":749:755   */\n      0x00\n        /* \"#utility.yul\":798:800   */\n      0x20\n        /* \"#utility.yul\":786:795   */\n      dup3\n        /* \"#utility.yul\":777:784   */\n      dup5\n        /* \"#utility.yul\":773:796   */\n      sub\n        /* \"#utility.yul\":769:801   */\n      slt\n        /* \"#utility.yul\":766:885   */\n      iszero\n      tag_126\n      jumpi\n        /* \"#utility.yul\":804:883   */\n      tag_127\n      tag_64\n      jump\t// in\n    tag_127:\n        /* \"#utility.yul\":766:885   */\n    tag_126:\n        /* \"#utility.yul\":924:925   */\n      0x00\n        /* \"#utility.yul\":949:1002   */\n      tag_128\n        /* \"#utility.yul\":994:1001   */\n      dup5\n        /* \"#utility.yul\":985:991   */\n      dup3\n        /* \"#utility.yul\":974:983   */\n      dup6\n        /* \"#utility.yul\":970:992   */\n      add\n        /* \"#utility.yul\":949:1002   */\n      tag_68\n      jump\t// in\n    tag_128:\n        /* \"#utility.yul\":939:1002   */\n      swap2\n      pop\n        /* \"#utility.yul\":895:1012   */\n      pop\n        /* \"#utility.yul\":690:1019   */\n      swap3\n      swap2\n      pop\n      pop\n      jump\t// out\n        /* \"#utility.yul\":1025:1124   */\n    tag_69:\n        /* \"#utility.yul\":1077:1083   */\n      0x00\n        /* \"#utility.yul\":1111:1116   */\n      dup2\n        /* \"#utility.yul\":1105:1117   */\n      mload\n        /* \"#utility.yul\":1095:1117   */\n      swap1\n      pop\n        /* \"#utility.yul\":1025:1124   */\n      swap2\n      swap1\n      pop\n      jump\t// out\n        /* \"#utility.yul\":1130:1299   */\n    tag_70:\n        /* \"#utility.yul\":1214:1225   */\n      0x00\n        /* \"#utility.yul\":1248:1254   */\n      dup3\n        /* \"#utility.yul\":1243:1246   */\n      dup3\n        /* \"#utility.yul\":1236:1255   */\n      mstore\n        /* \"#utility.yul\":1288:1292   */\n      0x20\n        /* \"#utility.yul\":1283:1286   */\n      dup3\n        /* \"#utility.yul\":1279:1293   */\n      add\n        /* \"#utility.yul\":1264:1293   */\n      swap1\n      pop\n        /* \"#utility.yul\":1130:1299   */\n      swap3\n      swap2\n      pop\n      pop\n      jump\t// out\n        /* \"#utility.yul\":1305:1444   */\n    tag_71:\n        /* \"#utility.yul\":1394:1400   */\n      dup3\n        /* \"#utility.yul\":1389:1392   */\n      dup2\n        /* \"#utility.yul\":1384:1387   */\n      dup4\n        /* \"#utility.yul\":1378:1401   */\n      mcopy\n        /* \"#utility.yul\":1435:1436   */\n      0x00\n        /* \"#utility.yul\":1426:1432   */\n      dup4\n        /* \"#utility.yul\":1421:1424   */\n      dup4\n        /* \"#utility.yul\":1417:1433   */\n      add\n        /* \"#utility.yul\":1410:1437   */\n      mstore\n        /* \"#utility.yul\":1305:1444   */\n      pop\n      pop\n      pop\n      jump\t// out\n        /* \"#utility.yul\":1450:1552   */\n    tag_72:\n        /* \"#utility.yul\":1491:1497   */\n      0x00\n        /* \"#utility.yul\":1542:1544   */\n      0x1f\n        /* \"#utility.yul\":1538:1545   */\n      not\n        /* \"#utility.yul\":1533:1535   */\n      0x1f\n        /* \"#utility.yul\":1526:1531   */\n      dup4\n        /* \"#utility.yul\":1522:1536   */\n      add\n        /* \"#utility.yul\":1518:1546   */\n      and\n        /* \"#utility.yul\":1508:1546   */\n      swap1\n      pop\n        /* \"#utility.yul\":1450:1552   */\n      swap2\n      swap1\n      pop\n      jump\t// out\n        /* \"#utility.yul\":1558:1935   */\n    tag_73:\n        /* \"#utility.yul\":1646:1649   */\n      0x00\n        /* \"#utility.yul\":1674:1713   */\n      tag_134\n        /* \"#utility.yul\":1707:1712   */\n      dup3\n        /* \"#utility.yul\":1674:1713   */\n      tag_69\n      jump\t// in\n    tag_134:\n        /* \"#utility.yul\":1729:1800   */\n      tag_135\n        /* \"#utility.yul\":1793:1799   */\n      dup2\n        /* \"#utility.yul\":1788:1791   */\n      dup6\n        /* \"#utility.yul\":1729:1800   */\n      tag_70\n      jump\t// in\n    tag_135:\n        /* \"#utility.yul\":1722:1800   */\n      swap4\n      pop\n        /* \"#utility.yul\":1809:1874   */\n      tag_136\n        /* \"#utility.yul\":1867:1873   */\n      dup2\n        /* \"#utility.yul\":1862:1865   */\n      dup6\n        /* \"#utility.yul\":1855:1859   */\n      0x20\n        /* \"#utility.yul\":1848:1853   */\n      dup7\n        /* \"#utility.yul\":1844:1860   */\n      add\n        /* \"#utility.yul\":1809:1874   */\n      tag_71\n      jump\t// in\n    tag_136:\n        /* \"#utility.yul\":1899:1928   */\n      tag_137\n        /* \"#utility.yul\":1921:1927   */\n      dup2\n        /* \"#utility.yul\":1899:1928   */\n      tag_72\n      jump\t// in\n    tag_137:\n        /* \"#utility.yul\":1894:1897   */\n      dup5\n        /* \"#utility.yul\":1890:1929   */\n      add\n        /* \"#utility.yul\":1883:1929   */\n      swap2\n      pop\n        /* \"#utility.yul\":1650:1935   */\n      pop\n        /* \"#utility.yul\":1558:1935   */\n      swap3\n      swap2\n      pop\n      pop\n      jump\t// out\n        /* \"#utility.yul\":1941:2059   */\n    tag_74:\n        /* \"#utility.yul\":2028:2052   */\n      tag_139\n        /* \"#utility.yul\":2046:2051   */\n      dup2\n        /* \"#utility.yul\":2028:2052   */\n      tag_66\n      jump\t// in\n    tag_139:\n        /* \"#utility.yul\":2023:2026   */\n      dup3\n        /* \"#utility.yul\":2016:2053   */\n      mstore\n        /* \"#utility.yul\":1941:2059   */\n      pop\n      pop\n      jump\t// out\n        /* \"#utility.yul\":2065:2155   */\n    tag_75:\n        /* \"#utility.yul\":2099:2106   */\n      0x00\n        /* \"#utility.yul\":2142:2147   */\n      dup2\n        /* \"#utility.yul\":2135:2148   */\n      iszero\n        /* \"#utility.yul\":2128:2149   */\n      iszero\n        /* \"#utility.yul\":2117:2149   */\n      swap1\n      pop\n        /* \"#utility.yul\":2065:2155   */\n      swap2\n      swap1\n      pop\n      jump\t// out\n        /* \"#utility.yul\":2161:2270   */\n    tag_76:\n        /* \"#utility.yul\":2242:2263   */\n      tag_142\n        /* \"#utility.yul\":2257:2262   */\n      dup2\n        /* \"#utility.yul\":2242:2263   */\n      tag_75\n      jump\t// in\n    tag_142:\n        /* \"#utility.yul\":2237:2240   */\n      dup3\n        /* \"#utility.yul\":2230:2264   */\n      mstore\n        /* \"#utility.yul\":2161:2270   */\n      pop\n      pop\n      jump\t// out\n        /* \"#utility.yul\":2276:2908   */\n    tag_13:\n        /* \"#utility.yul\":2467:2471   */\n      0x00\n        /* \"#utility.yul\":2505:2508   */\n      0x80\n        /* \"#utility.yul\":2494:2503   */\n      dup3\n        /* \"#utility.yul\":2490:2509   */\n      add\n        /* \"#utility.yul\":2482:2509   */\n      swap1\n      pop\n        /* \"#utility.yul\":2555:2564   */\n      dup2\n        /* \"#utility.yul\":2549:2553   */\n      dup2\n        /* \"#utility.yul\":2545:2565   */\n      sub\n        /* \"#utility.yul\":2541:2542   */\n      0x00\n        /* \"#utility.yul\":2530:2539   */\n      dup4\n        /* \"#utility.yul\":2526:2543   */\n      add\n        /* \"#utility.yul\":2519:2566   */\n      mstore\n        /* \"#utility.yul\":2583:2661   */\n      tag_144\n        /* \"#utility.yul\":2656:2660   */\n      dup2\n        /* \"#utility.yul\":2647:2653   */\n      dup8\n        /* \"#utility.yul\":2583:2661   */\n      tag_73\n      jump\t// in\n    tag_144:\n        /* \"#utility.yul\":2575:2661   */\n      swap1\n      pop\n        /* \"#utility.yul\":2671:2743   */\n      tag_145\n        /* \"#utility.yul\":2739:2741   */\n      0x20\n        /* \"#utility.yul\":2728:2737   */\n      dup4\n        /* \"#utility.yul\":2724:2742   */\n      add\n        /* \"#utility.yul\":2715:2721   */\n      dup7\n        /* \"#utility.yul\":2671:2743   */\n      tag_74\n      jump\t// in\n    tag_145:\n        /* \"#utility.yul\":2753:2825   */\n      tag_146\n        /* \"#utility.yul\":2821:2823   */\n      0x40\n        /* \"#utility.yul\":2810:2819   */\n      dup4\n        /* \"#utility.yul\":2806:2824   */\n      add\n        /* \"#utility.yul\":2797:2803   */\n      dup6\n        /* \"#utility.yul\":2753:2825   */\n      tag_74\n      jump\t// in\n    tag_146:\n        /* \"#utility.yul\":2835:2901   */\n      tag_147\n        /* \"#utility.yul\":2897:2899   */\n      0x60\n        /* \"#utility.yul\":2886:2895   */\n      dup4\n        /* \"#utility.yul\":2882:2900   */\n      add\n        /* \"#utility.yul\":2873:2879   */\n      dup5\n        /* \"#utility.yul\":2835:2901   */\n      tag_76\n      jump\t// in\n    tag_147:\n        /* \"#utility.yul\":2276:2908   */\n      swap6\n      swap5\n      pop\n      pop\n      pop\n      pop\n      pop\n      jump\t// out\n        /* \"#utility.yul\":2914:3031   */\n    tag_77:\n        /* \"#utility.yul\":3023:3024   */\n      0x00\n        /* \"#utility.yul\":3020:3021   */\n      0x00\n        /* \"#utility.yul\":3013:3025   */\n      revert\n        /* \"#utility.yul\":3037:3154   */\n    tag_78:\n        /* \"#utility.yul\":3146:3147   */\n      0x00\n        /* \"#utility.yul\":3143:3144   */\n      0x00\n        /* \"#utility.yul\":3136:3148   */\n      revert\n        /* \"#utility.yul\":3160:3340   */\n    tag_79:\n        /* \"#utility.yul\":3208:3285   */\n      0x4e487b7100000000000000000000000000000000000000000000000000000000\n        /* \"#utility.yul\":3205:3206   */\n      0x00\n        /* \"#utility.yul\":3198:3286   */\n      mstore\n        /* \"#utility.yul\":3305:3309   */\n      0x41\n        /* \"#utility.yul\":3302:3303   */\n      0x04\n        /* \"#utility.yul\":3295:3310   */\n      mstore\n        /* \"#utility.yul\":3329:3333   */\n      0x24\n        /* \"#utility.yul\":3326:3327   */\n      0x00\n        /* \"#utility.yul\":3319:3334   */\n      revert\n        /* \"#utility.yul\":3346:3627   */\n    tag_80:\n        /* \"#utility.yul\":3429:3456   */\n      tag_152\n        /* \"#utility.yul\":3451:3455   */\n      dup3\n        /* \"#utility.yul\":3429:3456   */\n      tag_72\n      jump\t// in\n    tag_152:\n        /* \"#utility.yul\":3421:3427   */\n      dup2\n        /* \"#utility.yul\":3417:3457   */\n      add\n        /* \"#utility.yul\":3559:3565   */\n      dup2\n        /* \"#utility.yul\":3547:3557   */\n      dup2\n        /* \"#utility.yul\":3544:3566   */\n      lt\n        /* \"#utility.yul\":3523:3541   */\n      0xffffffffffffffff\n        /* \"#utility.yul\":3511:3521   */\n      dup3\n        /* \"#utility.yul\":3508:3542   */\n      gt\n        /* \"#utility.yul\":3505:3567   */\n      or\n        /* \"#utility.yul\":3502:3590   */\n      iszero\n      tag_153\n      jumpi\n        /* \"#utility.yul\":3570:3588   */\n      tag_154\n      tag_79\n      jump\t// in\n    tag_154:\n        /* \"#utility.yul\":3502:3590   */\n    tag_153:\n        /* \"#utility.yul\":3610:3620   */\n      dup1\n        /* \"#utility.yul\":3606:3608   */\n      0x40\n        /* \"#utility.yul\":3599:3621   */\n      mstore\n        /* \"#utility.yul\":3389:3627   */\n      pop\n        /* \"#utility.yul\":3346:3627   */\n      pop\n      pop\n      jump\t// out\n        /* \"#utility.yul\":3633:3762   */\n    tag_81:\n        /* \"#utility.yul\":3667:3673   */\n      0x00\n        /* \"#utility.yul\":3694:3714   */\n      tag_156\n      tag_63\n      jump\t// in\n    tag_156:\n        /* \"#utility.yul\":3684:3714   */\n      swap1\n      pop\n        /* \"#utility.yul\":3723:3756   */\n      tag_157\n        /* \"#utility.yul\":3751:3755   */\n      dup3\n        /* \"#utility.yul\":3743:3749   */\n      dup3\n        /* \"#utility.yul\":3723:3756   */\n      tag_80\n      jump\t// in\n    tag_157:\n        /* \"#utility.yul\":3633:3762   */\n      swap2\n      swap1\n      pop\n      jump\t// out\n        /* \"#utility.yul\":3768:4076   */\n    tag_82:\n        /* \"#utility.yul\":3830:3834   */\n      0x00\n        /* \"#utility.yul\":3920:3938   */\n      0xffffffffffffffff\n        /* \"#utility.yul\":3912:3918   */\n      dup3\n        /* \"#utility.yul\":3909:3939   */\n      gt\n        /* \"#utility.yul\":3906:3962   */\n      iszero\n      tag_159\n      jumpi\n        /* \"#utility.yul\":3942:3960   */\n      tag_160\n      tag_79\n      jump\t// in\n    tag_160:\n        /* \"#utility.yul\":3906:3962   */\n    tag_159:\n        /* \"#utility.yul\":3980:4009   */\n      tag_161\n        /* \"#utility.yul\":4002:4008   */\n      dup3\n        /* \"#utility.yul\":3980:4009   */\n      tag_72\n      jump\t// in\n    tag_161:\n        /* \"#utility.yul\":3972:4009   */\n      swap1\n      pop\n        /* \"#utility.yul\":4064:4068   */\n      0x20\n        /* \"#utility.yul\":4058:4062   */\n      dup2\n        /* \"#utility.yul\":4054:4069   */\n      add\n        /* \"#utility.yul\":4046:4069   */\n      swap1\n      pop\n        /* \"#utility.yul\":3768:4076   */\n      swap2\n      swap1\n      pop\n      jump\t// out\n        /* \"#utility.yul\":4082:4230   */\n    tag_83:\n        /* \"#utility.yul\":4180:4186   */\n      dup3\n        /* \"#utility.yul\":4175:4178   */\n      dup2\n        /* \"#utility.yul\":4170:4173   */\n      dup4\n        /* \"#utility.yul\":4157:4187   */\n      calldatacopy\n        /* \"#utility.yul\":4221:4222   */\n      0x00\n        /* \"#utility.yul\":4212:4218   */\n      dup4\n        /* \"#utility.yul\":4207:4210   */\n      dup4\n        /* \"#utility.yul\":4203:4219   */\n      add\n        /* \"#utility.yul\":4196:4223   */\n      mstore\n        /* \"#utility.yul\":4082:4230   */\n      pop\n      pop\n      pop\n      jump\t// out\n        /* \"#utility.yul\":4236:4661   */\n    tag_84:\n        /* \"#utility.yul\":4314:4319   */\n      0x00\n        /* \"#utility.yul\":4339:4405   */\n      tag_164\n        /* \"#utility.yul\":4355:4404   */\n      tag_165\n        /* \"#utility.yul\":4397:4403   */\n      dup5\n        /* \"#utility.yul\":4355:4404   */\n      tag_82\n      jump\t// in\n    tag_165:\n        /* \"#utility.yul\":4339:4405   */\n      tag_81\n      jump\t// in\n    tag_164:\n        /* \"#utility.yul\":4330:4405   */\n      swap1\n      pop\n        /* \"#utility.yul\":4428:4434   */\n      dup3\n        /* \"#utility.yul\":4421:4426   */\n      dup2\n        /* \"#utility.yul\":4414:4435   */\n      mstore\n        /* \"#utility.yul\":4466:4470   */\n      0x20\n        /* \"#utility.yul\":4459:4464   */\n      dup2\n        /* \"#utility.yul\":4455:4471   */\n      add\n        /* \"#utility.yul\":4504:4507   */\n      dup5\n        /* \"#utility.yul\":4495:4501   */\n      dup5\n        /* \"#utility.yul\":4490:4493   */\n      dup5\n        /* \"#utility.yul\":4486:4502   */\n      add\n        /* \"#utility.yul\":4483:4508   */\n      gt\n        /* \"#utility.yul\":4480:4592   */\n      iszero\n      tag_166\n      jumpi\n        /* \"#utility.yul\":4511:4590   */\n      tag_167\n      tag_78\n      jump\t// in\n    tag_167:\n        /* \"#utility.yul\":4480:4592   */\n    tag_166:\n        /* \"#utility.yul\":4601:4655   */\n      tag_168\n        /* \"#utility.yul\":4648:4654   */\n      dup5\n        /* \"#utility.yul\":4643:4646   */\n      dup3\n        /* \"#utility.yul\":4638:4641   */\n      dup6\n        /* \"#utility.yul\":4601:4655   */\n      tag_83\n      jump\t// in\n    tag_168:\n        /* \"#utility.yul\":4320:4661   */\n      pop\n        /* \"#utility.yul\":4236:4661   */\n      swap4\n      swap3\n      pop\n      pop\n      pop\n      jump\t// out\n        /* \"#utility.yul\":4681:5021   */\n    tag_85:\n        /* \"#utility.yul\":4737:4742   */\n      0x00\n        /* \"#utility.yul\":4786:4789   */\n      dup3\n        /* \"#utility.yul\":4779:4783   */\n      0x1f\n        /* \"#utility.yul\":4771:4777   */\n      dup4\n        /* \"#utility.yul\":4767:4784   */\n      add\n        /* \"#utility.yul\":4763:4790   */\n      slt\n        /* \"#utility.yul\":4753:4875   */\n      tag_170\n      jumpi\n        /* \"#utility.yul\":4794:4873   */\n      tag_171\n      tag_77\n      jump\t// in\n    tag_171:\n        /* \"#utility.yul\":4753:4875   */\n    tag_170:\n        /* \"#utility.yul\":4911:4917   */\n      dup2\n        /* \"#utility.yul\":4898:4918   */\n      calldataload\n        /* \"#utility.yul\":4936:5015   */\n      tag_172\n        /* \"#utility.yul\":5011:5014   */\n      dup5\n        /* \"#utility.yul\":5003:5009   */\n      dup3\n        /* \"#utility.yul\":4996:5000   */\n      0x20\n        /* \"#utility.yul\":4988:4994   */\n      dup7\n        /* \"#utility.yul\":4984:5001   */\n      add\n        /* \"#utility.yul\":4936:5015   */\n      tag_84\n      jump\t// in\n    tag_172:\n        /* \"#utility.yul\":4927:5015   */\n      swap2\n      pop\n        /* \"#utility.yul\":4743:5021   */\n      pop\n        /* \"#utility.yul\":4681:5021   */\n      swap3\n      swap2\n      pop\n      pop\n      jump\t// out\n        /* \"#utility.yul\":5027:5972   */\n    tag_16:\n        /* \"#utility.yul\":5123:5129   */\n      0x00\n        /* \"#utility.yul\":5131:5137   */\n      0x00\n        /* \"#utility.yul\":5139:5145   */\n      0x00\n        /* \"#utility.yul\":5147:5153   */\n      0x00\n        /* \"#utility.yul\":5196:5199   */\n      0x80\n        /* \"#utility.yul\":5184:5193   */\n      dup6\n        /* \"#utility.yul\":5175:5182   */\n      dup8\n        /* \"#utility.yul\":5171:5194   */\n      sub\n        /* \"#utility.yul\":5167:5200   */\n      slt\n        /* \"#utility.yul\":5164:5284   */\n      iszero\n      tag_174\n      jumpi\n        /* \"#utility.yul\":5203:5282   */\n      tag_175\n      tag_64\n      jump\t// in\n    tag_175:\n        /* \"#utility.yul\":5164:5284   */\n    tag_174:\n        /* \"#utility.yul\":5323:5324   */\n      0x00\n        /* \"#utility.yul\":5348:5401   */\n      tag_176\n        /* \"#utility.yul\":5393:5400   */\n      dup8\n        /* \"#utility.yul\":5384:5390   */\n      dup3\n        /* \"#utility.yul\":5373:5382   */\n      dup9\n        /* \"#utility.yul\":5369:5391   */\n      add\n        /* \"#utility.yul\":5348:5401   */\n      tag_68\n      jump\t// in\n    tag_176:\n        /* \"#utility.yul\":5338:5401   */\n      swap5\n      pop\n        /* \"#utility.yul\":5294:5411   */\n      pop\n        /* \"#utility.yul\":5478:5480   */\n      0x20\n        /* \"#utility.yul\":5467:5476   */\n      dup6\n        /* \"#utility.yul\":5463:5481   */\n      add\n        /* \"#utility.yul\":5450:5482   */\n      calldataload\n        /* \"#utility.yul\":5509:5527   */\n      0xffffffffffffffff\n        /* \"#utility.yul\":5501:5507   */\n      dup2\n        /* \"#utility.yul\":5498:5528   */\n      gt\n        /* \"#utility.yul\":5495:5612   */\n      iszero\n      tag_177\n      jumpi\n        /* \"#utility.yul\":5531:5610   */\n      tag_178\n      tag_65\n      jump\t// in\n    tag_178:\n        /* \"#utility.yul\":5495:5612   */\n    tag_177:\n        /* \"#utility.yul\":5636:5699   */\n      tag_179\n        /* \"#utility.yul\":5691:5698   */\n      dup8\n        /* \"#utility.yul\":5682:5688   */\n      dup3\n        /* \"#utility.yul\":5671:5680   */\n      dup9\n        /* \"#utility.yul\":5667:5689   */\n      add\n        /* \"#utility.yul\":5636:5699   */\n      tag_85\n      jump\t// in\n    tag_179:\n        /* \"#utility.yul\":5626:5699   */\n      swap4\n      pop\n        /* \"#utility.yul\":5421:5709   */\n      pop\n        /* \"#utility.yul\":5748:5750   */\n      0x40\n        /* \"#utility.yul\":5774:5827   */\n      tag_180\n        /* \"#utility.yul\":5819:5826   */\n      dup8\n        /* \"#utility.yul\":5810:5816   */\n      dup3\n        /* \"#utility.yul\":5799:5808   */\n      dup9\n        /* \"#utility.yul\":5795:5817   */\n      add\n        /* \"#utility.yul\":5774:5827   */\n      tag_68\n      jump\t// in\n    tag_180:\n        /* \"#utility.yul\":5764:5827   */\n      swap3\n      pop\n        /* \"#utility.yul\":5719:5837   */\n      pop\n        /* \"#utility.yul\":5876:5878   */\n      0x60\n        /* \"#utility.yul\":5902:5955   */\n      tag_181\n        /* \"#utility.yul\":5947:5954   */\n      dup8\n        /* \"#utility.yul\":5938:5944   */\n      dup3\n        /* \"#utility.yul\":5927:5936   */\n      dup9\n        /* \"#utility.yul\":5923:5945   */\n      add\n        /* \"#utility.yul\":5902:5955   */\n      tag_68\n      jump\t// in\n    tag_181:\n        /* \"#utility.yul\":5892:5955   */\n      swap2\n      pop\n        /* \"#utility.yul\":5847:5965   */\n      pop\n        /* \"#utility.yul\":5027:5972   */\n      swap3\n      swap6\n      swap2\n      swap5\n      pop\n      swap3\n      pop\n      jump\t// out\n        /* \"#utility.yul\":5978:6104   */\n    tag_86:\n        /* \"#utility.yul\":6015:6022   */\n      0x00\n        /* \"#utility.yul\":6055:6097   */\n      0xffffffffffffffffffffffffffffffffffffffff\n        /* \"#utility.yul\":6048:6053   */\n      dup3\n        /* \"#utility.yul\":6044:6098   */\n      and\n        /* \"#utility.yul\":6033:6098   */\n      swap1\n      pop\n        /* \"#utility.yul\":5978:6104   */\n      swap2\n      swap1\n      pop\n      jump\t// out\n        /* \"#utility.yul\":6110:6206   */\n    tag_87:\n        /* \"#utility.yul\":6147:6154   */\n      0x00\n        /* \"#utility.yul\":6176:6200   */\n      tag_184\n        /* \"#utility.yul\":6194:6199   */\n      dup3\n        /* \"#utility.yul\":6176:6200   */\n      tag_86\n      jump\t// in\n    tag_184:\n        /* \"#utility.yul\":6165:6200   */\n      swap1\n      pop\n        /* \"#utility.yul\":6110:6206   */\n      swap2\n      swap1\n      pop\n      jump\t// out\n        /* \"#utility.yul\":6212:6334   */\n    tag_88:\n        /* \"#utility.yul\":6285:6309   */\n      tag_186\n        /* \"#utility.yul\":6303:6308   */\n      dup2\n        /* \"#utility.yul\":6285:6309   */\n      tag_87\n      jump\t// in\n    tag_186:\n        /* \"#utility.yul\":6278:6283   */\n      dup2\n        /* \"#utility.yul\":6275:6310   */\n      eq\n        /* \"#utility.yul\":6265:6328   */\n      tag_187\n      jumpi\n        /* \"#utility.yul\":6324:6325   */\n      0x00\n        /* \"#utility.yul\":6321:6322   */\n      0x00\n        /* \"#utility.yul\":6314:6326   */\n      revert\n        /* \"#utility.yul\":6265:6328   */\n    tag_187:\n        /* \"#utility.yul\":6212:6334   */\n      pop\n      jump\t// out\n        /* \"#utility.yul\":6340:6479   */\n    tag_89:\n        /* \"#utility.yul\":6386:6391   */\n      0x00\n        /* \"#utility.yul\":6424:6430   */\n      dup2\n        /* \"#utility.yul\":6411:6431   */\n      calldataload\n        /* \"#utility.yul\":6402:6431   */\n      swap1\n      pop\n        /* \"#utility.yul\":6440:6473   */\n      tag_189\n        /* \"#utility.yul\":6467:6472   */\n      dup2\n        /* \"#utility.yul\":6440:6473   */\n      tag_88\n      jump\t// in\n    tag_189:\n        /* \"#utility.yul\":6340:6479   */\n      swap3\n      swap2\n      pop\n      pop\n      jump\t// out\n        /* \"#utility.yul\":6485:6814   */\n    tag_20:\n        /* \"#utility.yul\":6544:6550   */\n      0x00\n        /* \"#utility.yul\":6593:6595   */\n      0x20\n        /* \"#utility.yul\":6581:6590   */\n      dup3\n        /* \"#utility.yul\":6572:6579   */\n      dup5\n        /* \"#utility.yul\":6568:6591   */\n      sub\n        /* \"#utility.yul\":6564:6596   */\n      slt\n        /* \"#utility.yul\":6561:6680   */\n      iszero\n      tag_191\n      jumpi\n        /* \"#utility.yul\":6599:6678   */\n      tag_192\n      tag_64\n      jump\t// in\n    tag_192:\n        /* \"#utility.yul\":6561:6680   */\n    tag_191:\n        /* \"#utility.yul\":6719:6720   */\n      0x00\n        /* \"#utility.yul\":6744:6797   */\n      tag_193\n        /* \"#utility.yul\":6789:6796   */\n      dup5\n        /* \"#utility.yul\":6780:6786   */\n      dup3\n        /* \"#utility.yul\":6769:6778   */\n      dup6\n        /* \"#utility.yul\":6765:6787   */\n      add\n        /* \"#utility.yul\":6744:6797   */\n      tag_89\n      jump\t// in\n    tag_193:\n        /* \"#utility.yul\":6734:6797   */\n      swap2\n      pop\n        /* \"#utility.yul\":6690:6807   */\n      pop\n        /* \"#utility.yul\":6485:6814   */\n      swap3\n      swap2\n      pop\n      pop\n      jump\t// out\n        /* \"#utility.yul\":6820:7353   */\n    tag_26:\n        /* \"#utility.yul\":6989:6993   */\n      0x00\n        /* \"#utility.yul\":7027:7029   */\n      0x60\n        /* \"#utility.yul\":7016:7025   */\n      dup3\n        /* \"#utility.yul\":7012:7030   */\n      add\n        /* \"#utility.yul\":7004:7030   */\n      swap1\n      pop\n        /* \"#utility.yul\":7076:7085   */\n      dup2\n        /* \"#utility.yul\":7070:7074   */\n      dup2\n        /* \"#utility.yul\":7066:7086   */\n      sub\n        /* \"#utility.yul\":7062:7063   */\n      0x00\n        /* \"#utility.yul\":7051:7060   */\n      dup4\n        /* \"#utility.yul\":7047:7064   */\n      add\n        /* \"#utility.yul\":7040:7087   */\n      mstore\n        /* \"#utility.yul\":7104:7182   */\n      tag_195\n        /* \"#utility.yul\":7177:7181   */\n      dup2\n        /* \"#utility.yul\":7168:7174   */\n      dup7\n        /* \"#utility.yul\":7104:7182   */\n      tag_73\n      jump\t// in\n    tag_195:\n        /* \"#utility.yul\":7096:7182   */\n      swap1\n      pop\n        /* \"#utility.yul\":7192:7264   */\n      tag_196\n        /* \"#utility.yul\":7260:7262   */\n      0x20\n        /* \"#utility.yul\":7249:7258   */\n      dup4\n        /* \"#utility.yul\":7245:7263   */\n      add\n        /* \"#utility.yul\":7236:7242   */\n      dup6\n        /* \"#utility.yul\":7192:7264   */\n      tag_74\n      jump\t// in\n    tag_196:\n        /* \"#utility.yul\":7274:7346   */\n      tag_197\n        /* \"#utility.yul\":7342:7344   */\n      0x40\n        /* \"#utility.yul\":7331:7340   */\n      dup4\n        /* \"#utility.yul\":7327:7345   */\n      add\n        /* \"#utility.yul\":7318:7324   */\n      dup5\n        /* \"#utility.yul\":7274:7346   */\n      tag_74\n      jump\t// in\n    tag_197:\n        /* \"#utility.yul\":6820:7353   */\n      swap5\n      swap4\n      pop\n      pop\n      pop\n      pop\n      jump\t// out\n        /* \"#utility.yul\":7359:7477   */\n    tag_90:\n        /* \"#utility.yul\":7446:7470   */\n      tag_199\n        /* \"#utility.yul\":7464:7469   */\n      dup2\n        /* \"#utility.yul\":7446:7470   */\n      tag_87\n      jump\t// in\n    tag_199:\n        /* \"#utility.yul\":7441:7444   */\n      dup3\n        /* \"#utility.yul\":7434:7471   */\n      mstore\n        /* \"#utility.yul\":7359:7477   */\n      pop\n      pop\n      jump\t// out\n        /* \"#utility.yul\":7483:7705   */\n    tag_30:\n        /* \"#utility.yul\":7576:7580   */\n      0x00\n        /* \"#utility.yul\":7614:7616   */\n      0x20\n        /* \"#utility.yul\":7603:7612   */\n      dup3\n        /* \"#utility.yul\":7599:7617   */\n      add\n        /* \"#utility.yul\":7591:7617   */\n      swap1\n      pop\n        /* \"#utility.yul\":7627:7698   */\n      tag_201\n        /* \"#utility.yul\":7695:7696   */\n      0x00\n        /* \"#utility.yul\":7684:7693   */\n      dup4\n        /* \"#utility.yul\":7680:7697   */\n      add\n        /* \"#utility.yul\":7671:7677   */\n      dup5\n        /* \"#utility.yul\":7627:7698   */\n      tag_90\n      jump\t// in\n    tag_201:\n        /* \"#utility.yul\":7483:7705   */\n      swap3\n      swap2\n      pop\n      pop\n      jump\t// out\n        /* \"#utility.yul\":7711:7891   */\n    tag_91:\n        /* \"#utility.yul\":7759:7836   */\n      0x4e487b7100000000000000000000000000000000000000000000000000000000\n        /* \"#utility.yul\":7756:7757   */\n      0x00\n        /* \"#utility.yul\":7749:7837   */\n      mstore\n        /* \"#utility.yul\":7856:7860   */\n      0x22\n        /* \"#utility.yul\":7853:7854   */\n      0x04\n        /* \"#utility.yul\":7846:7861   */\n      mstore\n        /* \"#utility.yul\":7880:7884   */\n      0x24\n        /* \"#utility.yul\":7877:7878   */\n      0x00\n        /* \"#utility.yul\":7870:7885   */\n      revert\n        /* \"#utility.yul\":7897:8217   */\n    tag_32:\n        /* \"#utility.yul\":7941:7947   */\n      0x00\n        /* \"#utility.yul\":7978:7979   */\n      0x02\n        /* \"#utility.yul\":7972:7976   */\n      dup3\n        /* \"#utility.yul\":7968:7980   */\n      div\n        /* \"#utility.yul\":7958:7980   */\n      swap1\n      pop\n        /* \"#utility.yul\":8025:8026   */\n      0x01\n        /* \"#utility.yul\":8019:8023   */\n      dup3\n        /* \"#utility.yul\":8015:8027   */\n      and\n        /* \"#utility.yul\":8046:8064   */\n      dup1\n        /* \"#utility.yul\":8036:8117   */\n      tag_204\n      jumpi\n        /* \"#utility.yul\":8102:8106   */\n      0x7f\n        /* \"#utility.yul\":8094:8100   */\n      dup3\n        /* \"#utility.yul\":8090:8107   */\n      and\n        /* \"#utility.yul\":8080:8107   */\n      swap2\n      pop\n        /* \"#utility.yul\":8036:8117   */\n    tag_204:\n        /* \"#utility.yul\":8164:8166   */\n      0x20\n        /* \"#utility.yul\":8156:8162   */\n      dup3\n        /* \"#utility.yul\":8153:8167   */\n      lt\n        /* \"#utility.yul\":8133:8151   */\n      dup2\n        /* \"#utility.yul\":8130:8168   */\n      sub\n        /* \"#utility.yul\":8127:8211   */\n      tag_205\n      jumpi\n        /* \"#utility.yul\":8183:8201   */\n      tag_206\n      tag_91\n      jump\t// in\n    tag_206:\n        /* \"#utility.yul\":8127:8211   */\n    tag_205:\n        /* \"#utility.yul\":7948:8217   */\n      pop\n        /* \"#utility.yul\":7897:8217   */\n      swap2\n      swap1\n      pop\n      jump\t// out\n        /* \"#utility.yul\":8223:8470   */\n    tag_92:\n        /* \"#utility.yul\":8363:8397   */\n      0x5065726d697373696f6e2064656e6965643a204f6e6c79207468652074656163\n        /* \"#utility.yul\":8359:8360   */\n      0x00\n        /* \"#utility.yul\":8351:8357   */\n      dup3\n        /* \"#utility.yul\":8347:8361   */\n      add\n        /* \"#utility.yul\":8340:8398   */\n      mstore\n        /* \"#utility.yul\":8432:8462   */\n      0x6865722063616e20706572666f726d207468697320616374696f6e2e00000000\n        /* \"#utility.yul\":8427:8429   */\n      0x20\n        /* \"#utility.yul\":8419:8425   */\n      dup3\n        /* \"#utility.yul\":8415:8430   */\n      add\n        /* \"#utility.yul\":8408:8463   */\n      mstore\n        /* \"#utility.yul\":8223:8470   */\n      pop\n      jump\t// out\n        /* \"#utility.yul\":8476:8842   */\n    tag_93:\n        /* \"#utility.yul\":8618:8621   */\n      0x00\n        /* \"#utility.yul\":8639:8706   */\n      tag_209\n        /* \"#utility.yul\":8703:8705   */\n      0x3c\n        /* \"#utility.yul\":8698:8701   */\n      dup4\n        /* \"#utility.yul\":8639:8706   */\n      tag_70\n      jump\t// in\n    tag_209:\n        /* \"#utility.yul\":8632:8706   */\n      swap2\n      pop\n        /* \"#utility.yul\":8715:8808   */\n      tag_210\n        /* \"#utility.yul\":8804:8807   */\n      dup3\n        /* \"#utility.yul\":8715:8808   */\n      tag_92\n      jump\t// in\n    tag_210:\n        /* \"#utility.yul\":8833:8835   */\n      0x40\n        /* \"#utility.yul\":8828:8831   */\n      dup3\n        /* \"#utility.yul\":8824:8836   */\n      add\n        /* \"#utility.yul\":8817:8836   */\n      swap1\n      pop\n        /* \"#utility.yul\":8476:8842   */\n      swap2\n      swap1\n      pop\n      jump\t// out\n        /* \"#utility.yul\":8848:9267   */\n    tag_40:\n        /* \"#utility.yul\":9014:9018   */\n      0x00\n        /* \"#utility.yul\":9052:9054   */\n      0x20\n        /* \"#utility.yul\":9041:9050   */\n      dup3\n        /* \"#utility.yul\":9037:9055   */\n      add\n        /* \"#utility.yul\":9029:9055   */\n      swap1\n      pop\n        /* \"#utility.yul\":9101:9110   */\n      dup2\n        /* \"#utility.yul\":9095:9099   */\n      dup2\n        /* \"#utility.yul\":9091:9111   */\n      sub\n        /* \"#utility.yul\":9087:9088   */\n      0x00\n        /* \"#utility.yul\":9076:9085   */\n      dup4\n        /* \"#utility.yul\":9072:9089   */\n      add\n        /* \"#utility.yul\":9065:9112   */\n      mstore\n        /* \"#utility.yul\":9129:9260   */\n      tag_212\n        /* \"#utility.yul\":9255:9259   */\n      dup2\n        /* \"#utility.yul\":9129:9260   */\n      tag_93\n      jump\t// in\n    tag_212:\n        /* \"#utility.yul\":9121:9260   */\n      swap1\n      pop\n        /* \"#utility.yul\":8848:9267   */\n      swap2\n      swap1\n      pop\n      jump\t// out\n        /* \"#utility.yul\":9273:9497   */\n    tag_94:\n        /* \"#utility.yul\":9413:9447   */\n      0x53747564656e74204944206d7573742062652067726561746572207468616e20\n        /* \"#utility.yul\":9409:9410   */\n      0x00\n        /* \"#utility.yul\":9401:9407   */\n      dup3\n        /* \"#utility.yul\":9397:9411   */\n      add\n        /* \"#utility.yul\":9390:9448   */\n      mstore\n        /* \"#utility.yul\":9482:9489   */\n      0x7a65726f2e000000000000000000000000000000000000000000000000000000\n        /* \"#utility.yul\":9477:9479   */\n      0x20\n        /* \"#utility.yul\":9469:9475   */\n      dup3\n        /* \"#utility.yul\":9465:9480   */\n      add\n        /* \"#utility.yul\":9458:9490   */\n      mstore\n        /* \"#utility.yul\":9273:9497   */\n      pop\n      jump\t// out\n        /* \"#utility.yul\":9503:9869   */\n    tag_95:\n        /* \"#utility.yul\":9645:9648   */\n      0x00\n        /* \"#utility.yul\":9666:9733   */\n      tag_215\n        /* \"#utility.yul\":9730:9732   */\n      0x25\n        /* \"#utility.yul\":9725:9728   */\n      dup4\n        /* \"#utility.yul\":9666:9733   */\n      tag_70\n      jump\t// in\n    tag_215:\n        /* \"#utility.yul\":9659:9733   */\n      swap2\n      pop\n        /* \"#utility.yul\":9742:9835   */\n      tag_216\n        /* \"#utility.yul\":9831:9834   */\n      dup3\n        /* \"#utility.yul\":9742:9835   */\n      tag_94\n      jump\t// in\n    tag_216:\n        /* \"#utility.yul\":9860:9862   */\n      0x40\n        /* \"#utility.yul\":9855:9858   */\n      dup3\n        /* \"#utility.yul\":9851:9863   */\n      add\n        /* \"#utility.yul\":9844:9863   */\n      swap1\n      pop\n        /* \"#utility.yul\":9503:9869   */\n      swap2\n      swap1\n      pop\n      jump\t// out\n        /* \"#utility.yul\":9875:10294   */\n    tag_44:\n        /* \"#utility.yul\":10041:10045   */\n      0x00\n        /* \"#utility.yul\":10079:10081   */\n      0x20\n        /* \"#utility.yul\":10068:10077   */\n      dup3\n        /* \"#utility.yul\":10064:10082   */\n      add\n        /* \"#utility.yul\":10056:10082   */\n      swap1\n      pop\n        /* \"#utility.yul\":10128:10137   */\n      dup2\n        /* \"#utility.yul\":10122:10126   */\n      dup2\n        /* \"#utility.yul\":10118:10138   */\n      sub\n        /* \"#utility.yul\":10114:10115   */\n      0x00\n        /* \"#utility.yul\":10103:10112   */\n      dup4\n        /* \"#utility.yul\":10099:10116   */\n      add\n        /* \"#utility.yul\":10092:10139   */\n      mstore\n        /* \"#utility.yul\":10156:10287   */\n      tag_218\n        /* \"#utility.yul\":10282:10286   */\n      dup2\n        /* \"#utility.yul\":10156:10287   */\n      tag_95\n      jump\t// in\n    tag_218:\n        /* \"#utility.yul\":10148:10287   */\n      swap1\n      pop\n        /* \"#utility.yul\":9875:10294   */\n      swap2\n      swap1\n      pop\n      jump\t// out\n        /* \"#utility.yul\":10300:10441   */\n    tag_96:\n        /* \"#utility.yul\":10349:10353   */\n      0x00\n        /* \"#utility.yul\":10372:10375   */\n      dup2\n        /* \"#utility.yul\":10364:10375   */\n      swap1\n      pop\n        /* \"#utility.yul\":10395:10398   */\n      dup2\n        /* \"#utility.yul\":10392:10393   */\n      0x00\n        /* \"#utility.yul\":10385:10399   */\n      mstore\n        /* \"#utility.yul\":10429:10433   */\n      0x20\n        /* \"#utility.yul\":10426:10427   */\n      0x00\n        /* \"#utility.yul\":10416:10434   */\n      keccak256\n        /* \"#utility.yul\":10408:10434   */\n      swap1\n      pop\n        /* \"#utility.yul\":10300:10441   */\n      swap2\n      swap1\n      pop\n      jump\t// out\n        /* \"#utility.yul\":10447:10540   */\n    tag_97:\n        /* \"#utility.yul\":10484:10490   */\n      0x00\n        /* \"#utility.yul\":10531:10533   */\n      0x20\n        /* \"#utility.yul\":10526:10528   */\n      0x1f\n        /* \"#utility.yul\":10519:10524   */\n      dup4\n        /* \"#utility.yul\":10515:10529   */\n      add\n        /* \"#utility.yul\":10511:10534   */\n      div\n        /* \"#utility.yul\":10501:10534   */\n      swap1\n      pop\n        /* \"#utility.yul\":10447:10540   */\n      swap2\n      swap1\n      pop\n      jump\t// out\n        /* \"#utility.yul\":10546:10653   */\n    tag_98:\n        /* \"#utility.yul\":10590:10598   */\n      0x00\n        /* \"#utility.yul\":10640:10645   */\n      dup3\n        /* \"#utility.yul\":10634:10638   */\n      dup3\n        /* \"#utility.yul\":10630:10646   */\n      shl\n        /* \"#utility.yul\":10609:10646   */\n      swap1\n      pop\n        /* \"#utility.yul\":10546:10653   */\n      swap3\n      swap2\n      pop\n      pop\n      jump\t// out\n        /* \"#utility.yul\":10659:11052   */\n    tag_99:\n        /* \"#utility.yul\":10728:10734   */\n      0x00\n        /* \"#utility.yul\":10778:10779   */\n      0x08\n        /* \"#utility.yul\":10766:10776   */\n      dup4\n        /* \"#utility.yul\":10762:10780   */\n      mul\n        /* \"#utility.yul\":10801:10898   */\n      tag_223\n        /* \"#utility.yul\":10831:10897   */\n      0xffffffffffffffffffffffffffffffffffffffffffffffffffffffffffffffff\n        /* \"#utility.yul\":10820:10829   */\n      dup3\n        /* \"#utility.yul\":10801:10898   */\n      tag_98\n      jump\t// in\n    tag_223:\n        /* \"#utility.yul\":10919:10958   */\n      tag_224\n        /* \"#utility.yul\":10949:10957   */\n      dup7\n        /* \"#utility.yul\":10938:10947   */\n      dup4\n        /* \"#utility.yul\":10919:10958   */\n      tag_98\n      jump\t// in\n    tag_224:\n        /* \"#utility.yul\":10907:10958   */\n      swap6\n      pop\n        /* \"#utility.yul\":10991:10995   */\n      dup1\n        /* \"#utility.yul\":10987:10996   */\n      not\n        /* \"#utility.yul\":10980:10985   */\n      dup5\n        /* \"#utility.yul\":10976:10997   */\n      and\n        /* \"#utility.yul\":10967:10997   */\n      swap4\n      pop\n        /* \"#utility.yul\":11040:11044   */\n      dup1\n        /* \"#utility.yul\":11030:11038   */\n      dup7\n        /* \"#utility.yul\":11026:11045   */\n      and\n        /* \"#utility.yul\":11019:11024   */\n      dup5\n        /* \"#utility.yul\":11016:11046   */\n      or\n        /* \"#utility.yul\":11006:11046   */\n      swap3\n      pop\n        /* \"#utility.yul\":10735:11052   */\n      pop\n      pop\n        /* \"#utility.yul\":10659:11052   */\n      swap4\n      swap3\n      pop\n      pop\n      pop\n      jump\t// out\n        /* \"#utility.yul\":11058:11118   */\n    tag_100:\n        /* \"#utility.yul\":11086:11089   */\n      0x00\n        /* \"#utility.yul\":11107:11112   */\n      dup2\n        /* \"#utility.yul\":11100:11112   */\n      swap1\n      pop\n        /* \"#utility.yul\":11058:11118   */\n      swap2\n      swap1\n      pop\n      jump\t// out\n        /* \"#utility.yul\":11124:11266   */\n    tag_101:\n        /* \"#utility.yul\":11174:11183   */\n      0x00\n        /* \"#utility.yul\":11207:11260   */\n      tag_227\n        /* \"#utility.yul\":11225:11259   */\n      tag_228\n        /* \"#utility.yul\":11234:11258   */\n      tag_229\n        /* \"#utility.yul\":11252:11257   */\n      dup5\n        /* \"#utility.yul\":11234:11258   */\n      tag_66\n      jump\t// in\n    tag_229:\n        /* \"#utility.yul\":11225:11259   */\n      tag_100\n      jump\t// in\n    tag_228:\n        /* \"#utility.yul\":11207:11260   */\n      tag_66\n      jump\t// in\n    tag_227:\n        /* \"#utility.yul\":11194:11260   */\n      swap1\n      pop\n        /* \"#utility.yul\":11124:11266   */\n      swap2\n      swap1\n      pop\n      jump\t// out\n        /* \"#utility.yul\":11272:11347   */\n    tag_102:\n        /* \"#utility.yul\":11315:11318   */\n      0x00\n        /* \"#utility.yul\":11336:11341   */\n      dup2\n        /* \"#utility.yul\":11329:11341   */\n      swap1\n      pop\n        /* \"#utility.yul\":11272:11347   */\n      swap2\n      swap1\n      pop\n      jump\t// out\n        /* \"#utility.yul\":11353:11622   */\n    tag_103:\n        /* \"#utility.yul\":11463:11502   */\n      tag_232\n        /* \"#utility.yul\":11494:11501   */\n      dup4\n        /* \"#utility.yul\":11463:11502   */\n      tag_101\n      jump\t// in\n    tag_232:\n        /* \"#utility.yul\":11524:11615   */\n      tag_233\n        /* \"#utility.yul\":11573:11614   */\n      tag_234\n        /* \"#utility.yul\":11597:11613   */\n      dup3\n        /* \"#utility.yul\":11573:11614   */\n      tag_102\n      jump\t// in\n    tag_234:\n        /* \"#utility.yul\":11565:11571   */\n      dup5\n        /* \"#utility.yul\":11558:11562   */\n      dup5\n        /* \"#utility.yul\":11552:11563   */\n      sload\n        /* \"#utility.yul\":11524:11615   */\n      tag_99\n      jump\t// in\n    tag_233:\n        /* \"#utility.yul\":11518:11522   */\n      dup3\n        /* \"#utility.yul\":11511:11616   */\n      sstore\n        /* \"#utility.yul\":11429:11622   */\n      pop\n        /* \"#utility.yul\":11353:11622   */\n      pop\n      pop\n      pop\n      jump\t// out\n        /* \"#utility.yul\":11628:11701   */\n    tag_104:\n        /* \"#utility.yul\":11673:11676   */\n      0x00\n        /* \"#utility.yul\":11694:11695   */\n      0x00\n        /* \"#utility.yul\":11687:11695   */\n      swap1\n      pop\n        /* \"#utility.yul\":11628:11701   */\n      swap1\n      jump\t// out\n        /* \"#utility.yul\":11707:11896   */\n    tag_105:\n        /* \"#utility.yul\":11784:11816   */\n      tag_237\n      tag_104\n      jump\t// in\n    tag_237:\n        /* \"#utility.yul\":11825:11890   */\n      tag_238\n        /* \"#utility.yul\":11883:11889   */\n      dup2\n        /* \"#utility.yul\":11875:11881   */\n      dup5\n        /* \"#utility.yul\":11869:11873   */\n      dup5\n        /* \"#utility.yul\":11825:11890   */\n      tag_103\n      jump\t// in\n    tag_238:\n        /* \"#utility.yul\":11760:11896   */\n      pop\n        /* \"#utility.yul\":11707:11896   */\n      pop\n      pop\n      jump\t// out\n        /* \"#utility.yul\":11902:12088   */\n    tag_106:\n        /* \"#utility.yul\":11962:12082   */\n    tag_240:\n        /* \"#utility.yul\":11979:11982   */\n      dup2\n        /* \"#utility.yul\":11972:11977   */\n      dup2\n        /* \"#utility.yul\":11969:11983   */\n      lt\n        /* \"#utility.yul\":11962:12082   */\n      iszero\n      tag_242\n      jumpi\n        /* \"#utility.yul\":12033:12072   */\n      tag_243\n        /* \"#utility.yul\":12070:12071   */\n      0x00\n        /* \"#utility.yul\":12063:12068   */\n      dup3\n        /* \"#utility.yul\":12033:12072   */\n      tag_105\n      jump\t// in\n    tag_243:\n        /* \"#utility.yul\":12006:12007   */\n      0x01\n        /* \"#utility.yul\":11999:12004   */\n      dup2\n        /* \"#utility.yul\":11995:12008   */\n      add\n        /* \"#utility.yul\":11986:12008   */\n      swap1\n      pop\n        /* \"#utility.yul\":11962:12082   */\n      jump(tag_240)\n    tag_242:\n        /* \"#utility.yul\":11902:12088   */\n      pop\n      pop\n      jump\t// out\n        /* \"#utility.yul\":12094:12637   */\n    tag_107:\n        /* \"#utility.yul\":12195:12197   */\n      0x1f\n        /* \"#utility.yul\":12190:12193   */\n      dup3\n        /* \"#utility.yul\":12187:12198   */\n      gt\n        /* \"#utility.yul\":12184:12630   */\n      iszero\n      tag_245\n      jumpi\n        /* \"#utility.yul\":12229:12267   */\n      tag_246\n        /* \"#utility.yul\":12261:12266   */\n      dup2\n        /* \"#utility.yul\":12229:12267   */\n      tag_96\n      jump\t// in\n    tag_246:\n        /* \"#utility.yul\":12313:12342   */\n      tag_247\n        /* \"#utility.yul\":12331:12341   */\n      dup5\n        /* \"#utility.yul\":12313:12342   */\n      tag_97\n      jump\t// in\n    tag_247:\n        /* \"#utility.yul\":12303:12311   */\n      dup2\n        /* \"#utility.yul\":12299:12343   */\n      add\n        /* \"#utility.yul\":12496:12498   */\n      0x20\n        /* \"#utility.yul\":12484:12494   */\n      dup6\n        /* \"#utility.yul\":12481:12499   */\n      lt\n        /* \"#utility.yul\":12478:12527   */\n      iszero\n      tag_248\n      jumpi\n        /* \"#utility.yul\":12517:12525   */\n      dup2\n        /* \"#utility.yul\":12502:12525   */\n      swap1\n      pop\n        /* \"#utility.yul\":12478:12527   */\n    tag_248:\n        /* \"#utility.yul\":12540:12620   */\n      tag_249\n        /* \"#utility.yul\":12596:12618   */\n      tag_250\n        /* \"#utility.yul\":12614:12617   */\n      dup6\n        /* \"#utility.yul\":12596:12618   */\n      tag_97\n      jump\t// in\n    tag_250:\n        /* \"#utility.yul\":12586:12594   */\n      dup4\n        /* \"#utility.yul\":12582:12619   */\n      add\n        /* \"#utility.yul\":12569:12580   */\n      dup3\n        /* \"#utility.yul\":12540:12620   */\n      tag_106\n      jump\t// in\n    tag_249:\n        /* \"#utility.yul\":12199:12630   */\n      pop\n      pop\n        /* \"#utility.yul\":12184:12630   */\n    tag_245:\n        /* \"#utility.yul\":12094:12637   */\n      pop\n      pop\n      pop\n      jump\t// out\n        /* \"#utility.yul\":12643:12760   */\n    tag_108:\n        /* \"#utility.yul\":12697:12705   */\n      0x00\n        /* \"#utility.yul\":12747:12752   */\n      dup3\n        /* \"#utility.yul\":12741:12745   */\n      dup3\n        /* \"#utility.yul\":12737:12753   */\n      shr\n        /* \"#utility.yul\":12716:12753   */\n      swap1\n      pop\n        /* \"#utility.yul\":12643:12760   */\n      swap3\n      swap2\n      pop\n      pop\n      jump\t// out\n        /* \"#utility.yul\":12766:12935   */\n    tag_109:\n        /* \"#utility.yul\":12810:12816   */\n      0x00\n        /* \"#utility.yul\":12843:12894   */\n      tag_253\n        /* \"#utility.yul\":12891:12892   */\n      0x00\n        /* \"#utility.yul\":12887:12893   */\n      not\n        /* \"#utility.yul\":12879:12884   */\n      dup5\n        /* \"#utility.yul\":12876:12877   */\n      0x08\n        /* \"#utility.yul\":12872:12885   */\n      mul\n        /* \"#utility.yul\":12843:12894   */\n      tag_108\n      jump\t// in\n    tag_253:\n        /* \"#utility.yul\":12839:12895   */\n      not\n        /* \"#utility.yul\":12924:12928   */\n      dup1\n        /* \"#utility.yul\":12918:12922   */\n      dup4\n        /* \"#utility.yul\":12914:12929   */\n      and\n        /* \"#utility.yul\":12904:12929   */\n      swap2\n      pop\n        /* \"#utility.yul\":12817:12935   */\n      pop\n        /* \"#utility.yul\":12766:12935   */\n      swap3\n      swap2\n      pop\n      pop\n      jump\t// out\n        /* \"#utility.yul\":12940:13235   */\n    tag_110:\n        /* \"#utility.yul\":13016:13020   */\n      0x00\n        /* \"#utility.yul\":13162:13191   */\n      tag_255\n        /* \"#utility.yul\":13187:13190   */\n      dup4\n        /* \"#utility.yul\":13181:13185   */\n      dup4\n        /* \"#utility.yul\":13162:13191   */\n      tag_109\n      jump\t// in\n    tag_255:\n        /* \"#utility.yul\":13154:13191   */\n      swap2\n      pop\n        /* \"#utility.yul\":13224:13227   */\n      dup3\n        /* \"#utility.yul\":13221:13222   */\n      0x02\n        /* \"#utility.yul\":13217:13228   */\n      mul\n        /* \"#utility.yul\":13211:13215   */\n      dup3\n        /* \"#utility.yul\":13208:13229   */\n      or\n        /* \"#utility.yul\":13200:13229   */\n      swap1\n      pop\n        /* \"#utility.yul\":12940:13235   */\n      swap3\n      swap2\n      pop\n      pop\n      jump\t// out\n        /* \"#utility.yul\":13240:14635   */\n    tag_46:\n        /* \"#utility.yul\":13357:13394   */\n      tag_257\n        /* \"#utility.yul\":13390:13393   */\n      dup3\n        /* \"#utility.yul\":13357:13394   */\n      tag_69\n      jump\t// in\n    tag_257:\n        /* \"#utility.yul\":13459:13477   */\n      0xffffffffffffffff\n        /* \"#utility.yul\":13451:13457   */\n      dup2\n        /* \"#utility.yul\":13448:13478   */\n      gt\n        /* \"#utility.yul\":13445:13501   */\n      iszero\n      tag_258\n      jumpi\n        /* \"#utility.yul\":13481:13499   */\n      tag_259\n      tag_79\n      jump\t// in\n    tag_259:\n        /* \"#utility.yul\":13445:13501   */\n    tag_258:\n        /* \"#utility.yul\":13525:13563   */\n      tag_260\n        /* \"#utility.yul\":13557:13561   */\n      dup3\n        /* \"#utility.yul\":13551:13562   */\n      sload\n        /* \"#utility.yul\":13525:13563   */\n      tag_32\n      jump\t// in\n    tag_260:\n        /* \"#utility.yul\":13610:13677   */\n      tag_261\n        /* \"#utility.yul\":13670:13676   */\n      dup3\n        /* \"#utility.yul\":13662:13668   */\n      dup3\n        /* \"#utility.yul\":13656:13660   */\n      dup6\n        /* \"#utility.yul\":13610:13677   */\n      tag_107\n      jump\t// in\n    tag_261:\n        /* \"#utility.yul\":13704:13705   */\n      0x00\n        /* \"#utility.yul\":13728:13732   */\n      0x20\n        /* \"#utility.yul\":13715:13732   */\n      swap1\n      pop\n        /* \"#utility.yul\":13760:13762   */\n      0x1f\n        /* \"#utility.yul\":13752:13758   */\n      dup4\n        /* \"#utility.yul\":13749:13763   */\n      gt\n        /* \"#utility.yul\":13777:13778   */\n      0x01\n        /* \"#utility.yul\":13772:14390   */\n      dup2\n      eq\n      tag_263\n      jumpi\n        /* \"#utility.yul\":14434:14435   */\n      0x00\n        /* \"#utility.yul\":14451:14457   */\n      dup5\n        /* \"#utility.yul\":14448:14525   */\n      iszero\n      tag_264\n      jumpi\n        /* \"#utility.yul\":14500:14509   */\n      dup3\n        /* \"#utility.yul\":14495:14498   */\n      dup8\n        /* \"#utility.yul\":14491:14510   */\n      add\n        /* \"#utility.yul\":14485:14511   */\n      mload\n        /* \"#utility.yul\":14476:14511   */\n      swap1\n      pop\n        /* \"#utility.yul\":14448:14525   */\n    tag_264:\n        /* \"#utility.yul\":14551:14618   */\n      tag_265\n        /* \"#utility.yul\":14611:14617   */\n      dup6\n        /* \"#utility.yul\":14604:14609   */\n      dup3\n        /* \"#utility.yul\":14551:14618   */\n      tag_110\n      jump\t// in\n    tag_265:\n        /* \"#utility.yul\":14545:14549   */\n      dup7\n        /* \"#utility.yul\":14538:14619   */\n      sstore\n        /* \"#utility.yul\":14407:14629   */\n      pop\n        /* \"#utility.yul\":13742:14629   */\n      jump(tag_262)\n        /* \"#utility.yul\":13772:14390   */\n    tag_263:\n        /* \"#utility.yul\":13824:13828   */\n      0x1f\n        /* \"#utility.yul\":13820:13829   */\n      not\n        /* \"#utility.yul\":13812:13818   */\n      dup5\n        /* \"#utility.yul\":13808:13830   */\n      and\n        /* \"#utility.yul\":13858:13895   */\n      tag_266\n        /* \"#utility.yul\":13890:13894   */\n      dup7\n        /* \"#utility.yul\":13858:13895   */\n      tag_96\n      jump\t// in\n    tag_266:\n        /* \"#utility.yul\":13917:13918   */\n      0x00\n        /* \"#utility.yul\":13931:14139   */\n    tag_267:\n        /* \"#utility.yul\":13945:13952   */\n      dup3\n        /* \"#utility.yul\":13942:13943   */\n      dup2\n        /* \"#utility.yul\":13939:13953   */\n      lt\n        /* \"#utility.yul\":13931:14139   */\n      iszero\n      tag_269\n      jumpi\n        /* \"#utility.yul\":14024:14033   */\n      dup5\n        /* \"#utility.yul\":14019:14022   */\n      dup10\n        /* \"#utility.yul\":14015:14034   */\n      add\n        /* \"#utility.yul\":14009:14035   */\n      mload\n        /* \"#utility.yul\":14001:14007   */\n      dup3\n        /* \"#utility.yul\":13994:14036   */\n      sstore\n        /* \"#utility.yul\":14075:14076   */\n      0x01\n        /* \"#utility.yul\":14067:14073   */\n      dup3\n        /* \"#utility.yul\":14063:14077   */\n      add\n        /* \"#utility.yul\":14053:14077   */\n      swap2\n      pop\n        /* \"#utility.yul\":14122:14124   */\n      0x20\n        /* \"#utility.yul\":14111:14120   */\n      dup6\n        /* \"#utility.yul\":14107:14125   */\n      add\n        /* \"#utility.yul\":14094:14125   */\n      swap5\n      pop\n        /* \"#utility.yul\":13968:13972   */\n      0x20\n        /* \"#utility.yul\":13965:13966   */\n      dup2\n        /* \"#utility.yul\":13961:13973   */\n      add\n        /* \"#utility.yul\":13956:13973   */\n      swap1\n      pop\n        /* \"#utility.yul\":13931:14139   */\n      jump(tag_267)\n    tag_269:\n        /* \"#utility.yul\":14167:14173   */\n      dup7\n        /* \"#utility.yul\":14158:14165   */\n      dup4\n        /* \"#utility.yul\":14155:14174   */\n      lt\n        /* \"#utility.yul\":14152:14331   */\n      iszero\n      tag_270\n      jumpi\n        /* \"#utility.yul\":14225:14234   */\n      dup5\n        /* \"#utility.yul\":14220:14223   */\n      dup10\n        /* \"#utility.yul\":14216:14235   */\n      add\n        /* \"#utility.yul\":14210:14236   */\n      mload\n        /* \"#utility.yul\":14268:14316   */\n      tag_271\n        /* \"#utility.yul\":14310:14314   */\n      0x1f\n        /* \"#utility.yul\":14302:14308   */\n      dup10\n        /* \"#utility.yul\":14298:14315   */\n      and\n        /* \"#utility.yul\":14287:14296   */\n      dup3\n        /* \"#utility.yul\":14268:14316   */\n      tag_109\n      jump\t// in\n    tag_271:\n        /* \"#utility.yul\":14260:14266   */\n      dup4\n        /* \"#utility.yul\":14253:14317   */\n      sstore\n        /* \"#utility.yul\":14175:14331   */\n      pop\n        /* \"#utility.yul\":14152:14331   */\n    tag_270:\n        /* \"#utility.yul\":14377:14378   */\n      0x01\n        /* \"#utility.yul\":14373:14374   */\n      0x02\n        /* \"#utility.yul\":14365:14371   */\n      dup9\n        /* \"#utility.yul\":14361:14375   */\n      mul\n        /* \"#utility.yul\":14357:14379   */\n      add\n        /* \"#utility.yul\":14351:14355   */\n      dup9\n        /* \"#utility.yul\":14344:14380   */\n      sstore\n        /* \"#utility.yul\":13779:14390   */\n      pop\n      pop\n      pop\n        /* \"#utility.yul\":13742:14629   */\n    tag_262:\n      pop\n        /* \"#utility.yul\":13332:14635   */\n      pop\n      pop\n      pop\n        /* \"#utility.yul\":13240:14635   */\n      pop\n      pop\n      jump\t// out\n        /* \"#utility.yul\":14641:14863   */\n    tag_111:\n        /* \"#utility.yul\":14781:14815   */\n      0x4e6577207465616368657220616464726573732063616e6e6f74206265207a65\n        /* \"#utility.yul\":14777:14778   */\n      0x00\n        /* \"#utility.yul\":14769:14775   */\n      dup3\n        /* \"#utility.yul\":14765:14779   */\n      add\n        /* \"#utility.yul\":14758:14816   */\n      mstore\n        /* \"#utility.yul\":14850:14855   */\n      0x726f2e0000000000000000000000000000000000000000000000000000000000\n        /* \"#utility.yul\":14845:14847   */\n      0x20\n        /* \"#utility.yul\":14837:14843   */\n      dup3\n        /* \"#utility.yul\":14833:14848   */\n      add\n        /* \"#utility.yul\":14826:14856   */\n      mstore\n        /* \"#utility.yul\":14641:14863   */\n      pop\n      jump\t// out\n        /* \"#utility.yul\":14869:15235   */\n    tag_112:\n        /* \"#utility.yul\":15011:15014   */\n      0x00\n        /* \"#utility.yul\":15032:15099   */\n      tag_274\n        /* \"#utility.yul\":15096:15098   */\n      0x23\n        /* \"#utility.yul\":15091:15094   */\n      dup4\n        /* \"#utility.yul\":15032:15099   */\n      tag_70\n      jump\t// in\n    tag_274:\n        /* \"#utility.yul\":15025:15099   */\n      swap2\n      pop\n        /* \"#utility.yul\":15108:15201   */\n      tag_275\n        /* \"#utility.yul\":15197:15200   */\n      dup3\n        /* \"#utility.yul\":15108:15201   */\n      tag_111\n      jump\t// in\n    tag_275:\n        /* \"#utility.yul\":15226:15228   */\n      0x40\n        /* \"#utility.yul\":15221:15224   */\n      dup3\n        /* \"#utility.yul\":15217:15229   */\n      add\n        /* \"#utility.yul\":15210:15229   */\n      swap1\n      pop\n        /* \"#utility.yul\":14869:15235   */\n      swap2\n      swap1\n      pop\n      jump\t// out\n        /* \"#utility.yul\":15241:15660   */\n    tag_53:\n        /* \"#utility.yul\":15407:15411   */\n      0x00\n        /* \"#utility.yul\":15445:15447   */\n      0x20\n        /* \"#utility.yul\":15434:15443   */\n      dup3\n        /* \"#utility.yul\":15430:15448   */\n      add\n        /* \"#utility.yul\":15422:15448   */\n      swap1\n      pop\n        /* \"#utility.yul\":15494:15503   */\n      dup2\n        /* \"#utility.yul\":15488:15492   */\n      dup2\n        /* \"#utility.yul\":15484:15504   */\n      sub\n        /* \"#utility.yul\":15480:15481   */\n      0x00\n        /* \"#utility.yul\":15469:15478   */\n      dup4\n        /* \"#utility.yul\":15465:15482   */\n      add\n        /* \"#utility.yul\":15458:15505   */\n      mstore\n        /* \"#utility.yul\":15522:15653   */\n      tag_277\n        /* \"#utility.yul\":15648:15652   */\n      dup2\n        /* \"#utility.yul\":15522:15653   */\n      tag_112\n      jump\t// in\n    tag_277:\n        /* \"#utility.yul\":15514:15653   */\n      swap1\n      pop\n        /* \"#utility.yul\":15241:15660   */\n      swap2\n      swap1\n      pop\n      jump\t// out\n        /* \"#utility.yul\":15666:15889   */\n    tag_113:\n        /* \"#utility.yul\":15806:15840   */\n      0x53747564656e742077697468207468697320494420646f6573206e6f74206578\n        /* \"#utility.yul\":15802:15803   */\n      0x00\n        /* \"#utility.yul\":15794:15800   */\n      dup3\n        /* \"#utility.yul\":15790:15804   */\n      add\n        /* \"#utility.yul\":15783:15841   */\n      mstore\n        /* \"#utility.yul\":15875:15881   */\n      0x6973742e00000000000000000000000000000000000000000000000000000000\n        /* \"#utility.yul\":15870:15872   */\n      0x20\n        /* \"#utility.yul\":15862:15868   */\n      dup3\n        /* \"#utility.yul\":15858:15873   */\n      add\n        /* \"#utility.yul\":15851:15882   */\n      mstore\n        /* \"#utility.yul\":15666:15889   */\n      pop\n      jump\t// out\n        /* \"#utility.yul\":15895:16261   */\n    tag_114:\n        /* \"#utility.yul\":16037:16040   */\n      0x00\n        /* \"#utility.yul\":16058:16125   */\n      tag_280\n        /* \"#utility.yul\":16122:16124   */\n      0x24\n        /* \"#utility.yul\":16117:16120   */\n      dup4\n        /* \"#utility.yul\":16058:16125   */\n      tag_70\n      jump\t// in\n    tag_280:\n        /* \"#utility.yul\":16051:16125   */\n      swap2\n      pop\n        /* \"#utility.yul\":16134:16227   */\n      tag_281\n        /* \"#utility.yul\":16223:16226   */\n      dup3\n        /* \"#utility.yul\":16134:16227   */\n      tag_113\n      jump\t// in\n    tag_281:\n        /* \"#utility.yul\":16252:16254   */\n      0x40\n        /* \"#utility.yul\":16247:16250   */\n      dup3\n        /* \"#utility.yul\":16243:16255   */\n      add\n        /* \"#utility.yul\":16236:16255   */\n      swap1\n      pop\n        /* \"#utility.yul\":15895:16261   */\n      swap2\n      swap1\n      pop\n      jump\t// out\n        /* \"#utility.yul\":16267:16686   */\n    tag_62:\n        /* \"#utility.yul\":16433:16437   */\n      0x00\n        /* \"#utility.yul\":16471:16473   */\n      0x20\n        /* \"#utility.yul\":16460:16469   */\n      dup3\n        /* \"#utility.yul\":16456:16474   */\n      add\n        /* \"#utility.yul\":16448:16474   */\n      swap1\n      pop\n        /* \"#utility.yul\":16520:16529   */\n      dup2\n        /* \"#utility.yul\":16514:16518   */\n      dup2\n        /* \"#utility.yul\":16510:16530   */\n      sub\n        /* \"#utility.yul\":16506:16507   */\n      0x00\n        /* \"#utility.yul\":16495:16504   */\n      dup4\n        /* \"#utility.yul\":16491:16508   */\n      add\n        /* \"#utility.yul\":16484:16531   */\n      mstore\n        /* \"#utility.yul\":16548:16679   */\n      tag_283\n        /* \"#utility.yul\":16674:16678   */\n      dup2\n        /* \"#utility.yul\":16548:16679   */\n      tag_114\n      jump\t// in\n    tag_283:\n        /* \"#utility.yul\":16540:16679   */\n      swap1\n      pop\n        /* \"#utility.yul\":16267:16686   */\n      swap2\n      swap1\n      pop\n      jump\t// out\n\n    auxdata: 0xa26469706673582212203741b193baa2d66a44562e766426053430f34e0c2a0c2e378c475de40e08c0d764736f6c634300081e0033\n}\n",
				"bytecode": {
					"linkReferences": {},
					"object": "6080604052348015600e575f5ffd5b50335f5f6101000a81548173ffffffffffffffffffffffffffffffffffffffff021916908373ffffffffffffffffffffffffffffffffffffffff160217905550610eea8061005b5f395ff3fe608060405234801561000f575f5ffd5b5060043610610055575f3560e01c806306ead22e1461005957806322da2d9a1461008c5780635f92040a146100a857806386a9b364146100c45780639c28fdf8146100f6575b5f5ffd5b610073600480360381019061006e919061060d565b610114565b60405161008394939291906106d1565b60405180910390f35b6100a660048036038101906100a19190610847565b6101d2565b005b6100c260048036038101906100bd9190610921565b610327565b005b6100de60048036038101906100d9919061060d565b610465565b6040516100ed9392919061094c565b60405180910390f35b6100fe6105a5565b60405161010b9190610997565b60405180910390f35b6001602052805f5260405f205f91509050805f018054610133906109dd565b80601f016020809104026020016040519081016040528092919081815260200182805461015f906109dd565b80156101aa5780601f10610181576101008083540402835291602001916101aa565b820191905f5260205f20905b81548152906001019060200180831161018d57829003601f168201915b505050505090806001015490806002015490806003015f9054906101000a900460ff16905084565b5f5f9054906101000a900473ffffffffffffffffffffffffffffffffffffffff1673ffffffffffffffffffffffffffffffffffffffff163373ffffffffffffffffffffffffffffffffffffffff1614610260576040517f08c379a000000000000000000000000000000000000000000000000000000000815260040161025790610a7d565b60405180910390fd5b5f84116102a2576040517f08c379a000000000000000000000000000000000000000000000000000000000815260040161029990610b0b565b60405180910390fd5b60405180608001604052808481526020018381526020018281526020016001151581525060015f8681526020019081526020015f205f820151815f0190816102ea9190610cc9565b5060208201518160010155604082015181600201556060820151816003015f6101000a81548160ff02191690831515021790555090505050505050565b5f5f9054906101000a900473ffffffffffffffffffffffffffffffffffffffff1673ffffffffffffffffffffffffffffffffffffffff163373ffffffffffffffffffffffffffffffffffffffff16146103b5576040517f08c379a00000000000000000000000000000000000000000000000000000000081526004016103ac90610a7d565b60405180910390fd5b5f73ffffffffffffffffffffffffffffffffffffffff168173ffffffffffffffffffffffffffffffffffffffff1603610423576040517f08c379a000000000000000000000000000000000000000000000000000000000815260040161041a90610e08565b60405180910390fd5b805f5f6101000a81548173ffffffffffffffffffffffffffffffffffffffff021916908373ffffffffffffffffffffffffffffffffffffffff16021790555050565b60605f5f5f60015f8681526020019081526020015f206040518060800160405290815f82018054610495906109dd565b80601f01602080910402602001604051908101604052809291908181526020018280546104c1906109dd565b801561050c5780601f106104e35761010080835404028352916020019161050c565b820191905f5260205f20905b8154815290600101906020018083116104ef57829003601f168201915b505050505081526020016001820154815260200160028201548152602001600382015f9054906101000a900460ff16151515158152505090508060600151610589576040517f08c379a000000000000000000000000000000000000000000000000000000000815260040161058090610e96565b60405180910390fd5b805f015181602001518260400151935093509350509193909250565b5f5f9054906101000a900473ffffffffffffffffffffffffffffffffffffffff1681565b5f604051905090565b5f5ffd5b5f5ffd5b5f819050919050565b6105ec816105da565b81146105f6575f5ffd5b50565b5f81359050610607816105e3565b92915050565b5f60208284031215610622576106216105d2565b5b5f61062f848285016105f9565b91505092915050565b5f81519050919050565b5f82825260208201905092915050565b8281835e5f83830152505050565b5f601f19601f8301169050919050565b5f61067a82610638565b6106848185610642565b9350610694818560208601610652565b61069d81610660565b840191505092915050565b6106b1816105da565b82525050565b5f8115159050919050565b6106cb816106b7565b82525050565b5f6080820190508181035f8301526106e98187610670565b90506106f860208301866106a8565b61070560408301856106a8565b61071260608301846106c2565b95945050505050565b5f5ffd5b5f5ffd5b7f4e487b71000000000000000000000000000000000000000000000000000000005f52604160045260245ffd5b61075982610660565b810181811067ffffffffffffffff8211171561077857610777610723565b5b80604052505050565b5f61078a6105c9565b90506107968282610750565b919050565b5f67ffffffffffffffff8211156107b5576107b4610723565b5b6107be82610660565b9050602081019050919050565b828183375f83830152505050565b5f6107eb6107e68461079b565b610781565b9050828152602081018484840111156108075761080661071f565b5b6108128482856107cb565b509392505050565b5f82601f83011261082e5761082d61071b565b5b813561083e8482602086016107d9565b91505092915050565b5f5f5f5f6080858703121561085f5761085e6105d2565b5b5f61086c878288016105f9565b945050602085013567ffffffffffffffff81111561088d5761088c6105d6565b5b6108998782880161081a565b93505060406108aa878288016105f9565b92505060606108bb878288016105f9565b91505092959194509250565b5f73ffffffffffffffffffffffffffffffffffffffff82169050919050565b5f6108f0826108c7565b9050919050565b610900816108e6565b811461090a575f5ffd5b50565b5f8135905061091b816108f7565b92915050565b5f60208284031215610936576109356105d2565b5b5f6109438482850161090d565b91505092915050565b5f6060820190508181035f8301526109648186610670565b905061097360208301856106a8565b61098060408301846106a8565b949350505050565b610991816108e6565b82525050565b5f6020820190506109aa5f830184610988565b92915050565b7f4e487b71000000000000000000000000000000000000000000000000000000005f52602260045260245ffd5b5f60028204905060018216806109f457607f821691505b602082108103610a0757610a066109b0565b5b50919050565b7f5065726d697373696f6e2064656e6965643a204f6e6c792074686520746561635f8201527f6865722063616e20706572666f726d207468697320616374696f6e2e00000000602082015250565b5f610a67603c83610642565b9150610a7282610a0d565b604082019050919050565b5f6020820190508181035f830152610a9481610a5b565b9050919050565b7f53747564656e74204944206d7573742062652067726561746572207468616e205f8201527f7a65726f2e000000000000000000000000000000000000000000000000000000602082015250565b5f610af5602583610642565b9150610b0082610a9b565b604082019050919050565b5f6020820190508181035f830152610b2281610ae9565b9050919050565b5f819050815f5260205f209050919050565b5f6020601f8301049050919050565b5f82821b905092915050565b5f60088302610b857fffffffffffffffffffffffffffffffffffffffffffffffffffffffffffffffff82610b4a565b610b8f8683610b4a565b95508019841693508086168417925050509392505050565b5f819050919050565b5f610bca610bc5610bc0846105da565b610ba7565b6105da565b9050919050565b5f819050919050565b610be383610bb0565b610bf7610bef82610bd1565b848454610b56565b825550505050565b5f5f905090565b610c0e610bff565b610c19818484610bda565b505050565b5b81811015610c3c57610c315f82610c06565b600181019050610c1f565b5050565b601f821115610c8157610c5281610b29565b610c5b84610b3b565b81016020851015610c6a578190505b610c7e610c7685610b3b565b830182610c1e565b50505b505050565b5f82821c905092915050565b5f610ca15f1984600802610c86565b1980831691505092915050565b5f610cb98383610c92565b9150826002028217905092915050565b610cd282610638565b67ffffffffffffffff811115610ceb57610cea610723565b5b610cf582546109dd565b610d00828285610c40565b5f60209050601f831160018114610d31575f8415610d1f578287015190505b610d298582610cae565b865550610d90565b601f198416610d3f86610b29565b5f5b82811015610d6657848901518255600182019150602085019450602081019050610d41565b86831015610d835784890151610d7f601f891682610c92565b8355505b6001600288020188555050505b505050505050565b7f4e6577207465616368657220616464726573732063616e6e6f74206265207a655f8201527f726f2e0000000000000000000000000000000000000000000000000000000000602082015250565b5f610df2602383610642565b9150610dfd82610d98565b604082019050919050565b5f6020820190508181035f830152610e1f81610de6565b9050919050565b7f53747564656e742077697468207468697320494420646f6573206e6f742065785f8201527f6973742e00000000000000000000000000000000000000000000000000000000602082015250565b5f610e80602483610642565b9150610e8b82610e26565b604082019050919050565b5f6020820190508181035f830152610ead81610e74565b905091905056fea26469706673582212203741b193baa2d66a44562e766426053430f34e0c2a0c2e378c475de40e08c0d764736f6c634300081e0033",
					"opcodes": "PUSH1 0x80 PUSH1 0x40 MSTORE CALLVALUE DUP1 ISZERO PUSH1 0xE JUMPI PUSH0 PUSH0 REVERT JUMPDEST POP CALLER PUSH0 PUSH0 PUSH2 0x100 EXP DUP2 SLOAD DUP2 PUSH20 0xFFFFFFFFFFFFFFFFFFFFFFFFFFFFFFFFFFFFFFFF MUL NOT AND SWAP1 DUP4 PUSH20 0xFFFFFFFFFFFFFFFFFFFFFFFFFFFFFFFFFFFFFFFF AND MUL OR SWAP1 SSTORE POP PUSH2 0xEEA DUP1 PUSH2 0x5B PUSH0 CODECOPY PUSH0 RETURN INVALID PUSH1 0x80 PUSH1 0x40 MSTORE CALLVALUE DUP1 ISZERO PUSH2 0xF JUMPI PUSH0 PUSH0 REVERT JUMPDEST POP PUSH1 0x4 CALLDATASIZE LT PUSH2 0x55 JUMPI PUSH0 CALLDATALOAD PUSH1 0xE0 SHR DUP1 PUSH4 0x6EAD22E EQ PUSH2 0x59 JUMPI DUP1 PUSH4 0x22DA2D9A EQ PUSH2 0x8C JUMPI DUP1 PUSH4 0x5F92040A EQ PUSH2 0xA8 JUMPI DUP1 PUSH4 0x86A9B364 EQ PUSH2 0xC4 JUMPI DUP1 PUSH4 0x9C28FDF8 EQ PUSH2 0xF6 JUMPI JUMPDEST PUSH0 PUSH0 REVERT JUMPDEST PUSH2 0x73 PUSH1 0x4 DUP1 CALLDATASIZE SUB DUP2 ADD SWAP1 PUSH2 0x6E SWAP2 SWAP1 PUSH2 0x60D JUMP JUMPDEST PUSH2 0x114 JUMP JUMPDEST PUSH1 0x40 MLOAD PUSH2 0x83 SWAP5 SWAP4 SWAP3 SWAP2 SWAP1 PUSH2 0x6D1 JUMP JUMPDEST PUSH1 0x40 MLOAD DUP1 SWAP2 SUB SWAP1 RETURN JUMPDEST PUSH2 0xA6 PUSH1 0x4 DUP1 CALLDATASIZE SUB DUP2 ADD SWAP1 PUSH2 0xA1 SWAP2 SWAP1 PUSH2 0x847 JUMP JUMPDEST PUSH2 0x1D2 JUMP JUMPDEST STOP JUMPDEST PUSH2 0xC2 PUSH1 0x4 DUP1 CALLDATASIZE SUB DUP2 ADD SWAP1 PUSH2 0xBD SWAP2 SWAP1 PUSH2 0x921 JUMP JUMPDEST PUSH2 0x327 JUMP JUMPDEST STOP JUMPDEST PUSH2 0xDE PUSH1 0x4 DUP1 CALLDATASIZE SUB DUP2 ADD SWAP1 PUSH2 0xD9 SWAP2 SWAP1 PUSH2 0x60D JUMP JUMPDEST PUSH2 0x465 JUMP JUMPDEST PUSH1 0x40 MLOAD PUSH2 0xED SWAP4 SWAP3 SWAP2 SWAP1 PUSH2 0x94C JUMP JUMPDEST PUSH1 0x40 MLOAD DUP1 SWAP2 SUB SWAP1 RETURN JUMPDEST PUSH2 0xFE PUSH2 0x5A5 JUMP JUMPDEST PUSH1 0x40 MLOAD PUSH2 0x10B SWAP2 SWAP1 PUSH2 0x997 JUMP JUMPDEST PUSH1 0x40 MLOAD DUP1 SWAP2 SUB SWAP1 RETURN JUMPDEST PUSH1 0x1 PUSH1 0x20 MSTORE DUP1 PUSH0 MSTORE PUSH1 0x40 PUSH0 KECCAK256 PUSH0 SWAP2 POP SWAP1 POP DUP1 PUSH0 ADD DUP1 SLOAD PUSH2 0x133 SWAP1 PUSH2 0x9DD JUMP JUMPDEST DUP1 PUSH1 0x1F ADD PUSH1 0x20 DUP1 SWAP2 DIV MUL PUSH1 0x20 ADD PUSH1 0x40 MLOAD SWAP1 DUP2 ADD PUSH1 0x40 MSTORE DUP1 SWAP3 SWAP2 SWAP1 DUP2 DUP2 MSTORE PUSH1 0x20 ADD DUP3 DUP1 SLOAD PUSH2 0x15F SWAP1 PUSH2 0x9DD JUMP JUMPDEST DUP1 ISZERO PUSH2 0x1AA JUMPI DUP1 PUSH1 0x1F LT PUSH2 0x181 JUMPI PUSH2 0x100 DUP1 DUP4 SLOAD DIV MUL DUP4 MSTORE SWAP2 PUSH1 0x20 ADD SWAP2 PUSH2 0x1AA JUMP JUMPDEST DUP3 ADD SWAP2 SWAP1 PUSH0 MSTORE PUSH1 0x20 PUSH0 KECCAK256 SWAP1 JUMPDEST DUP2 SLOAD DUP2 MSTORE SWAP1 PUSH1 0x1 ADD SWAP1 PUSH1 0x20 ADD DUP1 DUP4 GT PUSH2 0x18D JUMPI DUP3 SWAP1 SUB PUSH1 0x1F AND DUP3 ADD SWAP2 JUMPDEST POP POP POP POP POP SWAP1 DUP1 PUSH1 0x1 ADD SLOAD SWAP1 DUP1 PUSH1 0x2 ADD SLOAD SWAP1 DUP1 PUSH1 0x3 ADD PUSH0 SWAP1 SLOAD SWAP1 PUSH2 0x100 EXP SWAP1 DIV PUSH1 0xFF AND SWAP1 POP DUP5 JUMP JUMPDEST PUSH0 PUSH0 SWAP1 SLOAD SWAP1 PUSH2 0x100 EXP SWAP1 DIV PUSH20 0xFFFFFFFFFFFFFFFFFFFFFFFFFFFFFFFFFFFFFFFF AND PUSH20 0xFFFFFFFFFFFFFFFFFFFFFFFFFFFFFFFFFFFFFFFF AND CALLER PUSH20 0xFFFFFFFFFFFFFFFFFFFFFFFFFFFFFFFFFFFFFFFF AND EQ PUSH2 0x260 JUMPI PUSH1 0x40 MLOAD PUSH32 0x8C379A000000000000000000000000000000000000000000000000000000000 DUP2 MSTORE PUSH1 0x4 ADD PUSH2 0x257 SWAP1 PUSH2 0xA7D JUMP JUMPDEST PUSH1 0x40 MLOAD DUP1 SWAP2 SUB SWAP1 REVERT JUMPDEST PUSH0 DUP5 GT PUSH2 0x2A2 JUMPI PUSH1 0x40 MLOAD PUSH32 0x8C379A000000000000000000000000000000000000000000000000000000000 DUP2 MSTORE PUSH1 0x4 ADD PUSH2 0x299 SWAP1 PUSH2 0xB0B JUMP JUMPDEST PUSH1 0x40 MLOAD DUP1 SWAP2 SUB SWAP1 REVERT JUMPDEST PUSH1 0x40 MLOAD DUP1 PUSH1 0x80 ADD PUSH1 0x40 MSTORE DUP1 DUP5 DUP2 MSTORE PUSH1 0x20 ADD DUP4 DUP2 MSTORE PUSH1 0x20 ADD DUP3 DUP2 MSTORE PUSH1 0x20 ADD PUSH1 0x1 ISZERO ISZERO DUP2 MSTORE POP PUSH1 0x1 PUSH0 DUP7 DUP2 MSTORE PUSH1 0x20 ADD SWAP1 DUP2 MSTORE PUSH1 0x20 ADD PUSH0 KECCAK256 PUSH0 DUP3 ADD MLOAD DUP2 PUSH0 ADD SWAP1 DUP2 PUSH2 0x2EA SWAP2 SWAP1 PUSH2 0xCC9 JUMP JUMPDEST POP PUSH1 0x20 DUP3 ADD MLOAD DUP2 PUSH1 0x1 ADD SSTORE PUSH1 0x40 DUP3 ADD MLOAD DUP2 PUSH1 0x2 ADD SSTORE PUSH1 0x60 DUP3 ADD MLOAD DUP2 PUSH1 0x3 ADD PUSH0 PUSH2 0x100 EXP DUP2 SLOAD DUP2 PUSH1 0xFF MUL NOT AND SWAP1 DUP4 ISZERO ISZERO MUL OR SWAP1 SSTORE POP SWAP1 POP POP POP POP POP POP JUMP JUMPDEST PUSH0 PUSH0 SWAP1 SLOAD SWAP1 PUSH2 0x100 EXP SWAP1 DIV PUSH20 0xFFFFFFFFFFFFFFFFFFFFFFFFFFFFFFFFFFFFFFFF AND PUSH20 0xFFFFFFFFFFFFFFFFFFFFFFFFFFFFFFFFFFFFFFFF AND CALLER PUSH20 0xFFFFFFFFFFFFFFFFFFFFFFFFFFFFFFFFFFFFFFFF AND EQ PUSH2 0x3B5 JUMPI PUSH1 0x40 MLOAD PUSH32 0x8C379A000000000000000000000000000000000000000000000000000000000 DUP2 MSTORE PUSH1 0x4 ADD PUSH2 0x3AC SWAP1 PUSH2 0xA7D JUMP JUMPDEST PUSH1 0x40 MLOAD DUP1 SWAP2 SUB SWAP1 REVERT JUMPDEST PUSH0 PUSH20 0xFFFFFFFFFFFFFFFFFFFFFFFFFFFFFFFFFFFFFFFF AND DUP2 PUSH20 0xFFFFFFFFFFFFFFFFFFFFFFFFFFFFFFFFFFFFFFFF AND SUB PUSH2 0x423 JUMPI PUSH1 0x40 MLOAD PUSH32 0x8C379A000000000000000000000000000000000000000000000000000000000 DUP2 MSTORE PUSH1 0x4 ADD PUSH2 0x41A SWAP1 PUSH2 0xE08 JUMP JUMPDEST PUSH1 0x40 MLOAD DUP1 SWAP2 SUB SWAP1 REVERT JUMPDEST DUP1 PUSH0 PUSH0 PUSH2 0x100 EXP DUP2 SLOAD DUP2 PUSH20 0xFFFFFFFFFFFFFFFFFFFFFFFFFFFFFFFFFFFFFFFF MUL NOT AND SWAP1 DUP4 PUSH20 0xFFFFFFFFFFFFFFFFFFFFFFFFFFFFFFFFFFFFFFFF AND MUL OR SWAP1 SSTORE POP POP JUMP JUMPDEST PUSH1 0x60 PUSH0 PUSH0 PUSH0 PUSH1 0x1 PUSH0 DUP7 DUP2 MSTORE PUSH1 0x20 ADD SWAP1 DUP2 MSTORE PUSH1 0x20 ADD PUSH0 KECCAK256 PUSH1 0x40 MLOAD DUP1 PUSH1 0x80 ADD PUSH1 0x40 MSTORE SWAP1 DUP2 PUSH0 DUP3 ADD DUP1 SLOAD PUSH2 0x495 SWAP1 PUSH2 0x9DD JUMP JUMPDEST DUP1 PUSH1 0x1F ADD PUSH1 0x20 DUP1 SWAP2 DIV MUL PUSH1 0x20 ADD PUSH1 0x40 MLOAD SWAP1 DUP2 ADD PUSH1 0x40 MSTORE DUP1 SWAP3 SWAP2 SWAP1 DUP2 DUP2 MSTORE PUSH1 0x20 ADD DUP3 DUP1 SLOAD PUSH2 0x4C1 SWAP1 PUSH2 0x9DD JUMP JUMPDEST DUP1 ISZERO PUSH2 0x50C JUMPI DUP1 PUSH1 0x1F LT PUSH2 0x4E3 JUMPI PUSH2 0x100 DUP1 DUP4 SLOAD DIV MUL DUP4 MSTORE SWAP2 PUSH1 0x20 ADD SWAP2 PUSH2 0x50C JUMP JUMPDEST DUP3 ADD SWAP2 SWAP1 PUSH0 MSTORE PUSH1 0x20 PUSH0 KECCAK256 SWAP1 JUMPDEST DUP2 SLOAD DUP2 MSTORE SWAP1 PUSH1 0x1 ADD SWAP1 PUSH1 0x20 ADD DUP1 DUP4 GT PUSH2 0x4EF JUMPI DUP3 SWAP1 SUB PUSH1 0x1F AND DUP3 ADD SWAP2 JUMPDEST POP POP POP POP POP DUP2 MSTORE PUSH1 0x20 ADD PUSH1 0x1 DUP3 ADD SLOAD DUP2 MSTORE PUSH1 0x20 ADD PUSH1 0x2 DUP3 ADD SLOAD DUP2 MSTORE PUSH1 0x20 ADD PUSH1 0x3 DUP3 ADD PUSH0 SWAP1 SLOAD SWAP1 PUSH2 0x100 EXP SWAP1 DIV PUSH1 0xFF AND ISZERO ISZERO ISZERO ISZERO DUP2 MSTORE POP POP SWAP1 POP DUP1 PUSH1 0x60 ADD MLOAD PUSH2 0x589 JUMPI PUSH1 0x40 MLOAD PUSH32 0x8C379A000000000000000000000000000000000000000000000000000000000 DUP2 MSTORE PUSH1 0x4 ADD PUSH2 0x580 SWAP1 PUSH2 0xE96 JUMP JUMPDEST PUSH1 0x40 MLOAD DUP1 SWAP2 SUB SWAP1 REVERT JUMPDEST DUP1 PUSH0 ADD MLOAD DUP2 PUSH1 0x20 ADD MLOAD DUP3 PUSH1 0x40 ADD MLOAD SWAP4 POP SWAP4 POP SWAP4 POP POP SWAP2 SWAP4 SWAP1 SWAP3 POP JUMP JUMPDEST PUSH0 PUSH0 SWAP1 SLOAD SWAP1 PUSH2 0x100 EXP SWAP1 DIV PUSH20 0xFFFFFFFFFFFFFFFFFFFFFFFFFFFFFFFFFFFFFFFF AND DUP2 JUMP JUMPDEST PUSH0 PUSH1 0x40 MLOAD SWAP1 POP SWAP1 JUMP JUMPDEST PUSH0 PUSH0 REVERT JUMPDEST PUSH0 PUSH0 REVERT JUMPDEST PUSH0 DUP2 SWAP1 POP SWAP2 SWAP1 POP JUMP JUMPDEST PUSH2 0x5EC DUP2 PUSH2 0x5DA JUMP JUMPDEST DUP2 EQ PUSH2 0x5F6 JUMPI PUSH0 PUSH0 REVERT JUMPDEST POP JUMP JUMPDEST PUSH0 DUP2 CALLDATALOAD SWAP1 POP PUSH2 0x607 DUP2 PUSH2 0x5E3 JUMP JUMPDEST SWAP3 SWAP2 POP POP JUMP JUMPDEST PUSH0 PUSH1 0x20 DUP3 DUP5 SUB SLT ISZERO PUSH2 0x622 JUMPI PUSH2 0x621 PUSH2 0x5D2 JUMP JUMPDEST JUMPDEST PUSH0 PUSH2 0x62F DUP5 DUP3 DUP6 ADD PUSH2 0x5F9 JUMP JUMPDEST SWAP2 POP POP SWAP3 SWAP2 POP POP JUMP JUMPDEST PUSH0 DUP2 MLOAD SWAP1 POP SWAP2 SWAP1 POP JUMP JUMPDEST PUSH0 DUP3 DUP3 MSTORE PUSH1 0x20 DUP3 ADD SWAP1 POP SWAP3 SWAP2 POP POP JUMP JUMPDEST DUP3 DUP2 DUP4 MCOPY PUSH0 DUP4 DUP4 ADD MSTORE POP POP POP JUMP JUMPDEST PUSH0 PUSH1 0x1F NOT PUSH1 0x1F DUP4 ADD AND SWAP1 POP SWAP2 SWAP1 POP JUMP JUMPDEST PUSH0 PUSH2 0x67A DUP3 PUSH2 0x638 JUMP JUMPDEST PUSH2 0x684 DUP2 DUP6 PUSH2 0x642 JUMP JUMPDEST SWAP4 POP PUSH2 0x694 DUP2 DUP6 PUSH1 0x20 DUP7 ADD PUSH2 0x652 JUMP JUMPDEST PUSH2 0x69D DUP2 PUSH2 0x660 JUMP JUMPDEST DUP5 ADD SWAP2 POP POP SWAP3 SWAP2 POP POP JUMP JUMPDEST PUSH2 0x6B1 DUP2 PUSH2 0x5DA JUMP JUMPDEST DUP3 MSTORE POP POP JUMP JUMPDEST PUSH0 DUP2 ISZERO ISZERO SWAP1 POP SWAP2 SWAP1 POP JUMP JUMPDEST PUSH2 0x6CB DUP2 PUSH2 0x6B7 JUMP JUMPDEST DUP3 MSTORE POP POP JUMP JUMPDEST PUSH0 PUSH1 0x80 DUP3 ADD SWAP1 POP DUP2 DUP2 SUB PUSH0 DUP4 ADD MSTORE PUSH2 0x6E9 DUP2 DUP8 PUSH2 0x670 JUMP JUMPDEST SWAP1 POP PUSH2 0x6F8 PUSH1 0x20 DUP4 ADD DUP7 PUSH2 0x6A8 JUMP JUMPDEST PUSH2 0x705 PUSH1 0x40 DUP4 ADD DUP6 PUSH2 0x6A8 JUMP JUMPDEST PUSH2 0x712 PUSH1 0x60 DUP4 ADD DUP5 PUSH2 0x6C2 JUMP JUMPDEST SWAP6 SWAP5 POP POP POP POP POP JUMP JUMPDEST PUSH0 PUSH0 REVERT JUMPDEST PUSH0 PUSH0 REVERT JUMPDEST PUSH32 0x4E487B7100000000000000000000000000000000000000000000000000000000 PUSH0 MSTORE PUSH1 0x41 PUSH1 0x4 MSTORE PUSH1 0x24 PUSH0 REVERT JUMPDEST PUSH2 0x759 DUP3 PUSH2 0x660 JUMP JUMPDEST DUP2 ADD DUP2 DUP2 LT PUSH8 0xFFFFFFFFFFFFFFFF DUP3 GT OR ISZERO PUSH2 0x778 JUMPI PUSH2 0x777 PUSH2 0x723 JUMP JUMPDEST JUMPDEST DUP1 PUSH1 0x40 MSTORE POP POP POP JUMP JUMPDEST PUSH0 PUSH2 0x78A PUSH2 0x5C9 JUMP JUMPDEST SWAP1 POP PUSH2 0x796 DUP3 DUP3 PUSH2 0x750 JUMP JUMPDEST SWAP2 SWAP1 POP JUMP JUMPDEST PUSH0 PUSH8 0xFFFFFFFFFFFFFFFF DUP3 GT ISZERO PUSH2 0x7B5 JUMPI PUSH2 0x7B4 PUSH2 0x723 JUMP JUMPDEST JUMPDEST PUSH2 0x7BE DUP3 PUSH2 0x660 JUMP JUMPDEST SWAP1 POP PUSH1 0x20 DUP2 ADD SWAP1 POP SWAP2 SWAP1 POP JUMP JUMPDEST DUP3 DUP2 DUP4 CALLDATACOPY PUSH0 DUP4 DUP4 ADD MSTORE POP POP POP JUMP JUMPDEST PUSH0 PUSH2 0x7EB PUSH2 0x7E6 DUP5 PUSH2 0x79B JUMP JUMPDEST PUSH2 0x781 JUMP JUMPDEST SWAP1 POP DUP3 DUP2 MSTORE PUSH1 0x20 DUP2 ADD DUP5 DUP5 DUP5 ADD GT ISZERO PUSH2 0x807 JUMPI PUSH2 0x806 PUSH2 0x71F JUMP JUMPDEST JUMPDEST PUSH2 0x812 DUP5 DUP3 DUP6 PUSH2 0x7CB JUMP JUMPDEST POP SWAP4 SWAP3 POP POP POP JUMP JUMPDEST PUSH0 DUP3 PUSH1 0x1F DUP4 ADD SLT PUSH2 0x82E JUMPI PUSH2 0x82D PUSH2 0x71B JUMP JUMPDEST JUMPDEST DUP2 CALLDATALOAD PUSH2 0x83E DUP5 DUP3 PUSH1 0x20 DUP7 ADD PUSH2 0x7D9 JUMP JUMPDEST SWAP2 POP POP SWAP3 SWAP2 POP POP JUMP JUMPDEST PUSH0 PUSH0 PUSH0 PUSH0 PUSH1 0x80 DUP6 DUP8 SUB SLT ISZERO PUSH2 0x85F JUMPI PUSH2 0x85E PUSH2 0x5D2 JUMP JUMPDEST JUMPDEST PUSH0 PUSH2 0x86C DUP8 DUP3 DUP9 ADD PUSH2 0x5F9 JUMP JUMPDEST SWAP5 POP POP PUSH1 0x20 DUP6 ADD CALLDATALOAD PUSH8 0xFFFFFFFFFFFFFFFF DUP2 GT ISZERO PUSH2 0x88D JUMPI PUSH2 0x88C PUSH2 0x5D6 JUMP JUMPDEST JUMPDEST PUSH2 0x899 DUP8 DUP3 DUP9 ADD PUSH2 0x81A JUMP JUMPDEST SWAP4 POP POP PUSH1 0x40 PUSH2 0x8AA DUP8 DUP3 DUP9 ADD PUSH2 0x5F9 JUMP JUMPDEST SWAP3 POP POP PUSH1 0x60 PUSH2 0x8BB DUP8 DUP3 DUP9 ADD PUSH2 0x5F9 JUMP JUMPDEST SWAP2 POP POP SWAP3 SWAP6 SWAP2 SWAP5 POP SWAP3 POP JUMP JUMPDEST PUSH0 PUSH20 0xFFFFFFFFFFFFFFFFFFFFFFFFFFFFFFFFFFFFFFFF DUP3 AND SWAP1 POP SWAP2 SWAP1 POP JUMP JUMPDEST PUSH0 PUSH2 0x8F0 DUP3 PUSH2 0x8C7 JUMP JUMPDEST SWAP1 POP SWAP2 SWAP1 POP JUMP JUMPDEST PUSH2 0x900 DUP2 PUSH2 0x8E6 JUMP JUMPDEST DUP2 EQ PUSH2 0x90A JUMPI PUSH0 PUSH0 REVERT JUMPDEST POP JUMP JUMPDEST PUSH0 DUP2 CALLDATALOAD SWAP1 POP PUSH2 0x91B DUP2 PUSH2 0x8F7 JUMP JUMPDEST SWAP3 SWAP2 POP POP JUMP JUMPDEST PUSH0 PUSH1 0x20 DUP3 DUP5 SUB SLT ISZERO PUSH2 0x936 JUMPI PUSH2 0x935 PUSH2 0x5D2 JUMP JUMPDEST JUMPDEST PUSH0 PUSH2 0x943 DUP5 DUP3 DUP6 ADD PUSH2 0x90D JUMP JUMPDEST SWAP2 POP POP SWAP3 SWAP2 POP POP JUMP JUMPDEST PUSH0 PUSH1 0x60 DUP3 ADD SWAP1 POP DUP2 DUP2 SUB PUSH0 DUP4 ADD MSTORE PUSH2 0x964 DUP2 DUP7 PUSH2 0x670 JUMP JUMPDEST SWAP1 POP PUSH2 0x973 PUSH1 0x20 DUP4 ADD DUP6 PUSH2 0x6A8 JUMP JUMPDEST PUSH2 0x980 PUSH1 0x40 DUP4 ADD DUP5 PUSH2 0x6A8 JUMP JUMPDEST SWAP5 SWAP4 POP POP POP POP JUMP JUMPDEST PUSH2 0x991 DUP2 PUSH2 0x8E6 JUMP JUMPDEST DUP3 MSTORE POP POP JUMP JUMPDEST PUSH0 PUSH1 0x20 DUP3 ADD SWAP1 POP PUSH2 0x9AA PUSH0 DUP4 ADD DUP5 PUSH2 0x988 JUMP JUMPDEST SWAP3 SWAP2 POP POP JUMP JUMPDEST PUSH32 0x4E487B7100000000000000000000000000000000000000000000000000000000 PUSH0 MSTORE PUSH1 0x22 PUSH1 0x4 MSTORE PUSH1 0x24 PUSH0 REVERT JUMPDEST PUSH0 PUSH1 0x2 DUP3 DIV SWAP1 POP PUSH1 0x1 DUP3 AND DUP1 PUSH2 0x9F4 JUMPI PUSH1 0x7F DUP3 AND SWAP2 POP JUMPDEST PUSH1 0x20 DUP3 LT DUP2 SUB PUSH2 0xA07 JUMPI PUSH2 0xA06 PUSH2 0x9B0 JUMP JUMPDEST JUMPDEST POP SWAP2 SWAP1 POP JUMP JUMPDEST PUSH32 0x5065726D697373696F6E2064656E6965643A204F6E6C79207468652074656163 PUSH0 DUP3 ADD MSTORE PUSH32 0x6865722063616E20706572666F726D207468697320616374696F6E2E00000000 PUSH1 0x20 DUP3 ADD MSTORE POP JUMP JUMPDEST PUSH0 PUSH2 0xA67 PUSH1 0x3C DUP4 PUSH2 0x642 JUMP JUMPDEST SWAP2 POP PUSH2 0xA72 DUP3 PUSH2 0xA0D JUMP JUMPDEST PUSH1 0x40 DUP3 ADD SWAP1 POP SWAP2 SWAP1 POP JUMP JUMPDEST PUSH0 PUSH1 0x20 DUP3 ADD SWAP1 POP DUP2 DUP2 SUB PUSH0 DUP4 ADD MSTORE PUSH2 0xA94 DUP2 PUSH2 0xA5B JUMP JUMPDEST SWAP1 POP SWAP2 SWAP1 POP JUMP JUMPDEST PUSH32 0x53747564656E74204944206D7573742062652067726561746572207468616E20 PUSH0 DUP3 ADD MSTORE PUSH32 0x7A65726F2E000000000000000000000000000000000000000000000000000000 PUSH1 0x20 DUP3 ADD MSTORE POP JUMP JUMPDEST PUSH0 PUSH2 0xAF5 PUSH1 0x25 DUP4 PUSH2 0x642 JUMP JUMPDEST SWAP2 POP PUSH2 0xB00 DUP3 PUSH2 0xA9B JUMP JUMPDEST PUSH1 0x40 DUP3 ADD SWAP1 POP SWAP2 SWAP1 POP JUMP JUMPDEST PUSH0 PUSH1 0x20 DUP3 ADD SWAP1 POP DUP2 DUP2 SUB PUSH0 DUP4 ADD MSTORE PUSH2 0xB22 DUP2 PUSH2 0xAE9 JUMP JUMPDEST SWAP1 POP SWAP2 SWAP1 POP JUMP JUMPDEST PUSH0 DUP2 SWAP1 POP DUP2 PUSH0 MSTORE PUSH1 0x20 PUSH0 KECCAK256 SWAP1 POP SWAP2 SWAP1 POP JUMP JUMPDEST PUSH0 PUSH1 0x20 PUSH1 0x1F DUP4 ADD DIV SWAP1 POP SWAP2 SWAP1 POP JUMP JUMPDEST PUSH0 DUP3 DUP3 SHL SWAP1 POP SWAP3 SWAP2 POP POP JUMP JUMPDEST PUSH0 PUSH1 0x8 DUP4 MUL PUSH2 0xB85 PUSH32 0xFFFFFFFFFFFFFFFFFFFFFFFFFFFFFFFFFFFFFFFFFFFFFFFFFFFFFFFFFFFFFFFF DUP3 PUSH2 0xB4A JUMP JUMPDEST PUSH2 0xB8F DUP7 DUP4 PUSH2 0xB4A JUMP JUMPDEST SWAP6 POP DUP1 NOT DUP5 AND SWAP4 POP DUP1 DUP7 AND DUP5 OR SWAP3 POP POP POP SWAP4 SWAP3 POP POP POP JUMP JUMPDEST PUSH0 DUP2 SWAP1 POP SWAP2 SWAP1 POP JUMP JUMPDEST PUSH0 PUSH2 0xBCA PUSH2 0xBC5 PUSH2 0xBC0 DUP5 PUSH2 0x5DA JUMP JUMPDEST PUSH2 0xBA7 JUMP JUMPDEST PUSH2 0x5DA JUMP JUMPDEST SWAP1 POP SWAP2 SWAP1 POP JUMP JUMPDEST PUSH0 DUP2 SWAP1 POP SWAP2 SWAP1 POP JUMP JUMPDEST PUSH2 0xBE3 DUP4 PUSH2 0xBB0 JUMP JUMPDEST PUSH2 0xBF7 PUSH2 0xBEF DUP3 PUSH2 0xBD1 JUMP JUMPDEST DUP5 DUP5 SLOAD PUSH2 0xB56 JUMP JUMPDEST DUP3 SSTORE POP POP POP POP JUMP JUMPDEST PUSH0 PUSH0 SWAP1 POP SWAP1 JUMP JUMPDEST PUSH2 0xC0E PUSH2 0xBFF JUMP JUMPDEST PUSH2 0xC19 DUP2 DUP5 DUP5 PUSH2 0xBDA JUMP JUMPDEST POP POP POP JUMP JUMPDEST JUMPDEST DUP2 DUP2 LT ISZERO PUSH2 0xC3C JUMPI PUSH2 0xC31 PUSH0 DUP3 PUSH2 0xC06 JUMP JUMPDEST PUSH1 0x1 DUP2 ADD SWAP1 POP PUSH2 0xC1F JUMP JUMPDEST POP POP JUMP JUMPDEST PUSH1 0x1F DUP3 GT ISZERO PUSH2 0xC81 JUMPI PUSH2 0xC52 DUP2 PUSH2 0xB29 JUMP JUMPDEST PUSH2 0xC5B DUP5 PUSH2 0xB3B JUMP JUMPDEST DUP2 ADD PUSH1 0x20 DUP6 LT ISZERO PUSH2 0xC6A JUMPI DUP2 SWAP1 POP JUMPDEST PUSH2 0xC7E PUSH2 0xC76 DUP6 PUSH2 0xB3B JUMP JUMPDEST DUP4 ADD DUP3 PUSH2 0xC1E JUMP JUMPDEST POP POP JUMPDEST POP POP POP JUMP JUMPDEST PUSH0 DUP3 DUP3 SHR SWAP1 POP SWAP3 SWAP2 POP POP JUMP JUMPDEST PUSH0 PUSH2 0xCA1 PUSH0 NOT DUP5 PUSH1 0x8 MUL PUSH2 0xC86 JUMP JUMPDEST NOT DUP1 DUP4 AND SWAP2 POP POP SWAP3 SWAP2 POP POP JUMP JUMPDEST PUSH0 PUSH2 0xCB9 DUP4 DUP4 PUSH2 0xC92 JUMP JUMPDEST SWAP2 POP DUP3 PUSH1 0x2 MUL DUP3 OR SWAP1 POP SWAP3 SWAP2 POP POP JUMP JUMPDEST PUSH2 0xCD2 DUP3 PUSH2 0x638 JUMP JUMPDEST PUSH8 0xFFFFFFFFFFFFFFFF DUP2 GT ISZERO PUSH2 0xCEB JUMPI PUSH2 0xCEA PUSH2 0x723 JUMP JUMPDEST JUMPDEST PUSH2 0xCF5 DUP3 SLOAD PUSH2 0x9DD JUMP JUMPDEST PUSH2 0xD00 DUP3 DUP3 DUP6 PUSH2 0xC40 JUMP JUMPDEST PUSH0 PUSH1 0x20 SWAP1 POP PUSH1 0x1F DUP4 GT PUSH1 0x1 DUP2 EQ PUSH2 0xD31 JUMPI PUSH0 DUP5 ISZERO PUSH2 0xD1F JUMPI DUP3 DUP8 ADD MLOAD SWAP1 POP JUMPDEST PUSH2 0xD29 DUP6 DUP3 PUSH2 0xCAE JUMP JUMPDEST DUP7 SSTORE POP PUSH2 0xD90 JUMP JUMPDEST PUSH1 0x1F NOT DUP5 AND PUSH2 0xD3F DUP7 PUSH2 0xB29 JUMP JUMPDEST PUSH0 JUMPDEST DUP3 DUP2 LT ISZERO PUSH2 0xD66 JUMPI DUP5 DUP10 ADD MLOAD DUP3 SSTORE PUSH1 0x1 DUP3 ADD SWAP2 POP PUSH1 0x20 DUP6 ADD SWAP5 POP PUSH1 0x20 DUP2 ADD SWAP1 POP PUSH2 0xD41 JUMP JUMPDEST DUP7 DUP4 LT ISZERO PUSH2 0xD83 JUMPI DUP5 DUP10 ADD MLOAD PUSH2 0xD7F PUSH1 0x1F DUP10 AND DUP3 PUSH2 0xC92 JUMP JUMPDEST DUP4 SSTORE POP JUMPDEST PUSH1 0x1 PUSH1 0x2 DUP9 MUL ADD DUP9 SSTORE POP POP POP JUMPDEST POP POP POP POP POP POP JUMP JUMPDEST PUSH32 0x4E6577207465616368657220616464726573732063616E6E6F74206265207A65 PUSH0 DUP3 ADD MSTORE PUSH32 0x726F2E0000000000000000000000000000000000000000000000000000000000 PUSH1 0x20 DUP3 ADD MSTORE POP JUMP JUMPDEST PUSH0 PUSH2 0xDF2 PUSH1 0x23 DUP4 PUSH2 0x642 JUMP JUMPDEST SWAP2 POP PUSH2 0xDFD DUP3 PUSH2 0xD98 JUMP JUMPDEST PUSH1 0x40 DUP3 ADD SWAP1 POP SWAP2 SWAP1 POP JUMP JUMPDEST PUSH0 PUSH1 0x20 DUP3 ADD SWAP1 POP DUP2 DUP2 SUB PUSH0 DUP4 ADD MSTORE PUSH2 0xE1F DUP2 PUSH2 0xDE6 JUMP JUMPDEST SWAP1 POP SWAP2 SWAP1 POP JUMP JUMPDEST PUSH32 0x53747564656E742077697468207468697320494420646F6573206E6F74206578 PUSH0 DUP3 ADD MSTORE PUSH32 0x6973742E00000000000000000000000000000000000000000000000000000000 PUSH1 0x20 DUP3 ADD MSTORE POP JUMP JUMPDEST PUSH0 PUSH2 0xE80 PUSH1 0x24 DUP4 PUSH2 0x642 JUMP JUMPDEST SWAP2 POP PUSH2 0xE8B DUP3 PUSH2 0xE26 JUMP JUMPDEST PUSH1 0x40 DUP3 ADD SWAP1 POP SWAP2 SWAP1 POP JUMP JUMPDEST PUSH0 PUSH1 0x20 DUP3 ADD SWAP1 POP DUP2 DUP2 SUB PUSH0 DUP4 ADD MSTORE PUSH2 0xEAD DUP2 PUSH2 0xE74 JUMP JUMPDEST SWAP1 POP SWAP2 SWAP1 POP JUMP INVALID LOG2 PUSH5 0x6970667358 0x22 SLT KECCAK256 CALLDATACOPY COINBASE 0xB1 SWAP4 0xBA LOG2 0xD6 PUSH11 0x44562E766426053430F34E 0xC 0x2A 0xC 0x2E CALLDATACOPY DUP13 SELFBALANCE TSTORE RETF 0xE ADDMOD 0xC0 0xD7 PUSH5 0x736F6C6343 STOP ADDMOD 0x1E STOP CALLER "
				},
				"gasEstimates": {
					"creation": {
						"codeDepositCost": "763600",
						"executionCost": "25061",
						"totalCost": "788661"
					},
					"external": {
						"addOrEditStudent(uint256,string,uint256,uint256)": "infinite",
						"getStudentDetails(uint256)": "infinite",
						"students(uint256)": "infinite",
						"teacherAddress()": "2573",
						"transferTeacherRole(address)": "26938"
					}
				},
				"methodIdentifiers": {
					"addOrEditStudent(uint256,string,uint256,uint256)": "22da2d9a",
					"getStudentDetails(uint256)": "86a9b364",
					"students(uint256)": "06ead22e",
					"teacherAddress()": "9c28fdf8",
					"transferTeacherRole(address)": "5f92040a"
				}
			},
			"storageLayout": {
				"storage": [
					{
						"astId": 3,
						"contract": "contracts/LabCycle/Assignment5/StudentInfo.sol:StudentRegistry",
						"label": "teacherAddress",
						"offset": 0,
						"slot": "0",
						"type": "t_address"
					},
					{
						"astId": 17,
						"contract": "contracts/LabCycle/Assignment5/StudentInfo.sol:StudentRegistry",
						"label": "students",
						"offset": 0,
						"slot": "1",
						"type": "t_mapping(t_uint256,t_struct(Student)12_storage)"
					}
				],
				"types": {
					"t_address": {
						"encoding": "inplace",
						"label": "address",
						"numberOfBytes": "20"
					},
					"t_bool": {
						"encoding": "inplace",
						"label": "bool",
						"numberOfBytes": "1"
					},
					"t_mapping(t_uint256,t_struct(Student)12_storage)": {
						"encoding": "mapping",
						"key": "t_uint256",
						"label": "mapping(uint256 => struct StudentRegistry.Student)",
						"numberOfBytes": "32",
						"value": "t_struct(Student)12_storage"
					},
					"t_string_storage": {
						"encoding": "bytes",
						"label": "string",
						"numberOfBytes": "32"
					},
					"t_struct(Student)12_storage": {
						"encoding": "inplace",
						"label": "struct StudentRegistry.Student",
						"members": [
							{
								"astId": 5,
								"contract": "contracts/LabCycle/Assignment5/StudentInfo.sol:StudentRegistry",
								"label": "name",
								"offset": 0,
								"slot": "0",
								"type": "t_string_storage"
							},
							{
								"astId": 7,
								"contract": "contracts/LabCycle/Assignment5/StudentInfo.sol:StudentRegistry",
								"label": "age",
								"offset": 0,
								"slot": "1",
								"type": "t_uint256"
							},
							{
								"astId": 9,
								"contract": "contracts/LabCycle/Assignment5/StudentInfo.sol:StudentRegistry",
								"label": "studentClass",
								"offset": 0,
								"slot": "2",
								"type": "t_uint256"
							},
							{
								"astId": 11,
								"contract": "contracts/LabCycle/Assignment5/StudentInfo.sol:StudentRegistry",
								"label": "exists",
								"offset": 0,
								"slot": "3",
								"type": "t_bool"
							}
						],
						"numberOfBytes": "128"
					},
					"t_uint256": {
						"encoding": "inplace",
						"label": "uint256",
						"numberOfBytes": "32"
					}
				}
			},
			"userdoc": {
				"kind": "user",
				"methods": {},
				"version": 1
			}
		}
	}
}