{
	"contracts/LabCycle/ArraysExample.sol": {
		"ArraysExample": {
			"abi": [
				{
					"inputs": [
						{
							"internalType": "uint256",
							"name": "",
							"type": "uint256"
						}
					],
					"name": "arr",
					"outputs": [
						{
							"internalType": "uint8",
							"name": "",
							"type": "uint8"
						}
					],
					"stateMutability": "view",
					"type": "function"
				},
				{
					"inputs": [
						{
							"internalType": "uint256",
							"name": "",
							"type": "uint256"
						}
					],
					"name": "arr1",
					"outputs": [
						{
							"internalType": "uint256",
							"name": "",
							"type": "uint256"
						}
					],
					"stateMutability": "view",
					"type": "function"
				},
				{
					"inputs": [],
					"name": "deleteElements",
					"outputs": [],
					"stateMutability": "nonpayable",
					"type": "function"
				},
				{
					"inputs": [],
					"name": "getDynamicArrValues",
					"outputs": [
						{
							"internalType": "uint256[]",
							"name": "",
							"type": "uint256[]"
						}
					],
					"stateMutability": "view",
					"type": "function"
				},
				{
					"inputs": [],
					"name": "getFixedArrayValues",
					"outputs": [
						{
							"internalType": "uint8[4]",
							"name": "",
							"type": "uint8[4]"
						}
					],
					"stateMutability": "view",
					"type": "function"
				},
				{
					"inputs": [],
					"name": "getLength",
					"outputs": [
						{
							"internalType": "uint256",
							"name": "",
							"type": "uint256"
						}
					],
					"stateMutability": "view",
					"type": "function"
				},
				{
					"inputs": [
						{
							"internalType": "uint256",
							"name": "i",
							"type": "uint256"
						}
					],
					"name": "insertEle",
					"outputs": [],
					"stateMutability": "nonpayable",
					"type": "function"
				}
			],
			"devdoc": {
				"kind": "dev",
				"methods": {},
				"version": 1
			},
			"evm": {
				"assembly": "    /* \"contracts/LabCycle/ArraysExample.sol\":64:613  contract ArraysExample{... */\n  mstore(0x40, 0x80)\n    /* \"contracts/LabCycle/ArraysExample.sol\":93:124  uint8[4] public arr = [1,2,3,4] */\n  mload(0x40)\n  dup1\n  0x80\n  add\n  0x40\n  mstore\n  dup1\n    /* \"contracts/LabCycle/ArraysExample.sol\":116:117  1 */\n  0x01\n    /* \"contracts/LabCycle/ArraysExample.sol\":93:124  uint8[4] public arr = [1,2,3,4] */\n  0xff\n  and\n  dup2\n  mstore\n  0x20\n  add\n    /* \"contracts/LabCycle/ArraysExample.sol\":118:119  2 */\n  0x02\n    /* \"contracts/LabCycle/ArraysExample.sol\":93:124  uint8[4] public arr = [1,2,3,4] */\n  0xff\n  and\n  dup2\n  mstore\n  0x20\n  add\n    /* \"contracts/LabCycle/ArraysExample.sol\":120:121  3 */\n  0x03\n    /* \"contracts/LabCycle/ArraysExample.sol\":93:124  uint8[4] public arr = [1,2,3,4] */\n  0xff\n  and\n  dup2\n  mstore\n  0x20\n  add\n    /* \"contracts/LabCycle/ArraysExample.sol\":122:123  4 */\n  0x04\n    /* \"contracts/LabCycle/ArraysExample.sol\":93:124  uint8[4] public arr = [1,2,3,4] */\n  0xff\n  and\n  dup2\n  mstore\n  pop\n  0x00\n  swap1\n  0x04\n  tag_1\n  swap3\n  swap2\n  swap1\n  tag_2\n  jump\t// in\ntag_1:\n  pop\n    /* \"contracts/LabCycle/ArraysExample.sol\":64:613  contract ArraysExample{... */\n  callvalue\n  dup1\n  iszero\n  tag_3\n  jumpi\n  revert(0x00, 0x00)\ntag_3:\n  pop\n  jump(tag_4)\ntag_2:\n  dup3\n  add(0x1f, 0x04)\n  0x20\n  swap1\n  div\n  dup2\n  add\n  swap3\n  dup3\n  iszero\n  tag_5\n  jumpi\n  swap2\n  0x20\n  mul\n  dup3\n  add\n  0x00\ntag_6:\n  dup4\n  dup3\n  gt\n  iszero\n  tag_7\n  jumpi\n  dup4\n  mload\n  dup4\n  dup3\n  0x0100\n  exp\n  dup2\n  sload\n  dup2\n  0xff\n  mul\n  not\n  and\n  swap1\n  dup4\n  0xff\n  and\n  mul\n  or\n  swap1\n  sstore\n  pop\n  swap3\n  0x20\n  add\n  swap3\n  0x01\n  add\n  0x20\n  dup2\n  0x00\n  add\n  div\n  swap3\n  dup4\n  add\n  swap3\n  0x01\n  sub\n  mul\n  jump(tag_6)\ntag_7:\n  dup1\n  iszero\n  tag_8\n  jumpi\n  dup3\n  dup2\n  0x0100\n  exp\n  dup2\n  sload\n  swap1\n  0xff\n  mul\n  not\n  and\n  swap1\n  sstore\n  0x01\n  add\n  0x20\n  dup2\n  0x00\n  add\n  div\n  swap3\n  dup4\n  add\n  swap3\n  0x01\n  sub\n  mul\n  jump(tag_7)\ntag_8:\n  pop\ntag_5:\n  pop\n  swap1\n  pop\n  tag_9\n  swap2\n  swap1\n  tag_10\n  jump\t// in\ntag_9:\n  pop\n  swap1\n  jump\t// out\ntag_10:\ntag_11:\n  dup1\n  dup3\n  gt\n  iszero\n  tag_12\n  jumpi\n  0x00\n  dup2\n  0x00\n  swap1\n  sstore\n  pop\n  0x01\n  add\n  jump(tag_11)\ntag_12:\n  pop\n  swap1\n  jump\t// out\ntag_4:\n  dataSize(sub_0)\n  dup1\n  dataOffset(sub_0)\n  0x00\n  codecopy\n  0x00\n  return\nstop\n\nsub_0: assembly {\n        /* \"contracts/LabCycle/ArraysExample.sol\":64:613  contract ArraysExample{... */\n      mstore(0x40, 0x80)\n      callvalue\n      dup1\n      iszero\n      tag_1\n      jumpi\n      revert(0x00, 0x00)\n    tag_1:\n      pop\n      jumpi(tag_2, lt(calldatasize, 0x04))\n      shr(0xe0, calldataload(0x00))\n      dup1\n      0x71e5ee5f\n      gt\n      tag_10\n      jumpi\n      dup1\n      0x71e5ee5f\n      eq\n      tag_6\n      jumpi\n      dup1\n      0xbe1c766b\n      eq\n      tag_7\n      jumpi\n      dup1\n      0xcff724fd\n      eq\n      tag_8\n      jumpi\n      dup1\n      0xe447acb1\n      eq\n      tag_9\n      jumpi\n      jump(tag_2)\n    tag_10:\n      dup1\n      0x5f885e97\n      eq\n      tag_3\n      jumpi\n      dup1\n      0x6987b1fb\n      eq\n      tag_4\n      jumpi\n      dup1\n      0x6b931acb\n      eq\n      tag_5\n      jumpi\n    tag_2:\n      revert(0x00, 0x00)\n        /* \"contracts/LabCycle/ArraysExample.sol\":373:436  function insertEle(uint i)public{... */\n    tag_3:\n      tag_11\n      0x04\n      dup1\n      calldatasize\n      sub\n      dup2\n      add\n      swap1\n      tag_12\n      swap2\n      swap1\n      tag_13\n      jump\t// in\n    tag_12:\n      tag_14\n      jump\t// in\n    tag_11:\n      stop\n        /* \"contracts/LabCycle/ArraysExample.sol\":131:149  uint[] public arr1 */\n    tag_4:\n      tag_15\n      0x04\n      dup1\n      calldatasize\n      sub\n      dup2\n      add\n      swap1\n      tag_16\n      swap2\n      swap1\n      tag_13\n      jump\t// in\n    tag_16:\n      tag_17\n      jump\t// in\n    tag_15:\n      mload(0x40)\n      tag_18\n      swap2\n      swap1\n      tag_19\n      jump\t// in\n    tag_18:\n      mload(0x40)\n      dup1\n      swap2\n      sub\n      swap1\n      return\n        /* \"contracts/LabCycle/ArraysExample.sol\":444:505  function deleteElements() public{... */\n    tag_5:\n      tag_20\n      tag_21\n      jump\t// in\n    tag_20:\n      stop\n        /* \"contracts/LabCycle/ArraysExample.sol\":93:124  uint8[4] public arr = [1,2,3,4] */\n    tag_6:\n      tag_22\n      0x04\n      dup1\n      calldatasize\n      sub\n      dup2\n      add\n      swap1\n      tag_23\n      swap2\n      swap1\n      tag_13\n      jump\t// in\n    tag_23:\n      tag_24\n      jump\t// in\n    tag_22:\n      mload(0x40)\n      tag_25\n      swap2\n      swap1\n      tag_26\n      jump\t// in\n    tag_25:\n      mload(0x40)\n      dup1\n      swap2\n      sub\n      swap1\n      return\n        /* \"contracts/LabCycle/ArraysExample.sol\":262:365  function getLength() public view returns(uint){... */\n    tag_7:\n      tag_27\n      tag_28\n      jump\t// in\n    tag_27:\n      mload(0x40)\n      tag_29\n      swap2\n      swap1\n      tag_19\n      jump\t// in\n    tag_29:\n      mload(0x40)\n      dup1\n      swap2\n      sub\n      swap1\n      return\n        /* \"contracts/LabCycle/ArraysExample.sol\":159:254  function getFixedArrayValues()public view returns(uint8[4] memory){... */\n    tag_8:\n      tag_30\n      tag_31\n      jump\t// in\n    tag_30:\n      mload(0x40)\n      tag_32\n      swap2\n      swap1\n      tag_33\n      jump\t// in\n    tag_32:\n      mload(0x40)\n      dup1\n      swap2\n      sub\n      swap1\n      return\n        /* \"contracts/LabCycle/ArraysExample.sol\":513:608  function getDynamicArrValues() public view returns(uint[] memory){... */\n    tag_9:\n      tag_34\n      tag_35\n      jump\t// in\n    tag_34:\n      mload(0x40)\n      tag_36\n      swap2\n      swap1\n      tag_37\n      jump\t// in\n    tag_36:\n      mload(0x40)\n      dup1\n      swap2\n      sub\n      swap1\n      return\n        /* \"contracts/LabCycle/ArraysExample.sol\":373:436  function insertEle(uint i)public{... */\n    tag_14:\n        /* \"contracts/LabCycle/ArraysExample.sol\":416:420  arr1 */\n      0x01\n        /* \"contracts/LabCycle/ArraysExample.sol\":426:427  i */\n      dup2\n        /* \"contracts/LabCycle/ArraysExample.sol\":416:428  arr1.push(i) */\n      swap1\n      dup1\n      0x01\n      dup2\n      sload\n      add\n      dup1\n      dup3\n      sstore\n      dup1\n      swap2\n      pop\n      pop\n      0x01\n      swap1\n      sub\n      swap1\n      0x00\n      mstore\n      keccak256(0x00, 0x20)\n      add\n      0x00\n      swap1\n      swap2\n      swap1\n      swap2\n      swap1\n      swap2\n      pop\n      sstore\n        /* \"contracts/LabCycle/ArraysExample.sol\":373:436  function insertEle(uint i)public{... */\n      pop\n      jump\t// out\n        /* \"contracts/LabCycle/ArraysExample.sol\":131:149  uint[] public arr1 */\n    tag_17:\n      0x01\n      dup2\n      dup2\n      sload\n      dup2\n      lt\n      tag_40\n      jumpi\n      0x00\n      dup1\n      revert\n    tag_40:\n      swap1\n      0x00\n      mstore\n      keccak256(0x00, 0x20)\n      add\n      0x00\n      swap2\n      pop\n      swap1\n      pop\n      sload\n      dup2\n      jump\t// out\n        /* \"contracts/LabCycle/ArraysExample.sol\":444:505  function deleteElements() public{... */\n    tag_21:\n        /* \"contracts/LabCycle/ArraysExample.sol\":487:491  arr1 */\n      0x01\n        /* \"contracts/LabCycle/ArraysExample.sol\":487:497  arr1.pop() */\n      dup1\n      sload\n      dup1\n      tag_43\n      jumpi\n      tag_44\n      tag_45\n      jump\t// in\n    tag_44:\n    tag_43:\n      0x01\n      swap1\n      sub\n      dup2\n      dup2\n      swap1\n      0x00\n      mstore\n      keccak256(0x00, 0x20)\n      add\n      0x00\n      swap1\n      sstore\n      swap1\n      sstore\n        /* \"contracts/LabCycle/ArraysExample.sol\":444:505  function deleteElements() public{... */\n      jump\t// out\n        /* \"contracts/LabCycle/ArraysExample.sol\":93:124  uint8[4] public arr = [1,2,3,4] */\n    tag_24:\n      0x00\n      dup2\n      0x04\n      dup2\n      lt\n      tag_47\n      jumpi\n      0x00\n      dup1\n      revert\n    tag_47:\n      0x20\n      swap2\n      dup3\n      dup3\n      div\n      add\n      swap2\n      swap1\n      mod\n      swap2\n      pop\n      sload\n      swap1\n      0x0100\n      exp\n      swap1\n      div\n      0xff\n      and\n      dup2\n      jump\t// out\n        /* \"contracts/LabCycle/ArraysExample.sol\":262:365  function getLength() public view returns(uint){... */\n    tag_28:\n        /* \"contracts/LabCycle/ArraysExample.sol\":303:307  uint */\n      0x00\n        /* \"contracts/LabCycle/ArraysExample.sol\":319:325  uint c */\n      0x00\n        /* \"contracts/LabCycle/ArraysExample.sol\":328:338  arr.length */\n      0x04\n        /* \"contracts/LabCycle/ArraysExample.sol\":319:338  uint c = arr.length */\n      swap1\n      pop\n        /* \"contracts/LabCycle/ArraysExample.sol\":356:357  c */\n      dup1\n        /* \"contracts/LabCycle/ArraysExample.sol\":349:357  return c */\n      swap2\n      pop\n      pop\n        /* \"contracts/LabCycle/ArraysExample.sol\":262:365  function getLength() public view returns(uint){... */\n      swap1\n      jump\t// out\n        /* \"contracts/LabCycle/ArraysExample.sol\":159:254  function getFixedArrayValues()public view returns(uint8[4] memory){... */\n    tag_31:\n        /* \"contracts/LabCycle/ArraysExample.sol\":209:224  uint8[4] memory */\n      tag_50\n      tag_51\n      jump\t// in\n    tag_50:\n        /* \"contracts/LabCycle/ArraysExample.sol\":243:246  arr */\n      0x00\n        /* \"contracts/LabCycle/ArraysExample.sol\":236:246  return arr */\n      0x04\n      dup1\n      0x20\n      mul\n      mload(0x40)\n      swap1\n      dup2\n      add\n      0x40\n      mstore\n      dup1\n      swap3\n      swap2\n      swap1\n      dup3\n      0x04\n      dup1\n      iszero\n      tag_53\n      jumpi\n      0x20\n      mul\n      dup3\n      add\n      swap2\n      0x00\n      swap1\n    tag_54:\n      dup3\n      dup3\n      swap1\n      sload\n      swap1\n      0x0100\n      exp\n      swap1\n      div\n      0xff\n      and\n      0xff\n      and\n      dup2\n      mstore\n      0x20\n      add\n      swap1\n      0x01\n      add\n      swap1\n      0x20\n      dup3\n      0x00\n      add\n      div\n      swap3\n      dup4\n      add\n      swap3\n      0x01\n      sub\n      dup3\n      mul\n      swap2\n      pop\n      dup1\n      dup5\n      gt\n      tag_54\n      jumpi\n      swap1\n      pop\n    tag_53:\n      pop\n      pop\n      pop\n      pop\n      pop\n      swap1\n      pop\n        /* \"contracts/LabCycle/ArraysExample.sol\":159:254  function getFixedArrayValues()public view returns(uint8[4] memory){... */\n      swap1\n      jump\t// out\n        /* \"contracts/LabCycle/ArraysExample.sol\":513:608  function getDynamicArrValues() public view returns(uint[] memory){... */\n    tag_35:\n        /* \"contracts/LabCycle/ArraysExample.sol\":564:577  uint[] memory */\n      0x60\n        /* \"contracts/LabCycle/ArraysExample.sol\":596:600  arr1 */\n      0x01\n        /* \"contracts/LabCycle/ArraysExample.sol\":589:600  return arr1 */\n      dup1\n      sload\n      dup1\n      0x20\n      mul\n      0x20\n      add\n      mload(0x40)\n      swap1\n      dup2\n      add\n      0x40\n      mstore\n      dup1\n      swap3\n      swap2\n      swap1\n      dup2\n      dup2\n      mstore\n      0x20\n      add\n      dup3\n      dup1\n      sload\n      dup1\n      iszero\n      tag_56\n      jumpi\n      0x20\n      mul\n      dup3\n      add\n      swap2\n      swap1\n      0x00\n      mstore\n      keccak256(0x00, 0x20)\n      swap1\n    tag_57:\n      dup2\n      sload\n      dup2\n      mstore\n      0x20\n      add\n      swap1\n      0x01\n      add\n      swap1\n      dup1\n      dup4\n      gt\n      tag_57\n      jumpi\n    tag_56:\n      pop\n      pop\n      pop\n      pop\n      pop\n      swap1\n      pop\n        /* \"contracts/LabCycle/ArraysExample.sol\":513:608  function getDynamicArrValues() public view returns(uint[] memory){... */\n      swap1\n      jump\t// out\n    tag_51:\n      mload(0x40)\n      dup1\n      0x80\n      add\n      0x40\n      mstore\n      dup1\n      0x04\n      swap1\n      0x20\n      dup3\n      mul\n      dup1\n      calldatasize\n      dup4\n      calldatacopy\n      dup1\n      dup3\n      add\n      swap2\n      pop\n      pop\n      swap1\n      pop\n      pop\n      swap1\n      jump\t// out\n        /* \"#utility.yul\":88:205   */\n    tag_59:\n        /* \"#utility.yul\":197:198   */\n      0x00\n        /* \"#utility.yul\":194:195   */\n      0x00\n        /* \"#utility.yul\":187:199   */\n      revert\n        /* \"#utility.yul\":334:411   */\n    tag_61:\n        /* \"#utility.yul\":371:378   */\n      0x00\n        /* \"#utility.yul\":400:405   */\n      dup2\n        /* \"#utility.yul\":389:405   */\n      swap1\n      pop\n        /* \"#utility.yul\":334:411   */\n      swap2\n      swap1\n      pop\n      jump\t// out\n        /* \"#utility.yul\":417:539   */\n    tag_62:\n        /* \"#utility.yul\":490:514   */\n      tag_87\n        /* \"#utility.yul\":508:513   */\n      dup2\n        /* \"#utility.yul\":490:514   */\n      tag_61\n      jump\t// in\n    tag_87:\n        /* \"#utility.yul\":483:488   */\n      dup2\n        /* \"#utility.yul\":480:515   */\n      eq\n        /* \"#utility.yul\":470:533   */\n      tag_88\n      jumpi\n        /* \"#utility.yul\":529:530   */\n      0x00\n        /* \"#utility.yul\":526:527   */\n      0x00\n        /* \"#utility.yul\":519:531   */\n      revert\n        /* \"#utility.yul\":470:533   */\n    tag_88:\n        /* \"#utility.yul\":417:539   */\n      pop\n      jump\t// out\n        /* \"#utility.yul\":545:684   */\n    tag_63:\n        /* \"#utility.yul\":591:596   */\n      0x00\n        /* \"#utility.yul\":629:635   */\n      dup2\n        /* \"#utility.yul\":616:636   */\n      calldataload\n        /* \"#utility.yul\":607:636   */\n      swap1\n      pop\n        /* \"#utility.yul\":645:678   */\n      tag_90\n        /* \"#utility.yul\":672:677   */\n      dup2\n        /* \"#utility.yul\":645:678   */\n      tag_62\n      jump\t// in\n    tag_90:\n        /* \"#utility.yul\":545:684   */\n      swap3\n      swap2\n      pop\n      pop\n      jump\t// out\n        /* \"#utility.yul\":690:1019   */\n    tag_13:\n        /* \"#utility.yul\":749:755   */\n      0x00\n        /* \"#utility.yul\":798:800   */\n      0x20\n        /* \"#utility.yul\":786:795   */\n      dup3\n        /* \"#utility.yul\":777:784   */\n      dup5\n        /* \"#utility.yul\":773:796   */\n      sub\n        /* \"#utility.yul\":769:801   */\n      slt\n        /* \"#utility.yul\":766:885   */\n      iszero\n      tag_92\n      jumpi\n        /* \"#utility.yul\":804:883   */\n      tag_93\n      tag_59\n      jump\t// in\n    tag_93:\n        /* \"#utility.yul\":766:885   */\n    tag_92:\n        /* \"#utility.yul\":924:925   */\n      0x00\n        /* \"#utility.yul\":949:1002   */\n      tag_94\n        /* \"#utility.yul\":994:1001   */\n      dup5\n        /* \"#utility.yul\":985:991   */\n      dup3\n        /* \"#utility.yul\":974:983   */\n      dup6\n        /* \"#utility.yul\":970:992   */\n      add\n        /* \"#utility.yul\":949:1002   */\n      tag_63\n      jump\t// in\n    tag_94:\n        /* \"#utility.yul\":939:1002   */\n      swap2\n      pop\n        /* \"#utility.yul\":895:1012   */\n      pop\n        /* \"#utility.yul\":690:1019   */\n      swap3\n      swap2\n      pop\n      pop\n      jump\t// out\n        /* \"#utility.yul\":1025:1143   */\n    tag_64:\n        /* \"#utility.yul\":1112:1136   */\n      tag_96\n        /* \"#utility.yul\":1130:1135   */\n      dup2\n        /* \"#utility.yul\":1112:1136   */\n      tag_61\n      jump\t// in\n    tag_96:\n        /* \"#utility.yul\":1107:1110   */\n      dup3\n        /* \"#utility.yul\":1100:1137   */\n      mstore\n        /* \"#utility.yul\":1025:1143   */\n      pop\n      pop\n      jump\t// out\n        /* \"#utility.yul\":1149:1371   */\n    tag_19:\n        /* \"#utility.yul\":1242:1246   */\n      0x00\n        /* \"#utility.yul\":1280:1282   */\n      0x20\n        /* \"#utility.yul\":1269:1278   */\n      dup3\n        /* \"#utility.yul\":1265:1283   */\n      add\n        /* \"#utility.yul\":1257:1283   */\n      swap1\n      pop\n        /* \"#utility.yul\":1293:1364   */\n      tag_98\n        /* \"#utility.yul\":1361:1362   */\n      0x00\n        /* \"#utility.yul\":1350:1359   */\n      dup4\n        /* \"#utility.yul\":1346:1363   */\n      add\n        /* \"#utility.yul\":1337:1343   */\n      dup5\n        /* \"#utility.yul\":1293:1364   */\n      tag_64\n      jump\t// in\n    tag_98:\n        /* \"#utility.yul\":1149:1371   */\n      swap3\n      swap2\n      pop\n      pop\n      jump\t// out\n        /* \"#utility.yul\":1377:1463   */\n    tag_65:\n        /* \"#utility.yul\":1412:1419   */\n      0x00\n        /* \"#utility.yul\":1452:1456   */\n      0xff\n        /* \"#utility.yul\":1445:1450   */\n      dup3\n        /* \"#utility.yul\":1441:1457   */\n      and\n        /* \"#utility.yul\":1430:1457   */\n      swap1\n      pop\n        /* \"#utility.yul\":1377:1463   */\n      swap2\n      swap1\n      pop\n      jump\t// out\n        /* \"#utility.yul\":1469:1581   */\n    tag_66:\n        /* \"#utility.yul\":1552:1574   */\n      tag_101\n        /* \"#utility.yul\":1568:1573   */\n      dup2\n        /* \"#utility.yul\":1552:1574   */\n      tag_65\n      jump\t// in\n    tag_101:\n        /* \"#utility.yul\":1547:1550   */\n      dup3\n        /* \"#utility.yul\":1540:1575   */\n      mstore\n        /* \"#utility.yul\":1469:1581   */\n      pop\n      pop\n      jump\t// out\n        /* \"#utility.yul\":1587:1801   */\n    tag_26:\n        /* \"#utility.yul\":1676:1680   */\n      0x00\n        /* \"#utility.yul\":1714:1716   */\n      0x20\n        /* \"#utility.yul\":1703:1712   */\n      dup3\n        /* \"#utility.yul\":1699:1717   */\n      add\n        /* \"#utility.yul\":1691:1717   */\n      swap1\n      pop\n        /* \"#utility.yul\":1727:1794   */\n      tag_103\n        /* \"#utility.yul\":1791:1792   */\n      0x00\n        /* \"#utility.yul\":1780:1789   */\n      dup4\n        /* \"#utility.yul\":1776:1793   */\n      add\n        /* \"#utility.yul\":1767:1773   */\n      dup5\n        /* \"#utility.yul\":1727:1794   */\n      tag_66\n      jump\t// in\n    tag_103:\n        /* \"#utility.yul\":1587:1801   */\n      swap3\n      swap2\n      pop\n      pop\n      jump\t// out\n        /* \"#utility.yul\":1807:1909   */\n    tag_67:\n        /* \"#utility.yul\":1870:1876   */\n      0x00\n        /* \"#utility.yul\":1898:1902   */\n      0x04\n        /* \"#utility.yul\":1888:1902   */\n      swap1\n      pop\n        /* \"#utility.yul\":1807:1909   */\n      swap2\n      swap1\n      pop\n      jump\t// out\n        /* \"#utility.yul\":1915:2056   */\n    tag_68:\n        /* \"#utility.yul\":2010:2021   */\n      0x00\n        /* \"#utility.yul\":2047:2050   */\n      dup2\n        /* \"#utility.yul\":2032:2050   */\n      swap1\n      pop\n        /* \"#utility.yul\":1915:2056   */\n      swap3\n      swap2\n      pop\n      pop\n      jump\t// out\n        /* \"#utility.yul\":2062:2158   */\n    tag_69:\n        /* \"#utility.yul\":2125:2129   */\n      0x00\n        /* \"#utility.yul\":2148:2151   */\n      dup2\n        /* \"#utility.yul\":2140:2151   */\n      swap1\n      pop\n        /* \"#utility.yul\":2062:2158   */\n      swap2\n      swap1\n      pop\n      jump\t// out\n        /* \"#utility.yul\":2164:2266   */\n    tag_70:\n        /* \"#utility.yul\":2237:2259   */\n      tag_108\n        /* \"#utility.yul\":2253:2258   */\n      dup2\n        /* \"#utility.yul\":2237:2259   */\n      tag_65\n      jump\t// in\n    tag_108:\n        /* \"#utility.yul\":2232:2235   */\n      dup3\n        /* \"#utility.yul\":2225:2260   */\n      mstore\n        /* \"#utility.yul\":2164:2266   */\n      pop\n      pop\n      jump\t// out\n        /* \"#utility.yul\":2272:2443   */\n    tag_71:\n        /* \"#utility.yul\":2337:2347   */\n      0x00\n        /* \"#utility.yul\":2358:2400   */\n      tag_110\n        /* \"#utility.yul\":2396:2399   */\n      dup4\n        /* \"#utility.yul\":2388:2394   */\n      dup4\n        /* \"#utility.yul\":2358:2400   */\n      tag_70\n      jump\t// in\n    tag_110:\n        /* \"#utility.yul\":2432:2436   */\n      0x20\n        /* \"#utility.yul\":2427:2430   */\n      dup4\n        /* \"#utility.yul\":2423:2437   */\n      add\n        /* \"#utility.yul\":2409:2437   */\n      swap1\n      pop\n        /* \"#utility.yul\":2272:2443   */\n      swap3\n      swap2\n      pop\n      pop\n      jump\t// out\n        /* \"#utility.yul\":2449:2558   */\n    tag_72:\n        /* \"#utility.yul\":2515:2519   */\n      0x00\n        /* \"#utility.yul\":2547:2551   */\n      0x20\n        /* \"#utility.yul\":2542:2545   */\n      dup3\n        /* \"#utility.yul\":2538:2552   */\n      add\n        /* \"#utility.yul\":2530:2552   */\n      swap1\n      pop\n        /* \"#utility.yul\":2449:2558   */\n      swap2\n      swap1\n      pop\n      jump\t// out\n        /* \"#utility.yul\":2592:3270   */\n    tag_73:\n        /* \"#utility.yul\":2724:2774   */\n      tag_113\n        /* \"#utility.yul\":2768:2773   */\n      dup2\n        /* \"#utility.yul\":2724:2774   */\n      tag_67\n      jump\t// in\n    tag_113:\n        /* \"#utility.yul\":2790:2872   */\n      tag_114\n        /* \"#utility.yul\":2865:2871   */\n      dup2\n        /* \"#utility.yul\":2860:2863   */\n      dup5\n        /* \"#utility.yul\":2790:2872   */\n      tag_68\n      jump\t// in\n    tag_114:\n        /* \"#utility.yul\":2783:2872   */\n      swap3\n      pop\n        /* \"#utility.yul\":2896:2948   */\n      tag_115\n        /* \"#utility.yul\":2942:2947   */\n      dup3\n        /* \"#utility.yul\":2896:2948   */\n      tag_69\n      jump\t// in\n    tag_115:\n        /* \"#utility.yul\":2971:2978   */\n      dup1\n        /* \"#utility.yul\":3002:3003   */\n      0x00\n        /* \"#utility.yul\":2987:3263   */\n    tag_116:\n        /* \"#utility.yul\":3012:3018   */\n      dup4\n        /* \"#utility.yul\":3009:3010   */\n      dup2\n        /* \"#utility.yul\":3006:3019   */\n      lt\n        /* \"#utility.yul\":2987:3263   */\n      iszero\n      tag_118\n      jumpi\n        /* \"#utility.yul\":3088:3094   */\n      dup2\n        /* \"#utility.yul\":3082:3095   */\n      mload\n        /* \"#utility.yul\":3115:3174   */\n      tag_119\n        /* \"#utility.yul\":3170:3173   */\n      dup8\n        /* \"#utility.yul\":3155:3168   */\n      dup3\n        /* \"#utility.yul\":3115:3174   */\n      tag_71\n      jump\t// in\n    tag_119:\n        /* \"#utility.yul\":3108:3174   */\n      swap7\n      pop\n        /* \"#utility.yul\":3197:3253   */\n      tag_120\n        /* \"#utility.yul\":3246:3252   */\n      dup4\n        /* \"#utility.yul\":3197:3253   */\n      tag_72\n      jump\t// in\n    tag_120:\n        /* \"#utility.yul\":3187:3253   */\n      swap3\n      pop\n        /* \"#utility.yul\":3047:3263   */\n      pop\n        /* \"#utility.yul\":3034:3035   */\n      0x01\n        /* \"#utility.yul\":3031:3032   */\n      dup2\n        /* \"#utility.yul\":3027:3036   */\n      add\n        /* \"#utility.yul\":3022:3036   */\n      swap1\n      pop\n        /* \"#utility.yul\":2987:3263   */\n      jump(tag_116)\n    tag_118:\n        /* \"#utility.yul\":2991:3005   */\n      pop\n        /* \"#utility.yul\":2700:3270   */\n      pop\n      pop\n      pop\n        /* \"#utility.yul\":2592:3270   */\n      pop\n      pop\n      jump\t// out\n        /* \"#utility.yul\":3276:3583   */\n    tag_33:\n        /* \"#utility.yul\":3411:3415   */\n      0x00\n        /* \"#utility.yul\":3449:3452   */\n      0x80\n        /* \"#utility.yul\":3438:3447   */\n      dup3\n        /* \"#utility.yul\":3434:3453   */\n      add\n        /* \"#utility.yul\":3426:3453   */\n      swap1\n      pop\n        /* \"#utility.yul\":3463:3576   */\n      tag_122\n        /* \"#utility.yul\":3573:3574   */\n      0x00\n        /* \"#utility.yul\":3562:3571   */\n      dup4\n        /* \"#utility.yul\":3558:3575   */\n      add\n        /* \"#utility.yul\":3549:3555   */\n      dup5\n        /* \"#utility.yul\":3463:3576   */\n      tag_73\n      jump\t// in\n    tag_122:\n        /* \"#utility.yul\":3276:3583   */\n      swap3\n      swap2\n      pop\n      pop\n      jump\t// out\n        /* \"#utility.yul\":3589:3703   */\n    tag_74:\n        /* \"#utility.yul\":3656:3662   */\n      0x00\n        /* \"#utility.yul\":3690:3695   */\n      dup2\n        /* \"#utility.yul\":3684:3696   */\n      mload\n        /* \"#utility.yul\":3674:3696   */\n      swap1\n      pop\n        /* \"#utility.yul\":3589:3703   */\n      swap2\n      swap1\n      pop\n      jump\t// out\n        /* \"#utility.yul\":3709:3893   */\n    tag_75:\n        /* \"#utility.yul\":3808:3819   */\n      0x00\n        /* \"#utility.yul\":3842:3848   */\n      dup3\n        /* \"#utility.yul\":3837:3840   */\n      dup3\n        /* \"#utility.yul\":3830:3849   */\n      mstore\n        /* \"#utility.yul\":3882:3886   */\n      0x20\n        /* \"#utility.yul\":3877:3880   */\n      dup3\n        /* \"#utility.yul\":3873:3887   */\n      add\n        /* \"#utility.yul\":3858:3887   */\n      swap1\n      pop\n        /* \"#utility.yul\":3709:3893   */\n      swap3\n      swap2\n      pop\n      pop\n      jump\t// out\n        /* \"#utility.yul\":3899:4031   */\n    tag_76:\n        /* \"#utility.yul\":3966:3970   */\n      0x00\n        /* \"#utility.yul\":3989:3992   */\n      dup2\n        /* \"#utility.yul\":3981:3992   */\n      swap1\n      pop\n        /* \"#utility.yul\":4019:4023   */\n      0x20\n        /* \"#utility.yul\":4014:4017   */\n      dup3\n        /* \"#utility.yul\":4010:4024   */\n      add\n        /* \"#utility.yul\":4002:4024   */\n      swap1\n      pop\n        /* \"#utility.yul\":3899:4031   */\n      swap2\n      swap1\n      pop\n      jump\t// out\n        /* \"#utility.yul\":4037:4145   */\n    tag_77:\n        /* \"#utility.yul\":4114:4138   */\n      tag_127\n        /* \"#utility.yul\":4132:4137   */\n      dup2\n        /* \"#utility.yul\":4114:4138   */\n      tag_61\n      jump\t// in\n    tag_127:\n        /* \"#utility.yul\":4109:4112   */\n      dup3\n        /* \"#utility.yul\":4102:4139   */\n      mstore\n        /* \"#utility.yul\":4037:4145   */\n      pop\n      pop\n      jump\t// out\n        /* \"#utility.yul\":4151:4330   */\n    tag_78:\n        /* \"#utility.yul\":4220:4230   */\n      0x00\n        /* \"#utility.yul\":4241:4287   */\n      tag_129\n        /* \"#utility.yul\":4283:4286   */\n      dup4\n        /* \"#utility.yul\":4275:4281   */\n      dup4\n        /* \"#utility.yul\":4241:4287   */\n      tag_77\n      jump\t// in\n    tag_129:\n        /* \"#utility.yul\":4319:4323   */\n      0x20\n        /* \"#utility.yul\":4314:4317   */\n      dup4\n        /* \"#utility.yul\":4310:4324   */\n      add\n        /* \"#utility.yul\":4296:4324   */\n      swap1\n      pop\n        /* \"#utility.yul\":4151:4330   */\n      swap3\n      swap2\n      pop\n      pop\n      jump\t// out\n        /* \"#utility.yul\":4336:4449   */\n    tag_79:\n        /* \"#utility.yul\":4406:4410   */\n      0x00\n        /* \"#utility.yul\":4438:4442   */\n      0x20\n        /* \"#utility.yul\":4433:4436   */\n      dup3\n        /* \"#utility.yul\":4429:4443   */\n      add\n        /* \"#utility.yul\":4421:4443   */\n      swap1\n      pop\n        /* \"#utility.yul\":4336:4449   */\n      swap2\n      swap1\n      pop\n      jump\t// out\n        /* \"#utility.yul\":4485:5217   */\n    tag_80:\n        /* \"#utility.yul\":4604:4607   */\n      0x00\n        /* \"#utility.yul\":4633:4687   */\n      tag_132\n        /* \"#utility.yul\":4681:4686   */\n      dup3\n        /* \"#utility.yul\":4633:4687   */\n      tag_74\n      jump\t// in\n    tag_132:\n        /* \"#utility.yul\":4703:4789   */\n      tag_133\n        /* \"#utility.yul\":4782:4788   */\n      dup2\n        /* \"#utility.yul\":4777:4780   */\n      dup6\n        /* \"#utility.yul\":4703:4789   */\n      tag_75\n      jump\t// in\n    tag_133:\n        /* \"#utility.yul\":4696:4789   */\n      swap4\n      pop\n        /* \"#utility.yul\":4813:4869   */\n      tag_134\n        /* \"#utility.yul\":4863:4868   */\n      dup4\n        /* \"#utility.yul\":4813:4869   */\n      tag_76\n      jump\t// in\n    tag_134:\n        /* \"#utility.yul\":4892:4899   */\n      dup1\n        /* \"#utility.yul\":4923:4924   */\n      0x00\n        /* \"#utility.yul\":4908:5192   */\n    tag_135:\n        /* \"#utility.yul\":4933:4939   */\n      dup4\n        /* \"#utility.yul\":4930:4931   */\n      dup2\n        /* \"#utility.yul\":4927:4940   */\n      lt\n        /* \"#utility.yul\":4908:5192   */\n      iszero\n      tag_137\n      jumpi\n        /* \"#utility.yul\":5009:5015   */\n      dup2\n        /* \"#utility.yul\":5003:5016   */\n      mload\n        /* \"#utility.yul\":5036:5099   */\n      tag_138\n        /* \"#utility.yul\":5095:5098   */\n      dup9\n        /* \"#utility.yul\":5080:5093   */\n      dup3\n        /* \"#utility.yul\":5036:5099   */\n      tag_78\n      jump\t// in\n    tag_138:\n        /* \"#utility.yul\":5029:5099   */\n      swap8\n      pop\n        /* \"#utility.yul\":5122:5182   */\n      tag_139\n        /* \"#utility.yul\":5175:5181   */\n      dup4\n        /* \"#utility.yul\":5122:5182   */\n      tag_79\n      jump\t// in\n    tag_139:\n        /* \"#utility.yul\":5112:5182   */\n      swap3\n      pop\n        /* \"#utility.yul\":4968:5192   */\n      pop\n        /* \"#utility.yul\":4955:4956   */\n      0x01\n        /* \"#utility.yul\":4952:4953   */\n      dup2\n        /* \"#utility.yul\":4948:4957   */\n      add\n        /* \"#utility.yul\":4943:4957   */\n      swap1\n      pop\n        /* \"#utility.yul\":4908:5192   */\n      jump(tag_135)\n    tag_137:\n        /* \"#utility.yul\":4912:4926   */\n      pop\n        /* \"#utility.yul\":5208:5211   */\n      dup6\n        /* \"#utility.yul\":5201:5211   */\n      swap4\n      pop\n        /* \"#utility.yul\":4609:5217   */\n      pop\n      pop\n      pop\n        /* \"#utility.yul\":4485:5217   */\n      swap3\n      swap2\n      pop\n      pop\n      jump\t// out\n        /* \"#utility.yul\":5223:5596   */\n    tag_37:\n        /* \"#utility.yul\":5366:5370   */\n      0x00\n        /* \"#utility.yul\":5404:5406   */\n      0x20\n        /* \"#utility.yul\":5393:5402   */\n      dup3\n        /* \"#utility.yul\":5389:5407   */\n      add\n        /* \"#utility.yul\":5381:5407   */\n      swap1\n      pop\n        /* \"#utility.yul\":5453:5462   */\n      dup2\n        /* \"#utility.yul\":5447:5451   */\n      dup2\n        /* \"#utility.yul\":5443:5463   */\n      sub\n        /* \"#utility.yul\":5439:5440   */\n      0x00\n        /* \"#utility.yul\":5428:5437   */\n      dup4\n        /* \"#utility.yul\":5424:5441   */\n      add\n        /* \"#utility.yul\":5417:5464   */\n      mstore\n        /* \"#utility.yul\":5481:5589   */\n      tag_141\n        /* \"#utility.yul\":5584:5588   */\n      dup2\n        /* \"#utility.yul\":5575:5581   */\n      dup5\n        /* \"#utility.yul\":5481:5589   */\n      tag_80\n      jump\t// in\n    tag_141:\n        /* \"#utility.yul\":5473:5589   */\n      swap1\n      pop\n        /* \"#utility.yul\":5223:5596   */\n      swap3\n      swap2\n      pop\n      pop\n      jump\t// out\n        /* \"#utility.yul\":5602:5782   */\n    tag_45:\n        /* \"#utility.yul\":5650:5727   */\n      0x4e487b7100000000000000000000000000000000000000000000000000000000\n        /* \"#utility.yul\":5647:5648   */\n      0x00\n        /* \"#utility.yul\":5640:5728   */\n      mstore\n        /* \"#utility.yul\":5747:5751   */\n      0x31\n        /* \"#utility.yul\":5744:5745   */\n      0x04\n        /* \"#utility.yul\":5737:5752   */\n      mstore\n        /* \"#utility.yul\":5771:5775   */\n      0x24\n        /* \"#utility.yul\":5768:5769   */\n      0x00\n        /* \"#utility.yul\":5761:5776   */\n      revert\n\n    auxdata: 0xa26469706673582212200198d27f222c158edd97553c90330b876c0022bcc08cec302326498f60b4727b64736f6c634300081e0033\n}\n",
				"bytecode": {
					"linkReferences": {},
					"object": "60806040526040518060800160405280600160ff168152602001600260ff168152602001600360ff168152602001600460ff168152505f906004610044929190610056565b50348015610050575f5ffd5b50610108565b826004601f016020900481019282156100dc579160200282015f5b838211156100ae57835183826101000a81548160ff021916908360ff16021790555092602001926001016020815f01049283019260010302610071565b80156100da5782816101000a81549060ff02191690556001016020815f010492830192600103026100ae565b505b5090506100e991906100ed565b5090565b5b80821115610104575f815f9055506001016100ee565b5090565b6105a0806101155f395ff3fe608060405234801561000f575f5ffd5b506004361061007b575f3560e01c806371e5ee5f1161005957806371e5ee5f146100d5578063be1c766b14610105578063cff724fd14610123578063e447acb1146101415761007b565b80635f885e971461007f5780636987b1fb1461009b5780636b931acb146100cb575b5f5ffd5b61009960048036038101906100949190610321565b61015f565b005b6100b560048036038101906100b09190610321565b610188565b6040516100c2919061035b565b60405180910390f35b6100d36101a8565b005b6100ef60048036038101906100ea9190610321565b6101cf565b6040516100fc919061038f565b60405180910390f35b61010d6101f7565b60405161011a919061035b565b60405180910390f35b61012b610204565b604051610138919061044d565b60405180910390f35b610149610272565b604051610156919061051d565b60405180910390f35b600181908060018154018082558091505060019003905f5260205f20015f909190919091505550565b60018181548110610197575f80fd5b905f5260205f20015f915090505481565b60018054806101ba576101b961053d565b5b600190038181905f5260205f20015f90559055565b5f81600481106101dd575f80fd5b60209182820401919006915054906101000a900460ff1681565b5f5f600490508091505090565b61020c6102c8565b5f600480602002604051908101604052809291908260048015610268576020028201915f905b82829054906101000a900460ff1660ff16815260200190600101906020825f010492830192600103820291508084116102325790505b5050505050905090565b606060018054806020026020016040519081016040528092919081815260200182805480156102be57602002820191905f5260205f20905b8154815260200190600101908083116102aa575b5050505050905090565b6040518060800160405280600490602082028036833780820191505090505090565b5f5ffd5b5f819050919050565b610300816102ee565b811461030a575f5ffd5b50565b5f8135905061031b816102f7565b92915050565b5f60208284031215610336576103356102ea565b5b5f6103438482850161030d565b91505092915050565b610355816102ee565b82525050565b5f60208201905061036e5f83018461034c565b92915050565b5f60ff82169050919050565b61038981610374565b82525050565b5f6020820190506103a25f830184610380565b92915050565b5f60049050919050565b5f81905092915050565b5f819050919050565b6103ce81610374565b82525050565b5f6103df83836103c5565b60208301905092915050565b5f602082019050919050565b610400816103a8565b61040a81846103b2565b9250610415826103bc565b805f5b8381101561044557815161042c87826103d4565b9650610437836103eb565b925050600181019050610418565b505050505050565b5f6080820190506104605f8301846103f7565b92915050565b5f81519050919050565b5f82825260208201905092915050565b5f819050602082019050919050565b610498816102ee565b82525050565b5f6104a9838361048f565b60208301905092915050565b5f602082019050919050565b5f6104cb82610466565b6104d58185610470565b93506104e083610480565b805f5b838110156105105781516104f7888261049e565b9750610502836104b5565b9250506001810190506104e3565b5085935050505092915050565b5f6020820190508181035f83015261053581846104c1565b905092915050565b7f4e487b71000000000000000000000000000000000000000000000000000000005f52603160045260245ffdfea26469706673582212200198d27f222c158edd97553c90330b876c0022bcc08cec302326498f60b4727b64736f6c634300081e0033",
					"opcodes": "PUSH1 0x80 PUSH1 0x40 MSTORE PUSH1 0x40 MLOAD DUP1 PUSH1 0x80 ADD PUSH1 0x40 MSTORE DUP1 PUSH1 0x1 PUSH1 0xFF AND DUP2 MSTORE PUSH1 0x20 ADD PUSH1 0x2 PUSH1 0xFF AND DUP2 MSTORE PUSH1 0x20 ADD PUSH1 0x3 PUSH1 0xFF AND DUP2 MSTORE PUSH1 0x20 ADD PUSH1 0x4 PUSH1 0xFF AND DUP2 MSTORE POP PUSH0 SWAP1 PUSH1 0x4 PUSH2 0x44 SWAP3 SWAP2 SWAP1 PUSH2 0x56 JUMP JUMPDEST POP CALLVALUE DUP1 ISZERO PUSH2 0x50 JUMPI PUSH0 PUSH0 REVERT JUMPDEST POP PUSH2 0x108 JUMP JUMPDEST DUP3 PUSH1 0x4 PUSH1 0x1F ADD PUSH1 0x20 SWAP1 DIV DUP2 ADD SWAP3 DUP3 ISZERO PUSH2 0xDC JUMPI SWAP2 PUSH1 0x20 MUL DUP3 ADD PUSH0 JUMPDEST DUP4 DUP3 GT ISZERO PUSH2 0xAE JUMPI DUP4 MLOAD DUP4 DUP3 PUSH2 0x100 EXP DUP2 SLOAD DUP2 PUSH1 0xFF MUL NOT AND SWAP1 DUP4 PUSH1 0xFF AND MUL OR SWAP1 SSTORE POP SWAP3 PUSH1 0x20 ADD SWAP3 PUSH1 0x1 ADD PUSH1 0x20 DUP2 PUSH0 ADD DIV SWAP3 DUP4 ADD SWAP3 PUSH1 0x1 SUB MUL PUSH2 0x71 JUMP JUMPDEST DUP1 ISZERO PUSH2 0xDA JUMPI DUP3 DUP2 PUSH2 0x100 EXP DUP2 SLOAD SWAP1 PUSH1 0xFF MUL NOT AND SWAP1 SSTORE PUSH1 0x1 ADD PUSH1 0x20 DUP2 PUSH0 ADD DIV SWAP3 DUP4 ADD SWAP3 PUSH1 0x1 SUB MUL PUSH2 0xAE JUMP JUMPDEST POP JUMPDEST POP SWAP1 POP PUSH2 0xE9 SWAP2 SWAP1 PUSH2 0xED JUMP JUMPDEST POP SWAP1 JUMP JUMPDEST JUMPDEST DUP1 DUP3 GT ISZERO PUSH2 0x104 JUMPI PUSH0 DUP2 PUSH0 SWAP1 SSTORE POP PUSH1 0x1 ADD PUSH2 0xEE JUMP JUMPDEST POP SWAP1 JUMP JUMPDEST PUSH2 0x5A0 DUP1 PUSH2 0x115 PUSH0 CODECOPY PUSH0 RETURN INVALID PUSH1 0x80 PUSH1 0x40 MSTORE CALLVALUE DUP1 ISZERO PUSH2 0xF JUMPI PUSH0 PUSH0 REVERT JUMPDEST POP PUSH1 0x4 CALLDATASIZE LT PUSH2 0x7B JUMPI PUSH0 CALLDATALOAD PUSH1 0xE0 SHR DUP1 PUSH4 0x71E5EE5F GT PUSH2 0x59 JUMPI DUP1 PUSH4 0x71E5EE5F EQ PUSH2 0xD5 JUMPI DUP1 PUSH4 0xBE1C766B EQ PUSH2 0x105 JUMPI DUP1 PUSH4 0xCFF724FD EQ PUSH2 0x123 JUMPI DUP1 PUSH4 0xE447ACB1 EQ PUSH2 0x141 JUMPI PUSH2 0x7B JUMP JUMPDEST DUP1 PUSH4 0x5F885E97 EQ PUSH2 0x7F JUMPI DUP1 PUSH4 0x6987B1FB EQ PUSH2 0x9B JUMPI DUP1 PUSH4 0x6B931ACB EQ PUSH2 0xCB JUMPI JUMPDEST PUSH0 PUSH0 REVERT JUMPDEST PUSH2 0x99 PUSH1 0x4 DUP1 CALLDATASIZE SUB DUP2 ADD SWAP1 PUSH2 0x94 SWAP2 SWAP1 PUSH2 0x321 JUMP JUMPDEST PUSH2 0x15F JUMP JUMPDEST STOP JUMPDEST PUSH2 0xB5 PUSH1 0x4 DUP1 CALLDATASIZE SUB DUP2 ADD SWAP1 PUSH2 0xB0 SWAP2 SWAP1 PUSH2 0x321 JUMP JUMPDEST PUSH2 0x188 JUMP JUMPDEST PUSH1 0x40 MLOAD PUSH2 0xC2 SWAP2 SWAP1 PUSH2 0x35B JUMP JUMPDEST PUSH1 0x40 MLOAD DUP1 SWAP2 SUB SWAP1 RETURN JUMPDEST PUSH2 0xD3 PUSH2 0x1A8 JUMP JUMPDEST STOP JUMPDEST PUSH2 0xEF PUSH1 0x4 DUP1 CALLDATASIZE SUB DUP2 ADD SWAP1 PUSH2 0xEA SWAP2 SWAP1 PUSH2 0x321 JUMP JUMPDEST PUSH2 0x1CF JUMP JUMPDEST PUSH1 0x40 MLOAD PUSH2 0xFC SWAP2 SWAP1 PUSH2 0x38F JUMP JUMPDEST PUSH1 0x40 MLOAD DUP1 SWAP2 SUB SWAP1 RETURN JUMPDEST PUSH2 0x10D PUSH2 0x1F7 JUMP JUMPDEST PUSH1 0x40 MLOAD PUSH2 0x11A SWAP2 SWAP1 PUSH2 0x35B JUMP JUMPDEST PUSH1 0x40 MLOAD DUP1 SWAP2 SUB SWAP1 RETURN JUMPDEST PUSH2 0x12B PUSH2 0x204 JUMP JUMPDEST PUSH1 0x40 MLOAD PUSH2 0x138 SWAP2 SWAP1 PUSH2 0x44D JUMP JUMPDEST PUSH1 0x40 MLOAD DUP1 SWAP2 SUB SWAP1 RETURN JUMPDEST PUSH2 0x149 PUSH2 0x272 JUMP JUMPDEST PUSH1 0x40 MLOAD PUSH2 0x156 SWAP2 SWAP1 PUSH2 0x51D JUMP JUMPDEST PUSH1 0x40 MLOAD DUP1 SWAP2 SUB SWAP1 RETURN JUMPDEST PUSH1 0x1 DUP2 SWAP1 DUP1 PUSH1 0x1 DUP2 SLOAD ADD DUP1 DUP3 SSTORE DUP1 SWAP2 POP POP PUSH1 0x1 SWAP1 SUB SWAP1 PUSH0 MSTORE PUSH1 0x20 PUSH0 KECCAK256 ADD PUSH0 SWAP1 SWAP2 SWAP1 SWAP2 SWAP1 SWAP2 POP SSTORE POP JUMP JUMPDEST PUSH1 0x1 DUP2 DUP2 SLOAD DUP2 LT PUSH2 0x197 JUMPI PUSH0 DUP1 REVERT JUMPDEST SWAP1 PUSH0 MSTORE PUSH1 0x20 PUSH0 KECCAK256 ADD PUSH0 SWAP2 POP SWAP1 POP SLOAD DUP2 JUMP JUMPDEST PUSH1 0x1 DUP1 SLOAD DUP1 PUSH2 0x1BA JUMPI PUSH2 0x1B9 PUSH2 0x53D JUMP JUMPDEST JUMPDEST PUSH1 0x1 SWAP1 SUB DUP2 DUP2 SWAP1 PUSH0 MSTORE PUSH1 0x20 PUSH0 KECCAK256 ADD PUSH0 SWAP1 SSTORE SWAP1 SSTORE JUMP JUMPDEST PUSH0 DUP2 PUSH1 0x4 DUP2 LT PUSH2 0x1DD JUMPI PUSH0 DUP1 REVERT JUMPDEST PUSH1 0x20 SWAP2 DUP3 DUP3 DIV ADD SWAP2 SWAP1 MOD SWAP2 POP SLOAD SWAP1 PUSH2 0x100 EXP SWAP1 DIV PUSH1 0xFF AND DUP2 JUMP JUMPDEST PUSH0 PUSH0 PUSH1 0x4 SWAP1 POP DUP1 SWAP2 POP POP SWAP1 JUMP JUMPDEST PUSH2 0x20C PUSH2 0x2C8 JUMP JUMPDEST PUSH0 PUSH1 0x4 DUP1 PUSH1 0x20 MUL PUSH1 0x40 MLOAD SWAP1 DUP2 ADD PUSH1 0x40 MSTORE DUP1 SWAP3 SWAP2 SWAP1 DUP3 PUSH1 0x4 DUP1 ISZERO PUSH2 0x268 JUMPI PUSH1 0x20 MUL DUP3 ADD SWAP2 PUSH0 SWAP1 JUMPDEST DUP3 DUP3 SWAP1 SLOAD SWAP1 PUSH2 0x100 EXP SWAP1 DIV PUSH1 0xFF AND PUSH1 0xFF AND DUP2 MSTORE PUSH1 0x20 ADD SWAP1 PUSH1 0x1 ADD SWAP1 PUSH1 0x20 DUP3 PUSH0 ADD DIV SWAP3 DUP4 ADD SWAP3 PUSH1 0x1 SUB DUP3 MUL SWAP2 POP DUP1 DUP5 GT PUSH2 0x232 JUMPI SWAP1 POP JUMPDEST POP POP POP POP POP SWAP1 POP SWAP1 JUMP JUMPDEST PUSH1 0x60 PUSH1 0x1 DUP1 SLOAD DUP1 PUSH1 0x20 MUL PUSH1 0x20 ADD PUSH1 0x40 MLOAD SWAP1 DUP2 ADD PUSH1 0x40 MSTORE DUP1 SWAP3 SWAP2 SWAP1 DUP2 DUP2 MSTORE PUSH1 0x20 ADD DUP3 DUP1 SLOAD DUP1 ISZERO PUSH2 0x2BE JUMPI PUSH1 0x20 MUL DUP3 ADD SWAP2 SWAP1 PUSH0 MSTORE PUSH1 0x20 PUSH0 KECCAK256 SWAP1 JUMPDEST DUP2 SLOAD DUP2 MSTORE PUSH1 0x20 ADD SWAP1 PUSH1 0x1 ADD SWAP1 DUP1 DUP4 GT PUSH2 0x2AA JUMPI JUMPDEST POP POP POP POP POP SWAP1 POP SWAP1 JUMP JUMPDEST PUSH1 0x40 MLOAD DUP1 PUSH1 0x80 ADD PUSH1 0x40 MSTORE DUP1 PUSH1 0x4 SWAP1 PUSH1 0x20 DUP3 MUL DUP1 CALLDATASIZE DUP4 CALLDATACOPY DUP1 DUP3 ADD SWAP2 POP POP SWAP1 POP POP SWAP1 JUMP JUMPDEST PUSH0 PUSH0 REVERT JUMPDEST PUSH0 DUP2 SWAP1 POP SWAP2 SWAP1 POP JUMP JUMPDEST PUSH2 0x300 DUP2 PUSH2 0x2EE JUMP JUMPDEST DUP2 EQ PUSH2 0x30A JUMPI PUSH0 PUSH0 REVERT JUMPDEST POP JUMP JUMPDEST PUSH0 DUP2 CALLDATALOAD SWAP1 POP PUSH2 0x31B DUP2 PUSH2 0x2F7 JUMP JUMPDEST SWAP3 SWAP2 POP POP JUMP JUMPDEST PUSH0 PUSH1 0x20 DUP3 DUP5 SUB SLT ISZERO PUSH2 0x336 JUMPI PUSH2 0x335 PUSH2 0x2EA JUMP JUMPDEST JUMPDEST PUSH0 PUSH2 0x343 DUP5 DUP3 DUP6 ADD PUSH2 0x30D JUMP JUMPDEST SWAP2 POP POP SWAP3 SWAP2 POP POP JUMP JUMPDEST PUSH2 0x355 DUP2 PUSH2 0x2EE JUMP JUMPDEST DUP3 MSTORE POP POP JUMP JUMPDEST PUSH0 PUSH1 0x20 DUP3 ADD SWAP1 POP PUSH2 0x36E PUSH0 DUP4 ADD DUP5 PUSH2 0x34C JUMP JUMPDEST SWAP3 SWAP2 POP POP JUMP JUMPDEST PUSH0 PUSH1 0xFF DUP3 AND SWAP1 POP SWAP2 SWAP1 POP JUMP JUMPDEST PUSH2 0x389 DUP2 PUSH2 0x374 JUMP JUMPDEST DUP3 MSTORE POP POP JUMP JUMPDEST PUSH0 PUSH1 0x20 DUP3 ADD SWAP1 POP PUSH2 0x3A2 PUSH0 DUP4 ADD DUP5 PUSH2 0x380 JUMP JUMPDEST SWAP3 SWAP2 POP POP JUMP JUMPDEST PUSH0 PUSH1 0x4 SWAP1 POP SWAP2 SWAP1 POP JUMP JUMPDEST PUSH0 DUP2 SWAP1 POP SWAP3 SWAP2 POP POP JUMP JUMPDEST PUSH0 DUP2 SWAP1 POP SWAP2 SWAP1 POP JUMP JUMPDEST PUSH2 0x3CE DUP2 PUSH2 0x374 JUMP JUMPDEST DUP3 MSTORE POP POP JUMP JUMPDEST PUSH0 PUSH2 0x3DF DUP4 DUP4 PUSH2 0x3C5 JUMP JUMPDEST PUSH1 0x20 DUP4 ADD SWAP1 POP SWAP3 SWAP2 POP POP JUMP JUMPDEST PUSH0 PUSH1 0x20 DUP3 ADD SWAP1 POP SWAP2 SWAP1 POP JUMP JUMPDEST PUSH2 0x400 DUP2 PUSH2 0x3A8 JUMP JUMPDEST PUSH2 0x40A DUP2 DUP5 PUSH2 0x3B2 JUMP JUMPDEST SWAP3 POP PUSH2 0x415 DUP3 PUSH2 0x3BC JUMP JUMPDEST DUP1 PUSH0 JUMPDEST DUP4 DUP2 LT ISZERO PUSH2 0x445 JUMPI DUP2 MLOAD PUSH2 0x42C DUP8 DUP3 PUSH2 0x3D4 JUMP JUMPDEST SWAP7 POP PUSH2 0x437 DUP4 PUSH2 0x3EB JUMP JUMPDEST SWAP3 POP POP PUSH1 0x1 DUP2 ADD SWAP1 POP PUSH2 0x418 JUMP JUMPDEST POP POP POP POP POP POP JUMP JUMPDEST PUSH0 PUSH1 0x80 DUP3 ADD SWAP1 POP PUSH2 0x460 PUSH0 DUP4 ADD DUP5 PUSH2 0x3F7 JUMP JUMPDEST SWAP3 SWAP2 POP POP JUMP JUMPDEST PUSH0 DUP2 MLOAD SWAP1 POP SWAP2 SWAP1 POP JUMP JUMPDEST PUSH0 DUP3 DUP3 MSTORE PUSH1 0x20 DUP3 ADD SWAP1 POP SWAP3 SWAP2 POP POP JUMP JUMPDEST PUSH0 DUP2 SWAP1 POP PUSH1 0x20 DUP3 ADD SWAP1 POP SWAP2 SWAP1 POP JUMP JUMPDEST PUSH2 0x498 DUP2 PUSH2 0x2EE JUMP JUMPDEST DUP3 MSTORE POP POP JUMP JUMPDEST PUSH0 PUSH2 0x4A9 DUP4 DUP4 PUSH2 0x48F JUMP JUMPDEST PUSH1 0x20 DUP4 ADD SWAP1 POP SWAP3 SWAP2 POP POP JUMP JUMPDEST PUSH0 PUSH1 0x20 DUP3 ADD SWAP1 POP SWAP2 SWAP1 POP JUMP JUMPDEST PUSH0 PUSH2 0x4CB DUP3 PUSH2 0x466 JUMP JUMPDEST PUSH2 0x4D5 DUP2 DUP6 PUSH2 0x470 JUMP JUMPDEST SWAP4 POP PUSH2 0x4E0 DUP4 PUSH2 0x480 JUMP JUMPDEST DUP1 PUSH0 JUMPDEST DUP4 DUP2 LT ISZERO PUSH2 0x510 JUMPI DUP2 MLOAD PUSH2 0x4F7 DUP9 DUP3 PUSH2 0x49E JUMP JUMPDEST SWAP8 POP PUSH2 0x502 DUP4 PUSH2 0x4B5 JUMP JUMPDEST SWAP3 POP POP PUSH1 0x1 DUP2 ADD SWAP1 POP PUSH2 0x4E3 JUMP JUMPDEST POP DUP6 SWAP4 POP POP POP POP SWAP3 SWAP2 POP POP JUMP JUMPDEST PUSH0 PUSH1 0x20 DUP3 ADD SWAP1 POP DUP2 DUP2 SUB PUSH0 DUP4 ADD MSTORE PUSH2 0x535 DUP2 DUP5 PUSH2 0x4C1 JUMP JUMPDEST SWAP1 POP SWAP3 SWAP2 POP POP JUMP JUMPDEST PUSH32 0x4E487B7100000000000000000000000000000000000000000000000000000000 PUSH0 MSTORE PUSH1 0x31 PUSH1 0x4 MSTORE PUSH1 0x24 PUSH0 REVERT INVALID LOG2 PUSH5 0x6970667358 0x22 SLT KECCAK256 ADD SWAP9 0xD2 PUSH32 0x222C158EDD97553C90330B876C0022BCC08CEC302326498F60B4727B64736F6C PUSH4 0x4300081E STOP CALLER "
				},
				"gasEstimates": {
					"creation": {
						"codeDepositCost": "288000",
						"executionCost": "infinite",
						"totalCost": "infinite"
					},
					"external": {
						"arr(uint256)": "4378",
						"arr1(uint256)": "infinite",
						"deleteElements()": "29486",
						"getDynamicArrValues()": "infinite",
						"getFixedArrayValues()": "infinite",
						"getLength()": "366",
						"insertEle(uint256)": "46822"
					}
				},
				"methodIdentifiers": {
					"arr(uint256)": "71e5ee5f",
					"arr1(uint256)": "6987b1fb",
					"deleteElements()": "6b931acb",
					"getDynamicArrValues()": "e447acb1",
					"getFixedArrayValues()": "cff724fd",
					"getLength()": "be1c766b",
					"insertEle(uint256)": "5f885e97"
				}
			},
			"storageLayout": {
				"storage": [
					{
						"astId": 10,
						"contract": "contracts/LabCycle/ArraysExample.sol:ArraysExample",
						"label": "arr",
						"offset": 0,
						"slot": "0",
						"type": "t_array(t_uint8)4_storage"
					},
					{
						"astId": 13,
						"contract": "contracts/LabCycle/ArraysExample.sol:ArraysExample",
						"label": "arr1",
						"offset": 0,
						"slot": "1",
						"type": "t_array(t_uint256)dyn_storage"
					}
				],
				"types": {
					"t_array(t_uint256)dyn_storage": {
						"base": "t_uint256",
						"encoding": "dynamic_array",
						"label": "uint256[]",
						"numberOfBytes": "32"
					},
					"t_array(t_uint8)4_storage": {
						"base": "t_uint8",
						"encoding": "inplace",
						"label": "uint8[4]",
						"numberOfBytes": "32"
					},
					"t_uint256": {
						"encoding": "inplace",
						"label": "uint256",
						"numberOfBytes": "32"
					},
					"t_uint8": {
						"encoding": "inplace",
						"label": "uint8",
						"numberOfBytes": "1"
					}
				}
			},
			"userdoc": {
				"kind": "user",
				"methods": {},
				"version": 1
			}
		}
	}
}