{
	"contracts/LabCycle/StringExample.sol": {
		"StringExample": {
			"abi": [
				{
					"inputs": [],
					"name": "compare",
					"outputs": [
						{
							"internalType": "bool",
							"name": "",
							"type": "bool"
						}
					],
					"stateMutability": "view",
					"type": "function"
				},
				{
					"inputs": [],
					"name": "concatenate",
					"outputs": [
						{
							"internalType": "string",
							"name": "",
							"type": "string"
						}
					],
					"stateMutability": "view",
					"type": "function"
				},
				{
					"inputs": [],
					"name": "concatenateString",
					"outputs": [
						{
							"internalType": "string",
							"name": "",
							"type": "string"
						}
					],
					"stateMutability": "view",
					"type": "function"
				},
				{
					"inputs": [],
					"name": "retrieveValues",
					"outputs": [
						{
							"internalType": "string",
							"name": "",
							"type": "string"
						},
						{
							"internalType": "string",
							"name": "",
							"type": "string"
						}
					],
					"stateMutability": "view",
					"type": "function"
				},
				{
					"inputs": [],
					"name": "s1",
					"outputs": [
						{
							"internalType": "string",
							"name": "",
							"type": "string"
						}
					],
					"stateMutability": "view",
					"type": "function"
				},
				{
					"inputs": [],
					"name": "s2",
					"outputs": [
						{
							"internalType": "string",
							"name": "",
							"type": "string"
						}
					],
					"stateMutability": "view",
					"type": "function"
				},
				{
					"inputs": [
						{
							"internalType": "string",
							"name": "_s1",
							"type": "string"
						},
						{
							"internalType": "string",
							"name": "_s2",
							"type": "string"
						}
					],
					"name": "setValues",
					"outputs": [],
					"stateMutability": "nonpayable",
					"type": "function"
				}
			],
			"devdoc": {
				"kind": "dev",
				"methods": {},
				"version": 1
			},
			"evm": {
				"assembly": "    /* \"contracts/LabCycle/StringExample.sol\":64:769  contract StringExample{... */\n  mstore(0x40, 0x80)\n  callvalue\n  dup1\n  iszero\n  tag_1\n  jumpi\n  revert(0x00, 0x00)\ntag_1:\n  pop\n  dataSize(sub_0)\n  dup1\n  dataOffset(sub_0)\n  0x00\n  codecopy\n  0x00\n  return\nstop\n\nsub_0: assembly {\n        /* \"contracts/LabCycle/StringExample.sol\":64:769  contract StringExample{... */\n      mstore(0x40, 0x80)\n      callvalue\n      dup1\n      iszero\n      tag_1\n      jumpi\n      revert(0x00, 0x00)\n    tag_1:\n      pop\n      jumpi(tag_2, lt(calldatasize, 0x04))\n      shr(0xe0, calldataload(0x00))\n      dup1\n      0x7ffaa4b6\n      gt\n      tag_10\n      jumpi\n      dup1\n      0x7ffaa4b6\n      eq\n      tag_6\n      jumpi\n      dup1\n      0xa314150f\n      eq\n      tag_7\n      jumpi\n      dup1\n      0xc852cf7d\n      eq\n      tag_8\n      jumpi\n      dup1\n      0xd4dd2a4b\n      eq\n      tag_9\n      jumpi\n      jump(tag_2)\n    tag_10:\n      dup1\n      0x3da0ac79\n      eq\n      tag_3\n      jumpi\n      dup1\n      0x6cc014de\n      eq\n      tag_4\n      jumpi\n      dup1\n      0x7ce5b8b3\n      eq\n      tag_5\n      jumpi\n    tag_2:\n      revert(0x00, 0x00)\n        /* \"contracts/LabCycle/StringExample.sol\":629:766  function compare() public view returns(bool){... */\n    tag_3:\n      tag_11\n      tag_12\n      jump\t// in\n    tag_11:\n      mload(0x40)\n      tag_13\n      swap2\n      swap1\n      tag_14\n      jump\t// in\n    tag_13:\n      mload(0x40)\n      dup1\n      swap2\n      sub\n      swap1\n      return\n        /* \"contracts/LabCycle/StringExample.sol\":93:109  string public s1 */\n    tag_4:\n      tag_15\n      tag_16\n      jump\t// in\n    tag_15:\n      mload(0x40)\n      tag_17\n      swap2\n      swap1\n      tag_18\n      jump\t// in\n    tag_17:\n      mload(0x40)\n      dup1\n      swap2\n      sub\n      swap1\n      return\n        /* \"contracts/LabCycle/StringExample.sol\":374:484  function concatenate()public view returns(string memory){... */\n    tag_5:\n      tag_19\n      tag_20\n      jump\t// in\n    tag_19:\n      mload(0x40)\n      tag_21\n      swap2\n      swap1\n      tag_18\n      jump\t// in\n    tag_21:\n      mload(0x40)\n      dup1\n      swap2\n      sub\n      swap1\n      return\n        /* \"contracts/LabCycle/StringExample.sol\":141:251  function setValues(string memory _s1, string memory _s2) public {... */\n    tag_6:\n      tag_22\n      0x04\n      dup1\n      calldatasize\n      sub\n      dup2\n      add\n      swap1\n      tag_23\n      swap2\n      swap1\n      tag_24\n      jump\t// in\n    tag_23:\n      tag_25\n      jump\t// in\n    tag_22:\n      stop\n        /* \"contracts/LabCycle/StringExample.sol\":116:132  string public s2 */\n    tag_7:\n      tag_26\n      tag_27\n      jump\t// in\n    tag_26:\n      mload(0x40)\n      tag_28\n      swap2\n      swap1\n      tag_18\n      jump\t// in\n    tag_28:\n      mload(0x40)\n      dup1\n      swap2\n      sub\n      swap1\n      return\n        /* \"contracts/LabCycle/StringExample.sol\":492:621  function concatenateString()public view returns(string memory){... */\n    tag_8:\n      tag_29\n      tag_30\n      jump\t// in\n    tag_29:\n      mload(0x40)\n      tag_31\n      swap2\n      swap1\n      tag_18\n      jump\t// in\n    tag_31:\n      mload(0x40)\n      dup1\n      swap2\n      sub\n      swap1\n      return\n        /* \"contracts/LabCycle/StringExample.sol\":259:366  function retrieveValues()public view returns(string memory, string memory){... */\n    tag_9:\n      tag_32\n      tag_33\n      jump\t// in\n    tag_32:\n      mload(0x40)\n      tag_34\n      swap3\n      swap2\n      swap1\n      tag_35\n      jump\t// in\n    tag_34:\n      mload(0x40)\n      dup1\n      swap2\n      sub\n      swap1\n      return\n        /* \"contracts/LabCycle/StringExample.sol\":629:766  function compare() public view returns(bool){... */\n    tag_12:\n        /* \"contracts/LabCycle/StringExample.sol\":668:672  bool */\n      0x00\n        /* \"contracts/LabCycle/StringExample.sol\":753:755  s2 */\n      0x01\n        /* \"contracts/LabCycle/StringExample.sol\":736:756  abi.encodePacked(s2) */\n      add(0x20, mload(0x40))\n      tag_37\n      swap2\n      swap1\n      tag_38\n      jump\t// in\n    tag_37:\n      mload(0x40)\n      0x20\n      dup2\n      dup4\n      sub\n      sub\n      dup2\n      mstore\n      swap1\n      0x40\n      mstore\n        /* \"contracts/LabCycle/StringExample.sol\":726:757  keccak256(abi.encodePacked(s2)) */\n      dup1\n      mload\n      swap1\n      0x20\n      add\n      keccak256\n        /* \"contracts/LabCycle/StringExample.sol\":718:720  s1 */\n      0x00\n        /* \"contracts/LabCycle/StringExample.sol\":701:721  abi.encodePacked(s1) */\n      add(0x20, mload(0x40))\n      tag_39\n      swap2\n      swap1\n      tag_38\n      jump\t// in\n    tag_39:\n      mload(0x40)\n      0x20\n      dup2\n      dup4\n      sub\n      sub\n      dup2\n      mstore\n      swap1\n      0x40\n      mstore\n        /* \"contracts/LabCycle/StringExample.sol\":691:722  keccak256(abi.encodePacked(s1)) */\n      dup1\n      mload\n      swap1\n      0x20\n      add\n      keccak256\n        /* \"contracts/LabCycle/StringExample.sol\":691:757  keccak256(abi.encodePacked(s1)) == keccak256(abi.encodePacked(s2)) */\n      eq\n        /* \"contracts/LabCycle/StringExample.sol\":684:758  return(keccak256(abi.encodePacked(s1)) == keccak256(abi.encodePacked(s2))) */\n      swap1\n      pop\n        /* \"contracts/LabCycle/StringExample.sol\":629:766  function compare() public view returns(bool){... */\n      swap1\n      jump\t// out\n        /* \"contracts/LabCycle/StringExample.sol\":93:109  string public s1 */\n    tag_16:\n      0x00\n      dup1\n      sload\n      tag_40\n      swap1\n      tag_41\n      jump\t// in\n    tag_40:\n      dup1\n      0x1f\n      add\n      0x20\n      dup1\n      swap2\n      div\n      mul\n      0x20\n      add\n      mload(0x40)\n      swap1\n      dup2\n      add\n      0x40\n      mstore\n      dup1\n      swap3\n      swap2\n      swap1\n      dup2\n      dup2\n      mstore\n      0x20\n      add\n      dup3\n      dup1\n      sload\n      tag_42\n      swap1\n      tag_41\n      jump\t// in\n    tag_42:\n      dup1\n      iszero\n      tag_43\n      jumpi\n      dup1\n      0x1f\n      lt\n      tag_44\n      jumpi\n      0x0100\n      dup1\n      dup4\n      sload\n      div\n      mul\n      dup4\n      mstore\n      swap2\n      0x20\n      add\n      swap2\n      jump(tag_43)\n    tag_44:\n      dup3\n      add\n      swap2\n      swap1\n      0x00\n      mstore\n      keccak256(0x00, 0x20)\n      swap1\n    tag_45:\n      dup2\n      sload\n      dup2\n      mstore\n      swap1\n      0x01\n      add\n      swap1\n      0x20\n      add\n      dup1\n      dup4\n      gt\n      tag_45\n      jumpi\n      dup3\n      swap1\n      sub\n      0x1f\n      and\n      dup3\n      add\n      swap2\n    tag_43:\n      pop\n      pop\n      pop\n      pop\n      pop\n      dup2\n      jump\t// out\n        /* \"contracts/LabCycle/StringExample.sol\":374:484  function concatenate()public view returns(string memory){... */\n    tag_20:\n        /* \"contracts/LabCycle/StringExample.sol\":416:429  string memory */\n      0x60\n        /* \"contracts/LabCycle/StringExample.sol\":462:464  s1 */\n      0x00\n        /* \"contracts/LabCycle/StringExample.sol\":473:475  s2 */\n      0x01\n        /* \"contracts/LabCycle/StringExample.sol\":448:476  string.concat(s1,\" and \",s2) */\n      add(0x20, mload(0x40))\n      tag_47\n      swap3\n      swap2\n      swap1\n      tag_48\n      jump\t// in\n    tag_47:\n      mload(0x40)\n      0x20\n      dup2\n      dup4\n      sub\n      sub\n      dup2\n      mstore\n      swap1\n      0x40\n      mstore\n        /* \"contracts/LabCycle/StringExample.sol\":441:476  return string.concat(s1,\" and \",s2) */\n      swap1\n      pop\n        /* \"contracts/LabCycle/StringExample.sol\":374:484  function concatenate()public view returns(string memory){... */\n      swap1\n      jump\t// out\n        /* \"contracts/LabCycle/StringExample.sol\":141:251  function setValues(string memory _s1, string memory _s2) public {... */\n    tag_25:\n        /* \"contracts/LabCycle/StringExample.sol\":221:224  _s1 */\n      dup2\n        /* \"contracts/LabCycle/StringExample.sol\":216:218  s1 */\n      0x00\n        /* \"contracts/LabCycle/StringExample.sol\":216:224  s1 = _s1 */\n      swap1\n      dup2\n      tag_50\n      swap2\n      swap1\n      tag_51\n      jump\t// in\n    tag_50:\n      pop\n        /* \"contracts/LabCycle/StringExample.sol\":240:243  _s2 */\n      dup1\n        /* \"contracts/LabCycle/StringExample.sol\":235:237  s2 */\n      0x01\n        /* \"contracts/LabCycle/StringExample.sol\":235:243  s2 = _s2 */\n      swap1\n      dup2\n      tag_52\n      swap2\n      swap1\n      tag_51\n      jump\t// in\n    tag_52:\n      pop\n        /* \"contracts/LabCycle/StringExample.sol\":141:251  function setValues(string memory _s1, string memory _s2) public {... */\n      pop\n      pop\n      jump\t// out\n        /* \"contracts/LabCycle/StringExample.sol\":116:132  string public s2 */\n    tag_27:\n      0x01\n      dup1\n      sload\n      tag_53\n      swap1\n      tag_41\n      jump\t// in\n    tag_53:\n      dup1\n      0x1f\n      add\n      0x20\n      dup1\n      swap2\n      div\n      mul\n      0x20\n      add\n      mload(0x40)\n      swap1\n      dup2\n      add\n      0x40\n      mstore\n      dup1\n      swap3\n      swap2\n      swap1\n      dup2\n      dup2\n      mstore\n      0x20\n      add\n      dup3\n      dup1\n      sload\n      tag_54\n      swap1\n      tag_41\n      jump\t// in\n    tag_54:\n      dup1\n      iszero\n      tag_55\n      jumpi\n      dup1\n      0x1f\n      lt\n      tag_56\n      jumpi\n      0x0100\n      dup1\n      dup4\n      sload\n      div\n      mul\n      dup4\n      mstore\n      swap2\n      0x20\n      add\n      swap2\n      jump(tag_55)\n    tag_56:\n      dup3\n      add\n      swap2\n      swap1\n      0x00\n      mstore\n      keccak256(0x00, 0x20)\n      swap1\n    tag_57:\n      dup2\n      sload\n      dup2\n      mstore\n      swap1\n      0x01\n      add\n      swap1\n      0x20\n      add\n      dup1\n      dup4\n      gt\n      tag_57\n      jumpi\n      dup3\n      swap1\n      sub\n      0x1f\n      and\n      dup3\n      add\n      swap2\n    tag_55:\n      pop\n      pop\n      pop\n      pop\n      pop\n      dup2\n      jump\t// out\n        /* \"contracts/LabCycle/StringExample.sol\":492:621  function concatenateString()public view returns(string memory){... */\n    tag_30:\n        /* \"contracts/LabCycle/StringExample.sol\":540:553  string memory */\n      0x60\n        /* \"contracts/LabCycle/StringExample.sol\":597:599  s1 */\n      0x00\n        /* \"contracts/LabCycle/StringExample.sol\":608:610  s2 */\n      0x01\n        /* \"contracts/LabCycle/StringExample.sol\":580:611  abi.encodePacked(s1,\" and \",s2) */\n      add(0x20, mload(0x40))\n      tag_59\n      swap3\n      swap2\n      swap1\n      tag_60\n      jump\t// in\n    tag_59:\n      mload(0x40)\n      0x20\n      dup2\n      dup4\n      sub\n      sub\n      dup2\n      mstore\n      swap1\n      0x40\n      mstore\n        /* \"contracts/LabCycle/StringExample.sol\":565:613  return (string(abi.encodePacked(s1,\" and \",s2))) */\n      swap1\n      pop\n        /* \"contracts/LabCycle/StringExample.sol\":492:621  function concatenateString()public view returns(string memory){... */\n      swap1\n      jump\t// out\n        /* \"contracts/LabCycle/StringExample.sol\":259:366  function retrieveValues()public view returns(string memory, string memory){... */\n    tag_33:\n        /* \"contracts/LabCycle/StringExample.sol\":304:317  string memory */\n      0x60\n        /* \"contracts/LabCycle/StringExample.sol\":319:332  string memory */\n      dup1\n        /* \"contracts/LabCycle/StringExample.sol\":352:354  s1 */\n      0x00\n        /* \"contracts/LabCycle/StringExample.sol\":355:357  s2 */\n      0x01\n        /* \"contracts/LabCycle/StringExample.sol\":344:358  return (s1,s2) */\n      dup2\n      dup1\n      sload\n      tag_62\n      swap1\n      tag_41\n      jump\t// in\n    tag_62:\n      dup1\n      0x1f\n      add\n      0x20\n      dup1\n      swap2\n      div\n      mul\n      0x20\n      add\n      mload(0x40)\n      swap1\n      dup2\n      add\n      0x40\n      mstore\n      dup1\n      swap3\n      swap2\n      swap1\n      dup2\n      dup2\n      mstore\n      0x20\n      add\n      dup3\n      dup1\n      sload\n      tag_63\n      swap1\n      tag_41\n      jump\t// in\n    tag_63:\n      dup1\n      iszero\n      tag_64\n      jumpi\n      dup1\n      0x1f\n      lt\n      tag_65\n      jumpi\n      0x0100\n      dup1\n      dup4\n      sload\n      div\n      mul\n      dup4\n      mstore\n      swap2\n      0x20\n      add\n      swap2\n      jump(tag_64)\n    tag_65:\n      dup3\n      add\n      swap2\n      swap1\n      0x00\n      mstore\n      keccak256(0x00, 0x20)\n      swap1\n    tag_66:\n      dup2\n      sload\n      dup2\n      mstore\n      swap1\n      0x01\n      add\n      swap1\n      0x20\n      add\n      dup1\n      dup4\n      gt\n      tag_66\n      jumpi\n      dup3\n      swap1\n      sub\n      0x1f\n      and\n      dup3\n      add\n      swap2\n    tag_64:\n      pop\n      pop\n      pop\n      pop\n      pop\n      swap2\n      pop\n      dup1\n      dup1\n      sload\n      tag_67\n      swap1\n      tag_41\n      jump\t// in\n    tag_67:\n      dup1\n      0x1f\n      add\n      0x20\n      dup1\n      swap2\n      div\n      mul\n      0x20\n      add\n      mload(0x40)\n      swap1\n      dup2\n      add\n      0x40\n      mstore\n      dup1\n      swap3\n      swap2\n      swap1\n      dup2\n      dup2\n      mstore\n      0x20\n      add\n      dup3\n      dup1\n      sload\n      tag_68\n      swap1\n      tag_41\n      jump\t// in\n    tag_68:\n      dup1\n      iszero\n      tag_69\n      jumpi\n      dup1\n      0x1f\n      lt\n      tag_70\n      jumpi\n      0x0100\n      dup1\n      dup4\n      sload\n      div\n      mul\n      dup4\n      mstore\n      swap2\n      0x20\n      add\n      swap2\n      jump(tag_69)\n    tag_70:\n      dup3\n      add\n      swap2\n      swap1\n      0x00\n      mstore\n      keccak256(0x00, 0x20)\n      swap1\n    tag_71:\n      dup2\n      sload\n      dup2\n      mstore\n      swap1\n      0x01\n      add\n      swap1\n      0x20\n      add\n      dup1\n      dup4\n      gt\n      tag_71\n      jumpi\n      dup3\n      swap1\n      sub\n      0x1f\n      and\n      dup3\n      add\n      swap2\n    tag_69:\n      pop\n      pop\n      pop\n      pop\n      pop\n      swap1\n      pop\n      swap2\n      pop\n      swap2\n      pop\n        /* \"contracts/LabCycle/StringExample.sol\":259:366  function retrieveValues()public view returns(string memory, string memory){... */\n      swap1\n      swap2\n      jump\t// out\n        /* \"#utility.yul\":7:97   */\n    tag_72:\n        /* \"#utility.yul\":41:48   */\n      0x00\n        /* \"#utility.yul\":84:89   */\n      dup2\n        /* \"#utility.yul\":77:90   */\n      iszero\n        /* \"#utility.yul\":70:91   */\n      iszero\n        /* \"#utility.yul\":59:91   */\n      swap1\n      pop\n        /* \"#utility.yul\":7:97   */\n      swap2\n      swap1\n      pop\n      jump\t// out\n        /* \"#utility.yul\":103:212   */\n    tag_73:\n        /* \"#utility.yul\":184:205   */\n      tag_116\n        /* \"#utility.yul\":199:204   */\n      dup2\n        /* \"#utility.yul\":184:205   */\n      tag_72\n      jump\t// in\n    tag_116:\n        /* \"#utility.yul\":179:182   */\n      dup3\n        /* \"#utility.yul\":172:206   */\n      mstore\n        /* \"#utility.yul\":103:212   */\n      pop\n      pop\n      jump\t// out\n        /* \"#utility.yul\":218:428   */\n    tag_14:\n        /* \"#utility.yul\":305:309   */\n      0x00\n        /* \"#utility.yul\":343:345   */\n      0x20\n        /* \"#utility.yul\":332:341   */\n      dup3\n        /* \"#utility.yul\":328:346   */\n      add\n        /* \"#utility.yul\":320:346   */\n      swap1\n      pop\n        /* \"#utility.yul\":356:421   */\n      tag_118\n        /* \"#utility.yul\":418:419   */\n      0x00\n        /* \"#utility.yul\":407:416   */\n      dup4\n        /* \"#utility.yul\":403:420   */\n      add\n        /* \"#utility.yul\":394:400   */\n      dup5\n        /* \"#utility.yul\":356:421   */\n      tag_73\n      jump\t// in\n    tag_118:\n        /* \"#utility.yul\":218:428   */\n      swap3\n      swap2\n      pop\n      pop\n      jump\t// out\n        /* \"#utility.yul\":434:533   */\n    tag_74:\n        /* \"#utility.yul\":486:492   */\n      0x00\n        /* \"#utility.yul\":520:525   */\n      dup2\n        /* \"#utility.yul\":514:526   */\n      mload\n        /* \"#utility.yul\":504:526   */\n      swap1\n      pop\n        /* \"#utility.yul\":434:533   */\n      swap2\n      swap1\n      pop\n      jump\t// out\n        /* \"#utility.yul\":539:708   */\n    tag_75:\n        /* \"#utility.yul\":623:634   */\n      0x00\n        /* \"#utility.yul\":657:663   */\n      dup3\n        /* \"#utility.yul\":652:655   */\n      dup3\n        /* \"#utility.yul\":645:664   */\n      mstore\n        /* \"#utility.yul\":697:701   */\n      0x20\n        /* \"#utility.yul\":692:695   */\n      dup3\n        /* \"#utility.yul\":688:702   */\n      add\n        /* \"#utility.yul\":673:702   */\n      swap1\n      pop\n        /* \"#utility.yul\":539:708   */\n      swap3\n      swap2\n      pop\n      pop\n      jump\t// out\n        /* \"#utility.yul\":714:853   */\n    tag_76:\n        /* \"#utility.yul\":803:809   */\n      dup3\n        /* \"#utility.yul\":798:801   */\n      dup2\n        /* \"#utility.yul\":793:796   */\n      dup4\n        /* \"#utility.yul\":787:810   */\n      mcopy\n        /* \"#utility.yul\":844:845   */\n      0x00\n        /* \"#utility.yul\":835:841   */\n      dup4\n        /* \"#utility.yul\":830:833   */\n      dup4\n        /* \"#utility.yul\":826:842   */\n      add\n        /* \"#utility.yul\":819:846   */\n      mstore\n        /* \"#utility.yul\":714:853   */\n      pop\n      pop\n      pop\n      jump\t// out\n        /* \"#utility.yul\":859:961   */\n    tag_77:\n        /* \"#utility.yul\":900:906   */\n      0x00\n        /* \"#utility.yul\":951:953   */\n      0x1f\n        /* \"#utility.yul\":947:954   */\n      not\n        /* \"#utility.yul\":942:944   */\n      0x1f\n        /* \"#utility.yul\":935:940   */\n      dup4\n        /* \"#utility.yul\":931:945   */\n      add\n        /* \"#utility.yul\":927:955   */\n      and\n        /* \"#utility.yul\":917:955   */\n      swap1\n      pop\n        /* \"#utility.yul\":859:961   */\n      swap2\n      swap1\n      pop\n      jump\t// out\n        /* \"#utility.yul\":967:1344   */\n    tag_78:\n        /* \"#utility.yul\":1055:1058   */\n      0x00\n        /* \"#utility.yul\":1083:1122   */\n      tag_124\n        /* \"#utility.yul\":1116:1121   */\n      dup3\n        /* \"#utility.yul\":1083:1122   */\n      tag_74\n      jump\t// in\n    tag_124:\n        /* \"#utility.yul\":1138:1209   */\n      tag_125\n        /* \"#utility.yul\":1202:1208   */\n      dup2\n        /* \"#utility.yul\":1197:1200   */\n      dup6\n        /* \"#utility.yul\":1138:1209   */\n      tag_75\n      jump\t// in\n    tag_125:\n        /* \"#utility.yul\":1131:1209   */\n      swap4\n      pop\n        /* \"#utility.yul\":1218:1283   */\n      tag_126\n        /* \"#utility.yul\":1276:1282   */\n      dup2\n        /* \"#utility.yul\":1271:1274   */\n      dup6\n        /* \"#utility.yul\":1264:1268   */\n      0x20\n        /* \"#utility.yul\":1257:1262   */\n      dup7\n        /* \"#utility.yul\":1253:1269   */\n      add\n        /* \"#utility.yul\":1218:1283   */\n      tag_76\n      jump\t// in\n    tag_126:\n        /* \"#utility.yul\":1308:1337   */\n      tag_127\n        /* \"#utility.yul\":1330:1336   */\n      dup2\n        /* \"#utility.yul\":1308:1337   */\n      tag_77\n      jump\t// in\n    tag_127:\n        /* \"#utility.yul\":1303:1306   */\n      dup5\n        /* \"#utility.yul\":1299:1338   */\n      add\n        /* \"#utility.yul\":1292:1338   */\n      swap2\n      pop\n        /* \"#utility.yul\":1059:1344   */\n      pop\n        /* \"#utility.yul\":967:1344   */\n      swap3\n      swap2\n      pop\n      pop\n      jump\t// out\n        /* \"#utility.yul\":1350:1663   */\n    tag_18:\n        /* \"#utility.yul\":1463:1467   */\n      0x00\n        /* \"#utility.yul\":1501:1503   */\n      0x20\n        /* \"#utility.yul\":1490:1499   */\n      dup3\n        /* \"#utility.yul\":1486:1504   */\n      add\n        /* \"#utility.yul\":1478:1504   */\n      swap1\n      pop\n        /* \"#utility.yul\":1550:1559   */\n      dup2\n        /* \"#utility.yul\":1544:1548   */\n      dup2\n        /* \"#utility.yul\":1540:1560   */\n      sub\n        /* \"#utility.yul\":1536:1537   */\n      0x00\n        /* \"#utility.yul\":1525:1534   */\n      dup4\n        /* \"#utility.yul\":1521:1538   */\n      add\n        /* \"#utility.yul\":1514:1561   */\n      mstore\n        /* \"#utility.yul\":1578:1656   */\n      tag_129\n        /* \"#utility.yul\":1651:1655   */\n      dup2\n        /* \"#utility.yul\":1642:1648   */\n      dup5\n        /* \"#utility.yul\":1578:1656   */\n      tag_78\n      jump\t// in\n    tag_129:\n        /* \"#utility.yul\":1570:1656   */\n      swap1\n      pop\n        /* \"#utility.yul\":1350:1663   */\n      swap3\n      swap2\n      pop\n      pop\n      jump\t// out\n        /* \"#utility.yul\":1669:1744   */\n    tag_79:\n        /* \"#utility.yul\":1702:1708   */\n      0x00\n        /* \"#utility.yul\":1735:1737   */\n      0x40\n        /* \"#utility.yul\":1729:1738   */\n      mload\n        /* \"#utility.yul\":1719:1738   */\n      swap1\n      pop\n        /* \"#utility.yul\":1669:1744   */\n      swap1\n      jump\t// out\n        /* \"#utility.yul\":1750:1867   */\n    tag_80:\n        /* \"#utility.yul\":1859:1860   */\n      0x00\n        /* \"#utility.yul\":1856:1857   */\n      0x00\n        /* \"#utility.yul\":1849:1861   */\n      revert\n        /* \"#utility.yul\":1873:1990   */\n    tag_81:\n        /* \"#utility.yul\":1982:1983   */\n      0x00\n        /* \"#utility.yul\":1979:1980   */\n      0x00\n        /* \"#utility.yul\":1972:1984   */\n      revert\n        /* \"#utility.yul\":1996:2113   */\n    tag_82:\n        /* \"#utility.yul\":2105:2106   */\n      0x00\n        /* \"#utility.yul\":2102:2103   */\n      0x00\n        /* \"#utility.yul\":2095:2107   */\n      revert\n        /* \"#utility.yul\":2119:2236   */\n    tag_83:\n        /* \"#utility.yul\":2228:2229   */\n      0x00\n        /* \"#utility.yul\":2225:2226   */\n      0x00\n        /* \"#utility.yul\":2218:2230   */\n      revert\n        /* \"#utility.yul\":2242:2422   */\n    tag_84:\n        /* \"#utility.yul\":2290:2367   */\n      0x4e487b7100000000000000000000000000000000000000000000000000000000\n        /* \"#utility.yul\":2287:2288   */\n      0x00\n        /* \"#utility.yul\":2280:2368   */\n      mstore\n        /* \"#utility.yul\":2387:2391   */\n      0x41\n        /* \"#utility.yul\":2384:2385   */\n      0x04\n        /* \"#utility.yul\":2377:2392   */\n      mstore\n        /* \"#utility.yul\":2411:2415   */\n      0x24\n        /* \"#utility.yul\":2408:2409   */\n      0x00\n        /* \"#utility.yul\":2401:2416   */\n      revert\n        /* \"#utility.yul\":2428:2709   */\n    tag_85:\n        /* \"#utility.yul\":2511:2538   */\n      tag_137\n        /* \"#utility.yul\":2533:2537   */\n      dup3\n        /* \"#utility.yul\":2511:2538   */\n      tag_77\n      jump\t// in\n    tag_137:\n        /* \"#utility.yul\":2503:2509   */\n      dup2\n        /* \"#utility.yul\":2499:2539   */\n      add\n        /* \"#utility.yul\":2641:2647   */\n      dup2\n        /* \"#utility.yul\":2629:2639   */\n      dup2\n        /* \"#utility.yul\":2626:2648   */\n      lt\n        /* \"#utility.yul\":2605:2623   */\n      0xffffffffffffffff\n        /* \"#utility.yul\":2593:2603   */\n      dup3\n        /* \"#utility.yul\":2590:2624   */\n      gt\n        /* \"#utility.yul\":2587:2649   */\n      or\n        /* \"#utility.yul\":2584:2672   */\n      iszero\n      tag_138\n      jumpi\n        /* \"#utility.yul\":2652:2670   */\n      tag_139\n      tag_84\n      jump\t// in\n    tag_139:\n        /* \"#utility.yul\":2584:2672   */\n    tag_138:\n        /* \"#utility.yul\":2692:2702   */\n      dup1\n        /* \"#utility.yul\":2688:2690   */\n      0x40\n        /* \"#utility.yul\":2681:2703   */\n      mstore\n        /* \"#utility.yul\":2471:2709   */\n      pop\n        /* \"#utility.yul\":2428:2709   */\n      pop\n      pop\n      jump\t// out\n        /* \"#utility.yul\":2715:2844   */\n    tag_86:\n        /* \"#utility.yul\":2749:2755   */\n      0x00\n        /* \"#utility.yul\":2776:2796   */\n      tag_141\n      tag_79\n      jump\t// in\n    tag_141:\n        /* \"#utility.yul\":2766:2796   */\n      swap1\n      pop\n        /* \"#utility.yul\":2805:2838   */\n      tag_142\n        /* \"#utility.yul\":2833:2837   */\n      dup3\n        /* \"#utility.yul\":2825:2831   */\n      dup3\n        /* \"#utility.yul\":2805:2838   */\n      tag_85\n      jump\t// in\n    tag_142:\n        /* \"#utility.yul\":2715:2844   */\n      swap2\n      swap1\n      pop\n      jump\t// out\n        /* \"#utility.yul\":2850:3158   */\n    tag_87:\n        /* \"#utility.yul\":2912:2916   */\n      0x00\n        /* \"#utility.yul\":3002:3020   */\n      0xffffffffffffffff\n        /* \"#utility.yul\":2994:3000   */\n      dup3\n        /* \"#utility.yul\":2991:3021   */\n      gt\n        /* \"#utility.yul\":2988:3044   */\n      iszero\n      tag_144\n      jumpi\n        /* \"#utility.yul\":3024:3042   */\n      tag_145\n      tag_84\n      jump\t// in\n    tag_145:\n        /* \"#utility.yul\":2988:3044   */\n    tag_144:\n        /* \"#utility.yul\":3062:3091   */\n      tag_146\n        /* \"#utility.yul\":3084:3090   */\n      dup3\n        /* \"#utility.yul\":3062:3091   */\n      tag_77\n      jump\t// in\n    tag_146:\n        /* \"#utility.yul\":3054:3091   */\n      swap1\n      pop\n        /* \"#utility.yul\":3146:3150   */\n      0x20\n        /* \"#utility.yul\":3140:3144   */\n      dup2\n        /* \"#utility.yul\":3136:3151   */\n      add\n        /* \"#utility.yul\":3128:3151   */\n      swap1\n      pop\n        /* \"#utility.yul\":2850:3158   */\n      swap2\n      swap1\n      pop\n      jump\t// out\n        /* \"#utility.yul\":3164:3312   */\n    tag_88:\n        /* \"#utility.yul\":3262:3268   */\n      dup3\n        /* \"#utility.yul\":3257:3260   */\n      dup2\n        /* \"#utility.yul\":3252:3255   */\n      dup4\n        /* \"#utility.yul\":3239:3269   */\n      calldatacopy\n        /* \"#utility.yul\":3303:3304   */\n      0x00\n        /* \"#utility.yul\":3294:3300   */\n      dup4\n        /* \"#utility.yul\":3289:3292   */\n      dup4\n        /* \"#utility.yul\":3285:3301   */\n      add\n        /* \"#utility.yul\":3278:3305   */\n      mstore\n        /* \"#utility.yul\":3164:3312   */\n      pop\n      pop\n      pop\n      jump\t// out\n        /* \"#utility.yul\":3318:3743   */\n    tag_89:\n        /* \"#utility.yul\":3396:3401   */\n      0x00\n        /* \"#utility.yul\":3421:3487   */\n      tag_149\n        /* \"#utility.yul\":3437:3486   */\n      tag_150\n        /* \"#utility.yul\":3479:3485   */\n      dup5\n        /* \"#utility.yul\":3437:3486   */\n      tag_87\n      jump\t// in\n    tag_150:\n        /* \"#utility.yul\":3421:3487   */\n      tag_86\n      jump\t// in\n    tag_149:\n        /* \"#utility.yul\":3412:3487   */\n      swap1\n      pop\n        /* \"#utility.yul\":3510:3516   */\n      dup3\n        /* \"#utility.yul\":3503:3508   */\n      dup2\n        /* \"#utility.yul\":3496:3517   */\n      mstore\n        /* \"#utility.yul\":3548:3552   */\n      0x20\n        /* \"#utility.yul\":3541:3546   */\n      dup2\n        /* \"#utility.yul\":3537:3553   */\n      add\n        /* \"#utility.yul\":3586:3589   */\n      dup5\n        /* \"#utility.yul\":3577:3583   */\n      dup5\n        /* \"#utility.yul\":3572:3575   */\n      dup5\n        /* \"#utility.yul\":3568:3584   */\n      add\n        /* \"#utility.yul\":3565:3590   */\n      gt\n        /* \"#utility.yul\":3562:3674   */\n      iszero\n      tag_151\n      jumpi\n        /* \"#utility.yul\":3593:3672   */\n      tag_152\n      tag_83\n      jump\t// in\n    tag_152:\n        /* \"#utility.yul\":3562:3674   */\n    tag_151:\n        /* \"#utility.yul\":3683:3737   */\n      tag_153\n        /* \"#utility.yul\":3730:3736   */\n      dup5\n        /* \"#utility.yul\":3725:3728   */\n      dup3\n        /* \"#utility.yul\":3720:3723   */\n      dup6\n        /* \"#utility.yul\":3683:3737   */\n      tag_88\n      jump\t// in\n    tag_153:\n        /* \"#utility.yul\":3402:3743   */\n      pop\n        /* \"#utility.yul\":3318:3743   */\n      swap4\n      swap3\n      pop\n      pop\n      pop\n      jump\t// out\n        /* \"#utility.yul\":3763:4103   */\n    tag_90:\n        /* \"#utility.yul\":3819:3824   */\n      0x00\n        /* \"#utility.yul\":3868:3871   */\n      dup3\n        /* \"#utility.yul\":3861:3865   */\n      0x1f\n        /* \"#utility.yul\":3853:3859   */\n      dup4\n        /* \"#utility.yul\":3849:3866   */\n      add\n        /* \"#utility.yul\":3845:3872   */\n      slt\n        /* \"#utility.yul\":3835:3957   */\n      tag_155\n      jumpi\n        /* \"#utility.yul\":3876:3955   */\n      tag_156\n      tag_82\n      jump\t// in\n    tag_156:\n        /* \"#utility.yul\":3835:3957   */\n    tag_155:\n        /* \"#utility.yul\":3993:3999   */\n      dup2\n        /* \"#utility.yul\":3980:4000   */\n      calldataload\n        /* \"#utility.yul\":4018:4097   */\n      tag_157\n        /* \"#utility.yul\":4093:4096   */\n      dup5\n        /* \"#utility.yul\":4085:4091   */\n      dup3\n        /* \"#utility.yul\":4078:4082   */\n      0x20\n        /* \"#utility.yul\":4070:4076   */\n      dup7\n        /* \"#utility.yul\":4066:4083   */\n      add\n        /* \"#utility.yul\":4018:4097   */\n      tag_89\n      jump\t// in\n    tag_157:\n        /* \"#utility.yul\":4009:4097   */\n      swap2\n      pop\n        /* \"#utility.yul\":3825:4103   */\n      pop\n        /* \"#utility.yul\":3763:4103   */\n      swap3\n      swap2\n      pop\n      pop\n      jump\t// out\n        /* \"#utility.yul\":4109:4943   */\n    tag_24:\n        /* \"#utility.yul\":4197:4203   */\n      0x00\n        /* \"#utility.yul\":4205:4211   */\n      0x00\n        /* \"#utility.yul\":4254:4256   */\n      0x40\n        /* \"#utility.yul\":4242:4251   */\n      dup4\n        /* \"#utility.yul\":4233:4240   */\n      dup6\n        /* \"#utility.yul\":4229:4252   */\n      sub\n        /* \"#utility.yul\":4225:4257   */\n      slt\n        /* \"#utility.yul\":4222:4341   */\n      iszero\n      tag_159\n      jumpi\n        /* \"#utility.yul\":4260:4339   */\n      tag_160\n      tag_80\n      jump\t// in\n    tag_160:\n        /* \"#utility.yul\":4222:4341   */\n    tag_159:\n        /* \"#utility.yul\":4408:4409   */\n      0x00\n        /* \"#utility.yul\":4397:4406   */\n      dup4\n        /* \"#utility.yul\":4393:4410   */\n      add\n        /* \"#utility.yul\":4380:4411   */\n      calldataload\n        /* \"#utility.yul\":4438:4456   */\n      0xffffffffffffffff\n        /* \"#utility.yul\":4430:4436   */\n      dup2\n        /* \"#utility.yul\":4427:4457   */\n      gt\n        /* \"#utility.yul\":4424:4541   */\n      iszero\n      tag_161\n      jumpi\n        /* \"#utility.yul\":4460:4539   */\n      tag_162\n      tag_81\n      jump\t// in\n    tag_162:\n        /* \"#utility.yul\":4424:4541   */\n    tag_161:\n        /* \"#utility.yul\":4565:4628   */\n      tag_163\n        /* \"#utility.yul\":4620:4627   */\n      dup6\n        /* \"#utility.yul\":4611:4617   */\n      dup3\n        /* \"#utility.yul\":4600:4609   */\n      dup7\n        /* \"#utility.yul\":4596:4618   */\n      add\n        /* \"#utility.yul\":4565:4628   */\n      tag_90\n      jump\t// in\n    tag_163:\n        /* \"#utility.yul\":4555:4628   */\n      swap3\n      pop\n        /* \"#utility.yul\":4351:4638   */\n      pop\n        /* \"#utility.yul\":4705:4707   */\n      0x20\n        /* \"#utility.yul\":4694:4703   */\n      dup4\n        /* \"#utility.yul\":4690:4708   */\n      add\n        /* \"#utility.yul\":4677:4709   */\n      calldataload\n        /* \"#utility.yul\":4736:4754   */\n      0xffffffffffffffff\n        /* \"#utility.yul\":4728:4734   */\n      dup2\n        /* \"#utility.yul\":4725:4755   */\n      gt\n        /* \"#utility.yul\":4722:4839   */\n      iszero\n      tag_164\n      jumpi\n        /* \"#utility.yul\":4758:4837   */\n      tag_165\n      tag_81\n      jump\t// in\n    tag_165:\n        /* \"#utility.yul\":4722:4839   */\n    tag_164:\n        /* \"#utility.yul\":4863:4926   */\n      tag_166\n        /* \"#utility.yul\":4918:4925   */\n      dup6\n        /* \"#utility.yul\":4909:4915   */\n      dup3\n        /* \"#utility.yul\":4898:4907   */\n      dup7\n        /* \"#utility.yul\":4894:4916   */\n      add\n        /* \"#utility.yul\":4863:4926   */\n      tag_90\n      jump\t// in\n    tag_166:\n        /* \"#utility.yul\":4853:4926   */\n      swap2\n      pop\n        /* \"#utility.yul\":4648:4936   */\n      pop\n        /* \"#utility.yul\":4109:4943   */\n      swap3\n      pop\n      swap3\n      swap1\n      pop\n      jump\t// out\n        /* \"#utility.yul\":4949:5463   */\n    tag_35:\n        /* \"#utility.yul\":5110:5114   */\n      0x00\n        /* \"#utility.yul\":5148:5150   */\n      0x40\n        /* \"#utility.yul\":5137:5146   */\n      dup3\n        /* \"#utility.yul\":5133:5151   */\n      add\n        /* \"#utility.yul\":5125:5151   */\n      swap1\n      pop\n        /* \"#utility.yul\":5197:5206   */\n      dup2\n        /* \"#utility.yul\":5191:5195   */\n      dup2\n        /* \"#utility.yul\":5187:5207   */\n      sub\n        /* \"#utility.yul\":5183:5184   */\n      0x00\n        /* \"#utility.yul\":5172:5181   */\n      dup4\n        /* \"#utility.yul\":5168:5185   */\n      add\n        /* \"#utility.yul\":5161:5208   */\n      mstore\n        /* \"#utility.yul\":5225:5303   */\n      tag_168\n        /* \"#utility.yul\":5298:5302   */\n      dup2\n        /* \"#utility.yul\":5289:5295   */\n      dup6\n        /* \"#utility.yul\":5225:5303   */\n      tag_78\n      jump\t// in\n    tag_168:\n        /* \"#utility.yul\":5217:5303   */\n      swap1\n      pop\n        /* \"#utility.yul\":5350:5359   */\n      dup2\n        /* \"#utility.yul\":5344:5348   */\n      dup2\n        /* \"#utility.yul\":5340:5360   */\n      sub\n        /* \"#utility.yul\":5335:5337   */\n      0x20\n        /* \"#utility.yul\":5324:5333   */\n      dup4\n        /* \"#utility.yul\":5320:5338   */\n      add\n        /* \"#utility.yul\":5313:5361   */\n      mstore\n        /* \"#utility.yul\":5378:5456   */\n      tag_169\n        /* \"#utility.yul\":5451:5455   */\n      dup2\n        /* \"#utility.yul\":5442:5448   */\n      dup5\n        /* \"#utility.yul\":5378:5456   */\n      tag_78\n      jump\t// in\n    tag_169:\n        /* \"#utility.yul\":5370:5456   */\n      swap1\n      pop\n        /* \"#utility.yul\":4949:5463   */\n      swap4\n      swap3\n      pop\n      pop\n      pop\n      jump\t// out\n        /* \"#utility.yul\":5469:5649   */\n    tag_91:\n        /* \"#utility.yul\":5517:5594   */\n      0x4e487b7100000000000000000000000000000000000000000000000000000000\n        /* \"#utility.yul\":5514:5515   */\n      0x00\n        /* \"#utility.yul\":5507:5595   */\n      mstore\n        /* \"#utility.yul\":5614:5618   */\n      0x22\n        /* \"#utility.yul\":5611:5612   */\n      0x04\n        /* \"#utility.yul\":5604:5619   */\n      mstore\n        /* \"#utility.yul\":5638:5642   */\n      0x24\n        /* \"#utility.yul\":5635:5636   */\n      0x00\n        /* \"#utility.yul\":5628:5643   */\n      revert\n        /* \"#utility.yul\":5655:5975   */\n    tag_41:\n        /* \"#utility.yul\":5699:5705   */\n      0x00\n        /* \"#utility.yul\":5736:5737   */\n      0x02\n        /* \"#utility.yul\":5730:5734   */\n      dup3\n        /* \"#utility.yul\":5726:5738   */\n      div\n        /* \"#utility.yul\":5716:5738   */\n      swap1\n      pop\n        /* \"#utility.yul\":5783:5784   */\n      0x01\n        /* \"#utility.yul\":5777:5781   */\n      dup3\n        /* \"#utility.yul\":5773:5785   */\n      and\n        /* \"#utility.yul\":5804:5822   */\n      dup1\n        /* \"#utility.yul\":5794:5875   */\n      tag_172\n      jumpi\n        /* \"#utility.yul\":5860:5864   */\n      0x7f\n        /* \"#utility.yul\":5852:5858   */\n      dup3\n        /* \"#utility.yul\":5848:5865   */\n      and\n        /* \"#utility.yul\":5838:5865   */\n      swap2\n      pop\n        /* \"#utility.yul\":5794:5875   */\n    tag_172:\n        /* \"#utility.yul\":5922:5924   */\n      0x20\n        /* \"#utility.yul\":5914:5920   */\n      dup3\n        /* \"#utility.yul\":5911:5925   */\n      lt\n        /* \"#utility.yul\":5891:5909   */\n      dup2\n        /* \"#utility.yul\":5888:5926   */\n      sub\n        /* \"#utility.yul\":5885:5969   */\n      tag_173\n      jumpi\n        /* \"#utility.yul\":5941:5959   */\n      tag_174\n      tag_91\n      jump\t// in\n    tag_174:\n        /* \"#utility.yul\":5885:5969   */\n    tag_173:\n        /* \"#utility.yul\":5706:5975   */\n      pop\n        /* \"#utility.yul\":5655:5975   */\n      swap2\n      swap1\n      pop\n      jump\t// out\n        /* \"#utility.yul\":5981:6129   */\n    tag_92:\n        /* \"#utility.yul\":6083:6094   */\n      0x00\n        /* \"#utility.yul\":6120:6123   */\n      dup2\n        /* \"#utility.yul\":6105:6123   */\n      swap1\n      pop\n        /* \"#utility.yul\":5981:6129   */\n      swap3\n      swap2\n      pop\n      pop\n      jump\t// out\n        /* \"#utility.yul\":6135:6276   */\n    tag_93:\n        /* \"#utility.yul\":6184:6188   */\n      0x00\n        /* \"#utility.yul\":6207:6210   */\n      dup2\n        /* \"#utility.yul\":6199:6210   */\n      swap1\n      pop\n        /* \"#utility.yul\":6230:6233   */\n      dup2\n        /* \"#utility.yul\":6227:6228   */\n      0x00\n        /* \"#utility.yul\":6220:6234   */\n      mstore\n        /* \"#utility.yul\":6264:6268   */\n      0x20\n        /* \"#utility.yul\":6261:6262   */\n      0x00\n        /* \"#utility.yul\":6251:6269   */\n      keccak256\n        /* \"#utility.yul\":6243:6269   */\n      swap1\n      pop\n        /* \"#utility.yul\":6135:6276   */\n      swap2\n      swap1\n      pop\n      jump\t// out\n        /* \"#utility.yul\":6306:7180   */\n    tag_94:\n        /* \"#utility.yul\":6409:6412   */\n      0x00\n        /* \"#utility.yul\":6446:6451   */\n      dup2\n        /* \"#utility.yul\":6440:6452   */\n      sload\n        /* \"#utility.yul\":6475:6511   */\n      tag_178\n        /* \"#utility.yul\":6501:6510   */\n      dup2\n        /* \"#utility.yul\":6475:6511   */\n      tag_41\n      jump\t// in\n    tag_178:\n        /* \"#utility.yul\":6527:6616   */\n      tag_179\n        /* \"#utility.yul\":6609:6615   */\n      dup2\n        /* \"#utility.yul\":6604:6607   */\n      dup7\n        /* \"#utility.yul\":6527:6616   */\n      tag_92\n      jump\t// in\n    tag_179:\n        /* \"#utility.yul\":6520:6616   */\n      swap5\n      pop\n        /* \"#utility.yul\":6647:6648   */\n      0x01\n        /* \"#utility.yul\":6636:6645   */\n      dup3\n        /* \"#utility.yul\":6632:6649   */\n      and\n        /* \"#utility.yul\":6663:6664   */\n      0x00\n        /* \"#utility.yul\":6658:6824   */\n      dup2\n      eq\n      tag_181\n      jumpi\n        /* \"#utility.yul\":6838:6839   */\n      0x01\n        /* \"#utility.yul\":6833:7174   */\n      dup2\n      eq\n      tag_182\n      jumpi\n        /* \"#utility.yul\":6625:7174   */\n      jump(tag_180)\n        /* \"#utility.yul\":6658:6824   */\n    tag_181:\n        /* \"#utility.yul\":6742:6746   */\n      0xff\n        /* \"#utility.yul\":6738:6747   */\n      not\n        /* \"#utility.yul\":6727:6736   */\n      dup4\n        /* \"#utility.yul\":6723:6748   */\n      and\n        /* \"#utility.yul\":6718:6721   */\n      dup7\n        /* \"#utility.yul\":6711:6749   */\n      mstore\n        /* \"#utility.yul\":6804:6810   */\n      dup2\n        /* \"#utility.yul\":6797:6811   */\n      iszero\n        /* \"#utility.yul\":6790:6812   */\n      iszero\n        /* \"#utility.yul\":6782:6788   */\n      dup3\n        /* \"#utility.yul\":6778:6813   */\n      mul\n        /* \"#utility.yul\":6773:6776   */\n      dup7\n        /* \"#utility.yul\":6769:6814   */\n      add\n        /* \"#utility.yul\":6762:6814   */\n      swap4\n      pop\n        /* \"#utility.yul\":6658:6824   */\n      jump(tag_180)\n        /* \"#utility.yul\":6833:7174   */\n    tag_182:\n        /* \"#utility.yul\":6900:6938   */\n      tag_183\n        /* \"#utility.yul\":6932:6937   */\n      dup6\n        /* \"#utility.yul\":6900:6938   */\n      tag_93\n      jump\t// in\n    tag_183:\n        /* \"#utility.yul\":6960:6961   */\n      0x00\n        /* \"#utility.yul\":6974:7128   */\n    tag_184:\n        /* \"#utility.yul\":6988:6994   */\n      dup4\n        /* \"#utility.yul\":6985:6986   */\n      dup2\n        /* \"#utility.yul\":6982:6995   */\n      lt\n        /* \"#utility.yul\":6974:7128   */\n      iszero\n      tag_186\n      jumpi\n        /* \"#utility.yul\":7062:7069   */\n      dup2\n        /* \"#utility.yul\":7056:7070   */\n      sload\n        /* \"#utility.yul\":7052:7053   */\n      dup2\n        /* \"#utility.yul\":7047:7050   */\n      dup10\n        /* \"#utility.yul\":7043:7054   */\n      add\n        /* \"#utility.yul\":7036:7071   */\n      mstore\n        /* \"#utility.yul\":7112:7113   */\n      0x01\n        /* \"#utility.yul\":7103:7110   */\n      dup3\n        /* \"#utility.yul\":7099:7114   */\n      add\n        /* \"#utility.yul\":7088:7114   */\n      swap2\n      pop\n        /* \"#utility.yul\":7010:7014   */\n      0x20\n        /* \"#utility.yul\":7007:7008   */\n      dup2\n        /* \"#utility.yul\":7003:7015   */\n      add\n        /* \"#utility.yul\":6998:7015   */\n      swap1\n      pop\n        /* \"#utility.yul\":6974:7128   */\n      jump(tag_184)\n    tag_186:\n        /* \"#utility.yul\":7157:7163   */\n      dup4\n        /* \"#utility.yul\":7152:7155   */\n      dup9\n        /* \"#utility.yul\":7148:7164   */\n      add\n        /* \"#utility.yul\":7141:7164   */\n      swap6\n      pop\n        /* \"#utility.yul\":6840:7174   */\n      pop\n      pop\n        /* \"#utility.yul\":6625:7174   */\n    tag_180:\n      pop\n        /* \"#utility.yul\":6413:7180   */\n      pop\n      pop\n        /* \"#utility.yul\":6306:7180   */\n      swap3\n      swap2\n      pop\n      pop\n      jump\t// out\n        /* \"#utility.yul\":7186:7455   */\n    tag_38:\n        /* \"#utility.yul\":7315:7318   */\n      0x00\n        /* \"#utility.yul\":7337:7429   */\n      tag_188\n        /* \"#utility.yul\":7425:7428   */\n      dup3\n        /* \"#utility.yul\":7416:7422   */\n      dup5\n        /* \"#utility.yul\":7337:7429   */\n      tag_94\n      jump\t// in\n    tag_188:\n        /* \"#utility.yul\":7330:7429   */\n      swap2\n      pop\n        /* \"#utility.yul\":7446:7449   */\n      dup2\n        /* \"#utility.yul\":7439:7449   */\n      swap1\n      pop\n        /* \"#utility.yul\":7186:7455   */\n      swap3\n      swap2\n      pop\n      pop\n      jump\t// out\n        /* \"#utility.yul\":7461:7643   */\n    tag_95:\n        /* \"#utility.yul\":7629:7636   */\n      0x20616e6420000000000000000000000000000000000000000000000000000000\n        /* \"#utility.yul\":7624:7627   */\n      dup2\n        /* \"#utility.yul\":7617:7637   */\n      mstore\n        /* \"#utility.yul\":7461:7643   */\n      pop\n      jump\t// out\n        /* \"#utility.yul\":7649:8336   */\n    tag_48:\n        /* \"#utility.yul\":7913:7916   */\n      0x00\n        /* \"#utility.yul\":7935:8027   */\n      tag_191\n        /* \"#utility.yul\":8023:8026   */\n      dup3\n        /* \"#utility.yul\":8014:8020   */\n      dup6\n        /* \"#utility.yul\":7935:8027   */\n      tag_94\n      jump\t// in\n    tag_191:\n        /* \"#utility.yul\":7928:8027   */\n      swap2\n      pop\n        /* \"#utility.yul\":8037:8174   */\n      tag_192\n        /* \"#utility.yul\":8170:8173   */\n      dup3\n        /* \"#utility.yul\":8037:8174   */\n      tag_95\n      jump\t// in\n    tag_192:\n        /* \"#utility.yul\":8199:8200   */\n      0x05\n        /* \"#utility.yul\":8194:8197   */\n      dup3\n        /* \"#utility.yul\":8190:8201   */\n      add\n        /* \"#utility.yul\":8183:8201   */\n      swap2\n      pop\n        /* \"#utility.yul\":8218:8310   */\n      tag_193\n        /* \"#utility.yul\":8306:8309   */\n      dup3\n        /* \"#utility.yul\":8297:8303   */\n      dup5\n        /* \"#utility.yul\":8218:8310   */\n      tag_94\n      jump\t// in\n    tag_193:\n        /* \"#utility.yul\":8211:8310   */\n      swap2\n      pop\n        /* \"#utility.yul\":8327:8330   */\n      dup2\n        /* \"#utility.yul\":8320:8330   */\n      swap1\n      pop\n        /* \"#utility.yul\":7649:8336   */\n      swap4\n      swap3\n      pop\n      pop\n      pop\n      jump\t// out\n        /* \"#utility.yul\":8342:8435   */\n    tag_96:\n        /* \"#utility.yul\":8379:8385   */\n      0x00\n        /* \"#utility.yul\":8426:8428   */\n      0x20\n        /* \"#utility.yul\":8421:8423   */\n      0x1f\n        /* \"#utility.yul\":8414:8419   */\n      dup4\n        /* \"#utility.yul\":8410:8424   */\n      add\n        /* \"#utility.yul\":8406:8429   */\n      div\n        /* \"#utility.yul\":8396:8429   */\n      swap1\n      pop\n        /* \"#utility.yul\":8342:8435   */\n      swap2\n      swap1\n      pop\n      jump\t// out\n        /* \"#utility.yul\":8441:8548   */\n    tag_97:\n        /* \"#utility.yul\":8485:8493   */\n      0x00\n        /* \"#utility.yul\":8535:8540   */\n      dup3\n        /* \"#utility.yul\":8529:8533   */\n      dup3\n        /* \"#utility.yul\":8525:8541   */\n      shl\n        /* \"#utility.yul\":8504:8541   */\n      swap1\n      pop\n        /* \"#utility.yul\":8441:8548   */\n      swap3\n      swap2\n      pop\n      pop\n      jump\t// out\n        /* \"#utility.yul\":8554:8947   */\n    tag_98:\n        /* \"#utility.yul\":8623:8629   */\n      0x00\n        /* \"#utility.yul\":8673:8674   */\n      0x08\n        /* \"#utility.yul\":8661:8671   */\n      dup4\n        /* \"#utility.yul\":8657:8675   */\n      mul\n        /* \"#utility.yul\":8696:8793   */\n      tag_197\n        /* \"#utility.yul\":8726:8792   */\n      0xffffffffffffffffffffffffffffffffffffffffffffffffffffffffffffffff\n        /* \"#utility.yul\":8715:8724   */\n      dup3\n        /* \"#utility.yul\":8696:8793   */\n      tag_97\n      jump\t// in\n    tag_197:\n        /* \"#utility.yul\":8814:8853   */\n      tag_198\n        /* \"#utility.yul\":8844:8852   */\n      dup7\n        /* \"#utility.yul\":8833:8842   */\n      dup4\n        /* \"#utility.yul\":8814:8853   */\n      tag_97\n      jump\t// in\n    tag_198:\n        /* \"#utility.yul\":8802:8853   */\n      swap6\n      pop\n        /* \"#utility.yul\":8886:8890   */\n      dup1\n        /* \"#utility.yul\":8882:8891   */\n      not\n        /* \"#utility.yul\":8875:8880   */\n      dup5\n        /* \"#utility.yul\":8871:8892   */\n      and\n        /* \"#utility.yul\":8862:8892   */\n      swap4\n      pop\n        /* \"#utility.yul\":8935:8939   */\n      dup1\n        /* \"#utility.yul\":8925:8933   */\n      dup7\n        /* \"#utility.yul\":8921:8940   */\n      and\n        /* \"#utility.yul\":8914:8919   */\n      dup5\n        /* \"#utility.yul\":8911:8941   */\n      or\n        /* \"#utility.yul\":8901:8941   */\n      swap3\n      pop\n        /* \"#utility.yul\":8630:8947   */\n      pop\n      pop\n        /* \"#utility.yul\":8554:8947   */\n      swap4\n      swap3\n      pop\n      pop\n      pop\n      jump\t// out\n        /* \"#utility.yul\":8953:9030   */\n    tag_99:\n        /* \"#utility.yul\":8990:8997   */\n      0x00\n        /* \"#utility.yul\":9019:9024   */\n      dup2\n        /* \"#utility.yul\":9008:9024   */\n      swap1\n      pop\n        /* \"#utility.yul\":8953:9030   */\n      swap2\n      swap1\n      pop\n      jump\t// out\n        /* \"#utility.yul\":9036:9096   */\n    tag_100:\n        /* \"#utility.yul\":9064:9067   */\n      0x00\n        /* \"#utility.yul\":9085:9090   */\n      dup2\n        /* \"#utility.yul\":9078:9090   */\n      swap1\n      pop\n        /* \"#utility.yul\":9036:9096   */\n      swap2\n      swap1\n      pop\n      jump\t// out\n        /* \"#utility.yul\":9102:9244   */\n    tag_101:\n        /* \"#utility.yul\":9152:9161   */\n      0x00\n        /* \"#utility.yul\":9185:9238   */\n      tag_202\n        /* \"#utility.yul\":9203:9237   */\n      tag_203\n        /* \"#utility.yul\":9212:9236   */\n      tag_204\n        /* \"#utility.yul\":9230:9235   */\n      dup5\n        /* \"#utility.yul\":9212:9236   */\n      tag_99\n      jump\t// in\n    tag_204:\n        /* \"#utility.yul\":9203:9237   */\n      tag_100\n      jump\t// in\n    tag_203:\n        /* \"#utility.yul\":9185:9238   */\n      tag_99\n      jump\t// in\n    tag_202:\n        /* \"#utility.yul\":9172:9238   */\n      swap1\n      pop\n        /* \"#utility.yul\":9102:9244   */\n      swap2\n      swap1\n      pop\n      jump\t// out\n        /* \"#utility.yul\":9250:9325   */\n    tag_102:\n        /* \"#utility.yul\":9293:9296   */\n      0x00\n        /* \"#utility.yul\":9314:9319   */\n      dup2\n        /* \"#utility.yul\":9307:9319   */\n      swap1\n      pop\n        /* \"#utility.yul\":9250:9325   */\n      swap2\n      swap1\n      pop\n      jump\t// out\n        /* \"#utility.yul\":9331:9600   */\n    tag_103:\n        /* \"#utility.yul\":9441:9480   */\n      tag_207\n        /* \"#utility.yul\":9472:9479   */\n      dup4\n        /* \"#utility.yul\":9441:9480   */\n      tag_101\n      jump\t// in\n    tag_207:\n        /* \"#utility.yul\":9502:9593   */\n      tag_208\n        /* \"#utility.yul\":9551:9592   */\n      tag_209\n        /* \"#utility.yul\":9575:9591   */\n      dup3\n        /* \"#utility.yul\":9551:9592   */\n      tag_102\n      jump\t// in\n    tag_209:\n        /* \"#utility.yul\":9543:9549   */\n      dup5\n        /* \"#utility.yul\":9536:9540   */\n      dup5\n        /* \"#utility.yul\":9530:9541   */\n      sload\n        /* \"#utility.yul\":9502:9593   */\n      tag_98\n      jump\t// in\n    tag_208:\n        /* \"#utility.yul\":9496:9500   */\n      dup3\n        /* \"#utility.yul\":9489:9594   */\n      sstore\n        /* \"#utility.yul\":9407:9600   */\n      pop\n        /* \"#utility.yul\":9331:9600   */\n      pop\n      pop\n      pop\n      jump\t// out\n        /* \"#utility.yul\":9606:9679   */\n    tag_104:\n        /* \"#utility.yul\":9651:9654   */\n      0x00\n        /* \"#utility.yul\":9672:9673   */\n      0x00\n        /* \"#utility.yul\":9665:9673   */\n      swap1\n      pop\n        /* \"#utility.yul\":9606:9679   */\n      swap1\n      jump\t// out\n        /* \"#utility.yul\":9685:9874   */\n    tag_105:\n        /* \"#utility.yul\":9762:9794   */\n      tag_212\n      tag_104\n      jump\t// in\n    tag_212:\n        /* \"#utility.yul\":9803:9868   */\n      tag_213\n        /* \"#utility.yul\":9861:9867   */\n      dup2\n        /* \"#utility.yul\":9853:9859   */\n      dup5\n        /* \"#utility.yul\":9847:9851   */\n      dup5\n        /* \"#utility.yul\":9803:9868   */\n      tag_103\n      jump\t// in\n    tag_213:\n        /* \"#utility.yul\":9738:9874   */\n      pop\n        /* \"#utility.yul\":9685:9874   */\n      pop\n      pop\n      jump\t// out\n        /* \"#utility.yul\":9880:10066   */\n    tag_106:\n        /* \"#utility.yul\":9940:10060   */\n    tag_215:\n        /* \"#utility.yul\":9957:9960   */\n      dup2\n        /* \"#utility.yul\":9950:9955   */\n      dup2\n        /* \"#utility.yul\":9947:9961   */\n      lt\n        /* \"#utility.yul\":9940:10060   */\n      iszero\n      tag_217\n      jumpi\n        /* \"#utility.yul\":10011:10050   */\n      tag_218\n        /* \"#utility.yul\":10048:10049   */\n      0x00\n        /* \"#utility.yul\":10041:10046   */\n      dup3\n        /* \"#utility.yul\":10011:10050   */\n      tag_105\n      jump\t// in\n    tag_218:\n        /* \"#utility.yul\":9984:9985   */\n      0x01\n        /* \"#utility.yul\":9977:9982   */\n      dup2\n        /* \"#utility.yul\":9973:9986   */\n      add\n        /* \"#utility.yul\":9964:9986   */\n      swap1\n      pop\n        /* \"#utility.yul\":9940:10060   */\n      jump(tag_215)\n    tag_217:\n        /* \"#utility.yul\":9880:10066   */\n      pop\n      pop\n      jump\t// out\n        /* \"#utility.yul\":10072:10615   */\n    tag_107:\n        /* \"#utility.yul\":10173:10175   */\n      0x1f\n        /* \"#utility.yul\":10168:10171   */\n      dup3\n        /* \"#utility.yul\":10165:10176   */\n      gt\n        /* \"#utility.yul\":10162:10608   */\n      iszero\n      tag_220\n      jumpi\n        /* \"#utility.yul\":10207:10245   */\n      tag_221\n        /* \"#utility.yul\":10239:10244   */\n      dup2\n        /* \"#utility.yul\":10207:10245   */\n      tag_93\n      jump\t// in\n    tag_221:\n        /* \"#utility.yul\":10291:10320   */\n      tag_222\n        /* \"#utility.yul\":10309:10319   */\n      dup5\n        /* \"#utility.yul\":10291:10320   */\n      tag_96\n      jump\t// in\n    tag_222:\n        /* \"#utility.yul\":10281:10289   */\n      dup2\n        /* \"#utility.yul\":10277:10321   */\n      add\n        /* \"#utility.yul\":10474:10476   */\n      0x20\n        /* \"#utility.yul\":10462:10472   */\n      dup6\n        /* \"#utility.yul\":10459:10477   */\n      lt\n        /* \"#utility.yul\":10456:10505   */\n      iszero\n      tag_223\n      jumpi\n        /* \"#utility.yul\":10495:10503   */\n      dup2\n        /* \"#utility.yul\":10480:10503   */\n      swap1\n      pop\n        /* \"#utility.yul\":10456:10505   */\n    tag_223:\n        /* \"#utility.yul\":10518:10598   */\n      tag_224\n        /* \"#utility.yul\":10574:10596   */\n      tag_225\n        /* \"#utility.yul\":10592:10595   */\n      dup6\n        /* \"#utility.yul\":10574:10596   */\n      tag_96\n      jump\t// in\n    tag_225:\n        /* \"#utility.yul\":10564:10572   */\n      dup4\n        /* \"#utility.yul\":10560:10597   */\n      add\n        /* \"#utility.yul\":10547:10558   */\n      dup3\n        /* \"#utility.yul\":10518:10598   */\n      tag_106\n      jump\t// in\n    tag_224:\n        /* \"#utility.yul\":10177:10608   */\n      pop\n      pop\n        /* \"#utility.yul\":10162:10608   */\n    tag_220:\n        /* \"#utility.yul\":10072:10615   */\n      pop\n      pop\n      pop\n      jump\t// out\n        /* \"#utility.yul\":10621:10738   */\n    tag_108:\n        /* \"#utility.yul\":10675:10683   */\n      0x00\n        /* \"#utility.yul\":10725:10730   */\n      dup3\n        /* \"#utility.yul\":10719:10723   */\n      dup3\n        /* \"#utility.yul\":10715:10731   */\n      shr\n        /* \"#utility.yul\":10694:10731   */\n      swap1\n      pop\n        /* \"#utility.yul\":10621:10738   */\n      swap3\n      swap2\n      pop\n      pop\n      jump\t// out\n        /* \"#utility.yul\":10744:10913   */\n    tag_109:\n        /* \"#utility.yul\":10788:10794   */\n      0x00\n        /* \"#utility.yul\":10821:10872   */\n      tag_228\n        /* \"#utility.yul\":10869:10870   */\n      0x00\n        /* \"#utility.yul\":10865:10871   */\n      not\n        /* \"#utility.yul\":10857:10862   */\n      dup5\n        /* \"#utility.yul\":10854:10855   */\n      0x08\n        /* \"#utility.yul\":10850:10863   */\n      mul\n        /* \"#utility.yul\":10821:10872   */\n      tag_108\n      jump\t// in\n    tag_228:\n        /* \"#utility.yul\":10817:10873   */\n      not\n        /* \"#utility.yul\":10902:10906   */\n      dup1\n        /* \"#utility.yul\":10896:10900   */\n      dup4\n        /* \"#utility.yul\":10892:10907   */\n      and\n        /* \"#utility.yul\":10882:10907   */\n      swap2\n      pop\n        /* \"#utility.yul\":10795:10913   */\n      pop\n        /* \"#utility.yul\":10744:10913   */\n      swap3\n      swap2\n      pop\n      pop\n      jump\t// out\n        /* \"#utility.yul\":10918:11213   */\n    tag_110:\n        /* \"#utility.yul\":10994:10998   */\n      0x00\n        /* \"#utility.yul\":11140:11169   */\n      tag_230\n        /* \"#utility.yul\":11165:11168   */\n      dup4\n        /* \"#utility.yul\":11159:11163   */\n      dup4\n        /* \"#utility.yul\":11140:11169   */\n      tag_109\n      jump\t// in\n    tag_230:\n        /* \"#utility.yul\":11132:11169   */\n      swap2\n      pop\n        /* \"#utility.yul\":11202:11205   */\n      dup3\n        /* \"#utility.yul\":11199:11200   */\n      0x02\n        /* \"#utility.yul\":11195:11206   */\n      mul\n        /* \"#utility.yul\":11189:11193   */\n      dup3\n        /* \"#utility.yul\":11186:11207   */\n      or\n        /* \"#utility.yul\":11178:11207   */\n      swap1\n      pop\n        /* \"#utility.yul\":10918:11213   */\n      swap3\n      swap2\n      pop\n      pop\n      jump\t// out\n        /* \"#utility.yul\":11218:12613   */\n    tag_51:\n        /* \"#utility.yul\":11335:11372   */\n      tag_232\n        /* \"#utility.yul\":11368:11371   */\n      dup3\n        /* \"#utility.yul\":11335:11372   */\n      tag_74\n      jump\t// in\n    tag_232:\n        /* \"#utility.yul\":11437:11455   */\n      0xffffffffffffffff\n        /* \"#utility.yul\":11429:11435   */\n      dup2\n        /* \"#utility.yul\":11426:11456   */\n      gt\n        /* \"#utility.yul\":11423:11479   */\n      iszero\n      tag_233\n      jumpi\n        /* \"#utility.yul\":11459:11477   */\n      tag_234\n      tag_84\n      jump\t// in\n    tag_234:\n        /* \"#utility.yul\":11423:11479   */\n    tag_233:\n        /* \"#utility.yul\":11503:11541   */\n      tag_235\n        /* \"#utility.yul\":11535:11539   */\n      dup3\n        /* \"#utility.yul\":11529:11540   */\n      sload\n        /* \"#utility.yul\":11503:11541   */\n      tag_41\n      jump\t// in\n    tag_235:\n        /* \"#utility.yul\":11588:11655   */\n      tag_236\n        /* \"#utility.yul\":11648:11654   */\n      dup3\n        /* \"#utility.yul\":11640:11646   */\n      dup3\n        /* \"#utility.yul\":11634:11638   */\n      dup6\n        /* \"#utility.yul\":11588:11655   */\n      tag_107\n      jump\t// in\n    tag_236:\n        /* \"#utility.yul\":11682:11683   */\n      0x00\n        /* \"#utility.yul\":11706:11710   */\n      0x20\n        /* \"#utility.yul\":11693:11710   */\n      swap1\n      pop\n        /* \"#utility.yul\":11738:11740   */\n      0x1f\n        /* \"#utility.yul\":11730:11736   */\n      dup4\n        /* \"#utility.yul\":11727:11741   */\n      gt\n        /* \"#utility.yul\":11755:11756   */\n      0x01\n        /* \"#utility.yul\":11750:12368   */\n      dup2\n      eq\n      tag_238\n      jumpi\n        /* \"#utility.yul\":12412:12413   */\n      0x00\n        /* \"#utility.yul\":12429:12435   */\n      dup5\n        /* \"#utility.yul\":12426:12503   */\n      iszero\n      tag_239\n      jumpi\n        /* \"#utility.yul\":12478:12487   */\n      dup3\n        /* \"#utility.yul\":12473:12476   */\n      dup8\n        /* \"#utility.yul\":12469:12488   */\n      add\n        /* \"#utility.yul\":12463:12489   */\n      mload\n        /* \"#utility.yul\":12454:12489   */\n      swap1\n      pop\n        /* \"#utility.yul\":12426:12503   */\n    tag_239:\n        /* \"#utility.yul\":12529:12596   */\n      tag_240\n        /* \"#utility.yul\":12589:12595   */\n      dup6\n        /* \"#utility.yul\":12582:12587   */\n      dup3\n        /* \"#utility.yul\":12529:12596   */\n      tag_110\n      jump\t// in\n    tag_240:\n        /* \"#utility.yul\":12523:12527   */\n      dup7\n        /* \"#utility.yul\":12516:12597   */\n      sstore\n        /* \"#utility.yul\":12385:12607   */\n      pop\n        /* \"#utility.yul\":11720:12607   */\n      jump(tag_237)\n        /* \"#utility.yul\":11750:12368   */\n    tag_238:\n        /* \"#utility.yul\":11802:11806   */\n      0x1f\n        /* \"#utility.yul\":11798:11807   */\n      not\n        /* \"#utility.yul\":11790:11796   */\n      dup5\n        /* \"#utility.yul\":11786:11808   */\n      and\n        /* \"#utility.yul\":11836:11873   */\n      tag_241\n        /* \"#utility.yul\":11868:11872   */\n      dup7\n        /* \"#utility.yul\":11836:11873   */\n      tag_93\n      jump\t// in\n    tag_241:\n        /* \"#utility.yul\":11895:11896   */\n      0x00\n        /* \"#utility.yul\":11909:12117   */\n    tag_242:\n        /* \"#utility.yul\":11923:11930   */\n      dup3\n        /* \"#utility.yul\":11920:11921   */\n      dup2\n        /* \"#utility.yul\":11917:11931   */\n      lt\n        /* \"#utility.yul\":11909:12117   */\n      iszero\n      tag_244\n      jumpi\n        /* \"#utility.yul\":12002:12011   */\n      dup5\n        /* \"#utility.yul\":11997:12000   */\n      dup10\n        /* \"#utility.yul\":11993:12012   */\n      add\n        /* \"#utility.yul\":11987:12013   */\n      mload\n        /* \"#utility.yul\":11979:11985   */\n      dup3\n        /* \"#utility.yul\":11972:12014   */\n      sstore\n        /* \"#utility.yul\":12053:12054   */\n      0x01\n        /* \"#utility.yul\":12045:12051   */\n      dup3\n        /* \"#utility.yul\":12041:12055   */\n      add\n        /* \"#utility.yul\":12031:12055   */\n      swap2\n      pop\n        /* \"#utility.yul\":12100:12102   */\n      0x20\n        /* \"#utility.yul\":12089:12098   */\n      dup6\n        /* \"#utility.yul\":12085:12103   */\n      add\n        /* \"#utility.yul\":12072:12103   */\n      swap5\n      pop\n        /* \"#utility.yul\":11946:11950   */\n      0x20\n        /* \"#utility.yul\":11943:11944   */\n      dup2\n        /* \"#utility.yul\":11939:11951   */\n      add\n        /* \"#utility.yul\":11934:11951   */\n      swap1\n      pop\n        /* \"#utility.yul\":11909:12117   */\n      jump(tag_242)\n    tag_244:\n        /* \"#utility.yul\":12145:12151   */\n      dup7\n        /* \"#utility.yul\":12136:12143   */\n      dup4\n        /* \"#utility.yul\":12133:12152   */\n      lt\n        /* \"#utility.yul\":12130:12309   */\n      iszero\n      tag_245\n      jumpi\n        /* \"#utility.yul\":12203:12212   */\n      dup5\n        /* \"#utility.yul\":12198:12201   */\n      dup10\n        /* \"#utility.yul\":12194:12213   */\n      add\n        /* \"#utility.yul\":12188:12214   */\n      mload\n        /* \"#utility.yul\":12246:12294   */\n      tag_246\n        /* \"#utility.yul\":12288:12292   */\n      0x1f\n        /* \"#utility.yul\":12280:12286   */\n      dup10\n        /* \"#utility.yul\":12276:12293   */\n      and\n        /* \"#utility.yul\":12265:12274   */\n      dup3\n        /* \"#utility.yul\":12246:12294   */\n      tag_109\n      jump\t// in\n    tag_246:\n        /* \"#utility.yul\":12238:12244   */\n      dup4\n        /* \"#utility.yul\":12231:12295   */\n      sstore\n        /* \"#utility.yul\":12153:12309   */\n      pop\n        /* \"#utility.yul\":12130:12309   */\n    tag_245:\n        /* \"#utility.yul\":12355:12356   */\n      0x01\n        /* \"#utility.yul\":12351:12352   */\n      0x02\n        /* \"#utility.yul\":12343:12349   */\n      dup9\n        /* \"#utility.yul\":12339:12353   */\n      mul\n        /* \"#utility.yul\":12335:12357   */\n      add\n        /* \"#utility.yul\":12329:12333   */\n      dup9\n        /* \"#utility.yul\":12322:12358   */\n      sstore\n        /* \"#utility.yul\":11757:12368   */\n      pop\n      pop\n      pop\n        /* \"#utility.yul\":11720:12607   */\n    tag_237:\n      pop\n        /* \"#utility.yul\":11310:12613   */\n      pop\n      pop\n      pop\n        /* \"#utility.yul\":11218:12613   */\n      pop\n      pop\n      jump\t// out\n        /* \"#utility.yul\":12619:12774   */\n    tag_111:\n        /* \"#utility.yul\":12759:12766   */\n      0x20616e6420000000000000000000000000000000000000000000000000000000\n        /* \"#utility.yul\":12755:12756   */\n      0x00\n        /* \"#utility.yul\":12747:12753   */\n      dup3\n        /* \"#utility.yul\":12743:12757   */\n      add\n        /* \"#utility.yul\":12736:12767   */\n      mstore\n        /* \"#utility.yul\":12619:12774   */\n      pop\n      jump\t// out\n        /* \"#utility.yul\":12780:13180   */\n    tag_112:\n        /* \"#utility.yul\":12940:12943   */\n      0x00\n        /* \"#utility.yul\":12961:13045   */\n      tag_249\n        /* \"#utility.yul\":13043:13044   */\n      0x05\n        /* \"#utility.yul\":13038:13041   */\n      dup4\n        /* \"#utility.yul\":12961:13045   */\n      tag_92\n      jump\t// in\n    tag_249:\n        /* \"#utility.yul\":12954:13045   */\n      swap2\n      pop\n        /* \"#utility.yul\":13054:13147   */\n      tag_250\n        /* \"#utility.yul\":13143:13146   */\n      dup3\n        /* \"#utility.yul\":13054:13147   */\n      tag_111\n      jump\t// in\n    tag_250:\n        /* \"#utility.yul\":13172:13173   */\n      0x05\n        /* \"#utility.yul\":13167:13170   */\n      dup3\n        /* \"#utility.yul\":13163:13174   */\n      add\n        /* \"#utility.yul\":13156:13174   */\n      swap1\n      pop\n        /* \"#utility.yul\":12780:13180   */\n      swap2\n      swap1\n      pop\n      jump\t// out\n        /* \"#utility.yul\":13186:13875   */\n    tag_60:\n        /* \"#utility.yul\":13461:13464   */\n      0x00\n        /* \"#utility.yul\":13483:13575   */\n      tag_252\n        /* \"#utility.yul\":13571:13574   */\n      dup3\n        /* \"#utility.yul\":13562:13568   */\n      dup6\n        /* \"#utility.yul\":13483:13575   */\n      tag_94\n      jump\t// in\n    tag_252:\n        /* \"#utility.yul\":13476:13575   */\n      swap2\n      pop\n        /* \"#utility.yul\":13592:13740   */\n      tag_253\n        /* \"#utility.yul\":13736:13739   */\n      dup3\n        /* \"#utility.yul\":13592:13740   */\n      tag_112\n      jump\t// in\n    tag_253:\n        /* \"#utility.yul\":13585:13740   */\n      swap2\n      pop\n        /* \"#utility.yul\":13757:13849   */\n      tag_254\n        /* \"#utility.yul\":13845:13848   */\n      dup3\n        /* \"#utility.yul\":13836:13842   */\n      dup5\n        /* \"#utility.yul\":13757:13849   */\n      tag_94\n      jump\t// in\n    tag_254:\n        /* \"#utility.yul\":13750:13849   */\n      swap2\n      pop\n        /* \"#utility.yul\":13866:13869   */\n      dup2\n        /* \"#utility.yul\":13859:13869   */\n      swap1\n      pop\n        /* \"#utility.yul\":13186:13875   */\n      swap4\n      swap3\n      pop\n      pop\n      pop\n      jump\t// out\n\n    auxdata: 0xa2646970667358221220265e47628476dcfbd17536d28a10439b5b877e7f66cc0e728a7e6446612fde0a64736f6c634300081e0033\n}\n",
				"bytecode": {
					"linkReferences": {},
					"object": "6080604052348015600e575f5ffd5b50610b7c8061001c5f395ff3fe608060405234801561000f575f5ffd5b506004361061007b575f3560e01c80637ffaa4b6116100595780637ffaa4b6146100d9578063a314150f146100f5578063c852cf7d14610113578063d4dd2a4b146101315761007b565b80633da0ac791461007f5780636cc014de1461009d5780637ce5b8b3146100bb575b5f5ffd5b610087610150565b6040516100949190610470565b60405180910390f35b6100a56101a6565b6040516100b291906104f9565b60405180910390f35b6100c3610231565b6040516100d091906104f9565b60405180910390f35b6100f360048036038101906100ee9190610656565b61025b565b005b6100fd61027e565b60405161010a91906104f9565b60405180910390f35b61011b61030a565b60405161012891906104f9565b60405180910390f35b610139610334565b6040516101479291906106cc565b60405180910390f35b5f600160405160200161016391906107fa565b604051602081830303815290604052805190602001205f60405160200161018a91906107fa565b6040516020818303038152906040528051906020012014905090565b5f80546101b29061072e565b80601f01602080910402602001604051908101604052809291908181526020018280546101de9061072e565b80156102295780601f1061020057610100808354040283529160200191610229565b820191905f5260205f20905b81548152906001019060200180831161020c57829003601f168201915b505050505081565b60605f6001604051602001610247929190610836565b604051602081830303815290604052905090565b815f908161026991906109ff565b50806001908161027991906109ff565b505050565b6001805461028b9061072e565b80601f01602080910402602001604051908101604052809291908181526020018280546102b79061072e565b80156103025780601f106102d957610100808354040283529160200191610302565b820191905f5260205f20905b8154815290600101906020018083116102e557829003601f168201915b505050505081565b60605f6001604051602001610320929190610b18565b604051602081830303815290604052905090565b6060805f60018180546103469061072e565b80601f01602080910402602001604051908101604052809291908181526020018280546103729061072e565b80156103bd5780601f10610394576101008083540402835291602001916103bd565b820191905f5260205f20905b8154815290600101906020018083116103a057829003601f168201915b505050505091508080546103d09061072e565b80601f01602080910402602001604051908101604052809291908181526020018280546103fc9061072e565b80156104475780601f1061041e57610100808354040283529160200191610447565b820191905f5260205f20905b81548152906001019060200180831161042a57829003601f168201915b50505050509050915091509091565b5f8115159050919050565b61046a81610456565b82525050565b5f6020820190506104835f830184610461565b92915050565b5f81519050919050565b5f82825260208201905092915050565b8281835e5f83830152505050565b5f601f19601f8301169050919050565b5f6104cb82610489565b6104d58185610493565b93506104e58185602086016104a3565b6104ee816104b1565b840191505092915050565b5f6020820190508181035f83015261051181846104c1565b905092915050565b5f604051905090565b5f5ffd5b5f5ffd5b5f5ffd5b5f5ffd5b7f4e487b71000000000000000000000000000000000000000000000000000000005f52604160045260245ffd5b610568826104b1565b810181811067ffffffffffffffff8211171561058757610586610532565b5b80604052505050565b5f610599610519565b90506105a5828261055f565b919050565b5f67ffffffffffffffff8211156105c4576105c3610532565b5b6105cd826104b1565b9050602081019050919050565b828183375f83830152505050565b5f6105fa6105f5846105aa565b610590565b9050828152602081018484840111156106165761061561052e565b5b6106218482856105da565b509392505050565b5f82601f83011261063d5761063c61052a565b5b813561064d8482602086016105e8565b91505092915050565b5f5f6040838503121561066c5761066b610522565b5b5f83013567ffffffffffffffff81111561068957610688610526565b5b61069585828601610629565b925050602083013567ffffffffffffffff8111156106b6576106b5610526565b5b6106c285828601610629565b9150509250929050565b5f6040820190508181035f8301526106e481856104c1565b905081810360208301526106f881846104c1565b90509392505050565b7f4e487b71000000000000000000000000000000000000000000000000000000005f52602260045260245ffd5b5f600282049050600182168061074557607f821691505b60208210810361075857610757610701565b5b50919050565b5f81905092915050565b5f819050815f5260205f209050919050565b5f81546107868161072e565b610790818661075e565b9450600182165f81146107aa57600181146107bf576107f1565b60ff19831686528115158202860193506107f1565b6107c885610768565b5f5b838110156107e9578154818901526001820191506020810190506107ca565b838801955050505b50505092915050565b5f610805828461077a565b915081905092915050565b7f20616e6420000000000000000000000000000000000000000000000000000000815250565b5f610841828561077a565b915061084c82610810565b60058201915061085c828461077a565b91508190509392505050565b5f6020601f8301049050919050565b5f82821b905092915050565b5f600883026108b27fffffffffffffffffffffffffffffffffffffffffffffffffffffffffffffffff82610877565b6108bc8683610877565b95508019841693508086168417925050509392505050565b5f819050919050565b5f819050919050565b5f6109006108fb6108f6846108d4565b6108dd565b6108d4565b9050919050565b5f819050919050565b610919836108e6565b61092d61092582610907565b848454610883565b825550505050565b5f5f905090565b610944610935565b61094f818484610910565b505050565b5b81811015610972576109675f8261093c565b600181019050610955565b5050565b601f8211156109b75761098881610768565b61099184610868565b810160208510156109a0578190505b6109b46109ac85610868565b830182610954565b50505b505050565b5f82821c905092915050565b5f6109d75f19846008026109bc565b1980831691505092915050565b5f6109ef83836109c8565b9150826002028217905092915050565b610a0882610489565b67ffffffffffffffff811115610a2157610a20610532565b5b610a2b825461072e565b610a36828285610976565b5f60209050601f831160018114610a67575f8415610a55578287015190505b610a5f85826109e4565b865550610ac6565b601f198416610a7586610768565b5f5b82811015610a9c57848901518255600182019150602085019450602081019050610a77565b86831015610ab95784890151610ab5601f8916826109c8565b8355505b6001600288020188555050505b505050505050565b7f20616e64200000000000000000000000000000000000000000000000000000005f82015250565b5f610b0260058361075e565b9150610b0d82610ace565b600582019050919050565b5f610b23828561077a565b9150610b2e82610af6565b9150610b3a828461077a565b9150819050939250505056fea2646970667358221220265e47628476dcfbd17536d28a10439b5b877e7f66cc0e728a7e6446612fde0a64736f6c634300081e0033",
					"opcodes": "PUSH1 0x80 PUSH1 0x40 MSTORE CALLVALUE DUP1 ISZERO PUSH1 0xE JUMPI PUSH0 PUSH0 REVERT JUMPDEST POP PUSH2 0xB7C DUP1 PUSH2 0x1C PUSH0 CODECOPY PUSH0 RETURN INVALID PUSH1 0x80 PUSH1 0x40 MSTORE CALLVALUE DUP1 ISZERO PUSH2 0xF JUMPI PUSH0 PUSH0 REVERT JUMPDEST POP PUSH1 0x4 CALLDATASIZE LT PUSH2 0x7B JUMPI PUSH0 CALLDATALOAD PUSH1 0xE0 SHR DUP1 PUSH4 0x7FFAA4B6 GT PUSH2 0x59 JUMPI DUP1 PUSH4 0x7FFAA4B6 EQ PUSH2 0xD9 JUMPI DUP1 PUSH4 0xA314150F EQ PUSH2 0xF5 JUMPI DUP1 PUSH4 0xC852CF7D EQ PUSH2 0x113 JUMPI DUP1 PUSH4 0xD4DD2A4B EQ PUSH2 0x131 JUMPI PUSH2 0x7B JUMP JUMPDEST DUP1 PUSH4 0x3DA0AC79 EQ PUSH2 0x7F JUMPI DUP1 PUSH4 0x6CC014DE EQ PUSH2 0x9D JUMPI DUP1 PUSH4 0x7CE5B8B3 EQ PUSH2 0xBB JUMPI JUMPDEST PUSH0 PUSH0 REVERT JUMPDEST PUSH2 0x87 PUSH2 0x150 JUMP JUMPDEST PUSH1 0x40 MLOAD PUSH2 0x94 SWAP2 SWAP1 PUSH2 0x470 JUMP JUMPDEST PUSH1 0x40 MLOAD DUP1 SWAP2 SUB SWAP1 RETURN JUMPDEST PUSH2 0xA5 PUSH2 0x1A6 JUMP JUMPDEST PUSH1 0x40 MLOAD PUSH2 0xB2 SWAP2 SWAP1 PUSH2 0x4F9 JUMP JUMPDEST PUSH1 0x40 MLOAD DUP1 SWAP2 SUB SWAP1 RETURN JUMPDEST PUSH2 0xC3 PUSH2 0x231 JUMP JUMPDEST PUSH1 0x40 MLOAD PUSH2 0xD0 SWAP2 SWAP1 PUSH2 0x4F9 JUMP JUMPDEST PUSH1 0x40 MLOAD DUP1 SWAP2 SUB SWAP1 RETURN JUMPDEST PUSH2 0xF3 PUSH1 0x4 DUP1 CALLDATASIZE SUB DUP2 ADD SWAP1 PUSH2 0xEE SWAP2 SWAP1 PUSH2 0x656 JUMP JUMPDEST PUSH2 0x25B JUMP JUMPDEST STOP JUMPDEST PUSH2 0xFD PUSH2 0x27E JUMP JUMPDEST PUSH1 0x40 MLOAD PUSH2 0x10A SWAP2 SWAP1 PUSH2 0x4F9 JUMP JUMPDEST PUSH1 0x40 MLOAD DUP1 SWAP2 SUB SWAP1 RETURN JUMPDEST PUSH2 0x11B PUSH2 0x30A JUMP JUMPDEST PUSH1 0x40 MLOAD PUSH2 0x128 SWAP2 SWAP1 PUSH2 0x4F9 JUMP JUMPDEST PUSH1 0x40 MLOAD DUP1 SWAP2 SUB SWAP1 RETURN JUMPDEST PUSH2 0x139 PUSH2 0x334 JUMP JUMPDEST PUSH1 0x40 MLOAD PUSH2 0x147 SWAP3 SWAP2 SWAP1 PUSH2 0x6CC JUMP JUMPDEST PUSH1 0x40 MLOAD DUP1 SWAP2 SUB SWAP1 RETURN JUMPDEST PUSH0 PUSH1 0x1 PUSH1 0x40 MLOAD PUSH1 0x20 ADD PUSH2 0x163 SWAP2 SWAP1 PUSH2 0x7FA JUMP JUMPDEST PUSH1 0x40 MLOAD PUSH1 0x20 DUP2 DUP4 SUB SUB DUP2 MSTORE SWAP1 PUSH1 0x40 MSTORE DUP1 MLOAD SWAP1 PUSH1 0x20 ADD KECCAK256 PUSH0 PUSH1 0x40 MLOAD PUSH1 0x20 ADD PUSH2 0x18A SWAP2 SWAP1 PUSH2 0x7FA JUMP JUMPDEST PUSH1 0x40 MLOAD PUSH1 0x20 DUP2 DUP4 SUB SUB DUP2 MSTORE SWAP1 PUSH1 0x40 MSTORE DUP1 MLOAD SWAP1 PUSH1 0x20 ADD KECCAK256 EQ SWAP1 POP SWAP1 JUMP JUMPDEST PUSH0 DUP1 SLOAD PUSH2 0x1B2 SWAP1 PUSH2 0x72E JUMP JUMPDEST DUP1 PUSH1 0x1F ADD PUSH1 0x20 DUP1 SWAP2 DIV MUL PUSH1 0x20 ADD PUSH1 0x40 MLOAD SWAP1 DUP2 ADD PUSH1 0x40 MSTORE DUP1 SWAP3 SWAP2 SWAP1 DUP2 DUP2 MSTORE PUSH1 0x20 ADD DUP3 DUP1 SLOAD PUSH2 0x1DE SWAP1 PUSH2 0x72E JUMP JUMPDEST DUP1 ISZERO PUSH2 0x229 JUMPI DUP1 PUSH1 0x1F LT PUSH2 0x200 JUMPI PUSH2 0x100 DUP1 DUP4 SLOAD DIV MUL DUP4 MSTORE SWAP2 PUSH1 0x20 ADD SWAP2 PUSH2 0x229 JUMP JUMPDEST DUP3 ADD SWAP2 SWAP1 PUSH0 MSTORE PUSH1 0x20 PUSH0 KECCAK256 SWAP1 JUMPDEST DUP2 SLOAD DUP2 MSTORE SWAP1 PUSH1 0x1 ADD SWAP1 PUSH1 0x20 ADD DUP1 DUP4 GT PUSH2 0x20C JUMPI DUP3 SWAP1 SUB PUSH1 0x1F AND DUP3 ADD SWAP2 JUMPDEST POP POP POP POP POP DUP2 JUMP JUMPDEST PUSH1 0x60 PUSH0 PUSH1 0x1 PUSH1 0x40 MLOAD PUSH1 0x20 ADD PUSH2 0x247 SWAP3 SWAP2 SWAP1 PUSH2 0x836 JUMP JUMPDEST PUSH1 0x40 MLOAD PUSH1 0x20 DUP2 DUP4 SUB SUB DUP2 MSTORE SWAP1 PUSH1 0x40 MSTORE SWAP1 POP SWAP1 JUMP JUMPDEST DUP2 PUSH0 SWAP1 DUP2 PUSH2 0x269 SWAP2 SWAP1 PUSH2 0x9FF JUMP JUMPDEST POP DUP1 PUSH1 0x1 SWAP1 DUP2 PUSH2 0x279 SWAP2 SWAP1 PUSH2 0x9FF JUMP JUMPDEST POP POP POP JUMP JUMPDEST PUSH1 0x1 DUP1 SLOAD PUSH2 0x28B SWAP1 PUSH2 0x72E JUMP JUMPDEST DUP1 PUSH1 0x1F ADD PUSH1 0x20 DUP1 SWAP2 DIV MUL PUSH1 0x20 ADD PUSH1 0x40 MLOAD SWAP1 DUP2 ADD PUSH1 0x40 MSTORE DUP1 SWAP3 SWAP2 SWAP1 DUP2 DUP2 MSTORE PUSH1 0x20 ADD DUP3 DUP1 SLOAD PUSH2 0x2B7 SWAP1 PUSH2 0x72E JUMP JUMPDEST DUP1 ISZERO PUSH2 0x302 JUMPI DUP1 PUSH1 0x1F LT PUSH2 0x2D9 JUMPI PUSH2 0x100 DUP1 DUP4 SLOAD DIV MUL DUP4 MSTORE SWAP2 PUSH1 0x20 ADD SWAP2 PUSH2 0x302 JUMP JUMPDEST DUP3 ADD SWAP2 SWAP1 PUSH0 MSTORE PUSH1 0x20 PUSH0 KECCAK256 SWAP1 JUMPDEST DUP2 SLOAD DUP2 MSTORE SWAP1 PUSH1 0x1 ADD SWAP1 PUSH1 0x20 ADD DUP1 DUP4 GT PUSH2 0x2E5 JUMPI DUP3 SWAP1 SUB PUSH1 0x1F AND DUP3 ADD SWAP2 JUMPDEST POP POP POP POP POP DUP2 JUMP JUMPDEST PUSH1 0x60 PUSH0 PUSH1 0x1 PUSH1 0x40 MLOAD PUSH1 0x20 ADD PUSH2 0x320 SWAP3 SWAP2 SWAP1 PUSH2 0xB18 JUMP JUMPDEST PUSH1 0x40 MLOAD PUSH1 0x20 DUP2 DUP4 SUB SUB DUP2 MSTORE SWAP1 PUSH1 0x40 MSTORE SWAP1 POP SWAP1 JUMP JUMPDEST PUSH1 0x60 DUP1 PUSH0 PUSH1 0x1 DUP2 DUP1 SLOAD PUSH2 0x346 SWAP1 PUSH2 0x72E JUMP JUMPDEST DUP1 PUSH1 0x1F ADD PUSH1 0x20 DUP1 SWAP2 DIV MUL PUSH1 0x20 ADD PUSH1 0x40 MLOAD SWAP1 DUP2 ADD PUSH1 0x40 MSTORE DUP1 SWAP3 SWAP2 SWAP1 DUP2 DUP2 MSTORE PUSH1 0x20 ADD DUP3 DUP1 SLOAD PUSH2 0x372 SWAP1 PUSH2 0x72E JUMP JUMPDEST DUP1 ISZERO PUSH2 0x3BD JUMPI DUP1 PUSH1 0x1F LT PUSH2 0x394 JUMPI PUSH2 0x100 DUP1 DUP4 SLOAD DIV MUL DUP4 MSTORE SWAP2 PUSH1 0x20 ADD SWAP2 PUSH2 0x3BD JUMP JUMPDEST DUP3 ADD SWAP2 SWAP1 PUSH0 MSTORE PUSH1 0x20 PUSH0 KECCAK256 SWAP1 JUMPDEST DUP2 SLOAD DUP2 MSTORE SWAP1 PUSH1 0x1 ADD SWAP1 PUSH1 0x20 ADD DUP1 DUP4 GT PUSH2 0x3A0 JUMPI DUP3 SWAP1 SUB PUSH1 0x1F AND DUP3 ADD SWAP2 JUMPDEST POP POP POP POP POP SWAP2 POP DUP1 DUP1 SLOAD PUSH2 0x3D0 SWAP1 PUSH2 0x72E JUMP JUMPDEST DUP1 PUSH1 0x1F ADD PUSH1 0x20 DUP1 SWAP2 DIV MUL PUSH1 0x20 ADD PUSH1 0x40 MLOAD SWAP1 DUP2 ADD PUSH1 0x40 MSTORE DUP1 SWAP3 SWAP2 SWAP1 DUP2 DUP2 MSTORE PUSH1 0x20 ADD DUP3 DUP1 SLOAD PUSH2 0x3FC SWAP1 PUSH2 0x72E JUMP JUMPDEST DUP1 ISZERO PUSH2 0x447 JUMPI DUP1 PUSH1 0x1F LT PUSH2 0x41E JUMPI PUSH2 0x100 DUP1 DUP4 SLOAD DIV MUL DUP4 MSTORE SWAP2 PUSH1 0x20 ADD SWAP2 PUSH2 0x447 JUMP JUMPDEST DUP3 ADD SWAP2 SWAP1 PUSH0 MSTORE PUSH1 0x20 PUSH0 KECCAK256 SWAP1 JUMPDEST DUP2 SLOAD DUP2 MSTORE SWAP1 PUSH1 0x1 ADD SWAP1 PUSH1 0x20 ADD DUP1 DUP4 GT PUSH2 0x42A JUMPI DUP3 SWAP1 SUB PUSH1 0x1F AND DUP3 ADD SWAP2 JUMPDEST POP POP POP POP POP SWAP1 POP SWAP2 POP SWAP2 POP SWAP1 SWAP2 JUMP JUMPDEST PUSH0 DUP2 ISZERO ISZERO SWAP1 POP SWAP2 SWAP1 POP JUMP JUMPDEST PUSH2 0x46A DUP2 PUSH2 0x456 JUMP JUMPDEST DUP3 MSTORE POP POP JUMP JUMPDEST PUSH0 PUSH1 0x20 DUP3 ADD SWAP1 POP PUSH2 0x483 PUSH0 DUP4 ADD DUP5 PUSH2 0x461 JUMP JUMPDEST SWAP3 SWAP2 POP POP JUMP JUMPDEST PUSH0 DUP2 MLOAD SWAP1 POP SWAP2 SWAP1 POP JUMP JUMPDEST PUSH0 DUP3 DUP3 MSTORE PUSH1 0x20 DUP3 ADD SWAP1 POP SWAP3 SWAP2 POP POP JUMP JUMPDEST DUP3 DUP2 DUP4 MCOPY PUSH0 DUP4 DUP4 ADD MSTORE POP POP POP JUMP JUMPDEST PUSH0 PUSH1 0x1F NOT PUSH1 0x1F DUP4 ADD AND SWAP1 POP SWAP2 SWAP1 POP JUMP JUMPDEST PUSH0 PUSH2 0x4CB DUP3 PUSH2 0x489 JUMP JUMPDEST PUSH2 0x4D5 DUP2 DUP6 PUSH2 0x493 JUMP JUMPDEST SWAP4 POP PUSH2 0x4E5 DUP2 DUP6 PUSH1 0x20 DUP7 ADD PUSH2 0x4A3 JUMP JUMPDEST PUSH2 0x4EE DUP2 PUSH2 0x4B1 JUMP JUMPDEST DUP5 ADD SWAP2 POP POP SWAP3 SWAP2 POP POP JUMP JUMPDEST PUSH0 PUSH1 0x20 DUP3 ADD SWAP1 POP DUP2 DUP2 SUB PUSH0 DUP4 ADD MSTORE PUSH2 0x511 DUP2 DUP5 PUSH2 0x4C1 JUMP JUMPDEST SWAP1 POP SWAP3 SWAP2 POP POP JUMP JUMPDEST PUSH0 PUSH1 0x40 MLOAD SWAP1 POP SWAP1 JUMP JUMPDEST PUSH0 PUSH0 REVERT JUMPDEST PUSH0 PUSH0 REVERT JUMPDEST PUSH0 PUSH0 REVERT JUMPDEST PUSH0 PUSH0 REVERT JUMPDEST PUSH32 0x4E487B7100000000000000000000000000000000000000000000000000000000 PUSH0 MSTORE PUSH1 0x41 PUSH1 0x4 MSTORE PUSH1 0x24 PUSH0 REVERT JUMPDEST PUSH2 0x568 DUP3 PUSH2 0x4B1 JUMP JUMPDEST DUP2 ADD DUP2 DUP2 LT PUSH8 0xFFFFFFFFFFFFFFFF DUP3 GT OR ISZERO PUSH2 0x587 JUMPI PUSH2 0x586 PUSH2 0x532 JUMP JUMPDEST JUMPDEST DUP1 PUSH1 0x40 MSTORE POP POP POP JUMP JUMPDEST PUSH0 PUSH2 0x599 PUSH2 0x519 JUMP JUMPDEST SWAP1 POP PUSH2 0x5A5 DUP3 DUP3 PUSH2 0x55F JUMP JUMPDEST SWAP2 SWAP1 POP JUMP JUMPDEST PUSH0 PUSH8 0xFFFFFFFFFFFFFFFF DUP3 GT ISZERO PUSH2 0x5C4 JUMPI PUSH2 0x5C3 PUSH2 0x532 JUMP JUMPDEST JUMPDEST PUSH2 0x5CD DUP3 PUSH2 0x4B1 JUMP JUMPDEST SWAP1 POP PUSH1 0x20 DUP2 ADD SWAP1 POP SWAP2 SWAP1 POP JUMP JUMPDEST DUP3 DUP2 DUP4 CALLDATACOPY PUSH0 DUP4 DUP4 ADD MSTORE POP POP POP JUMP JUMPDEST PUSH0 PUSH2 0x5FA PUSH2 0x5F5 DUP5 PUSH2 0x5AA JUMP JUMPDEST PUSH2 0x590 JUMP JUMPDEST SWAP1 POP DUP3 DUP2 MSTORE PUSH1 0x20 DUP2 ADD DUP5 DUP5 DUP5 ADD GT ISZERO PUSH2 0x616 JUMPI PUSH2 0x615 PUSH2 0x52E JUMP JUMPDEST JUMPDEST PUSH2 0x621 DUP5 DUP3 DUP6 PUSH2 0x5DA JUMP JUMPDEST POP SWAP4 SWAP3 POP POP POP JUMP JUMPDEST PUSH0 DUP3 PUSH1 0x1F DUP4 ADD SLT PUSH2 0x63D JUMPI PUSH2 0x63C PUSH2 0x52A JUMP JUMPDEST JUMPDEST DUP2 CALLDATALOAD PUSH2 0x64D DUP5 DUP3 PUSH1 0x20 DUP7 ADD PUSH2 0x5E8 JUMP JUMPDEST SWAP2 POP POP SWAP3 SWAP2 POP POP JUMP JUMPDEST PUSH0 PUSH0 PUSH1 0x40 DUP4 DUP6 SUB SLT ISZERO PUSH2 0x66C JUMPI PUSH2 0x66B PUSH2 0x522 JUMP JUMPDEST JUMPDEST PUSH0 DUP4 ADD CALLDATALOAD PUSH8 0xFFFFFFFFFFFFFFFF DUP2 GT ISZERO PUSH2 0x689 JUMPI PUSH2 0x688 PUSH2 0x526 JUMP JUMPDEST JUMPDEST PUSH2 0x695 DUP6 DUP3 DUP7 ADD PUSH2 0x629 JUMP JUMPDEST SWAP3 POP POP PUSH1 0x20 DUP4 ADD CALLDATALOAD PUSH8 0xFFFFFFFFFFFFFFFF DUP2 GT ISZERO PUSH2 0x6B6 JUMPI PUSH2 0x6B5 PUSH2 0x526 JUMP JUMPDEST JUMPDEST PUSH2 0x6C2 DUP6 DUP3 DUP7 ADD PUSH2 0x629 JUMP JUMPDEST SWAP2 POP POP SWAP3 POP SWAP3 SWAP1 POP JUMP JUMPDEST PUSH0 PUSH1 0x40 DUP3 ADD SWAP1 POP DUP2 DUP2 SUB PUSH0 DUP4 ADD MSTORE PUSH2 0x6E4 DUP2 DUP6 PUSH2 0x4C1 JUMP JUMPDEST SWAP1 POP DUP2 DUP2 SUB PUSH1 0x20 DUP4 ADD MSTORE PUSH2 0x6F8 DUP2 DUP5 PUSH2 0x4C1 JUMP JUMPDEST SWAP1 POP SWAP4 SWAP3 POP POP POP JUMP JUMPDEST PUSH32 0x4E487B7100000000000000000000000000000000000000000000000000000000 PUSH0 MSTORE PUSH1 0x22 PUSH1 0x4 MSTORE PUSH1 0x24 PUSH0 REVERT JUMPDEST PUSH0 PUSH1 0x2 DUP3 DIV SWAP1 POP PUSH1 0x1 DUP3 AND DUP1 PUSH2 0x745 JUMPI PUSH1 0x7F DUP3 AND SWAP2 POP JUMPDEST PUSH1 0x20 DUP3 LT DUP2 SUB PUSH2 0x758 JUMPI PUSH2 0x757 PUSH2 0x701 JUMP JUMPDEST JUMPDEST POP SWAP2 SWAP1 POP JUMP JUMPDEST PUSH0 DUP2 SWAP1 POP SWAP3 SWAP2 POP POP JUMP JUMPDEST PUSH0 DUP2 SWAP1 POP DUP2 PUSH0 MSTORE PUSH1 0x20 PUSH0 KECCAK256 SWAP1 POP SWAP2 SWAP1 POP JUMP JUMPDEST PUSH0 DUP2 SLOAD PUSH2 0x786 DUP2 PUSH2 0x72E JUMP JUMPDEST PUSH2 0x790 DUP2 DUP7 PUSH2 0x75E JUMP JUMPDEST SWAP5 POP PUSH1 0x1 DUP3 AND PUSH0 DUP2 EQ PUSH2 0x7AA JUMPI PUSH1 0x1 DUP2 EQ PUSH2 0x7BF JUMPI PUSH2 0x7F1 JUMP JUMPDEST PUSH1 0xFF NOT DUP4 AND DUP7 MSTORE DUP2 ISZERO ISZERO DUP3 MUL DUP7 ADD SWAP4 POP PUSH2 0x7F1 JUMP JUMPDEST PUSH2 0x7C8 DUP6 PUSH2 0x768 JUMP JUMPDEST PUSH0 JUMPDEST DUP4 DUP2 LT ISZERO PUSH2 0x7E9 JUMPI DUP2 SLOAD DUP2 DUP10 ADD MSTORE PUSH1 0x1 DUP3 ADD SWAP2 POP PUSH1 0x20 DUP2 ADD SWAP1 POP PUSH2 0x7CA JUMP JUMPDEST DUP4 DUP9 ADD SWAP6 POP POP POP JUMPDEST POP POP POP SWAP3 SWAP2 POP POP JUMP JUMPDEST PUSH0 PUSH2 0x805 DUP3 DUP5 PUSH2 0x77A JUMP JUMPDEST SWAP2 POP DUP2 SWAP1 POP SWAP3 SWAP2 POP POP JUMP JUMPDEST PUSH32 0x20616E6420000000000000000000000000000000000000000000000000000000 DUP2 MSTORE POP JUMP JUMPDEST PUSH0 PUSH2 0x841 DUP3 DUP6 PUSH2 0x77A JUMP JUMPDEST SWAP2 POP PUSH2 0x84C DUP3 PUSH2 0x810 JUMP JUMPDEST PUSH1 0x5 DUP3 ADD SWAP2 POP PUSH2 0x85C DUP3 DUP5 PUSH2 0x77A JUMP JUMPDEST SWAP2 POP DUP2 SWAP1 POP SWAP4 SWAP3 POP POP POP JUMP JUMPDEST PUSH0 PUSH1 0x20 PUSH1 0x1F DUP4 ADD DIV SWAP1 POP SWAP2 SWAP1 POP JUMP JUMPDEST PUSH0 DUP3 DUP3 SHL SWAP1 POP SWAP3 SWAP2 POP POP JUMP JUMPDEST PUSH0 PUSH1 0x8 DUP4 MUL PUSH2 0x8B2 PUSH32 0xFFFFFFFFFFFFFFFFFFFFFFFFFFFFFFFFFFFFFFFFFFFFFFFFFFFFFFFFFFFFFFFF DUP3 PUSH2 0x877 JUMP JUMPDEST PUSH2 0x8BC DUP7 DUP4 PUSH2 0x877 JUMP JUMPDEST SWAP6 POP DUP1 NOT DUP5 AND SWAP4 POP DUP1 DUP7 AND DUP5 OR SWAP3 POP POP POP SWAP4 SWAP3 POP POP POP JUMP JUMPDEST PUSH0 DUP2 SWAP1 POP SWAP2 SWAP1 POP JUMP JUMPDEST PUSH0 DUP2 SWAP1 POP SWAP2 SWAP1 POP JUMP JUMPDEST PUSH0 PUSH2 0x900 PUSH2 0x8FB PUSH2 0x8F6 DUP5 PUSH2 0x8D4 JUMP JUMPDEST PUSH2 0x8DD JUMP JUMPDEST PUSH2 0x8D4 JUMP JUMPDEST SWAP1 POP SWAP2 SWAP1 POP JUMP JUMPDEST PUSH0 DUP2 SWAP1 POP SWAP2 SWAP1 POP JUMP JUMPDEST PUSH2 0x919 DUP4 PUSH2 0x8E6 JUMP JUMPDEST PUSH2 0x92D PUSH2 0x925 DUP3 PUSH2 0x907 JUMP JUMPDEST DUP5 DUP5 SLOAD PUSH2 0x883 JUMP JUMPDEST DUP3 SSTORE POP POP POP POP JUMP JUMPDEST PUSH0 PUSH0 SWAP1 POP SWAP1 JUMP JUMPDEST PUSH2 0x944 PUSH2 0x935 JUMP JUMPDEST PUSH2 0x94F DUP2 DUP5 DUP5 PUSH2 0x910 JUMP JUMPDEST POP POP POP JUMP JUMPDEST JUMPDEST DUP2 DUP2 LT ISZERO PUSH2 0x972 JUMPI PUSH2 0x967 PUSH0 DUP3 PUSH2 0x93C JUMP JUMPDEST PUSH1 0x1 DUP2 ADD SWAP1 POP PUSH2 0x955 JUMP JUMPDEST POP POP JUMP JUMPDEST PUSH1 0x1F DUP3 GT ISZERO PUSH2 0x9B7 JUMPI PUSH2 0x988 DUP2 PUSH2 0x768 JUMP JUMPDEST PUSH2 0x991 DUP5 PUSH2 0x868 JUMP JUMPDEST DUP2 ADD PUSH1 0x20 DUP6 LT ISZERO PUSH2 0x9A0 JUMPI DUP2 SWAP1 POP JUMPDEST PUSH2 0x9B4 PUSH2 0x9AC DUP6 PUSH2 0x868 JUMP JUMPDEST DUP4 ADD DUP3 PUSH2 0x954 JUMP JUMPDEST POP POP JUMPDEST POP POP POP JUMP JUMPDEST PUSH0 DUP3 DUP3 SHR SWAP1 POP SWAP3 SWAP2 POP POP JUMP JUMPDEST PUSH0 PUSH2 0x9D7 PUSH0 NOT DUP5 PUSH1 0x8 MUL PUSH2 0x9BC JUMP JUMPDEST NOT DUP1 DUP4 AND SWAP2 POP POP SWAP3 SWAP2 POP POP JUMP JUMPDEST PUSH0 PUSH2 0x9EF DUP4 DUP4 PUSH2 0x9C8 JUMP JUMPDEST SWAP2 POP DUP3 PUSH1 0x2 MUL DUP3 OR SWAP1 POP SWAP3 SWAP2 POP POP JUMP JUMPDEST PUSH2 0xA08 DUP3 PUSH2 0x489 JUMP JUMPDEST PUSH8 0xFFFFFFFFFFFFFFFF DUP2 GT ISZERO PUSH2 0xA21 JUMPI PUSH2 0xA20 PUSH2 0x532 JUMP JUMPDEST JUMPDEST PUSH2 0xA2B DUP3 SLOAD PUSH2 0x72E JUMP JUMPDEST PUSH2 0xA36 DUP3 DUP3 DUP6 PUSH2 0x976 JUMP JUMPDEST PUSH0 PUSH1 0x20 SWAP1 POP PUSH1 0x1F DUP4 GT PUSH1 0x1 DUP2 EQ PUSH2 0xA67 JUMPI PUSH0 DUP5 ISZERO PUSH2 0xA55 JUMPI DUP3 DUP8 ADD MLOAD SWAP1 POP JUMPDEST PUSH2 0xA5F DUP6 DUP3 PUSH2 0x9E4 JUMP JUMPDEST DUP7 SSTORE POP PUSH2 0xAC6 JUMP JUMPDEST PUSH1 0x1F NOT DUP5 AND PUSH2 0xA75 DUP7 PUSH2 0x768 JUMP JUMPDEST PUSH0 JUMPDEST DUP3 DUP2 LT ISZERO PUSH2 0xA9C JUMPI DUP5 DUP10 ADD MLOAD DUP3 SSTORE PUSH1 0x1 DUP3 ADD SWAP2 POP PUSH1 0x20 DUP6 ADD SWAP5 POP PUSH1 0x20 DUP2 ADD SWAP1 POP PUSH2 0xA77 JUMP JUMPDEST DUP7 DUP4 LT ISZERO PUSH2 0xAB9 JUMPI DUP5 DUP10 ADD MLOAD PUSH2 0xAB5 PUSH1 0x1F DUP10 AND DUP3 PUSH2 0x9C8 JUMP JUMPDEST DUP4 SSTORE POP JUMPDEST PUSH1 0x1 PUSH1 0x2 DUP9 MUL ADD DUP9 SSTORE POP POP POP JUMPDEST POP POP POP POP POP POP JUMP JUMPDEST PUSH32 0x20616E6420000000000000000000000000000000000000000000000000000000 PUSH0 DUP3 ADD MSTORE POP JUMP JUMPDEST PUSH0 PUSH2 0xB02 PUSH1 0x5 DUP4 PUSH2 0x75E JUMP JUMPDEST SWAP2 POP PUSH2 0xB0D DUP3 PUSH2 0xACE JUMP JUMPDEST PUSH1 0x5 DUP3 ADD SWAP1 POP SWAP2 SWAP1 POP JUMP JUMPDEST PUSH0 PUSH2 0xB23 DUP3 DUP6 PUSH2 0x77A JUMP JUMPDEST SWAP2 POP PUSH2 0xB2E DUP3 PUSH2 0xAF6 JUMP JUMPDEST SWAP2 POP PUSH2 0xB3A DUP3 DUP5 PUSH2 0x77A JUMP JUMPDEST SWAP2 POP DUP2 SWAP1 POP SWAP4 SWAP3 POP POP POP JUMP INVALID LOG2 PUSH5 0x6970667358 0x22 SLT KECCAK256 0x26 MCOPY SELFBALANCE PUSH3 0x8476DC EXTSTATICCALL DATALOADN 0x7536 0xD2 DUP11 LT NUMBER SWAP12 JUMPDEST DUP8 PUSH31 0x7F66CC0E728A7E6446612FDE0A64736F6C634300081E003300000000000000 "
				},
				"gasEstimates": {
					"creation": {
						"codeDepositCost": "588000",
						"executionCost": "617",
						"totalCost": "588617"
					},
					"external": {
						"compare()": "infinite",
						"concatenate()": "infinite",
						"concatenateString()": "infinite",
						"retrieveValues()": "infinite",
						"s1()": "infinite",
						"s2()": "infinite",
						"setValues(string,string)": "infinite"
					}
				},
				"methodIdentifiers": {
					"compare()": "3da0ac79",
					"concatenate()": "7ce5b8b3",
					"concatenateString()": "c852cf7d",
					"retrieveValues()": "d4dd2a4b",
					"s1()": "6cc014de",
					"s2()": "a314150f",
					"setValues(string,string)": "7ffaa4b6"
				}
			},
			"storageLayout": {
				"storage": [
					{
						"astId": 3,
						"contract": "contracts/LabCycle/StringExample.sol:StringExample",
						"label": "s1",
						"offset": 0,
						"slot": "0",
						"type": "t_string_storage"
					},
					{
						"astId": 5,
						"contract": "contracts/LabCycle/StringExample.sol:StringExample",
						"label": "s2",
						"offset": 0,
						"slot": "1",
						"type": "t_string_storage"
					}
				],
				"types": {
					"t_string_storage": {
						"encoding": "bytes",
						"label": "string",
						"numberOfBytes": "32"
					}
				}
			},
			"userdoc": {
				"kind": "user",
				"methods": {},
				"version": 1
			}
		}
	}
}