{
	"data": {
		"bytecode": {
			"linkReferences": {},
			"object": "6080604052601e5f5f6101000a81548160ff021916908360ff16021790555060145f60016101000a81548160ff021916908360ff1602179055503480156043575f5ffd5b5061012f806100515f395ff3fe6080604052348015600e575f5ffd5b50600436106026575f3560e01c80636deebae314602a575b5f5ffd5b60306044565b604051603b91906088565b60405180910390f35b5f5f60019054906101000a900460ff165f5f9054906101000a900460ff16606a919060cc565b905090565b5f60ff82169050919050565b608281606f565b82525050565b5f60208201905060995f830184607b565b92915050565b7f4e487b71000000000000000000000000000000000000000000000000000000005f52601160045260245ffd5b5f60d482606f565b915060dd83606f565b9250828203905060ff81111560f35760f2609f565b5b9291505056fea2646970667358221220e170fd9bae63dc46d9beab0080fa3b70015070ead0af0c45b06ec7ece2539c0964736f6c634300081e0033",
			"opcodes": "PUSH1 0x80 PUSH1 0x40 MSTORE PUSH1 0x1E PUSH0 PUSH0 PUSH2 0x100 EXP DUP2 SLOAD DUP2 PUSH1 0xFF MUL NOT AND SWAP1 DUP4 PUSH1 0xFF AND MUL OR SWAP1 SSTORE POP PUSH1 0x14 PUSH0 PUSH1 0x1 PUSH2 0x100 EXP DUP2 SLOAD DUP2 PUSH1 0xFF MUL NOT AND SWAP1 DUP4 PUSH1 0xFF AND MUL OR SWAP1 SSTORE POP CALLVALUE DUP1 ISZERO PUSH1 0x43 JUMPI PUSH0 PUSH0 REVERT JUMPDEST POP PUSH2 0x12F DUP1 PUSH2 0x51 PUSH0 CODECOPY PUSH0 RETURN INVALID PUSH1 0x80 PUSH1 0x40 MSTORE CALLVALUE DUP1 ISZERO PUSH1 0xE JUMPI PUSH0 PUSH0 REVERT JUMPDEST POP PUSH1 0x4 CALLDATASIZE LT PUSH1 0x26 JUMPI PUSH0 CALLDATALOAD PUSH1 0xE0 SHR DUP1 PUSH4 0x6DEEBAE3 EQ PUSH1 0x2A JUMPI JUMPDEST PUSH0 PUSH0 REVERT JUMPDEST PUSH1 0x30 PUSH1 0x44 JUMP JUMPDEST PUSH1 0x40 MLOAD PUSH1 0x3B SWAP2 SWAP1 PUSH1 0x88 JUMP JUMPDEST PUSH1 0x40 MLOAD DUP1 SWAP2 SUB SWAP1 RETURN JUMPDEST PUSH0 PUSH0 PUSH1 0x1 SWAP1 SLOAD SWAP1 PUSH2 0x100 EXP SWAP1 DIV PUSH1 0xFF AND PUSH0 PUSH0 SWAP1 SLOAD SWAP1 PUSH2 0x100 EXP SWAP1 DIV PUSH1 0xFF AND PUSH1 0x6A SWAP2 SWAP1 PUSH1 0xCC JUMP JUMPDEST SWAP1 POP SWAP1 JUMP JUMPDEST PUSH0 PUSH1 0xFF DUP3 AND SWAP1 POP SWAP2 SWAP1 POP JUMP JUMPDEST PUSH1 0x82 DUP2 PUSH1 0x6F JUMP JUMPDEST DUP3 MSTORE POP POP JUMP JUMPDEST PUSH0 PUSH1 0x20 DUP3 ADD SWAP1 POP PUSH1 0x99 PUSH0 DUP4 ADD DUP5 PUSH1 0x7B JUMP JUMPDEST SWAP3 SWAP2 POP POP JUMP JUMPDEST PUSH32 0x4E487B7100000000000000000000000000000000000000000000000000000000 PUSH0 MSTORE PUSH1 0x11 PUSH1 0x4 MSTORE PUSH1 0x24 PUSH0 REVERT JUMPDEST PUSH0 PUSH1 0xD4 DUP3 PUSH1 0x6F JUMP JUMPDEST SWAP2 POP PUSH1 0xDD DUP4 PUSH1 0x6F JUMP JUMPDEST SWAP3 POP DUP3 DUP3 SUB SWAP1 POP PUSH1 0xFF DUP2 GT ISZERO PUSH1 0xF3 JUMPI PUSH1 0xF2 PUSH1 0x9F JUMP JUMPDEST JUMPDEST SWAP3 SWAP2 POP POP JUMP INVALID LOG2 PUSH5 0x6970667358 0x22 SLT KECCAK256 RJUMPI 0x70FD SWAP12 0xAE PUSH4 0xDC46D9BE 0xAB STOP DUP1 STATICCALL EXTCODESIZE PUSH17 0x15070EAD0AF0C45B06EC7ECE2539C0964 PUSH20 0x6F6C634300081E00330000000000000000000000 "
		},
		"gasEstimates": {
			"creation": {
				"codeDepositCost": "60600",
				"executionCost": "48690",
				"totalCost": "109290"
			},
			"external": {
				"subtract()": "infinite"
			}
		},
		"methodIdentifiers": {
			"subtract()": "6deebae3"
		}
	},
	"abi": [
		{
			"inputs": [],
			"name": "subtract",
			"outputs": [
				{
					"internalType": "uint8",
					"name": "",
					"type": "uint8"
				}
			],
			"stateMutability": "view",
			"type": "function"
		}
	]
}