{
	"data": {
		"bytecode": {
			"linkReferences": {},
			"object": "6080604052348015600e575f5ffd5b506109488061001c5f395ff3fe608060405234801561000f575f5ffd5b506004361061003f575f3560e01c806305a8da72146100435780633b0c197e146100635780635a73362514610083575b5f5ffd5b61004b61009f565b60405161005a939291906103b4565b60405180910390f35b61006b6101c1565b60405161007a939291906103b4565b60405180910390f35b61009d600480360381019061009891906105ff565b6102f0565b005b5f805f0180546100ae90610673565b80601f01602080910402602001604051908101604052809291908181526020018280546100da90610673565b80156101255780601f106100fc57610100808354040283529160200191610125565b820191905f5260205f20905b81548152906001019060200180831161010857829003601f168201915b50505050509080600101805461013a90610673565b80601f016020809104026020016040519081016040528092919081815260200182805461016690610673565b80156101b15780601f10610188576101008083540402835291602001916101b1565b820191905f5260205f20905b81548152906001019060200180831161019457829003601f168201915b5050505050908060020154905083565b6060805f5f5f015f6001015f600201548280546101dd90610673565b80601f016020809104026020016040519081016040528092919081815260200182805461020990610673565b80156102545780601f1061022b57610100808354040283529160200191610254565b820191905f5260205f20905b81548152906001019060200180831161023757829003601f168201915b5050505050925081805461026790610673565b80601f016020809104026020016040519081016040528092919081815260200182805461029390610673565b80156102de5780601f106102b5576101008083540402835291602001916102de565b820191905f5260205f20905b8154815290600101906020018083116102c157829003601f168201915b50505050509150925092509250909192565b805f5f820151815f0190816103059190610843565b50602082015181600101908161031b9190610843565b506040820151816002015590505050565b5f81519050919050565b5f82825260208201905092915050565b8281835e5f83830152505050565b5f601f19601f8301169050919050565b5f61036e8261032c565b6103788185610336565b9350610388818560208601610346565b61039181610354565b840191505092915050565b5f819050919050565b6103ae8161039c565b82525050565b5f6060820190508181035f8301526103cc8186610364565b905081810360208301526103e08185610364565b90506103ef60408301846103a5565b949350505050565b5f604051905090565b5f5ffd5b5f5ffd5b5f5ffd5b7f4e487b71000000000000000000000000000000000000000000000000000000005f52604160045260245ffd5b61044282610354565b810181811067ffffffffffffffff821117156104615761046061040c565b5b80604052505050565b5f6104736103f7565b905061047f8282610439565b919050565b5f5ffd5b5f5ffd5b5f5ffd5b5f67ffffffffffffffff8211156104aa576104a961040c565b5b6104b382610354565b9050602081019050919050565b828183375f83830152505050565b5f6104e06104db84610490565b61046a565b9050828152602081018484840111156104fc576104fb61048c565b5b6105078482856104c0565b509392505050565b5f82601f83011261052357610522610488565b5b81356105338482602086016104ce565b91505092915050565b6105458161039c565b811461054f575f5ffd5b50565b5f813590506105608161053c565b92915050565b5f6060828403121561057b5761057a610408565b5b610585606061046a565b90505f82013567ffffffffffffffff8111156105a4576105a3610484565b5b6105b08482850161050f565b5f83015250602082013567ffffffffffffffff8111156105d3576105d2610484565b5b6105df8482850161050f565b60208301525060406105f384828501610552565b60408301525092915050565b5f6020828403121561061457610613610400565b5b5f82013567ffffffffffffffff81111561063157610630610404565b5b61063d84828501610566565b91505092915050565b7f4e487b71000000000000000000000000000000000000000000000000000000005f52602260045260245ffd5b5f600282049050600182168061068a57607f821691505b60208210810361069d5761069c610646565b5b50919050565b5f819050815f5260205f209050919050565b5f6020601f8301049050919050565b5f82821b905092915050565b5f600883026106ff7fffffffffffffffffffffffffffffffffffffffffffffffffffffffffffffffff826106c4565b61070986836106c4565b95508019841693508086168417925050509392505050565b5f819050919050565b5f61074461073f61073a8461039c565b610721565b61039c565b9050919050565b5f819050919050565b61075d8361072a565b6107716107698261074b565b8484546106d0565b825550505050565b5f5f905090565b610788610779565b610793818484610754565b505050565b5b818110156107b6576107ab5f82610780565b600181019050610799565b5050565b601f8211156107fb576107cc816106a3565b6107d5846106b5565b810160208510156107e4578190505b6107f86107f0856106b5565b830182610798565b50505b505050565b5f82821c905092915050565b5f61081b5f1984600802610800565b1980831691505092915050565b5f610833838361080c565b9150826002028217905092915050565b61084c8261032c565b67ffffffffffffffff8111156108655761086461040c565b5b61086f8254610673565b61087a8282856107ba565b5f60209050601f8311600181146108ab575f8415610899578287015190505b6108a38582610828565b86555061090a565b601f1984166108b9866106a3565b5f5b828110156108e0578489015182556001820191506020850194506020810190506108bb565b868310156108fd57848901516108f9601f89168261080c565b8355505b6001600288020188555050505b50505050505056fea26469706673582212205ac606e0aed7839dc459f43249b26fccc09ee1fb5fb777b24fdc2d9ed658580464736f6c634300081e0033",
			"opcodes": "PUSH1 0x80 PUSH1 0x40 MSTORE CALLVALUE DUP1 ISZERO PUSH1 0xE JUMPI PUSH0 PUSH0 REVERT JUMPDEST POP PUSH2 0x948 DUP1 PUSH2 0x1C PUSH0 CODECOPY PUSH0 RETURN INVALID PUSH1 0x80 PUSH1 0x40 MSTORE CALLVALUE DUP1 ISZERO PUSH2 0xF JUMPI PUSH0 PUSH0 REVERT JUMPDEST POP PUSH1 0x4 CALLDATASIZE LT PUSH2 0x3F JUMPI PUSH0 CALLDATALOAD PUSH1 0xE0 SHR DUP1 PUSH4 0x5A8DA72 EQ PUSH2 0x43 JUMPI DUP1 PUSH4 0x3B0C197E EQ PUSH2 0x63 JUMPI DUP1 PUSH4 0x5A733625 EQ PUSH2 0x83 JUMPI JUMPDEST PUSH0 PUSH0 REVERT JUMPDEST PUSH2 0x4B PUSH2 0x9F JUMP JUMPDEST PUSH1 0x40 MLOAD PUSH2 0x5A SWAP4 SWAP3 SWAP2 SWAP1 PUSH2 0x3B4 JUMP JUMPDEST PUSH1 0x40 MLOAD DUP1 SWAP2 SUB SWAP1 RETURN JUMPDEST PUSH2 0x6B PUSH2 0x1C1 JUMP JUMPDEST PUSH1 0x40 MLOAD PUSH2 0x7A SWAP4 SWAP3 SWAP2 SWAP1 PUSH2 0x3B4 JUMP JUMPDEST PUSH1 0x40 MLOAD DUP1 SWAP2 SUB SWAP1 RETURN JUMPDEST PUSH2 0x9D PUSH1 0x4 DUP1 CALLDATASIZE SUB DUP2 ADD SWAP1 PUSH2 0x98 SWAP2 SWAP1 PUSH2 0x5FF JUMP JUMPDEST PUSH2 0x2F0 JUMP JUMPDEST STOP JUMPDEST PUSH0 DUP1 PUSH0 ADD DUP1 SLOAD PUSH2 0xAE SWAP1 PUSH2 0x673 JUMP JUMPDEST DUP1 PUSH1 0x1F ADD PUSH1 0x20 DUP1 SWAP2 DIV MUL PUSH1 0x20 ADD PUSH1 0x40 MLOAD SWAP1 DUP2 ADD PUSH1 0x40 MSTORE DUP1 SWAP3 SWAP2 SWAP1 DUP2 DUP2 MSTORE PUSH1 0x20 ADD DUP3 DUP1 SLOAD PUSH2 0xDA SWAP1 PUSH2 0x673 JUMP JUMPDEST DUP1 ISZERO PUSH2 0x125 JUMPI DUP1 PUSH1 0x1F LT PUSH2 0xFC JUMPI PUSH2 0x100 DUP1 DUP4 SLOAD DIV MUL DUP4 MSTORE SWAP2 PUSH1 0x20 ADD SWAP2 PUSH2 0x125 JUMP JUMPDEST DUP3 ADD SWAP2 SWAP1 PUSH0 MSTORE PUSH1 0x20 PUSH0 KECCAK256 SWAP1 JUMPDEST DUP2 SLOAD DUP2 MSTORE SWAP1 PUSH1 0x1 ADD SWAP1 PUSH1 0x20 ADD DUP1 DUP4 GT PUSH2 0x108 JUMPI DUP3 SWAP1 SUB PUSH1 0x1F AND DUP3 ADD SWAP2 JUMPDEST POP POP POP POP POP SWAP1 DUP1 PUSH1 0x1 ADD DUP1 SLOAD PUSH2 0x13A SWAP1 PUSH2 0x673 JUMP JUMPDEST DUP1 PUSH1 0x1F ADD PUSH1 0x20 DUP1 SWAP2 DIV MUL PUSH1 0x20 ADD PUSH1 0x40 MLOAD SWAP1 DUP2 ADD PUSH1 0x40 MSTORE DUP1 SWAP3 SWAP2 SWAP1 DUP2 DUP2 MSTORE PUSH1 0x20 ADD DUP3 DUP1 SLOAD PUSH2 0x166 SWAP1 PUSH2 0x673 JUMP JUMPDEST DUP1 ISZERO PUSH2 0x1B1 JUMPI DUP1 PUSH1 0x1F LT PUSH2 0x188 JUMPI PUSH2 0x100 DUP1 DUP4 SLOAD DIV MUL DUP4 MSTORE SWAP2 PUSH1 0x20 ADD SWAP2 PUSH2 0x1B1 JUMP JUMPDEST DUP3 ADD SWAP2 SWAP1 PUSH0 MSTORE PUSH1 0x20 PUSH0 KECCAK256 SWAP1 JUMPDEST DUP2 SLOAD DUP2 MSTORE SWAP1 PUSH1 0x1 ADD SWAP1 PUSH1 0x20 ADD DUP1 DUP4 GT PUSH2 0x194 JUMPI DUP3 SWAP1 SUB PUSH1 0x1F AND DUP3 ADD SWAP2 JUMPDEST POP POP POP POP POP SWAP1 DUP1 PUSH1 0x2 ADD SLOAD SWAP1 POP DUP4 JUMP JUMPDEST PUSH1 0x60 DUP1 PUSH0 PUSH0 PUSH0 ADD PUSH0 PUSH1 0x1 ADD PUSH0 PUSH1 0x2 ADD SLOAD DUP3 DUP1 SLOAD PUSH2 0x1DD SWAP1 PUSH2 0x673 JUMP JUMPDEST DUP1 PUSH1 0x1F ADD PUSH1 0x20 DUP1 SWAP2 DIV MUL PUSH1 0x20 ADD PUSH1 0x40 MLOAD SWAP1 DUP2 ADD PUSH1 0x40 MSTORE DUP1 SWAP3 SWAP2 SWAP1 DUP2 DUP2 MSTORE PUSH1 0x20 ADD DUP3 DUP1 SLOAD PUSH2 0x209 SWAP1 PUSH2 0x673 JUMP JUMPDEST DUP1 ISZERO PUSH2 0x254 JUMPI DUP1 PUSH1 0x1F LT PUSH2 0x22B JUMPI PUSH2 0x100 DUP1 DUP4 SLOAD DIV MUL DUP4 MSTORE SWAP2 PUSH1 0x20 ADD SWAP2 PUSH2 0x254 JUMP JUMPDEST DUP3 ADD SWAP2 SWAP1 PUSH0 MSTORE PUSH1 0x20 PUSH0 KECCAK256 SWAP1 JUMPDEST DUP2 SLOAD DUP2 MSTORE SWAP1 PUSH1 0x1 ADD SWAP1 PUSH1 0x20 ADD DUP1 DUP4 GT PUSH2 0x237 JUMPI DUP3 SWAP1 SUB PUSH1 0x1F AND DUP3 ADD SWAP2 JUMPDEST POP POP POP POP POP SWAP3 POP DUP2 DUP1 SLOAD PUSH2 0x267 SWAP1 PUSH2 0x673 JUMP JUMPDEST DUP1 PUSH1 0x1F ADD PUSH1 0x20 DUP1 SWAP2 DIV MUL PUSH1 0x20 ADD PUSH1 0x40 MLOAD SWAP1 DUP2 ADD PUSH1 0x40 MSTORE DUP1 SWAP3 SWAP2 SWAP1 DUP2 DUP2 MSTORE PUSH1 0x20 ADD DUP3 DUP1 SLOAD PUSH2 0x293 SWAP1 PUSH2 0x673 JUMP JUMPDEST DUP1 ISZERO PUSH2 0x2DE JUMPI DUP1 PUSH1 0x1F LT PUSH2 0x2B5 JUMPI PUSH2 0x100 DUP1 DUP4 SLOAD DIV MUL DUP4 MSTORE SWAP2 PUSH1 0x20 ADD SWAP2 PUSH2 0x2DE JUMP JUMPDEST DUP3 ADD SWAP2 SWAP1 PUSH0 MSTORE PUSH1 0x20 PUSH0 KECCAK256 SWAP1 JUMPDEST DUP2 SLOAD DUP2 MSTORE SWAP1 PUSH1 0x1 ADD SWAP1 PUSH1 0x20 ADD DUP1 DUP4 GT PUSH2 0x2C1 JUMPI DUP3 SWAP1 SUB PUSH1 0x1F AND DUP3 ADD SWAP2 JUMPDEST POP POP POP POP POP SWAP2 POP SWAP3 POP SWAP3 POP SWAP3 POP SWAP1 SWAP2 SWAP3 JUMP JUMPDEST DUP1 PUSH0 PUSH0 DUP3 ADD MLOAD DUP2 PUSH0 ADD SWAP1 DUP2 PUSH2 0x305 SWAP2 SWAP1 PUSH2 0x843 JUMP JUMPDEST POP PUSH1 0x20 DUP3 ADD MLOAD DUP2 PUSH1 0x1 ADD SWAP1 DUP2 PUSH2 0x31B SWAP2 SWAP1 PUSH2 0x843 JUMP JUMPDEST POP PUSH1 0x40 DUP3 ADD MLOAD DUP2 PUSH1 0x2 ADD SSTORE SWAP1 POP POP POP JUMP JUMPDEST PUSH0 DUP2 MLOAD SWAP1 POP SWAP2 SWAP1 POP JUMP JUMPDEST PUSH0 DUP3 DUP3 MSTORE PUSH1 0x20 DUP3 ADD SWAP1 POP SWAP3 SWAP2 POP POP JUMP JUMPDEST DUP3 DUP2 DUP4 MCOPY PUSH0 DUP4 DUP4 ADD MSTORE POP POP POP JUMP JUMPDEST PUSH0 PUSH1 0x1F NOT PUSH1 0x1F DUP4 ADD AND SWAP1 POP SWAP2 SWAP1 POP JUMP JUMPDEST PUSH0 PUSH2 0x36E DUP3 PUSH2 0x32C JUMP JUMPDEST PUSH2 0x378 DUP2 DUP6 PUSH2 0x336 JUMP JUMPDEST SWAP4 POP PUSH2 0x388 DUP2 DUP6 PUSH1 0x20 DUP7 ADD PUSH2 0x346 JUMP JUMPDEST PUSH2 0x391 DUP2 PUSH2 0x354 JUMP JUMPDEST DUP5 ADD SWAP2 POP POP SWAP3 SWAP2 POP POP JUMP JUMPDEST PUSH0 DUP2 SWAP1 POP SWAP2 SWAP1 POP JUMP JUMPDEST PUSH2 0x3AE DUP2 PUSH2 0x39C JUMP JUMPDEST DUP3 MSTORE POP POP JUMP JUMPDEST PUSH0 PUSH1 0x60 DUP3 ADD SWAP1 POP DUP2 DUP2 SUB PUSH0 DUP4 ADD MSTORE PUSH2 0x3CC DUP2 DUP7 PUSH2 0x364 JUMP JUMPDEST SWAP1 POP DUP2 DUP2 SUB PUSH1 0x20 DUP4 ADD MSTORE PUSH2 0x3E0 DUP2 DUP6 PUSH2 0x364 JUMP JUMPDEST SWAP1 POP PUSH2 0x3EF PUSH1 0x40 DUP4 ADD DUP5 PUSH2 0x3A5 JUMP JUMPDEST SWAP5 SWAP4 POP POP POP POP JUMP JUMPDEST PUSH0 PUSH1 0x40 MLOAD SWAP1 POP SWAP1 JUMP JUMPDEST PUSH0 PUSH0 REVERT JUMPDEST PUSH0 PUSH0 REVERT JUMPDEST PUSH0 PUSH0 REVERT JUMPDEST PUSH32 0x4E487B7100000000000000000000000000000000000000000000000000000000 PUSH0 MSTORE PUSH1 0x41 PUSH1 0x4 MSTORE PUSH1 0x24 PUSH0 REVERT JUMPDEST PUSH2 0x442 DUP3 PUSH2 0x354 JUMP JUMPDEST DUP2 ADD DUP2 DUP2 LT PUSH8 0xFFFFFFFFFFFFFFFF DUP3 GT OR ISZERO PUSH2 0x461 JUMPI PUSH2 0x460 PUSH2 0x40C JUMP JUMPDEST JUMPDEST DUP1 PUSH1 0x40 MSTORE POP POP POP JUMP JUMPDEST PUSH0 PUSH2 0x473 PUSH2 0x3F7 JUMP JUMPDEST SWAP1 POP PUSH2 0x47F DUP3 DUP3 PUSH2 0x439 JUMP JUMPDEST SWAP2 SWAP1 POP JUMP JUMPDEST PUSH0 PUSH0 REVERT JUMPDEST PUSH0 PUSH0 REVERT JUMPDEST PUSH0 PUSH0 REVERT JUMPDEST PUSH0 PUSH8 0xFFFFFFFFFFFFFFFF DUP3 GT ISZERO PUSH2 0x4AA JUMPI PUSH2 0x4A9 PUSH2 0x40C JUMP JUMPDEST JUMPDEST PUSH2 0x4B3 DUP3 PUSH2 0x354 JUMP JUMPDEST SWAP1 POP PUSH1 0x20 DUP2 ADD SWAP1 POP SWAP2 SWAP1 POP JUMP JUMPDEST DUP3 DUP2 DUP4 CALLDATACOPY PUSH0 DUP4 DUP4 ADD MSTORE POP POP POP JUMP JUMPDEST PUSH0 PUSH2 0x4E0 PUSH2 0x4DB DUP5 PUSH2 0x490 JUMP JUMPDEST PUSH2 0x46A JUMP JUMPDEST SWAP1 POP DUP3 DUP2 MSTORE PUSH1 0x20 DUP2 ADD DUP5 DUP5 DUP5 ADD GT ISZERO PUSH2 0x4FC JUMPI PUSH2 0x4FB PUSH2 0x48C JUMP JUMPDEST JUMPDEST PUSH2 0x507 DUP5 DUP3 DUP6 PUSH2 0x4C0 JUMP JUMPDEST POP SWAP4 SWAP3 POP POP POP JUMP JUMPDEST PUSH0 DUP3 PUSH1 0x1F DUP4 ADD SLT PUSH2 0x523 JUMPI PUSH2 0x522 PUSH2 0x488 JUMP JUMPDEST JUMPDEST DUP2 CALLDATALOAD PUSH2 0x533 DUP5 DUP3 PUSH1 0x20 DUP7 ADD PUSH2 0x4CE JUMP JUMPDEST SWAP2 POP POP SWAP3 SWAP2 POP POP JUMP JUMPDEST PUSH2 0x545 DUP2 PUSH2 0x39C JUMP JUMPDEST DUP2 EQ PUSH2 0x54F JUMPI PUSH0 PUSH0 REVERT JUMPDEST POP JUMP JUMPDEST PUSH0 DUP2 CALLDATALOAD SWAP1 POP PUSH2 0x560 DUP2 PUSH2 0x53C JUMP JUMPDEST SWAP3 SWAP2 POP POP JUMP JUMPDEST PUSH0 PUSH1 0x60 DUP3 DUP5 SUB SLT ISZERO PUSH2 0x57B JUMPI PUSH2 0x57A PUSH2 0x408 JUMP JUMPDEST JUMPDEST PUSH2 0x585 PUSH1 0x60 PUSH2 0x46A JUMP JUMPDEST SWAP1 POP PUSH0 DUP3 ADD CALLDATALOAD PUSH8 0xFFFFFFFFFFFFFFFF DUP2 GT ISZERO PUSH2 0x5A4 JUMPI PUSH2 0x5A3 PUSH2 0x484 JUMP JUMPDEST JUMPDEST PUSH2 0x5B0 DUP5 DUP3 DUP6 ADD PUSH2 0x50F JUMP JUMPDEST PUSH0 DUP4 ADD MSTORE POP PUSH1 0x20 DUP3 ADD CALLDATALOAD PUSH8 0xFFFFFFFFFFFFFFFF DUP2 GT ISZERO PUSH2 0x5D3 JUMPI PUSH2 0x5D2 PUSH2 0x484 JUMP JUMPDEST JUMPDEST PUSH2 0x5DF DUP5 DUP3 DUP6 ADD PUSH2 0x50F JUMP JUMPDEST PUSH1 0x20 DUP4 ADD MSTORE POP PUSH1 0x40 PUSH2 0x5F3 DUP5 DUP3 DUP6 ADD PUSH2 0x552 JUMP JUMPDEST PUSH1 0x40 DUP4 ADD MSTORE POP SWAP3 SWAP2 POP POP JUMP JUMPDEST PUSH0 PUSH1 0x20 DUP3 DUP5 SUB SLT ISZERO PUSH2 0x614 JUMPI PUSH2 0x613 PUSH2 0x400 JUMP JUMPDEST JUMPDEST PUSH0 DUP3 ADD CALLDATALOAD PUSH8 0xFFFFFFFFFFFFFFFF DUP2 GT ISZERO PUSH2 0x631 JUMPI PUSH2 0x630 PUSH2 0x404 JUMP JUMPDEST JUMPDEST PUSH2 0x63D DUP5 DUP3 DUP6 ADD PUSH2 0x566 JUMP JUMPDEST SWAP2 POP POP SWAP3 SWAP2 POP POP JUMP JUMPDEST PUSH32 0x4E487B7100000000000000000000000000000000000000000000000000000000 PUSH0 MSTORE PUSH1 0x22 PUSH1 0x4 MSTORE PUSH1 0x24 PUSH0 REVERT JUMPDEST PUSH0 PUSH1 0x2 DUP3 DIV SWAP1 POP PUSH1 0x1 DUP3 AND DUP1 PUSH2 0x68A JUMPI PUSH1 0x7F DUP3 AND SWAP2 POP JUMPDEST PUSH1 0x20 DUP3 LT DUP2 SUB PUSH2 0x69D JUMPI PUSH2 0x69C PUSH2 0x646 JUMP JUMPDEST JUMPDEST POP SWAP2 SWAP1 POP JUMP JUMPDEST PUSH0 DUP2 SWAP1 POP DUP2 PUSH0 MSTORE PUSH1 0x20 PUSH0 KECCAK256 SWAP1 POP SWAP2 SWAP1 POP JUMP JUMPDEST PUSH0 PUSH1 0x20 PUSH1 0x1F DUP4 ADD DIV SWAP1 POP SWAP2 SWAP1 POP JUMP JUMPDEST PUSH0 DUP3 DUP3 SHL SWAP1 POP SWAP3 SWAP2 POP POP JUMP JUMPDEST PUSH0 PUSH1 0x8 DUP4 MUL PUSH2 0x6FF PUSH32 0xFFFFFFFFFFFFFFFFFFFFFFFFFFFFFFFFFFFFFFFFFFFFFFFFFFFFFFFFFFFFFFFF DUP3 PUSH2 0x6C4 JUMP JUMPDEST PUSH2 0x709 DUP7 DUP4 PUSH2 0x6C4 JUMP JUMPDEST SWAP6 POP DUP1 NOT DUP5 AND SWAP4 POP DUP1 DUP7 AND DUP5 OR SWAP3 POP POP POP SWAP4 SWAP3 POP POP POP JUMP JUMPDEST PUSH0 DUP2 SWAP1 POP SWAP2 SWAP1 POP JUMP JUMPDEST PUSH0 PUSH2 0x744 PUSH2 0x73F PUSH2 0x73A DUP5 PUSH2 0x39C JUMP JUMPDEST PUSH2 0x721 JUMP JUMPDEST PUSH2 0x39C JUMP JUMPDEST SWAP1 POP SWAP2 SWAP1 POP JUMP JUMPDEST PUSH0 DUP2 SWAP1 POP SWAP2 SWAP1 POP JUMP JUMPDEST PUSH2 0x75D DUP4 PUSH2 0x72A JUMP JUMPDEST PUSH2 0x771 PUSH2 0x769 DUP3 PUSH2 0x74B JUMP JUMPDEST DUP5 DUP5 SLOAD PUSH2 0x6D0 JUMP JUMPDEST DUP3 SSTORE POP POP POP POP JUMP JUMPDEST PUSH0 PUSH0 SWAP1 POP SWAP1 JUMP JUMPDEST PUSH2 0x788 PUSH2 0x779 JUMP JUMPDEST PUSH2 0x793 DUP2 DUP5 DUP5 PUSH2 0x754 JUMP JUMPDEST POP POP POP JUMP JUMPDEST JUMPDEST DUP2 DUP2 LT ISZERO PUSH2 0x7B6 JUMPI PUSH2 0x7AB PUSH0 DUP3 PUSH2 0x780 JUMP JUMPDEST PUSH1 0x1 DUP2 ADD SWAP1 POP PUSH2 0x799 JUMP JUMPDEST POP POP JUMP JUMPDEST PUSH1 0x1F DUP3 GT ISZERO PUSH2 0x7FB JUMPI PUSH2 0x7CC DUP2 PUSH2 0x6A3 JUMP JUMPDEST PUSH2 0x7D5 DUP5 PUSH2 0x6B5 JUMP JUMPDEST DUP2 ADD PUSH1 0x20 DUP6 LT ISZERO PUSH2 0x7E4 JUMPI DUP2 SWAP1 POP JUMPDEST PUSH2 0x7F8 PUSH2 0x7F0 DUP6 PUSH2 0x6B5 JUMP JUMPDEST DUP4 ADD DUP3 PUSH2 0x798 JUMP JUMPDEST POP POP JUMPDEST POP POP POP JUMP JUMPDEST PUSH0 DUP3 DUP3 SHR SWAP1 POP SWAP3 SWAP2 POP POP JUMP JUMPDEST PUSH0 PUSH2 0x81B PUSH0 NOT DUP5 PUSH1 0x8 MUL PUSH2 0x800 JUMP JUMPDEST NOT DUP1 DUP4 AND SWAP2 POP POP SWAP3 SWAP2 POP POP JUMP JUMPDEST PUSH0 PUSH2 0x833 DUP4 DUP4 PUSH2 0x80C JUMP JUMPDEST SWAP2 POP DUP3 PUSH1 0x2 MUL DUP3 OR SWAP1 POP SWAP3 SWAP2 POP POP JUMP JUMPDEST PUSH2 0x84C DUP3 PUSH2 0x32C JUMP JUMPDEST PUSH8 0xFFFFFFFFFFFFFFFF DUP2 GT ISZERO PUSH2 0x865 JUMPI PUSH2 0x864 PUSH2 0x40C JUMP JUMPDEST JUMPDEST PUSH2 0x86F DUP3 SLOAD PUSH2 0x673 JUMP JUMPDEST PUSH2 0x87A DUP3 DUP3 DUP6 PUSH2 0x7BA JUMP JUMPDEST PUSH0 PUSH1 0x20 SWAP1 POP PUSH1 0x1F DUP4 GT PUSH1 0x1 DUP2 EQ PUSH2 0x8AB JUMPI PUSH0 DUP5 ISZERO PUSH2 0x899 JUMPI DUP3 DUP8 ADD MLOAD SWAP1 POP JUMPDEST PUSH2 0x8A3 DUP6 DUP3 PUSH2 0x828 JUMP JUMPDEST DUP7 SSTORE POP PUSH2 0x90A JUMP JUMPDEST PUSH1 0x1F NOT DUP5 AND PUSH2 0x8B9 DUP7 PUSH2 0x6A3 JUMP JUMPDEST PUSH0 JUMPDEST DUP3 DUP2 LT ISZERO PUSH2 0x8E0 JUMPI DUP5 DUP10 ADD MLOAD DUP3 SSTORE PUSH1 0x1 DUP3 ADD SWAP2 POP PUSH1 0x20 DUP6 ADD SWAP5 POP PUSH1 0x20 DUP2 ADD SWAP1 POP PUSH2 0x8BB JUMP JUMPDEST DUP7 DUP4 LT ISZERO PUSH2 0x8FD JUMPI DUP5 DUP10 ADD MLOAD PUSH2 0x8F9 PUSH1 0x1F DUP10 AND DUP3 PUSH2 0x80C JUMP JUMPDEST DUP4 SSTORE POP JUMPDEST PUSH1 0x1 PUSH1 0x2 DUP9 MUL ADD DUP9 SSTORE POP POP POP JUMPDEST POP POP POP POP POP POP JUMP INVALID LOG2 PUSH5 0x6970667358 0x22 SLT KECCAK256 GAS 0xC6 MOD RJUMP 0xAED7 DUP4 SWAP14 0xC4 MSIZE DELEGATECALL ORIGIN BLOBHASH 0xB2 PUSH16 0xCCC09EE1FB5FB777B24FDC2D9ED65858 DIV PUSH5 0x736F6C6343 STOP ADDMOD 0x1E STOP CALLER "
		},
		"gasEstimates": {
			"creation": {
				"codeDepositCost": "475200",
				"executionCost": "509",
				"totalCost": "475709"
			},
			"external": {
				"book()": "infinite",
				"getBook()": "infinite",
				"setBook((string,string,uint256))": "infinite"
			}
		},
		"methodIdentifiers": {
			"book()": "05a8da72",
			"getBook()": "3b0c197e",
			"setBook((string,string,uint256))": "5a733625"
		}
	},
	"abi": [
		{
			"inputs": [],
			"name": "book",
			"outputs": [
				{
					"internalType": "string",
					"name": "title",
					"type": "string"
				},
				{
					"internalType": "string",
					"name": "author",
					"type": "string"
				},
				{
					"internalType": "uint256",
					"name": "year",
					"type": "uint256"
				}
			],
			"stateMutability": "view",
			"type": "function"
		},
		{
			"inputs": [],
			"name": "getBook",
			"outputs": [
				{
					"internalType": "string",
					"name": "",
					"type": "string"
				},
				{
					"internalType": "string",
					"name": "",
					"type": "string"
				},
				{
					"internalType": "uint256",
					"name": "",
					"type": "uint256"
				}
			],
			"stateMutability": "view",
			"type": "function"
		},
		{
			"inputs": [
				{
					"components": [
						{
							"internalType": "string",
							"name": "title",
							"type": "string"
						},
						{
							"internalType": "string",
							"name": "author",
							"type": "string"
						},
						{
							"internalType": "uint256",
							"name": "year",
							"type": "uint256"
						}
					],
					"internalType": "struct BookStore.Book",
					"name": "_book",
					"type": "tuple"
				}
			],
			"name": "setBook",
			"outputs": [],
			"stateMutability": "nonpayable",
			"type": "function"
		}
	]
}