{
	"data": {
		"bytecode": {
			"linkReferences": {},
			"object": "6080604052601e5f5f6101000a81548160ff021916908360ff16021790555060145f60016101000a81548160ff021916908360ff1602179055503480156043575f5ffd5b5061014b806100515f395ff3fe608060405234801561000f575f5ffd5b5060043610610029575f3560e01c8063f3593cd01461002d575b5f5ffd5b61003561004b565b6040516100429190610093565b60405180910390f35b5f5f60019054906101000a900460ff165f5f9054906101000a900460ff1661007391906100d9565b905090565b5f60ff82169050919050565b61008d81610078565b82525050565b5f6020820190506100a65f830184610084565b92915050565b7f4e487b71000000000000000000000000000000000000000000000000000000005f52601160045260245ffd5b5f6100e382610078565b91506100ee83610078565b92508282026100fc81610078565b915080821461010e5761010d6100ac565b5b509291505056fea2646970667358221220c599a377f79c063aee9f64b0a4044dcf773976a430761ba089ba11e9fffaf3e864736f6c634300081e0033",
			"opcodes": "PUSH1 0x80 PUSH1 0x40 MSTORE PUSH1 0x1E PUSH0 PUSH0 PUSH2 0x100 EXP DUP2 SLOAD DUP2 PUSH1 0xFF MUL NOT AND SWAP1 DUP4 PUSH1 0xFF AND MUL OR SWAP1 SSTORE POP PUSH1 0x14 PUSH0 PUSH1 0x1 PUSH2 0x100 EXP DUP2 SLOAD DUP2 PUSH1 0xFF MUL NOT AND SWAP1 DUP4 PUSH1 0xFF AND MUL OR SWAP1 SSTORE POP CALLVALUE DUP1 ISZERO PUSH1 0x43 JUMPI PUSH0 PUSH0 REVERT JUMPDEST POP PUSH2 0x14B DUP1 PUSH2 0x51 PUSH0 CODECOPY PUSH0 RETURN INVALID PUSH1 0x80 PUSH1 0x40 MSTORE CALLVALUE DUP1 ISZERO PUSH2 0xF JUMPI PUSH0 PUSH0 REVERT JUMPDEST POP PUSH1 0x4 CALLDATASIZE LT PUSH2 0x29 JUMPI PUSH0 CALLDATALOAD PUSH1 0xE0 SHR DUP1 PUSH4 0xF3593CD0 EQ PUSH2 0x2D JUMPI JUMPDEST PUSH0 PUSH0 REVERT JUMPDEST PUSH2 0x35 PUSH2 0x4B JUMP JUMPDEST PUSH1 0x40 MLOAD PUSH2 0x42 SWAP2 SWAP1 PUSH2 0x93 JUMP JUMPDEST PUSH1 0x40 MLOAD DUP1 SWAP2 SUB SWAP1 RETURN JUMPDEST PUSH0 PUSH0 PUSH1 0x1 SWAP1 SLOAD SWAP1 PUSH2 0x100 EXP SWAP1 DIV PUSH1 0xFF AND PUSH0 PUSH0 SWAP1 SLOAD SWAP1 PUSH2 0x100 EXP SWAP1 DIV PUSH1 0xFF AND PUSH2 0x73 SWAP2 SWAP1 PUSH2 0xD9 JUMP JUMPDEST SWAP1 POP SWAP1 JUMP JUMPDEST PUSH0 PUSH1 0xFF DUP3 AND SWAP1 POP SWAP2 SWAP1 POP JUMP JUMPDEST PUSH2 0x8D DUP2 PUSH2 0x78 JUMP JUMPDEST DUP3 MSTORE POP POP JUMP JUMPDEST PUSH0 PUSH1 0x20 DUP3 ADD SWAP1 POP PUSH2 0xA6 PUSH0 DUP4 ADD DUP5 PUSH2 0x84 JUMP JUMPDEST SWAP3 SWAP2 POP POP JUMP JUMPDEST PUSH32 0x4E487B7100000000000000000000000000000000000000000000000000000000 PUSH0 MSTORE PUSH1 0x11 PUSH1 0x4 MSTORE PUSH1 0x24 PUSH0 REVERT JUMPDEST PUSH0 PUSH2 0xE3 DUP3 PUSH2 0x78 JUMP JUMPDEST SWAP2 POP PUSH2 0xEE DUP4 PUSH2 0x78 JUMP JUMPDEST SWAP3 POP DUP3 DUP3 MUL PUSH2 0xFC DUP2 PUSH2 0x78 JUMP JUMPDEST SWAP2 POP DUP1 DUP3 EQ PUSH2 0x10E JUMPI PUSH2 0x10D PUSH2 0xAC JUMP JUMPDEST JUMPDEST POP SWAP3 SWAP2 POP POP JUMP INVALID LOG2 PUSH5 0x6970667358 0x22 SLT KECCAK256 0xC5 SWAP10 LOG3 PUSH24 0xF79C063AEE9F64B0A4044DCF773976A430761BA089BA11E9 SELFDESTRUCT STATICCALL RETURN 0xE8 PUSH5 0x736F6C6343 STOP ADDMOD 0x1E STOP CALLER "
		},
		"gasEstimates": {
			"creation": {
				"codeDepositCost": "66200",
				"executionCost": "48696",
				"totalCost": "114896"
			},
			"external": {
				"multiply()": "infinite"
			}
		},
		"methodIdentifiers": {
			"multiply()": "f3593cd0"
		}
	},
	"abi": [
		{
			"inputs": [],
			"name": "multiply",
			"outputs": [
				{
					"internalType": "uint8",
					"name": "",
					"type": "uint8"
				}
			],
			"stateMutability": "view",
			"type": "function"
		}
	]
}