{
	"data": {
		"bytecode": {
			"linkReferences": {},
			"object": "6080604052348015600e575f5ffd5b50610a4f8061001c5f395ff3fe608060405234801561000f575f5ffd5b506004361061003f575f3560e01c8063918d73f414610043578063ca04c8341461005f578063ee26fac314610080575b5f5ffd5b61005d6004803603810190610058919061051d565b6100a0565b005b610067610120565b6040516100779493929190610628565b60405180910390f35b61008861025e565b6040516100979392919061070a565b60405180910390f35b60405180606001604052808581526020018481526020016040518060400160405280858152602001848152508152505f5f820151815f0190816100e3919061094a565b50602082015181600101556040820151816002015f820151815f01908161010a919061094a565b5060208201518160010155505090505050505050565b60605f60605f5f5f015f600101545f6002015f015f600201600101548380546101489061077a565b80601f01602080910402602001604051908101604052809291908181526020018280546101749061077a565b80156101bf5780601f10610196576101008083540402835291602001916101bf565b820191905f5260205f20905b8154815290600101906020018083116101a257829003601f168201915b505050505093508180546101d29061077a565b80601f01602080910402602001604051908101604052809291908181526020018280546101fe9061077a565b80156102495780601f1061022057610100808354040283529160200191610249565b820191905f5260205f20905b81548152906001019060200180831161022c57829003601f168201915b50505050509150935093509350935090919293565b5f805f01805461026d9061077a565b80601f01602080910402602001604051908101604052809291908181526020018280546102999061077a565b80156102e45780601f106102bb576101008083540402835291602001916102e4565b820191905f5260205f20905b8154815290600101906020018083116102c757829003601f168201915b505050505090806001015490806002016040518060400160405290815f8201805461030e9061077a565b80601f016020809104026020016040519081016040528092919081815260200182805461033a9061077a565b80156103855780601f1061035c57610100808354040283529160200191610385565b820191905f5260205f20905b81548152906001019060200180831161036857829003601f168201915b50505050508152602001600182015481525050905083565b5f604051905090565b5f5ffd5b5f5ffd5b5f5ffd5b5f5ffd5b5f601f19601f8301169050919050565b7f4e487b71000000000000000000000000000000000000000000000000000000005f52604160045260245ffd5b6103fc826103b6565b810181811067ffffffffffffffff8211171561041b5761041a6103c6565b5b80604052505050565b5f61042d61039d565b905061043982826103f3565b919050565b5f67ffffffffffffffff821115610458576104576103c6565b5b610461826103b6565b9050602081019050919050565b828183375f83830152505050565b5f61048e6104898461043e565b610424565b9050828152602081018484840111156104aa576104a96103b2565b5b6104b584828561046e565b509392505050565b5f82601f8301126104d1576104d06103ae565b5b81356104e184826020860161047c565b91505092915050565b5f819050919050565b6104fc816104ea565b8114610506575f5ffd5b50565b5f81359050610517816104f3565b92915050565b5f5f5f5f60808587031215610535576105346103a6565b5b5f85013567ffffffffffffffff811115610552576105516103aa565b5b61055e878288016104bd565b945050602061056f87828801610509565b935050604085013567ffffffffffffffff8111156105905761058f6103aa565b5b61059c878288016104bd565b92505060606105ad87828801610509565b91505092959194509250565b5f81519050919050565b5f82825260208201905092915050565b8281835e5f83830152505050565b5f6105eb826105b9565b6105f581856105c3565b93506106058185602086016105d3565b61060e816103b6565b840191505092915050565b610622816104ea565b82525050565b5f6080820190508181035f83015261064081876105e1565b905061064f6020830186610619565b818103604083015261066181856105e1565b90506106706060830184610619565b95945050505050565b5f82825260208201905092915050565b5f610693826105b9565b61069d8185610679565b93506106ad8185602086016105d3565b6106b6816103b6565b840191505092915050565b6106ca816104ea565b82525050565b5f604083015f8301518482035f8601526106ea8282610689565b91505060208301516106ff60208601826106c1565b508091505092915050565b5f6060820190508181035f83015261072281866105e1565b90506107316020830185610619565b818103604083015261074381846106d0565b9050949350505050565b7f4e487b71000000000000000000000000000000000000000000000000000000005f52602260045260245ffd5b5f600282049050600182168061079157607f821691505b6020821081036107a4576107a361074d565b5b50919050565b5f819050815f5260205f209050919050565b5f6020601f8301049050919050565b5f82821b905092915050565b5f600883026108067fffffffffffffffffffffffffffffffffffffffffffffffffffffffffffffffff826107cb565b61081086836107cb565b95508019841693508086168417925050509392505050565b5f819050919050565b5f61084b610846610841846104ea565b610828565b6104ea565b9050919050565b5f819050919050565b61086483610831565b61087861087082610852565b8484546107d7565b825550505050565b5f5f905090565b61088f610880565b61089a81848461085b565b505050565b5b818110156108bd576108b25f82610887565b6001810190506108a0565b5050565b601f821115610902576108d3816107aa565b6108dc846107bc565b810160208510156108eb578190505b6108ff6108f7856107bc565b83018261089f565b50505b505050565b5f82821c905092915050565b5f6109225f1984600802610907565b1980831691505092915050565b5f61093a8383610913565b9150826002028217905092915050565b610953826105b9565b67ffffffffffffffff81111561096c5761096b6103c6565b5b610976825461077a565b6109818282856108c1565b5f60209050601f8311600181146109b2575f84156109a0578287015190505b6109aa858261092f565b865550610a11565b601f1984166109c0866107aa565b5f5b828110156109e7578489015182556001820191506020850194506020810190506109c2565b86831015610a045784890151610a00601f891682610913565b8355505b6001600288020188555050505b50505050505056fea2646970667358221220ed0b9f7d410b361ad0e0cea1e89223b94365b2a76b9884023d987dca617d1cf064736f6c634300081e0033",
			"opcodes": "PUSH1 0x80 PUSH1 0x40 MSTORE CALLVALUE DUP1 ISZERO PUSH1 0xE JUMPI PUSH0 PUSH0 REVERT JUMPDEST POP PUSH2 0xA4F DUP1 PUSH2 0x1C PUSH0 CODECOPY PUSH0 RETURN INVALID PUSH1 0x80 PUSH1 0x40 MSTORE CALLVALUE DUP1 ISZERO PUSH2 0xF JUMPI PUSH0 PUSH0 REVERT JUMPDEST POP PUSH1 0x4 CALLDATASIZE LT PUSH2 0x3F JUMPI PUSH0 CALLDATALOAD PUSH1 0xE0 SHR DUP1 PUSH4 0x918D73F4 EQ PUSH2 0x43 JUMPI DUP1 PUSH4 0xCA04C834 EQ PUSH2 0x5F JUMPI DUP1 PUSH4 0xEE26FAC3 EQ PUSH2 0x80 JUMPI JUMPDEST PUSH0 PUSH0 REVERT JUMPDEST PUSH2 0x5D PUSH1 0x4 DUP1 CALLDATASIZE SUB DUP2 ADD SWAP1 PUSH2 0x58 SWAP2 SWAP1 PUSH2 0x51D JUMP JUMPDEST PUSH2 0xA0 JUMP JUMPDEST STOP JUMPDEST PUSH2 0x67 PUSH2 0x120 JUMP JUMPDEST PUSH1 0x40 MLOAD PUSH2 0x77 SWAP5 SWAP4 SWAP3 SWAP2 SWAP1 PUSH2 0x628 JUMP JUMPDEST PUSH1 0x40 MLOAD DUP1 SWAP2 SUB SWAP1 RETURN JUMPDEST PUSH2 0x88 PUSH2 0x25E JUMP JUMPDEST PUSH1 0x40 MLOAD PUSH2 0x97 SWAP4 SWAP3 SWAP2 SWAP1 PUSH2 0x70A JUMP JUMPDEST PUSH1 0x40 MLOAD DUP1 SWAP2 SUB SWAP1 RETURN JUMPDEST PUSH1 0x40 MLOAD DUP1 PUSH1 0x60 ADD PUSH1 0x40 MSTORE DUP1 DUP6 DUP2 MSTORE PUSH1 0x20 ADD DUP5 DUP2 MSTORE PUSH1 0x20 ADD PUSH1 0x40 MLOAD DUP1 PUSH1 0x40 ADD PUSH1 0x40 MSTORE DUP1 DUP6 DUP2 MSTORE PUSH1 0x20 ADD DUP5 DUP2 MSTORE POP DUP2 MSTORE POP PUSH0 PUSH0 DUP3 ADD MLOAD DUP2 PUSH0 ADD SWAP1 DUP2 PUSH2 0xE3 SWAP2 SWAP1 PUSH2 0x94A JUMP JUMPDEST POP PUSH1 0x20 DUP3 ADD MLOAD DUP2 PUSH1 0x1 ADD SSTORE PUSH1 0x40 DUP3 ADD MLOAD DUP2 PUSH1 0x2 ADD PUSH0 DUP3 ADD MLOAD DUP2 PUSH0 ADD SWAP1 DUP2 PUSH2 0x10A SWAP2 SWAP1 PUSH2 0x94A JUMP JUMPDEST POP PUSH1 0x20 DUP3 ADD MLOAD DUP2 PUSH1 0x1 ADD SSTORE POP POP SWAP1 POP POP POP POP POP POP JUMP JUMPDEST PUSH1 0x60 PUSH0 PUSH1 0x60 PUSH0 PUSH0 PUSH0 ADD PUSH0 PUSH1 0x1 ADD SLOAD PUSH0 PUSH1 0x2 ADD PUSH0 ADD PUSH0 PUSH1 0x2 ADD PUSH1 0x1 ADD SLOAD DUP4 DUP1 SLOAD PUSH2 0x148 SWAP1 PUSH2 0x77A JUMP JUMPDEST DUP1 PUSH1 0x1F ADD PUSH1 0x20 DUP1 SWAP2 DIV MUL PUSH1 0x20 ADD PUSH1 0x40 MLOAD SWAP1 DUP2 ADD PUSH1 0x40 MSTORE DUP1 SWAP3 SWAP2 SWAP1 DUP2 DUP2 MSTORE PUSH1 0x20 ADD DUP3 DUP1 SLOAD PUSH2 0x174 SWAP1 PUSH2 0x77A JUMP JUMPDEST DUP1 ISZERO PUSH2 0x1BF JUMPI DUP1 PUSH1 0x1F LT PUSH2 0x196 JUMPI PUSH2 0x100 DUP1 DUP4 SLOAD DIV MUL DUP4 MSTORE SWAP2 PUSH1 0x20 ADD SWAP2 PUSH2 0x1BF JUMP JUMPDEST DUP3 ADD SWAP2 SWAP1 PUSH0 MSTORE PUSH1 0x20 PUSH0 KECCAK256 SWAP1 JUMPDEST DUP2 SLOAD DUP2 MSTORE SWAP1 PUSH1 0x1 ADD SWAP1 PUSH1 0x20 ADD DUP1 DUP4 GT PUSH2 0x1A2 JUMPI DUP3 SWAP1 SUB PUSH1 0x1F AND DUP3 ADD SWAP2 JUMPDEST POP POP POP POP POP SWAP4 POP DUP2 DUP1 SLOAD PUSH2 0x1D2 SWAP1 PUSH2 0x77A JUMP JUMPDEST DUP1 PUSH1 0x1F ADD PUSH1 0x20 DUP1 SWAP2 DIV MUL PUSH1 0x20 ADD PUSH1 0x40 MLOAD SWAP1 DUP2 ADD PUSH1 0x40 MSTORE DUP1 SWAP3 SWAP2 SWAP1 DUP2 DUP2 MSTORE PUSH1 0x20 ADD DUP3 DUP1 SLOAD PUSH2 0x1FE SWAP1 PUSH2 0x77A JUMP JUMPDEST DUP1 ISZERO PUSH2 0x249 JUMPI DUP1 PUSH1 0x1F LT PUSH2 0x220 JUMPI PUSH2 0x100 DUP1 DUP4 SLOAD DIV MUL DUP4 MSTORE SWAP2 PUSH1 0x20 ADD SWAP2 PUSH2 0x249 JUMP JUMPDEST DUP3 ADD SWAP2 SWAP1 PUSH0 MSTORE PUSH1 0x20 PUSH0 KECCAK256 SWAP1 JUMPDEST DUP2 SLOAD DUP2 MSTORE SWAP1 PUSH1 0x1 ADD SWAP1 PUSH1 0x20 ADD DUP1 DUP4 GT PUSH2 0x22C JUMPI DUP3 SWAP1 SUB PUSH1 0x1F AND DUP3 ADD SWAP2 JUMPDEST POP POP POP POP POP SWAP2 POP SWAP4 POP SWAP4 POP SWAP4 POP SWAP4 POP SWAP1 SWAP2 SWAP3 SWAP4 JUMP JUMPDEST PUSH0 DUP1 PUSH0 ADD DUP1 SLOAD PUSH2 0x26D SWAP1 PUSH2 0x77A JUMP JUMPDEST DUP1 PUSH1 0x1F ADD PUSH1 0x20 DUP1 SWAP2 DIV MUL PUSH1 0x20 ADD PUSH1 0x40 MLOAD SWAP1 DUP2 ADD PUSH1 0x40 MSTORE DUP1 SWAP3 SWAP2 SWAP1 DUP2 DUP2 MSTORE PUSH1 0x20 ADD DUP3 DUP1 SLOAD PUSH2 0x299 SWAP1 PUSH2 0x77A JUMP JUMPDEST DUP1 ISZERO PUSH2 0x2E4 JUMPI DUP1 PUSH1 0x1F LT PUSH2 0x2BB JUMPI PUSH2 0x100 DUP1 DUP4 SLOAD DIV MUL DUP4 MSTORE SWAP2 PUSH1 0x20 ADD SWAP2 PUSH2 0x2E4 JUMP JUMPDEST DUP3 ADD SWAP2 SWAP1 PUSH0 MSTORE PUSH1 0x20 PUSH0 KECCAK256 SWAP1 JUMPDEST DUP2 SLOAD DUP2 MSTORE SWAP1 PUSH1 0x1 ADD SWAP1 PUSH1 0x20 ADD DUP1 DUP4 GT PUSH2 0x2C7 JUMPI DUP3 SWAP1 SUB PUSH1 0x1F AND DUP3 ADD SWAP2 JUMPDEST POP POP POP POP POP SWAP1 DUP1 PUSH1 0x1 ADD SLOAD SWAP1 DUP1 PUSH1 0x2 ADD PUSH1 0x40 MLOAD DUP1 PUSH1 0x40 ADD PUSH1 0x40 MSTORE SWAP1 DUP2 PUSH0 DUP3 ADD DUP1 SLOAD PUSH2 0x30E SWAP1 PUSH2 0x77A JUMP JUMPDEST DUP1 PUSH1 0x1F ADD PUSH1 0x20 DUP1 SWAP2 DIV MUL PUSH1 0x20 ADD PUSH1 0x40 MLOAD SWAP1 DUP2 ADD PUSH1 0x40 MSTORE DUP1 SWAP3 SWAP2 SWAP1 DUP2 DUP2 MSTORE PUSH1 0x20 ADD DUP3 DUP1 SLOAD PUSH2 0x33A SWAP1 PUSH2 0x77A JUMP JUMPDEST DUP1 ISZERO PUSH2 0x385 JUMPI DUP1 PUSH1 0x1F LT PUSH2 0x35C JUMPI PUSH2 0x100 DUP1 DUP4 SLOAD DIV MUL DUP4 MSTORE SWAP2 PUSH1 0x20 ADD SWAP2 PUSH2 0x385 JUMP JUMPDEST DUP3 ADD SWAP2 SWAP1 PUSH0 MSTORE PUSH1 0x20 PUSH0 KECCAK256 SWAP1 JUMPDEST DUP2 SLOAD DUP2 MSTORE SWAP1 PUSH1 0x1 ADD SWAP1 PUSH1 0x20 ADD DUP1 DUP4 GT PUSH2 0x368 JUMPI DUP3 SWAP1 SUB PUSH1 0x1F AND DUP3 ADD SWAP2 JUMPDEST POP POP POP POP POP DUP2 MSTORE PUSH1 0x20 ADD PUSH1 0x1 DUP3 ADD SLOAD DUP2 MSTORE POP POP SWAP1 POP DUP4 JUMP JUMPDEST PUSH0 PUSH1 0x40 MLOAD SWAP1 POP SWAP1 JUMP JUMPDEST PUSH0 PUSH0 REVERT JUMPDEST PUSH0 PUSH0 REVERT JUMPDEST PUSH0 PUSH0 REVERT JUMPDEST PUSH0 PUSH0 REVERT JUMPDEST PUSH0 PUSH1 0x1F NOT PUSH1 0x1F DUP4 ADD AND SWAP1 POP SWAP2 SWAP1 POP JUMP JUMPDEST PUSH32 0x4E487B7100000000000000000000000000000000000000000000000000000000 PUSH0 MSTORE PUSH1 0x41 PUSH1 0x4 MSTORE PUSH1 0x24 PUSH0 REVERT JUMPDEST PUSH2 0x3FC DUP3 PUSH2 0x3B6 JUMP JUMPDEST DUP2 ADD DUP2 DUP2 LT PUSH8 0xFFFFFFFFFFFFFFFF DUP3 GT OR ISZERO PUSH2 0x41B JUMPI PUSH2 0x41A PUSH2 0x3C6 JUMP JUMPDEST JUMPDEST DUP1 PUSH1 0x40 MSTORE POP POP POP JUMP JUMPDEST PUSH0 PUSH2 0x42D PUSH2 0x39D JUMP JUMPDEST SWAP1 POP PUSH2 0x439 DUP3 DUP3 PUSH2 0x3F3 JUMP JUMPDEST SWAP2 SWAP1 POP JUMP JUMPDEST PUSH0 PUSH8 0xFFFFFFFFFFFFFFFF DUP3 GT ISZERO PUSH2 0x458 JUMPI PUSH2 0x457 PUSH2 0x3C6 JUMP JUMPDEST JUMPDEST PUSH2 0x461 DUP3 PUSH2 0x3B6 JUMP JUMPDEST SWAP1 POP PUSH1 0x20 DUP2 ADD SWAP1 POP SWAP2 SWAP1 POP JUMP JUMPDEST DUP3 DUP2 DUP4 CALLDATACOPY PUSH0 DUP4 DUP4 ADD MSTORE POP POP POP JUMP JUMPDEST PUSH0 PUSH2 0x48E PUSH2 0x489 DUP5 PUSH2 0x43E JUMP JUMPDEST PUSH2 0x424 JUMP JUMPDEST SWAP1 POP DUP3 DUP2 MSTORE PUSH1 0x20 DUP2 ADD DUP5 DUP5 DUP5 ADD GT ISZERO PUSH2 0x4AA JUMPI PUSH2 0x4A9 PUSH2 0x3B2 JUMP JUMPDEST JUMPDEST PUSH2 0x4B5 DUP5 DUP3 DUP6 PUSH2 0x46E JUMP JUMPDEST POP SWAP4 SWAP3 POP POP POP JUMP JUMPDEST PUSH0 DUP3 PUSH1 0x1F DUP4 ADD SLT PUSH2 0x4D1 JUMPI PUSH2 0x4D0 PUSH2 0x3AE JUMP JUMPDEST JUMPDEST DUP2 CALLDATALOAD PUSH2 0x4E1 DUP5 DUP3 PUSH1 0x20 DUP7 ADD PUSH2 0x47C JUMP JUMPDEST SWAP2 POP POP SWAP3 SWAP2 POP POP JUMP JUMPDEST PUSH0 DUP2 SWAP1 POP SWAP2 SWAP1 POP JUMP JUMPDEST PUSH2 0x4FC DUP2 PUSH2 0x4EA JUMP JUMPDEST DUP2 EQ PUSH2 0x506 JUMPI PUSH0 PUSH0 REVERT JUMPDEST POP JUMP JUMPDEST PUSH0 DUP2 CALLDATALOAD SWAP1 POP PUSH2 0x517 DUP2 PUSH2 0x4F3 JUMP JUMPDEST SWAP3 SWAP2 POP POP JUMP JUMPDEST PUSH0 PUSH0 PUSH0 PUSH0 PUSH1 0x80 DUP6 DUP8 SUB SLT ISZERO PUSH2 0x535 JUMPI PUSH2 0x534 PUSH2 0x3A6 JUMP JUMPDEST JUMPDEST PUSH0 DUP6 ADD CALLDATALOAD PUSH8 0xFFFFFFFFFFFFFFFF DUP2 GT ISZERO PUSH2 0x552 JUMPI PUSH2 0x551 PUSH2 0x3AA JUMP JUMPDEST JUMPDEST PUSH2 0x55E DUP8 DUP3 DUP9 ADD PUSH2 0x4BD JUMP JUMPDEST SWAP5 POP POP PUSH1 0x20 PUSH2 0x56F DUP8 DUP3 DUP9 ADD PUSH2 0x509 JUMP JUMPDEST SWAP4 POP POP PUSH1 0x40 DUP6 ADD CALLDATALOAD PUSH8 0xFFFFFFFFFFFFFFFF DUP2 GT ISZERO PUSH2 0x590 JUMPI PUSH2 0x58F PUSH2 0x3AA JUMP JUMPDEST JUMPDEST PUSH2 0x59C DUP8 DUP3 DUP9 ADD PUSH2 0x4BD JUMP JUMPDEST SWAP3 POP POP PUSH1 0x60 PUSH2 0x5AD DUP8 DUP3 DUP9 ADD PUSH2 0x509 JUMP JUMPDEST SWAP2 POP POP SWAP3 SWAP6 SWAP2 SWAP5 POP SWAP3 POP JUMP JUMPDEST PUSH0 DUP2 MLOAD SWAP1 POP SWAP2 SWAP1 POP JUMP JUMPDEST PUSH0 DUP3 DUP3 MSTORE PUSH1 0x20 DUP3 ADD SWAP1 POP SWAP3 SWAP2 POP POP JUMP JUMPDEST DUP3 DUP2 DUP4 MCOPY PUSH0 DUP4 DUP4 ADD MSTORE POP POP POP JUMP JUMPDEST PUSH0 PUSH2 0x5EB DUP3 PUSH2 0x5B9 JUMP JUMPDEST PUSH2 0x5F5 DUP2 DUP6 PUSH2 0x5C3 JUMP JUMPDEST SWAP4 POP PUSH2 0x605 DUP2 DUP6 PUSH1 0x20 DUP7 ADD PUSH2 0x5D3 JUMP JUMPDEST PUSH2 0x60E DUP2 PUSH2 0x3B6 JUMP JUMPDEST DUP5 ADD SWAP2 POP POP SWAP3 SWAP2 POP POP JUMP JUMPDEST PUSH2 0x622 DUP2 PUSH2 0x4EA JUMP JUMPDEST DUP3 MSTORE POP POP JUMP JUMPDEST PUSH0 PUSH1 0x80 DUP3 ADD SWAP1 POP DUP2 DUP2 SUB PUSH0 DUP4 ADD MSTORE PUSH2 0x640 DUP2 DUP8 PUSH2 0x5E1 JUMP JUMPDEST SWAP1 POP PUSH2 0x64F PUSH1 0x20 DUP4 ADD DUP7 PUSH2 0x619 JUMP JUMPDEST DUP2 DUP2 SUB PUSH1 0x40 DUP4 ADD MSTORE PUSH2 0x661 DUP2 DUP6 PUSH2 0x5E1 JUMP JUMPDEST SWAP1 POP PUSH2 0x670 PUSH1 0x60 DUP4 ADD DUP5 PUSH2 0x619 JUMP JUMPDEST SWAP6 SWAP5 POP POP POP POP POP JUMP JUMPDEST PUSH0 DUP3 DUP3 MSTORE PUSH1 0x20 DUP3 ADD SWAP1 POP SWAP3 SWAP2 POP POP JUMP JUMPDEST PUSH0 PUSH2 0x693 DUP3 PUSH2 0x5B9 JUMP JUMPDEST PUSH2 0x69D DUP2 DUP6 PUSH2 0x679 JUMP JUMPDEST SWAP4 POP PUSH2 0x6AD DUP2 DUP6 PUSH1 0x20 DUP7 ADD PUSH2 0x5D3 JUMP JUMPDEST PUSH2 0x6B6 DUP2 PUSH2 0x3B6 JUMP JUMPDEST DUP5 ADD SWAP2 POP POP SWAP3 SWAP2 POP POP JUMP JUMPDEST PUSH2 0x6CA DUP2 PUSH2 0x4EA JUMP JUMPDEST DUP3 MSTORE POP POP JUMP JUMPDEST PUSH0 PUSH1 0x40 DUP4 ADD PUSH0 DUP4 ADD MLOAD DUP5 DUP3 SUB PUSH0 DUP7 ADD MSTORE PUSH2 0x6EA DUP3 DUP3 PUSH2 0x689 JUMP JUMPDEST SWAP2 POP POP PUSH1 0x20 DUP4 ADD MLOAD PUSH2 0x6FF PUSH1 0x20 DUP7 ADD DUP3 PUSH2 0x6C1 JUMP JUMPDEST POP DUP1 SWAP2 POP POP SWAP3 SWAP2 POP POP JUMP JUMPDEST PUSH0 PUSH1 0x60 DUP3 ADD SWAP1 POP DUP2 DUP2 SUB PUSH0 DUP4 ADD MSTORE PUSH2 0x722 DUP2 DUP7 PUSH2 0x5E1 JUMP JUMPDEST SWAP1 POP PUSH2 0x731 PUSH1 0x20 DUP4 ADD DUP6 PUSH2 0x619 JUMP JUMPDEST DUP2 DUP2 SUB PUSH1 0x40 DUP4 ADD MSTORE PUSH2 0x743 DUP2 DUP5 PUSH2 0x6D0 JUMP JUMPDEST SWAP1 POP SWAP5 SWAP4 POP POP POP POP JUMP JUMPDEST PUSH32 0x4E487B7100000000000000000000000000000000000000000000000000000000 PUSH0 MSTORE PUSH1 0x22 PUSH1 0x4 MSTORE PUSH1 0x24 PUSH0 REVERT JUMPDEST PUSH0 PUSH1 0x2 DUP3 DIV SWAP1 POP PUSH1 0x1 DUP3 AND DUP1 PUSH2 0x791 JUMPI PUSH1 0x7F DUP3 AND SWAP2 POP JUMPDEST PUSH1 0x20 DUP3 LT DUP2 SUB PUSH2 0x7A4 JUMPI PUSH2 0x7A3 PUSH2 0x74D JUMP JUMPDEST JUMPDEST POP SWAP2 SWAP1 POP JUMP JUMPDEST PUSH0 DUP2 SWAP1 POP DUP2 PUSH0 MSTORE PUSH1 0x20 PUSH0 KECCAK256 SWAP1 POP SWAP2 SWAP1 POP JUMP JUMPDEST PUSH0 PUSH1 0x20 PUSH1 0x1F DUP4 ADD DIV SWAP1 POP SWAP2 SWAP1 POP JUMP JUMPDEST PUSH0 DUP3 DUP3 SHL SWAP1 POP SWAP3 SWAP2 POP POP JUMP JUMPDEST PUSH0 PUSH1 0x8 DUP4 MUL PUSH2 0x806 PUSH32 0xFFFFFFFFFFFFFFFFFFFFFFFFFFFFFFFFFFFFFFFFFFFFFFFFFFFFFFFFFFFFFFFF DUP3 PUSH2 0x7CB JUMP JUMPDEST PUSH2 0x810 DUP7 DUP4 PUSH2 0x7CB JUMP JUMPDEST SWAP6 POP DUP1 NOT DUP5 AND SWAP4 POP DUP1 DUP7 AND DUP5 OR SWAP3 POP POP POP SWAP4 SWAP3 POP POP POP JUMP JUMPDEST PUSH0 DUP2 SWAP1 POP SWAP2 SWAP1 POP JUMP JUMPDEST PUSH0 PUSH2 0x84B PUSH2 0x846 PUSH2 0x841 DUP5 PUSH2 0x4EA JUMP JUMPDEST PUSH2 0x828 JUMP JUMPDEST PUSH2 0x4EA JUMP JUMPDEST SWAP1 POP SWAP2 SWAP1 POP JUMP JUMPDEST PUSH0 DUP2 SWAP1 POP SWAP2 SWAP1 POP JUMP JUMPDEST PUSH2 0x864 DUP4 PUSH2 0x831 JUMP JUMPDEST PUSH2 0x878 PUSH2 0x870 DUP3 PUSH2 0x852 JUMP JUMPDEST DUP5 DUP5 SLOAD PUSH2 0x7D7 JUMP JUMPDEST DUP3 SSTORE POP POP POP POP JUMP JUMPDEST PUSH0 PUSH0 SWAP1 POP SWAP1 JUMP JUMPDEST PUSH2 0x88F PUSH2 0x880 JUMP JUMPDEST PUSH2 0x89A DUP2 DUP5 DUP5 PUSH2 0x85B JUMP JUMPDEST POP POP POP JUMP JUMPDEST JUMPDEST DUP2 DUP2 LT ISZERO PUSH2 0x8BD JUMPI PUSH2 0x8B2 PUSH0 DUP3 PUSH2 0x887 JUMP JUMPDEST PUSH1 0x1 DUP2 ADD SWAP1 POP PUSH2 0x8A0 JUMP JUMPDEST POP POP JUMP JUMPDEST PUSH1 0x1F DUP3 GT ISZERO PUSH2 0x902 JUMPI PUSH2 0x8D3 DUP2 PUSH2 0x7AA JUMP JUMPDEST PUSH2 0x8DC DUP5 PUSH2 0x7BC JUMP JUMPDEST DUP2 ADD PUSH1 0x20 DUP6 LT ISZERO PUSH2 0x8EB JUMPI DUP2 SWAP1 POP JUMPDEST PUSH2 0x8FF PUSH2 0x8F7 DUP6 PUSH2 0x7BC JUMP JUMPDEST DUP4 ADD DUP3 PUSH2 0x89F JUMP JUMPDEST POP POP JUMPDEST POP POP POP JUMP JUMPDEST PUSH0 DUP3 DUP3 SHR SWAP1 POP SWAP3 SWAP2 POP POP JUMP JUMPDEST PUSH0 PUSH2 0x922 PUSH0 NOT DUP5 PUSH1 0x8 MUL PUSH2 0x907 JUMP JUMPDEST NOT DUP1 DUP4 AND SWAP2 POP POP SWAP3 SWAP2 POP POP JUMP JUMPDEST PUSH0 PUSH2 0x93A DUP4 DUP4 PUSH2 0x913 JUMP JUMPDEST SWAP2 POP DUP3 PUSH1 0x2 MUL DUP3 OR SWAP1 POP SWAP3 SWAP2 POP POP JUMP JUMPDEST PUSH2 0x953 DUP3 PUSH2 0x5B9 JUMP JUMPDEST PUSH8 0xFFFFFFFFFFFFFFFF DUP2 GT ISZERO PUSH2 0x96C JUMPI PUSH2 0x96B PUSH2 0x3C6 JUMP JUMPDEST JUMPDEST PUSH2 0x976 DUP3 SLOAD PUSH2 0x77A JUMP JUMPDEST PUSH2 0x981 DUP3 DUP3 DUP6 PUSH2 0x8C1 JUMP JUMPDEST PUSH0 PUSH1 0x20 SWAP1 POP PUSH1 0x1F DUP4 GT PUSH1 0x1 DUP2 EQ PUSH2 0x9B2 JUMPI PUSH0 DUP5 ISZERO PUSH2 0x9A0 JUMPI DUP3 DUP8 ADD MLOAD SWAP1 POP JUMPDEST PUSH2 0x9AA DUP6 DUP3 PUSH2 0x92F JUMP JUMPDEST DUP7 SSTORE POP PUSH2 0xA11 JUMP JUMPDEST PUSH1 0x1F NOT DUP5 AND PUSH2 0x9C0 DUP7 PUSH2 0x7AA JUMP JUMPDEST PUSH0 JUMPDEST DUP3 DUP2 LT ISZERO PUSH2 0x9E7 JUMPI DUP5 DUP10 ADD MLOAD DUP3 SSTORE PUSH1 0x1 DUP3 ADD SWAP2 POP PUSH1 0x20 DUP6 ADD SWAP5 POP PUSH1 0x20 DUP2 ADD SWAP1 POP PUSH2 0x9C2 JUMP JUMPDEST DUP7 DUP4 LT ISZERO PUSH2 0xA04 JUMPI DUP5 DUP10 ADD MLOAD PUSH2 0xA00 PUSH1 0x1F DUP10 AND DUP3 PUSH2 0x913 JUMP JUMPDEST DUP4 SSTORE POP JUMPDEST PUSH1 0x1 PUSH1 0x2 DUP9 MUL ADD DUP9 SSTORE POP POP POP JUMPDEST POP POP POP POP POP POP JUMP INVALID LOG2 PUSH5 0x6970667358 0x22 SLT KECCAK256 0xED SIGNEXTEND SWAP16 PUSH30 0x410B361AD0E0CEA1E89223B94365B2A76B9884023D987DCA617D1CF06473 PUSH16 0x6C634300081E00330000000000000000 "
		},
		"gasEstimates": {
			"creation": {
				"codeDepositCost": "527800",
				"executionCost": "560",
				"totalCost": "528360"
			},
			"external": {
				"car()": "infinite",
				"getCar()": "infinite",
				"setCar(string,uint256,string,uint256)": "infinite"
			}
		},
		"methodIdentifiers": {
			"car()": "ee26fac3",
			"getCar()": "ca04c834",
			"setCar(string,uint256,string,uint256)": "918d73f4"
		}
	},
	"abi": [
		{
			"inputs": [],
			"name": "car",
			"outputs": [
				{
					"internalType": "string",
					"name": "model",
					"type": "string"
				},
				{
					"internalType": "uint256",
					"name": "year",
					"type": "uint256"
				},
				{
					"components": [
						{
							"internalType": "string",
							"name": "name",
							"type": "string"
						},
						{
							"internalType": "uint256",
							"name": "age",
							"type": "uint256"
						}
					],
					"internalType": "struct CarOwner.Person",
					"name": "owner",
					"type": "tuple"
				}
			],
			"stateMutability": "view",
			"type": "function"
		},
		{
			"inputs": [],
			"name": "getCar",
			"outputs": [
				{
					"internalType": "string",
					"name": "",
					"type": "string"
				},
				{
					"internalType": "uint256",
					"name": "",
					"type": "uint256"
				},
				{
					"internalType": "string",
					"name": "",
					"type": "string"
				},
				{
					"internalType": "uint256",
					"name": "",
					"type": "uint256"
				}
			],
			"stateMutability": "view",
			"type": "function"
		},
		{
			"inputs": [
				{
					"internalType": "string",
					"name": "_model",
					"type": "string"
				},
				{
					"internalType": "uint256",
					"name": "_year",
					"type": "uint256"
				},
				{
					"internalType": "string",
					"name": "_ownerName",
					"type": "string"
				},
				{
					"internalType": "uint256",
					"name": "_ownerAge",
					"type": "uint256"
				}
			],
			"name": "setCar",
			"outputs": [],
			"stateMutability": "nonpayable",
			"type": "function"
		}
	]
}