{
	"data": {
		"bytecode": {
			"linkReferences": {},
			"object": "6080604052348015600e575f5ffd5b506102178061001c5f395ff3fe608060405234801561000f575f5ffd5b5060043610610029575f3560e01c80633c8abfe31461002d575b5f5ffd5b610047600480360381019061004291906100d2565b61005d565b6040516100549190610118565b60405180910390f35b5f5f600190505b5f835f0b1461009057825f0b8161007b919061015e565b905082806100889061019a565b935050610064565b80915050919050565b5f5ffd5b5f815f0b9050919050565b6100b18161009d565b81146100bb575f5ffd5b50565b5f813590506100cc816100a8565b92915050565b5f602082840312156100e7576100e6610099565b5b5f6100f4848285016100be565b91505092915050565b5f8160010b9050919050565b610112816100fd565b82525050565b5f60208201905061012b5f830184610109565b92915050565b7f4e487b71000000000000000000000000000000000000000000000000000000005f52601160045260245ffd5b5f610168826100fd565b9150610173836100fd565b9250828202610181816100fd565b915080821461019357610192610131565b5b5092915050565b5f6101a48261009d565b91507fffffffffffffffffffffffffffffffffffffffffffffffffffffffffffffff8082036101d6576101d5610131565b5b60018203905091905056fea26469706673582212205e2a68c33c66b0ae491a718d0a2372581b273c3f4cbdf2da8f82ff96a5820ce264736f6c634300081e0033",
			"opcodes": "PUSH1 0x80 PUSH1 0x40 MSTORE CALLVALUE DUP1 ISZERO PUSH1 0xE JUMPI PUSH0 PUSH0 REVERT JUMPDEST POP PUSH2 0x217 DUP1 PUSH2 0x1C PUSH0 CODECOPY PUSH0 RETURN INVALID PUSH1 0x80 PUSH1 0x40 MSTORE CALLVALUE DUP1 ISZERO PUSH2 0xF JUMPI PUSH0 PUSH0 REVERT JUMPDEST POP PUSH1 0x4 CALLDATASIZE LT PUSH2 0x29 JUMPI PUSH0 CALLDATALOAD PUSH1 0xE0 SHR DUP1 PUSH4 0x3C8ABFE3 EQ PUSH2 0x2D JUMPI JUMPDEST PUSH0 PUSH0 REVERT JUMPDEST PUSH2 0x47 PUSH1 0x4 DUP1 CALLDATASIZE SUB DUP2 ADD SWAP1 PUSH2 0x42 SWAP2 SWAP1 PUSH2 0xD2 JUMP JUMPDEST PUSH2 0x5D JUMP JUMPDEST PUSH1 0x40 MLOAD PUSH2 0x54 SWAP2 SWAP1 PUSH2 0x118 JUMP JUMPDEST PUSH1 0x40 MLOAD DUP1 SWAP2 SUB SWAP1 RETURN JUMPDEST PUSH0 PUSH0 PUSH1 0x1 SWAP1 POP JUMPDEST PUSH0 DUP4 PUSH0 SIGNEXTEND EQ PUSH2 0x90 JUMPI DUP3 PUSH0 SIGNEXTEND DUP2 PUSH2 0x7B SWAP2 SWAP1 PUSH2 0x15E JUMP JUMPDEST SWAP1 POP DUP3 DUP1 PUSH2 0x88 SWAP1 PUSH2 0x19A JUMP JUMPDEST SWAP4 POP POP PUSH2 0x64 JUMP JUMPDEST DUP1 SWAP2 POP POP SWAP2 SWAP1 POP JUMP JUMPDEST PUSH0 PUSH0 REVERT JUMPDEST PUSH0 DUP2 PUSH0 SIGNEXTEND SWAP1 POP SWAP2 SWAP1 POP JUMP JUMPDEST PUSH2 0xB1 DUP2 PUSH2 0x9D JUMP JUMPDEST DUP2 EQ PUSH2 0xBB JUMPI PUSH0 PUSH0 REVERT JUMPDEST POP JUMP JUMPDEST PUSH0 DUP2 CALLDATALOAD SWAP1 POP PUSH2 0xCC DUP2 PUSH2 0xA8 JUMP JUMPDEST SWAP3 SWAP2 POP POP JUMP JUMPDEST PUSH0 PUSH1 0x20 DUP3 DUP5 SUB SLT ISZERO PUSH2 0xE7 JUMPI PUSH2 0xE6 PUSH2 0x99 JUMP JUMPDEST JUMPDEST PUSH0 PUSH2 0xF4 DUP5 DUP3 DUP6 ADD PUSH2 0xBE JUMP JUMPDEST SWAP2 POP POP SWAP3 SWAP2 POP POP JUMP JUMPDEST PUSH0 DUP2 PUSH1 0x1 SIGNEXTEND SWAP1 POP SWAP2 SWAP1 POP JUMP JUMPDEST PUSH2 0x112 DUP2 PUSH2 0xFD JUMP JUMPDEST DUP3 MSTORE POP POP JUMP JUMPDEST PUSH0 PUSH1 0x20 DUP3 ADD SWAP1 POP PUSH2 0x12B PUSH0 DUP4 ADD DUP5 PUSH2 0x109 JUMP JUMPDEST SWAP3 SWAP2 POP POP JUMP JUMPDEST PUSH32 0x4E487B7100000000000000000000000000000000000000000000000000000000 PUSH0 MSTORE PUSH1 0x11 PUSH1 0x4 MSTORE PUSH1 0x24 PUSH0 REVERT JUMPDEST PUSH0 PUSH2 0x168 DUP3 PUSH2 0xFD JUMP JUMPDEST SWAP2 POP PUSH2 0x173 DUP4 PUSH2 0xFD JUMP JUMPDEST SWAP3 POP DUP3 DUP3 MUL PUSH2 0x181 DUP2 PUSH2 0xFD JUMP JUMPDEST SWAP2 POP DUP1 DUP3 EQ PUSH2 0x193 JUMPI PUSH2 0x192 PUSH2 0x131 JUMP JUMPDEST JUMPDEST POP SWAP3 SWAP2 POP POP JUMP JUMPDEST PUSH0 PUSH2 0x1A4 DUP3 PUSH2 0x9D JUMP JUMPDEST SWAP2 POP PUSH32 0xFFFFFFFFFFFFFFFFFFFFFFFFFFFFFFFFFFFFFFFFFFFFFFFFFFFFFFFFFFFFFF80 DUP3 SUB PUSH2 0x1D6 JUMPI PUSH2 0x1D5 PUSH2 0x131 JUMP JUMPDEST JUMPDEST PUSH1 0x1 DUP3 SUB SWAP1 POP SWAP2 SWAP1 POP JUMP INVALID LOG2 PUSH5 0x6970667358 0x22 SLT KECCAK256 MCOPY 0x2A PUSH9 0xC33C66B0AE491A718D EXP 0x23 PUSH19 0x581B273C3F4CBDF2DA8F82FF96A5820CE26473 PUSH16 0x6C634300081E00330000000000000000 "
		},
		"gasEstimates": {
			"creation": {
				"codeDepositCost": "107000",
				"executionCost": "151",
				"totalCost": "107151"
			},
			"external": {
				"factorial(int8)": "infinite"
			}
		},
		"methodIdentifiers": {
			"factorial(int8)": "3c8abfe3"
		}
	},
	"abi": [
		{
			"inputs": [
				{
					"internalType": "int8",
					"name": "n",
					"type": "int8"
				}
			],
			"name": "factorial",
			"outputs": [
				{
					"internalType": "int16",
					"name": "",
					"type": "int16"
				}
			],
			"stateMutability": "pure",
			"type": "function"
		}
	]
}