{
	"data": {
		"bytecode": {
			"linkReferences": {},
			"object": "6080604052600a5f553480156012575f5ffd5b50610281806100205f395ff3fe608060405234801561000f575f5ffd5b5060043610610034575f3560e01c80636ccf02e714610038578063f492d8f214610068575b5f5ffd5b610052600480360381019061004d9190610127565b610098565b60405161005f9190610186565b60405180910390f35b610082600480360381019061007d919061019f565b6100ca565b60405161008f9190610186565b60405180910390f35b5f5f8284865f546100a9919061020a565b6100b3919061020a565b6100bd919061020a565b9050809150509392505050565b5f5f82845f546100da919061020a565b6100e4919061020a565b90508091505092915050565b5f5ffd5b5f819050919050565b610106816100f4565b8114610110575f5ffd5b50565b5f81359050610121816100fd565b92915050565b5f5f5f6060848603121561013e5761013d6100f0565b5b5f61014b86828701610113565b935050602061015c86828701610113565b925050604061016d86828701610113565b9150509250925092565b610180816100f4565b82525050565b5f6020820190506101995f830184610177565b92915050565b5f5f604083850312156101b5576101b46100f0565b5b5f6101c285828601610113565b92505060206101d385828601610113565b9150509250929050565b7f4e487b71000000000000000000000000000000000000000000000000000000005f52601160045260245ffd5b5f610214826100f4565b915061021f836100f4565b92508282019050828112155f8312168382125f841215161715610245576102446101dd565b5b9291505056fea264697066735822122026c6812a432a6cc8d7f259cbe6b378ce43013f60c6db6b4cef6bb902f2dd9bfb64736f6c634300081e0033",
			"opcodes": "PUSH1 0x80 PUSH1 0x40 MSTORE PUSH1 0xA PUSH0 SSTORE CALLVALUE DUP1 ISZERO PUSH1 0x12 JUMPI PUSH0 PUSH0 REVERT JUMPDEST POP PUSH2 0x281 DUP1 PUSH2 0x20 PUSH0 CODECOPY PUSH0 RETURN INVALID PUSH1 0x80 PUSH1 0x40 MSTORE CALLVALUE DUP1 ISZERO PUSH2 0xF JUMPI PUSH0 PUSH0 REVERT JUMPDEST POP PUSH1 0x4 CALLDATASIZE LT PUSH2 0x34 JUMPI PUSH0 CALLDATALOAD PUSH1 0xE0 SHR DUP1 PUSH4 0x6CCF02E7 EQ PUSH2 0x38 JUMPI DUP1 PUSH4 0xF492D8F2 EQ PUSH2 0x68 JUMPI JUMPDEST PUSH0 PUSH0 REVERT JUMPDEST PUSH2 0x52 PUSH1 0x4 DUP1 CALLDATASIZE SUB DUP2 ADD SWAP1 PUSH2 0x4D SWAP2 SWAP1 PUSH2 0x127 JUMP JUMPDEST PUSH2 0x98 JUMP JUMPDEST PUSH1 0x40 MLOAD PUSH2 0x5F SWAP2 SWAP1 PUSH2 0x186 JUMP JUMPDEST PUSH1 0x40 MLOAD DUP1 SWAP2 SUB SWAP1 RETURN JUMPDEST PUSH2 0x82 PUSH1 0x4 DUP1 CALLDATASIZE SUB DUP2 ADD SWAP1 PUSH2 0x7D SWAP2 SWAP1 PUSH2 0x19F JUMP JUMPDEST PUSH2 0xCA JUMP JUMPDEST PUSH1 0x40 MLOAD PUSH2 0x8F SWAP2 SWAP1 PUSH2 0x186 JUMP JUMPDEST PUSH1 0x40 MLOAD DUP1 SWAP2 SUB SWAP1 RETURN JUMPDEST PUSH0 PUSH0 DUP3 DUP5 DUP7 PUSH0 SLOAD PUSH2 0xA9 SWAP2 SWAP1 PUSH2 0x20A JUMP JUMPDEST PUSH2 0xB3 SWAP2 SWAP1 PUSH2 0x20A JUMP JUMPDEST PUSH2 0xBD SWAP2 SWAP1 PUSH2 0x20A JUMP JUMPDEST SWAP1 POP DUP1 SWAP2 POP POP SWAP4 SWAP3 POP POP POP JUMP JUMPDEST PUSH0 PUSH0 DUP3 DUP5 PUSH0 SLOAD PUSH2 0xDA SWAP2 SWAP1 PUSH2 0x20A JUMP JUMPDEST PUSH2 0xE4 SWAP2 SWAP1 PUSH2 0x20A JUMP JUMPDEST SWAP1 POP DUP1 SWAP2 POP POP SWAP3 SWAP2 POP POP JUMP JUMPDEST PUSH0 PUSH0 REVERT JUMPDEST PUSH0 DUP2 SWAP1 POP SWAP2 SWAP1 POP JUMP JUMPDEST PUSH2 0x106 DUP2 PUSH2 0xF4 JUMP JUMPDEST DUP2 EQ PUSH2 0x110 JUMPI PUSH0 PUSH0 REVERT JUMPDEST POP JUMP JUMPDEST PUSH0 DUP2 CALLDATALOAD SWAP1 POP PUSH2 0x121 DUP2 PUSH2 0xFD JUMP JUMPDEST SWAP3 SWAP2 POP POP JUMP JUMPDEST PUSH0 PUSH0 PUSH0 PUSH1 0x60 DUP5 DUP7 SUB SLT ISZERO PUSH2 0x13E JUMPI PUSH2 0x13D PUSH2 0xF0 JUMP JUMPDEST JUMPDEST PUSH0 PUSH2 0x14B DUP7 DUP3 DUP8 ADD PUSH2 0x113 JUMP JUMPDEST SWAP4 POP POP PUSH1 0x20 PUSH2 0x15C DUP7 DUP3 DUP8 ADD PUSH2 0x113 JUMP JUMPDEST SWAP3 POP POP PUSH1 0x40 PUSH2 0x16D DUP7 DUP3 DUP8 ADD PUSH2 0x113 JUMP JUMPDEST SWAP2 POP POP SWAP3 POP SWAP3 POP SWAP3 JUMP JUMPDEST PUSH2 0x180 DUP2 PUSH2 0xF4 JUMP JUMPDEST DUP3 MSTORE POP POP JUMP JUMPDEST PUSH0 PUSH1 0x20 DUP3 ADD SWAP1 POP PUSH2 0x199 PUSH0 DUP4 ADD DUP5 PUSH2 0x177 JUMP JUMPDEST SWAP3 SWAP2 POP POP JUMP JUMPDEST PUSH0 PUSH0 PUSH1 0x40 DUP4 DUP6 SUB SLT ISZERO PUSH2 0x1B5 JUMPI PUSH2 0x1B4 PUSH2 0xF0 JUMP JUMPDEST JUMPDEST PUSH0 PUSH2 0x1C2 DUP6 DUP3 DUP7 ADD PUSH2 0x113 JUMP JUMPDEST SWAP3 POP POP PUSH1 0x20 PUSH2 0x1D3 DUP6 DUP3 DUP7 ADD PUSH2 0x113 JUMP JUMPDEST SWAP2 POP POP SWAP3 POP SWAP3 SWAP1 POP JUMP JUMPDEST PUSH32 0x4E487B7100000000000000000000000000000000000000000000000000000000 PUSH0 MSTORE PUSH1 0x11 PUSH1 0x4 MSTORE PUSH1 0x24 PUSH0 REVERT JUMPDEST PUSH0 PUSH2 0x214 DUP3 PUSH2 0xF4 JUMP JUMPDEST SWAP2 POP PUSH2 0x21F DUP4 PUSH2 0xF4 JUMP JUMPDEST SWAP3 POP DUP3 DUP3 ADD SWAP1 POP DUP3 DUP2 SLT ISZERO PUSH0 DUP4 SLT AND DUP4 DUP3 SLT PUSH0 DUP5 SLT ISZERO AND OR ISZERO PUSH2 0x245 JUMPI PUSH2 0x244 PUSH2 0x1DD JUMP JUMPDEST JUMPDEST SWAP3 SWAP2 POP POP JUMP INVALID LOG2 PUSH5 0x6970667358 0x22 SLT KECCAK256 0x26 0xC6 DUP2 0x2A NUMBER 0x2A PUSH13 0xC8D7F259CBE6B378CE43013F60 0xC6 0xDB PUSH12 0x4CEF6BB902F2DD9BFB64736F PUSH13 0x634300081E0033000000000000 "
		},
		"gasEstimates": {
			"creation": {
				"codeDepositCost": "128200",
				"executionCost": "22280",
				"totalCost": "150480"
			},
			"external": {
				"getSum(int256,int256)": "infinite",
				"getSum(int256,int256,int256)": "infinite"
			}
		},
		"methodIdentifiers": {
			"getSum(int256,int256)": "f492d8f2",
			"getSum(int256,int256,int256)": "6ccf02e7"
		}
	},
	"abi": [
		{
			"inputs": [
				{
					"internalType": "int256",
					"name": "b",
					"type": "int256"
				},
				{
					"internalType": "int256",
					"name": "c",
					"type": "int256"
				},
				{
					"internalType": "int256",
					"name": "d",
					"type": "int256"
				}
			],
			"name": "getSum",
			"outputs": [
				{
					"internalType": "int256",
					"name": "",
					"type": "int256"
				}
			],
			"stateMutability": "view",
			"type": "function"
		},
		{
			"inputs": [
				{
					"internalType": "int256",
					"name": "b",
					"type": "int256"
				},
				{
					"internalType": "int256",
					"name": "c",
					"type": "int256"
				}
			],
			"name": "getSum",
			"outputs": [
				{
					"internalType": "int256",
					"name": "",
					"type": "int256"
				}
			],
			"stateMutability": "view",
			"type": "function"
		}
	]
}