{
	"data": {
		"bytecode": {
			"linkReferences": {},
			"object": "6080604052348015600e575f5ffd5b50610a5d8061001c5f395ff3fe608060405234801561000f575f5ffd5b5060043610610034575f3560e01c80633b0c197e146100385780636cbdb10d14610059575b5f5ffd5b610040610075565b60405161005094939291906104b5565b60405180910390f35b610073600480360381019061006e9190610674565b6102e1565b005b606061007f61038a565b60605f5f5f015f6001015f6003015f6004015483805461009e90610788565b80601f01602080910402602001604051908101604052809291908181526020018280546100ca90610788565b80156101155780601f106100ec57610100808354040283529160200191610115565b820191905f5260205f20905b8154815290600101906020018083116100f857829003601f168201915b50505050509350826040518060400160405290815f8201805461013790610788565b80601f016020809104026020016040519081016040528092919081815260200182805461016390610788565b80156101ae5780601f10610185576101008083540402835291602001916101ae565b820191905f5260205f20905b81548152906001019060200180831161019157829003601f168201915b505050505081526020016001820180546101c790610788565b80601f01602080910402602001604051908101604052809291908181526020018280546101f390610788565b801561023e5780601f106102155761010080835404028352916020019161023e565b820191905f5260205f20905b81548152906001019060200180831161022157829003601f168201915b505050505081525050925081805461025590610788565b80601f016020809104026020016040519081016040528092919081815260200182805461028190610788565b80156102cc5780601f106102a3576101008083540402835291602001916102cc565b820191905f5260205f20905b8154815290600101906020018083116102af57829003601f168201915b50505050509150935093509350935090919293565b60405180608001604052808681526020016040518060400160405280878152602001868152508152602001838152602001828152505f5f820151815f01908161032a9190610958565b506020820151816001015f820151815f0190816103479190610958565b50602082015181600101908161035d9190610958565b50505060408201518160030190816103759190610958565b50606082015181600401559050505050505050565b604051806040016040528060608152602001606081525090565b5f81519050919050565b5f82825260208201905092915050565b8281835e5f83830152505050565b5f601f19601f8301169050919050565b5f6103e6826103a4565b6103f081856103ae565b93506104008185602086016103be565b610409816103cc565b840191505092915050565b5f82825260208201905092915050565b5f61042e826103a4565b6104388185610414565b93506104488185602086016103be565b610451816103cc565b840191505092915050565b5f604083015f8301518482035f8601526104768282610424565b915050602083015184820360208601526104908282610424565b9150508091505092915050565b5f819050919050565b6104af8161049d565b82525050565b5f6080820190508181035f8301526104cd81876103dc565b905081810360208301526104e1818661045c565b905081810360408301526104f581856103dc565b905061050460608301846104a6565b95945050505050565b5f604051905090565b5f5ffd5b5f5ffd5b5f5ffd5b5f5ffd5b7f4e487b71000000000000000000000000000000000000000000000000000000005f52604160045260245ffd5b61055c826103cc565b810181811067ffffffffffffffff8211171561057b5761057a610526565b5b80604052505050565b5f61058d61050d565b90506105998282610553565b919050565b5f67ffffffffffffffff8211156105b8576105b7610526565b5b6105c1826103cc565b9050602081019050919050565b828183375f83830152505050565b5f6105ee6105e98461059e565b610584565b90508281526020810184848401111561060a57610609610522565b5b6106158482856105ce565b509392505050565b5f82601f8301126106315761063061051e565b5b81356106418482602086016105dc565b91505092915050565b6106538161049d565b811461065d575f5ffd5b50565b5f8135905061066e8161064a565b92915050565b5f5f5f5f5f60a0868803121561068d5761068c610516565b5b5f86013567ffffffffffffffff8111156106aa576106a961051a565b5b6106b68882890161061d565b955050602086013567ffffffffffffffff8111156106d7576106d661051a565b5b6106e38882890161061d565b945050604086013567ffffffffffffffff8111156107045761070361051a565b5b6107108882890161061d565b935050606086013567ffffffffffffffff8111156107315761073061051a565b5b61073d8882890161061d565b925050608061074e88828901610660565b9150509295509295909350565b7f4e487b71000000000000000000000000000000000000000000000000000000005f52602260045260245ffd5b5f600282049050600182168061079f57607f821691505b6020821081036107b2576107b161075b565b5b50919050565b5f819050815f5260205f209050919050565b5f6020601f8301049050919050565b5f82821b905092915050565b5f600883026108147fffffffffffffffffffffffffffffffffffffffffffffffffffffffffffffffff826107d9565b61081e86836107d9565b95508019841693508086168417925050509392505050565b5f819050919050565b5f61085961085461084f8461049d565b610836565b61049d565b9050919050565b5f819050919050565b6108728361083f565b61088661087e82610860565b8484546107e5565b825550505050565b5f5f905090565b61089d61088e565b6108a8818484610869565b505050565b5b818110156108cb576108c05f82610895565b6001810190506108ae565b5050565b601f821115610910576108e1816107b8565b6108ea846107ca565b810160208510156108f9578190505b61090d610905856107ca565b8301826108ad565b50505b505050565b5f82821c905092915050565b5f6109305f1984600802610915565b1980831691505092915050565b5f6109488383610921565b9150826002028217905092915050565b610961826103a4565b67ffffffffffffffff81111561097a57610979610526565b5b6109848254610788565b61098f8282856108cf565b5f60209050601f8311600181146109c0575f84156109ae578287015190505b6109b8858261093d565b865550610a1f565b601f1984166109ce866107b8565b5f5b828110156109f5578489015182556001820191506020850194506020810190506109d0565b86831015610a125784890151610a0e601f891682610921565b8355505b6001600288020188555050505b50505050505056fea26469706673582212206f3da824a18546b93c8af9f082eac6ce5ca43467b6b536a49be75a9166f6a60664736f6c634300081e0033",
			"opcodes": "PUSH1 0x80 PUSH1 0x40 MSTORE CALLVALUE DUP1 ISZERO PUSH1 0xE JUMPI PUSH0 PUSH0 REVERT JUMPDEST POP PUSH2 0xA5D DUP1 PUSH2 0x1C PUSH0 CODECOPY PUSH0 RETURN INVALID PUSH1 0x80 PUSH1 0x40 MSTORE CALLVALUE DUP1 ISZERO PUSH2 0xF JUMPI PUSH0 PUSH0 REVERT JUMPDEST POP PUSH1 0x4 CALLDATASIZE LT PUSH2 0x34 JUMPI PUSH0 CALLDATALOAD PUSH1 0xE0 SHR DUP1 PUSH4 0x3B0C197E EQ PUSH2 0x38 JUMPI DUP1 PUSH4 0x6CBDB10D EQ PUSH2 0x59 JUMPI JUMPDEST PUSH0 PUSH0 REVERT JUMPDEST PUSH2 0x40 PUSH2 0x75 JUMP JUMPDEST PUSH1 0x40 MLOAD PUSH2 0x50 SWAP5 SWAP4 SWAP3 SWAP2 SWAP1 PUSH2 0x4B5 JUMP JUMPDEST PUSH1 0x40 MLOAD DUP1 SWAP2 SUB SWAP1 RETURN JUMPDEST PUSH2 0x73 PUSH1 0x4 DUP1 CALLDATASIZE SUB DUP2 ADD SWAP1 PUSH2 0x6E SWAP2 SWAP1 PUSH2 0x674 JUMP JUMPDEST PUSH2 0x2E1 JUMP JUMPDEST STOP JUMPDEST PUSH1 0x60 PUSH2 0x7F PUSH2 0x38A JUMP JUMPDEST PUSH1 0x60 PUSH0 PUSH0 PUSH0 ADD PUSH0 PUSH1 0x1 ADD PUSH0 PUSH1 0x3 ADD PUSH0 PUSH1 0x4 ADD SLOAD DUP4 DUP1 SLOAD PUSH2 0x9E SWAP1 PUSH2 0x788 JUMP JUMPDEST DUP1 PUSH1 0x1F ADD PUSH1 0x20 DUP1 SWAP2 DIV MUL PUSH1 0x20 ADD PUSH1 0x40 MLOAD SWAP1 DUP2 ADD PUSH1 0x40 MSTORE DUP1 SWAP3 SWAP2 SWAP1 DUP2 DUP2 MSTORE PUSH1 0x20 ADD DUP3 DUP1 SLOAD PUSH2 0xCA SWAP1 PUSH2 0x788 JUMP JUMPDEST DUP1 ISZERO PUSH2 0x115 JUMPI DUP1 PUSH1 0x1F LT PUSH2 0xEC JUMPI PUSH2 0x100 DUP1 DUP4 SLOAD DIV MUL DUP4 MSTORE SWAP2 PUSH1 0x20 ADD SWAP2 PUSH2 0x115 JUMP JUMPDEST DUP3 ADD SWAP2 SWAP1 PUSH0 MSTORE PUSH1 0x20 PUSH0 KECCAK256 SWAP1 JUMPDEST DUP2 SLOAD DUP2 MSTORE SWAP1 PUSH1 0x1 ADD SWAP1 PUSH1 0x20 ADD DUP1 DUP4 GT PUSH2 0xF8 JUMPI DUP3 SWAP1 SUB PUSH1 0x1F AND DUP3 ADD SWAP2 JUMPDEST POP POP POP POP POP SWAP4 POP DUP3 PUSH1 0x40 MLOAD DUP1 PUSH1 0x40 ADD PUSH1 0x40 MSTORE SWAP1 DUP2 PUSH0 DUP3 ADD DUP1 SLOAD PUSH2 0x137 SWAP1 PUSH2 0x788 JUMP JUMPDEST DUP1 PUSH1 0x1F ADD PUSH1 0x20 DUP1 SWAP2 DIV MUL PUSH1 0x20 ADD PUSH1 0x40 MLOAD SWAP1 DUP2 ADD PUSH1 0x40 MSTORE DUP1 SWAP3 SWAP2 SWAP1 DUP2 DUP2 MSTORE PUSH1 0x20 ADD DUP3 DUP1 SLOAD PUSH2 0x163 SWAP1 PUSH2 0x788 JUMP JUMPDEST DUP1 ISZERO PUSH2 0x1AE JUMPI DUP1 PUSH1 0x1F LT PUSH2 0x185 JUMPI PUSH2 0x100 DUP1 DUP4 SLOAD DIV MUL DUP4 MSTORE SWAP2 PUSH1 0x20 ADD SWAP2 PUSH2 0x1AE JUMP JUMPDEST DUP3 ADD SWAP2 SWAP1 PUSH0 MSTORE PUSH1 0x20 PUSH0 KECCAK256 SWAP1 JUMPDEST DUP2 SLOAD DUP2 MSTORE SWAP1 PUSH1 0x1 ADD SWAP1 PUSH1 0x20 ADD DUP1 DUP4 GT PUSH2 0x191 JUMPI DUP3 SWAP1 SUB PUSH1 0x1F AND DUP3 ADD SWAP2 JUMPDEST POP POP POP POP POP DUP2 MSTORE PUSH1 0x20 ADD PUSH1 0x1 DUP3 ADD DUP1 SLOAD PUSH2 0x1C7 SWAP1 PUSH2 0x788 JUMP JUMPDEST DUP1 PUSH1 0x1F ADD PUSH1 0x20 DUP1 SWAP2 DIV MUL PUSH1 0x20 ADD PUSH1 0x40 MLOAD SWAP1 DUP2 ADD PUSH1 0x40 MSTORE DUP1 SWAP3 SWAP2 SWAP1 DUP2 DUP2 MSTORE PUSH1 0x20 ADD DUP3 DUP1 SLOAD PUSH2 0x1F3 SWAP1 PUSH2 0x788 JUMP JUMPDEST DUP1 ISZERO PUSH2 0x23E JUMPI DUP1 PUSH1 0x1F LT PUSH2 0x215 JUMPI PUSH2 0x100 DUP1 DUP4 SLOAD DIV MUL DUP4 MSTORE SWAP2 PUSH1 0x20 ADD SWAP2 PUSH2 0x23E JUMP JUMPDEST DUP3 ADD SWAP2 SWAP1 PUSH0 MSTORE PUSH1 0x20 PUSH0 KECCAK256 SWAP1 JUMPDEST DUP2 SLOAD DUP2 MSTORE SWAP1 PUSH1 0x1 ADD SWAP1 PUSH1 0x20 ADD DUP1 DUP4 GT PUSH2 0x221 JUMPI DUP3 SWAP1 SUB PUSH1 0x1F AND DUP3 ADD SWAP2 JUMPDEST POP POP POP POP POP DUP2 MSTORE POP POP SWAP3 POP DUP2 DUP1 SLOAD PUSH2 0x255 SWAP1 PUSH2 0x788 JUMP JUMPDEST DUP1 PUSH1 0x1F ADD PUSH1 0x20 DUP1 SWAP2 DIV MUL PUSH1 0x20 ADD PUSH1 0x40 MLOAD SWAP1 DUP2 ADD PUSH1 0x40 MSTORE DUP1 SWAP3 SWAP2 SWAP1 DUP2 DUP2 MSTORE PUSH1 0x20 ADD DUP3 DUP1 SLOAD PUSH2 0x281 SWAP1 PUSH2 0x788 JUMP JUMPDEST DUP1 ISZERO PUSH2 0x2CC JUMPI DUP1 PUSH1 0x1F LT PUSH2 0x2A3 JUMPI PUSH2 0x100 DUP1 DUP4 SLOAD DIV MUL DUP4 MSTORE SWAP2 PUSH1 0x20 ADD SWAP2 PUSH2 0x2CC JUMP JUMPDEST DUP3 ADD SWAP2 SWAP1 PUSH0 MSTORE PUSH1 0x20 PUSH0 KECCAK256 SWAP1 JUMPDEST DUP2 SLOAD DUP2 MSTORE SWAP1 PUSH1 0x1 ADD SWAP1 PUSH1 0x20 ADD DUP1 DUP4 GT PUSH2 0x2AF JUMPI DUP3 SWAP1 SUB PUSH1 0x1F AND DUP3 ADD SWAP2 JUMPDEST POP POP POP POP POP SWAP2 POP SWAP4 POP SWAP4 POP SWAP4 POP SWAP4 POP SWAP1 SWAP2 SWAP3 SWAP4 JUMP JUMPDEST PUSH1 0x40 MLOAD DUP1 PUSH1 0x80 ADD PUSH1 0x40 MSTORE DUP1 DUP7 DUP2 MSTORE PUSH1 0x20 ADD PUSH1 0x40 MLOAD DUP1 PUSH1 0x40 ADD PUSH1 0x40 MSTORE DUP1 DUP8 DUP2 MSTORE PUSH1 0x20 ADD DUP7 DUP2 MSTORE POP DUP2 MSTORE PUSH1 0x20 ADD DUP4 DUP2 MSTORE PUSH1 0x20 ADD DUP3 DUP2 MSTORE POP PUSH0 PUSH0 DUP3 ADD MLOAD DUP2 PUSH0 ADD SWAP1 DUP2 PUSH2 0x32A SWAP2 SWAP1 PUSH2 0x958 JUMP JUMPDEST POP PUSH1 0x20 DUP3 ADD MLOAD DUP2 PUSH1 0x1 ADD PUSH0 DUP3 ADD MLOAD DUP2 PUSH0 ADD SWAP1 DUP2 PUSH2 0x347 SWAP2 SWAP1 PUSH2 0x958 JUMP JUMPDEST POP PUSH1 0x20 DUP3 ADD MLOAD DUP2 PUSH1 0x1 ADD SWAP1 DUP2 PUSH2 0x35D SWAP2 SWAP1 PUSH2 0x958 JUMP JUMPDEST POP POP POP PUSH1 0x40 DUP3 ADD MLOAD DUP2 PUSH1 0x3 ADD SWAP1 DUP2 PUSH2 0x375 SWAP2 SWAP1 PUSH2 0x958 JUMP JUMPDEST POP PUSH1 0x60 DUP3 ADD MLOAD DUP2 PUSH1 0x4 ADD SSTORE SWAP1 POP POP POP POP POP POP POP JUMP JUMPDEST PUSH1 0x40 MLOAD DUP1 PUSH1 0x40 ADD PUSH1 0x40 MSTORE DUP1 PUSH1 0x60 DUP2 MSTORE PUSH1 0x20 ADD PUSH1 0x60 DUP2 MSTORE POP SWAP1 JUMP JUMPDEST PUSH0 DUP2 MLOAD SWAP1 POP SWAP2 SWAP1 POP JUMP JUMPDEST PUSH0 DUP3 DUP3 MSTORE PUSH1 0x20 DUP3 ADD SWAP1 POP SWAP3 SWAP2 POP POP JUMP JUMPDEST DUP3 DUP2 DUP4 MCOPY PUSH0 DUP4 DUP4 ADD MSTORE POP POP POP JUMP JUMPDEST PUSH0 PUSH1 0x1F NOT PUSH1 0x1F DUP4 ADD AND SWAP1 POP SWAP2 SWAP1 POP JUMP JUMPDEST PUSH0 PUSH2 0x3E6 DUP3 PUSH2 0x3A4 JUMP JUMPDEST PUSH2 0x3F0 DUP2 DUP6 PUSH2 0x3AE JUMP JUMPDEST SWAP4 POP PUSH2 0x400 DUP2 DUP6 PUSH1 0x20 DUP7 ADD PUSH2 0x3BE JUMP JUMPDEST PUSH2 0x409 DUP2 PUSH2 0x3CC JUMP JUMPDEST DUP5 ADD SWAP2 POP POP SWAP3 SWAP2 POP POP JUMP JUMPDEST PUSH0 DUP3 DUP3 MSTORE PUSH1 0x20 DUP3 ADD SWAP1 POP SWAP3 SWAP2 POP POP JUMP JUMPDEST PUSH0 PUSH2 0x42E DUP3 PUSH2 0x3A4 JUMP JUMPDEST PUSH2 0x438 DUP2 DUP6 PUSH2 0x414 JUMP JUMPDEST SWAP4 POP PUSH2 0x448 DUP2 DUP6 PUSH1 0x20 DUP7 ADD PUSH2 0x3BE JUMP JUMPDEST PUSH2 0x451 DUP2 PUSH2 0x3CC JUMP JUMPDEST DUP5 ADD SWAP2 POP POP SWAP3 SWAP2 POP POP JUMP JUMPDEST PUSH0 PUSH1 0x40 DUP4 ADD PUSH0 DUP4 ADD MLOAD DUP5 DUP3 SUB PUSH0 DUP7 ADD MSTORE PUSH2 0x476 DUP3 DUP3 PUSH2 0x424 JUMP JUMPDEST SWAP2 POP POP PUSH1 0x20 DUP4 ADD MLOAD DUP5 DUP3 SUB PUSH1 0x20 DUP7 ADD MSTORE PUSH2 0x490 DUP3 DUP3 PUSH2 0x424 JUMP JUMPDEST SWAP2 POP POP DUP1 SWAP2 POP POP SWAP3 SWAP2 POP POP JUMP JUMPDEST PUSH0 DUP2 SWAP1 POP SWAP2 SWAP1 POP JUMP JUMPDEST PUSH2 0x4AF DUP2 PUSH2 0x49D JUMP JUMPDEST DUP3 MSTORE POP POP JUMP JUMPDEST PUSH0 PUSH1 0x80 DUP3 ADD SWAP1 POP DUP2 DUP2 SUB PUSH0 DUP4 ADD MSTORE PUSH2 0x4CD DUP2 DUP8 PUSH2 0x3DC JUMP JUMPDEST SWAP1 POP DUP2 DUP2 SUB PUSH1 0x20 DUP4 ADD MSTORE PUSH2 0x4E1 DUP2 DUP7 PUSH2 0x45C JUMP JUMPDEST SWAP1 POP DUP2 DUP2 SUB PUSH1 0x40 DUP4 ADD MSTORE PUSH2 0x4F5 DUP2 DUP6 PUSH2 0x3DC JUMP JUMPDEST SWAP1 POP PUSH2 0x504 PUSH1 0x60 DUP4 ADD DUP5 PUSH2 0x4A6 JUMP JUMPDEST SWAP6 SWAP5 POP POP POP POP POP JUMP JUMPDEST PUSH0 PUSH1 0x40 MLOAD SWAP1 POP SWAP1 JUMP JUMPDEST PUSH0 PUSH0 REVERT JUMPDEST PUSH0 PUSH0 REVERT JUMPDEST PUSH0 PUSH0 REVERT JUMPDEST PUSH0 PUSH0 REVERT JUMPDEST PUSH32 0x4E487B7100000000000000000000000000000000000000000000000000000000 PUSH0 MSTORE PUSH1 0x41 PUSH1 0x4 MSTORE PUSH1 0x24 PUSH0 REVERT JUMPDEST PUSH2 0x55C DUP3 PUSH2 0x3CC JUMP JUMPDEST DUP2 ADD DUP2 DUP2 LT PUSH8 0xFFFFFFFFFFFFFFFF DUP3 GT OR ISZERO PUSH2 0x57B JUMPI PUSH2 0x57A PUSH2 0x526 JUMP JUMPDEST JUMPDEST DUP1 PUSH1 0x40 MSTORE POP POP POP JUMP JUMPDEST PUSH0 PUSH2 0x58D PUSH2 0x50D JUMP JUMPDEST SWAP1 POP PUSH2 0x599 DUP3 DUP3 PUSH2 0x553 JUMP JUMPDEST SWAP2 SWAP1 POP JUMP JUMPDEST PUSH0 PUSH8 0xFFFFFFFFFFFFFFFF DUP3 GT ISZERO PUSH2 0x5B8 JUMPI PUSH2 0x5B7 PUSH2 0x526 JUMP JUMPDEST JUMPDEST PUSH2 0x5C1 DUP3 PUSH2 0x3CC JUMP JUMPDEST SWAP1 POP PUSH1 0x20 DUP2 ADD SWAP1 POP SWAP2 SWAP1 POP JUMP JUMPDEST DUP3 DUP2 DUP4 CALLDATACOPY PUSH0 DUP4 DUP4 ADD MSTORE POP POP POP JUMP JUMPDEST PUSH0 PUSH2 0x5EE PUSH2 0x5E9 DUP5 PUSH2 0x59E JUMP JUMPDEST PUSH2 0x584 JUMP JUMPDEST SWAP1 POP DUP3 DUP2 MSTORE PUSH1 0x20 DUP2 ADD DUP5 DUP5 DUP5 ADD GT ISZERO PUSH2 0x60A JUMPI PUSH2 0x609 PUSH2 0x522 JUMP JUMPDEST JUMPDEST PUSH2 0x615 DUP5 DUP3 DUP6 PUSH2 0x5CE JUMP JUMPDEST POP SWAP4 SWAP3 POP POP POP JUMP JUMPDEST PUSH0 DUP3 PUSH1 0x1F DUP4 ADD SLT PUSH2 0x631 JUMPI PUSH2 0x630 PUSH2 0x51E JUMP JUMPDEST JUMPDEST DUP2 CALLDATALOAD PUSH2 0x641 DUP5 DUP3 PUSH1 0x20 DUP7 ADD PUSH2 0x5DC JUMP JUMPDEST SWAP2 POP POP SWAP3 SWAP2 POP POP JUMP JUMPDEST PUSH2 0x653 DUP2 PUSH2 0x49D JUMP JUMPDEST DUP2 EQ PUSH2 0x65D JUMPI PUSH0 PUSH0 REVERT JUMPDEST POP JUMP JUMPDEST PUSH0 DUP2 CALLDATALOAD SWAP1 POP PUSH2 0x66E DUP2 PUSH2 0x64A JUMP JUMPDEST SWAP3 SWAP2 POP POP JUMP JUMPDEST PUSH0 PUSH0 PUSH0 PUSH0 PUSH0 PUSH1 0xA0 DUP7 DUP9 SUB SLT ISZERO PUSH2 0x68D JUMPI PUSH2 0x68C PUSH2 0x516 JUMP JUMPDEST JUMPDEST PUSH0 DUP7 ADD CALLDATALOAD PUSH8 0xFFFFFFFFFFFFFFFF DUP2 GT ISZERO PUSH2 0x6AA JUMPI PUSH2 0x6A9 PUSH2 0x51A JUMP JUMPDEST JUMPDEST PUSH2 0x6B6 DUP9 DUP3 DUP10 ADD PUSH2 0x61D JUMP JUMPDEST SWAP6 POP POP PUSH1 0x20 DUP7 ADD CALLDATALOAD PUSH8 0xFFFFFFFFFFFFFFFF DUP2 GT ISZERO PUSH2 0x6D7 JUMPI PUSH2 0x6D6 PUSH2 0x51A JUMP JUMPDEST JUMPDEST PUSH2 0x6E3 DUP9 DUP3 DUP10 ADD PUSH2 0x61D JUMP JUMPDEST SWAP5 POP POP PUSH1 0x40 DUP7 ADD CALLDATALOAD PUSH8 0xFFFFFFFFFFFFFFFF DUP2 GT ISZERO PUSH2 0x704 JUMPI PUSH2 0x703 PUSH2 0x51A JUMP JUMPDEST JUMPDEST PUSH2 0x710 DUP9 DUP3 DUP10 ADD PUSH2 0x61D JUMP JUMPDEST SWAP4 POP POP PUSH1 0x60 DUP7 ADD CALLDATALOAD PUSH8 0xFFFFFFFFFFFFFFFF DUP2 GT ISZERO PUSH2 0x731 JUMPI PUSH2 0x730 PUSH2 0x51A JUMP JUMPDEST JUMPDEST PUSH2 0x73D DUP9 DUP3 DUP10 ADD PUSH2 0x61D JUMP JUMPDEST SWAP3 POP POP PUSH1 0x80 PUSH2 0x74E DUP9 DUP3 DUP10 ADD PUSH2 0x660 JUMP JUMPDEST SWAP2 POP POP SWAP3 SWAP6 POP SWAP3 SWAP6 SWAP1 SWAP4 POP JUMP JUMPDEST PUSH32 0x4E487B7100000000000000000000000000000000000000000000000000000000 PUSH0 MSTORE PUSH1 0x22 PUSH1 0x4 MSTORE PUSH1 0x24 PUSH0 REVERT JUMPDEST PUSH0 PUSH1 0x2 DUP3 DIV SWAP1 POP PUSH1 0x1 DUP3 AND DUP1 PUSH2 0x79F JUMPI PUSH1 0x7F DUP3 AND SWAP2 POP JUMPDEST PUSH1 0x20 DUP3 LT DUP2 SUB PUSH2 0x7B2 JUMPI PUSH2 0x7B1 PUSH2 0x75B JUMP JUMPDEST JUMPDEST POP SWAP2 SWAP1 POP JUMP JUMPDEST PUSH0 DUP2 SWAP1 POP DUP2 PUSH0 MSTORE PUSH1 0x20 PUSH0 KECCAK256 SWAP1 POP SWAP2 SWAP1 POP JUMP JUMPDEST PUSH0 PUSH1 0x20 PUSH1 0x1F DUP4 ADD DIV SWAP1 POP SWAP2 SWAP1 POP JUMP JUMPDEST PUSH0 DUP3 DUP3 SHL SWAP1 POP SWAP3 SWAP2 POP POP JUMP JUMPDEST PUSH0 PUSH1 0x8 DUP4 MUL PUSH2 0x814 PUSH32 0xFFFFFFFFFFFFFFFFFFFFFFFFFFFFFFFFFFFFFFFFFFFFFFFFFFFFFFFFFFFFFFFF DUP3 PUSH2 0x7D9 JUMP JUMPDEST PUSH2 0x81E DUP7 DUP4 PUSH2 0x7D9 JUMP JUMPDEST SWAP6 POP DUP1 NOT DUP5 AND SWAP4 POP DUP1 DUP7 AND DUP5 OR SWAP3 POP POP POP SWAP4 SWAP3 POP POP POP JUMP JUMPDEST PUSH0 DUP2 SWAP1 POP SWAP2 SWAP1 POP JUMP JUMPDEST PUSH0 PUSH2 0x859 PUSH2 0x854 PUSH2 0x84F DUP5 PUSH2 0x49D JUMP JUMPDEST PUSH2 0x836 JUMP JUMPDEST PUSH2 0x49D JUMP JUMPDEST SWAP1 POP SWAP2 SWAP1 POP JUMP JUMPDEST PUSH0 DUP2 SWAP1 POP SWAP2 SWAP1 POP JUMP JUMPDEST PUSH2 0x872 DUP4 PUSH2 0x83F JUMP JUMPDEST PUSH2 0x886 PUSH2 0x87E DUP3 PUSH2 0x860 JUMP JUMPDEST DUP5 DUP5 SLOAD PUSH2 0x7E5 JUMP JUMPDEST DUP3 SSTORE POP POP POP POP JUMP JUMPDEST PUSH0 PUSH0 SWAP1 POP SWAP1 JUMP JUMPDEST PUSH2 0x89D PUSH2 0x88E JUMP JUMPDEST PUSH2 0x8A8 DUP2 DUP5 DUP5 PUSH2 0x869 JUMP JUMPDEST POP POP POP JUMP JUMPDEST JUMPDEST DUP2 DUP2 LT ISZERO PUSH2 0x8CB JUMPI PUSH2 0x8C0 PUSH0 DUP3 PUSH2 0x895 JUMP JUMPDEST PUSH1 0x1 DUP2 ADD SWAP1 POP PUSH2 0x8AE JUMP JUMPDEST POP POP JUMP JUMPDEST PUSH1 0x1F DUP3 GT ISZERO PUSH2 0x910 JUMPI PUSH2 0x8E1 DUP2 PUSH2 0x7B8 JUMP JUMPDEST PUSH2 0x8EA DUP5 PUSH2 0x7CA JUMP JUMPDEST DUP2 ADD PUSH1 0x20 DUP6 LT ISZERO PUSH2 0x8F9 JUMPI DUP2 SWAP1 POP JUMPDEST PUSH2 0x90D PUSH2 0x905 DUP6 PUSH2 0x7CA JUMP JUMPDEST DUP4 ADD DUP3 PUSH2 0x8AD JUMP JUMPDEST POP POP JUMPDEST POP POP POP JUMP JUMPDEST PUSH0 DUP3 DUP3 SHR SWAP1 POP SWAP3 SWAP2 POP POP JUMP JUMPDEST PUSH0 PUSH2 0x930 PUSH0 NOT DUP5 PUSH1 0x8 MUL PUSH2 0x915 JUMP JUMPDEST NOT DUP1 DUP4 AND SWAP2 POP POP SWAP3 SWAP2 POP POP JUMP JUMPDEST PUSH0 PUSH2 0x948 DUP4 DUP4 PUSH2 0x921 JUMP JUMPDEST SWAP2 POP DUP3 PUSH1 0x2 MUL DUP3 OR SWAP1 POP SWAP3 SWAP2 POP POP JUMP JUMPDEST PUSH2 0x961 DUP3 PUSH2 0x3A4 JUMP JUMPDEST PUSH8 0xFFFFFFFFFFFFFFFF DUP2 GT ISZERO PUSH2 0x97A JUMPI PUSH2 0x979 PUSH2 0x526 JUMP JUMPDEST JUMPDEST PUSH2 0x984 DUP3 SLOAD PUSH2 0x788 JUMP JUMPDEST PUSH2 0x98F DUP3 DUP3 DUP6 PUSH2 0x8CF JUMP JUMPDEST PUSH0 PUSH1 0x20 SWAP1 POP PUSH1 0x1F DUP4 GT PUSH1 0x1 DUP2 EQ PUSH2 0x9C0 JUMPI PUSH0 DUP5 ISZERO PUSH2 0x9AE JUMPI DUP3 DUP8 ADD MLOAD SWAP1 POP JUMPDEST PUSH2 0x9B8 DUP6 DUP3 PUSH2 0x93D JUMP JUMPDEST DUP7 SSTORE POP PUSH2 0xA1F JUMP JUMPDEST PUSH1 0x1F NOT DUP5 AND PUSH2 0x9CE DUP7 PUSH2 0x7B8 JUMP JUMPDEST PUSH0 JUMPDEST DUP3 DUP2 LT ISZERO PUSH2 0x9F5 JUMPI DUP5 DUP10 ADD MLOAD DUP3 SSTORE PUSH1 0x1 DUP3 ADD SWAP2 POP PUSH1 0x20 DUP6 ADD SWAP5 POP PUSH1 0x20 DUP2 ADD SWAP1 POP PUSH2 0x9D0 JUMP JUMPDEST DUP7 DUP4 LT ISZERO PUSH2 0xA12 JUMPI DUP5 DUP10 ADD MLOAD PUSH2 0xA0E PUSH1 0x1F DUP10 AND DUP3 PUSH2 0x921 JUMP JUMPDEST DUP4 SSTORE POP JUMPDEST PUSH1 0x1 PUSH1 0x2 DUP9 MUL ADD DUP9 SSTORE POP POP POP JUMPDEST POP POP POP POP POP POP JUMP INVALID LOG2 PUSH5 0x6970667358 0x22 SLT KECCAK256 PUSH16 0x3DA824A18546B93C8AF9F082EAC6CE5C LOG4 CALLVALUE PUSH8 0xB6B536A49BE75A91 PUSH7 0xF6A60664736F6C PUSH4 0x4300081E STOP CALLER "
		},
		"gasEstimates": {
			"creation": {
				"codeDepositCost": "530600",
				"executionCost": "560",
				"totalCost": "531160"
			},
			"external": {
				"addBook(string,string,string,string,uint256)": "infinite",
				"getBook()": "infinite"
			}
		},
		"methodIdentifiers": {
			"addBook(string,string,string,string,uint256)": "6cbdb10d",
			"getBook()": "3b0c197e"
		}
	},
	"abi": [
		{
			"inputs": [
				{
					"internalType": "string",
					"name": "_t",
					"type": "string"
				},
				{
					"internalType": "string",
					"name": "_name",
					"type": "string"
				},
				{
					"internalType": "string",
					"name": "_affiliation",
					"type": "string"
				},
				{
					"internalType": "string",
					"name": "_p",
					"type": "string"
				},
				{
					"internalType": "uint256",
					"name": "_id",
					"type": "uint256"
				}
			],
			"name": "addBook",
			"outputs": [],
			"stateMutability": "nonpayable",
			"type": "function"
		},
		{
			"inputs": [],
			"name": "getBook",
			"outputs": [
				{
					"internalType": "string",
					"name": "_t",
					"type": "string"
				},
				{
					"components": [
						{
							"internalType": "string",
							"name": "name",
							"type": "string"
						},
						{
							"internalType": "string",
							"name": "affiliation",
							"type": "string"
						}
					],
					"internalType": "struct NestedStructuresDemo.Author",
					"name": "_a",
					"type": "tuple"
				},
				{
					"internalType": "string",
					"name": "_p",
					"type": "string"
				},
				{
					"internalType": "uint256",
					"name": "_id",
					"type": "uint256"
				}
			],
			"stateMutability": "view",
			"type": "function"
		}
	]
}