{
	"data": {
		"bytecode": {
			"linkReferences": {},
			"object": "6080604052604051806101800160405280600261ffff1681526020016101b161ffff168152602001600161ffff168152602001600461ffff168152602001600361ffff16815260200160eb61ffff16815260200161029061ffff168152602001600961ffff168152602001605761ffff168152602001600661ffff168152602001603261ffff168152602001600f61ffff168152505f90600c6100a39291906100b5565b503480156100af575f5ffd5b50610116565b82600c81019282156100ea579160200282015b828111156100e9578251829061ffff169055916020019190600101906100c8565b5b5090506100f791906100fb565b5090565b5b80821115610112575f815f9055506001016100fc565b5090565b6101c9806101235f395ff3fe608060405234801561000f575f5ffd5b5060043610610029575f3560e01c80637009cfe31461002d575b5f5ffd5b61003561004b565b60405161004291906100b9565b60405180910390f35b5f5f5f90505f5f90505b600c8160ff161015610099575f8160ff16600c8110610077576100766100d2565b5b015482610084919061012c565b915080806100919061016b565b915050610055565b508091505090565b5f819050919050565b6100b3816100a1565b82525050565b5f6020820190506100cc5f8301846100aa565b92915050565b7f4e487b71000000000000000000000000000000000000000000000000000000005f52603260045260245ffd5b7f4e487b71000000000000000000000000000000000000000000000000000000005f52601160045260245ffd5b5f610136826100a1565b9150610141836100a1565b9250828201905080821115610159576101586100ff565b5b92915050565b5f60ff82169050919050565b5f6101758261015f565b915060ff8203610188576101876100ff565b5b60018201905091905056fea264697066735822122073cf4423c152682038953aad1dc5f29b22482468301ede609c2b1095366cb2e464736f6c634300081e0033",
			"opcodes": "PUSH1 0x80 PUSH1 0x40 MSTORE PUSH1 0x40 MLOAD DUP1 PUSH2 0x180 ADD PUSH1 0x40 MSTORE DUP1 PUSH1 0x2 PUSH2 0xFFFF AND DUP2 MSTORE PUSH1 0x20 ADD PUSH2 0x1B1 PUSH2 0xFFFF AND DUP2 MSTORE PUSH1 0x20 ADD PUSH1 0x1 PUSH2 0xFFFF AND DUP2 MSTORE PUSH1 0x20 ADD PUSH1 0x4 PUSH2 0xFFFF AND DUP2 MSTORE PUSH1 0x20 ADD PUSH1 0x3 PUSH2 0xFFFF AND DUP2 MSTORE PUSH1 0x20 ADD PUSH1 0xEB PUSH2 0xFFFF AND DUP2 MSTORE PUSH1 0x20 ADD PUSH2 0x290 PUSH2 0xFFFF AND DUP2 MSTORE PUSH1 0x20 ADD PUSH1 0x9 PUSH2 0xFFFF AND DUP2 MSTORE PUSH1 0x20 ADD PUSH1 0x57 PUSH2 0xFFFF AND DUP2 MSTORE PUSH1 0x20 ADD PUSH1 0x6 PUSH2 0xFFFF AND DUP2 MSTORE PUSH1 0x20 ADD PUSH1 0x32 PUSH2 0xFFFF AND DUP2 MSTORE PUSH1 0x20 ADD PUSH1 0xF PUSH2 0xFFFF AND DUP2 MSTORE POP PUSH0 SWAP1 PUSH1 0xC PUSH2 0xA3 SWAP3 SWAP2 SWAP1 PUSH2 0xB5 JUMP JUMPDEST POP CALLVALUE DUP1 ISZERO PUSH2 0xAF JUMPI PUSH0 PUSH0 REVERT JUMPDEST POP PUSH2 0x116 JUMP JUMPDEST DUP3 PUSH1 0xC DUP2 ADD SWAP3 DUP3 ISZERO PUSH2 0xEA JUMPI SWAP2 PUSH1 0x20 MUL DUP3 ADD JUMPDEST DUP3 DUP2 GT ISZERO PUSH2 0xE9 JUMPI DUP3 MLOAD DUP3 SWAP1 PUSH2 0xFFFF AND SWAP1 SSTORE SWAP2 PUSH1 0x20 ADD SWAP2 SWAP1 PUSH1 0x1 ADD SWAP1 PUSH2 0xC8 JUMP JUMPDEST JUMPDEST POP SWAP1 POP PUSH2 0xF7 SWAP2 SWAP1 PUSH2 0xFB JUMP JUMPDEST POP SWAP1 JUMP JUMPDEST JUMPDEST DUP1 DUP3 GT ISZERO PUSH2 0x112 JUMPI PUSH0 DUP2 PUSH0 SWAP1 SSTORE POP PUSH1 0x1 ADD PUSH2 0xFC JUMP JUMPDEST POP SWAP1 JUMP JUMPDEST PUSH2 0x1C9 DUP1 PUSH2 0x123 PUSH0 CODECOPY PUSH0 RETURN INVALID PUSH1 0x80 PUSH1 0x40 MSTORE CALLVALUE DUP1 ISZERO PUSH2 0xF JUMPI PUSH0 PUSH0 REVERT JUMPDEST POP PUSH1 0x4 CALLDATASIZE LT PUSH2 0x29 JUMPI PUSH0 CALLDATALOAD PUSH1 0xE0 SHR DUP1 PUSH4 0x7009CFE3 EQ PUSH2 0x2D JUMPI JUMPDEST PUSH0 PUSH0 REVERT JUMPDEST PUSH2 0x35 PUSH2 0x4B JUMP JUMPDEST PUSH1 0x40 MLOAD PUSH2 0x42 SWAP2 SWAP1 PUSH2 0xB9 JUMP JUMPDEST PUSH1 0x40 MLOAD DUP1 SWAP2 SUB SWAP1 RETURN JUMPDEST PUSH0 PUSH0 PUSH0 SWAP1 POP PUSH0 PUSH0 SWAP1 POP JUMPDEST PUSH1 0xC DUP2 PUSH1 0xFF AND LT ISZERO PUSH2 0x99 JUMPI PUSH0 DUP2 PUSH1 0xFF AND PUSH1 0xC DUP2 LT PUSH2 0x77 JUMPI PUSH2 0x76 PUSH2 0xD2 JUMP JUMPDEST JUMPDEST ADD SLOAD DUP3 PUSH2 0x84 SWAP2 SWAP1 PUSH2 0x12C JUMP JUMPDEST SWAP2 POP DUP1 DUP1 PUSH2 0x91 SWAP1 PUSH2 0x16B JUMP JUMPDEST SWAP2 POP POP PUSH2 0x55 JUMP JUMPDEST POP DUP1 SWAP2 POP POP SWAP1 JUMP JUMPDEST PUSH0 DUP2 SWAP1 POP SWAP2 SWAP1 POP JUMP JUMPDEST PUSH2 0xB3 DUP2 PUSH2 0xA1 JUMP JUMPDEST DUP3 MSTORE POP POP JUMP JUMPDEST PUSH0 PUSH1 0x20 DUP3 ADD SWAP1 POP PUSH2 0xCC PUSH0 DUP4 ADD DUP5 PUSH2 0xAA JUMP JUMPDEST SWAP3 SWAP2 POP POP JUMP JUMPDEST PUSH32 0x4E487B7100000000000000000000000000000000000000000000000000000000 PUSH0 MSTORE PUSH1 0x32 PUSH1 0x4 MSTORE PUSH1 0x24 PUSH0 REVERT JUMPDEST PUSH32 0x4E487B7100000000000000000000000000000000000000000000000000000000 PUSH0 MSTORE PUSH1 0x11 PUSH1 0x4 MSTORE PUSH1 0x24 PUSH0 REVERT JUMPDEST PUSH0 PUSH2 0x136 DUP3 PUSH2 0xA1 JUMP JUMPDEST SWAP2 POP PUSH2 0x141 DUP4 PUSH2 0xA1 JUMP JUMPDEST SWAP3 POP DUP3 DUP3 ADD SWAP1 POP DUP1 DUP3 GT ISZERO PUSH2 0x159 JUMPI PUSH2 0x158 PUSH2 0xFF JUMP JUMPDEST JUMPDEST SWAP3 SWAP2 POP POP JUMP JUMPDEST PUSH0 PUSH1 0xFF DUP3 AND SWAP1 POP SWAP2 SWAP1 POP JUMP JUMPDEST PUSH0 PUSH2 0x175 DUP3 PUSH2 0x15F JUMP JUMPDEST SWAP2 POP PUSH1 0xFF DUP3 SUB PUSH2 0x188 JUMPI PUSH2 0x187 PUSH2 0xFF JUMP JUMPDEST JUMPDEST PUSH1 0x1 DUP3 ADD SWAP1 POP SWAP2 SWAP1 POP JUMP INVALID LOG2 PUSH5 0x6970667358 0x22 SLT KECCAK256 PUSH20 0xCF4423C152682038953AAD1DC5F29B2248246830 0x1E 0xDE PUSH1 0x9C 0x2B LT SWAP6 CALLDATASIZE PUSH13 0xB2E464736F6C634300081E0033 "
		},
		"gasEstimates": {
			"creation": {
				"codeDepositCost": "91400",
				"executionCost": "infinite",
				"totalCost": "infinite"
			},
			"external": {
				"sumOfEle()": "infinite"
			}
		},
		"methodIdentifiers": {
			"sumOfEle()": "7009cfe3"
		}
	},
	"abi": [
		{
			"inputs": [],
			"name": "sumOfEle",
			"outputs": [
				{
					"internalType": "uint256",
					"name": "",
					"type": "uint256"
				}
			],
			"stateMutability": "view",
			"type": "function"
		}
	]
}