{
	"data": {
		"bytecode": {
			"linkReferences": {},
			"object": "6080604052348015600e575f5ffd5b506102ad8061001c5f395ff3fe608060405234801561000f575f5ffd5b5060043610610034575f3560e01c806332b2614614610038578063c766fdf614610069575b5f5ffd5b610052600480360381019061004d9190610126565b61009a565b604051610060929190610173565b60405180910390f35b610083600480360381019061007e9190610126565b6100d3565b604051610091929190610173565b60405180910390f35b5f5f82846100a891906101c7565b935082846100b6919061021f565b925082846100c4919061021f565b93508383915091509250929050565b5f5f5f849050839450809350848492509250509250929050565b5f5ffd5b5f815f0b9050919050565b610105816100f1565b811461010f575f5ffd5b50565b5f81359050610120816100fc565b92915050565b5f5f6040838503121561013c5761013b6100ed565b5b5f61014985828601610112565b925050602061015a85828601610112565b9150509250929050565b61016d816100f1565b82525050565b5f6040820190506101865f830185610164565b6101936020830184610164565b9392505050565b7f4e487b71000000000000000000000000000000000000000000000000000000005f52601160045260245ffd5b5f6101d1826100f1565b91506101dc836100f1565b925082820190507fffffffffffffffffffffffffffffffffffffffffffffffffffffffffffffff808112607f821317156102195761021861019a565b5b92915050565b5f610229826100f1565b9150610234836100f1565b92508282039050607f81137fffffffffffffffffffffffffffffffffffffffffffffffffffffffffffffff80821217156102715761027061019a565b5b9291505056fea26469706673582212203fc23c2902ddaeeb4d7a85886510b74210fd9786f0dd20967e3306fec4e52aa664736f6c634300081e0033",
			"opcodes": "PUSH1 0x80 PUSH1 0x40 MSTORE CALLVALUE DUP1 ISZERO PUSH1 0xE JUMPI PUSH0 PUSH0 REVERT JUMPDEST POP PUSH2 0x2AD DUP1 PUSH2 0x1C PUSH0 CODECOPY PUSH0 RETURN INVALID PUSH1 0x80 PUSH1 0x40 MSTORE CALLVALUE DUP1 ISZERO PUSH2 0xF JUMPI PUSH0 PUSH0 REVERT JUMPDEST POP PUSH1 0x4 CALLDATASIZE LT PUSH2 0x34 JUMPI PUSH0 CALLDATALOAD PUSH1 0xE0 SHR DUP1 PUSH4 0x32B26146 EQ PUSH2 0x38 JUMPI DUP1 PUSH4 0xC766FDF6 EQ PUSH2 0x69 JUMPI JUMPDEST PUSH0 PUSH0 REVERT JUMPDEST PUSH2 0x52 PUSH1 0x4 DUP1 CALLDATASIZE SUB DUP2 ADD SWAP1 PUSH2 0x4D SWAP2 SWAP1 PUSH2 0x126 JUMP JUMPDEST PUSH2 0x9A JUMP JUMPDEST PUSH1 0x40 MLOAD PUSH2 0x60 SWAP3 SWAP2 SWAP1 PUSH2 0x173 JUMP JUMPDEST PUSH1 0x40 MLOAD DUP1 SWAP2 SUB SWAP1 RETURN JUMPDEST PUSH2 0x83 PUSH1 0x4 DUP1 CALLDATASIZE SUB DUP2 ADD SWAP1 PUSH2 0x7E SWAP2 SWAP1 PUSH2 0x126 JUMP JUMPDEST PUSH2 0xD3 JUMP JUMPDEST PUSH1 0x40 MLOAD PUSH2 0x91 SWAP3 SWAP2 SWAP1 PUSH2 0x173 JUMP JUMPDEST PUSH1 0x40 MLOAD DUP1 SWAP2 SUB SWAP1 RETURN JUMPDEST PUSH0 PUSH0 DUP3 DUP5 PUSH2 0xA8 SWAP2 SWAP1 PUSH2 0x1C7 JUMP JUMPDEST SWAP4 POP DUP3 DUP5 PUSH2 0xB6 SWAP2 SWAP1 PUSH2 0x21F JUMP JUMPDEST SWAP3 POP DUP3 DUP5 PUSH2 0xC4 SWAP2 SWAP1 PUSH2 0x21F JUMP JUMPDEST SWAP4 POP DUP4 DUP4 SWAP2 POP SWAP2 POP SWAP3 POP SWAP3 SWAP1 POP JUMP JUMPDEST PUSH0 PUSH0 PUSH0 DUP5 SWAP1 POP DUP4 SWAP5 POP DUP1 SWAP4 POP DUP5 DUP5 SWAP3 POP SWAP3 POP POP SWAP3 POP SWAP3 SWAP1 POP JUMP JUMPDEST PUSH0 PUSH0 REVERT JUMPDEST PUSH0 DUP2 PUSH0 SIGNEXTEND SWAP1 POP SWAP2 SWAP1 POP JUMP JUMPDEST PUSH2 0x105 DUP2 PUSH2 0xF1 JUMP JUMPDEST DUP2 EQ PUSH2 0x10F JUMPI PUSH0 PUSH0 REVERT JUMPDEST POP JUMP JUMPDEST PUSH0 DUP2 CALLDATALOAD SWAP1 POP PUSH2 0x120 DUP2 PUSH2 0xFC JUMP JUMPDEST SWAP3 SWAP2 POP POP JUMP JUMPDEST PUSH0 PUSH0 PUSH1 0x40 DUP4 DUP6 SUB SLT ISZERO PUSH2 0x13C JUMPI PUSH2 0x13B PUSH2 0xED JUMP JUMPDEST JUMPDEST PUSH0 PUSH2 0x149 DUP6 DUP3 DUP7 ADD PUSH2 0x112 JUMP JUMPDEST SWAP3 POP POP PUSH1 0x20 PUSH2 0x15A DUP6 DUP3 DUP7 ADD PUSH2 0x112 JUMP JUMPDEST SWAP2 POP POP SWAP3 POP SWAP3 SWAP1 POP JUMP JUMPDEST PUSH2 0x16D DUP2 PUSH2 0xF1 JUMP JUMPDEST DUP3 MSTORE POP POP JUMP JUMPDEST PUSH0 PUSH1 0x40 DUP3 ADD SWAP1 POP PUSH2 0x186 PUSH0 DUP4 ADD DUP6 PUSH2 0x164 JUMP JUMPDEST PUSH2 0x193 PUSH1 0x20 DUP4 ADD DUP5 PUSH2 0x164 JUMP JUMPDEST SWAP4 SWAP3 POP POP POP JUMP JUMPDEST PUSH32 0x4E487B7100000000000000000000000000000000000000000000000000000000 PUSH0 MSTORE PUSH1 0x11 PUSH1 0x4 MSTORE PUSH1 0x24 PUSH0 REVERT JUMPDEST PUSH0 PUSH2 0x1D1 DUP3 PUSH2 0xF1 JUMP JUMPDEST SWAP2 POP PUSH2 0x1DC DUP4 PUSH2 0xF1 JUMP JUMPDEST SWAP3 POP DUP3 DUP3 ADD SWAP1 POP PUSH32 0xFFFFFFFFFFFFFFFFFFFFFFFFFFFFFFFFFFFFFFFFFFFFFFFFFFFFFFFFFFFFFF80 DUP2 SLT PUSH1 0x7F DUP3 SGT OR ISZERO PUSH2 0x219 JUMPI PUSH2 0x218 PUSH2 0x19A JUMP JUMPDEST JUMPDEST SWAP3 SWAP2 POP POP JUMP JUMPDEST PUSH0 PUSH2 0x229 DUP3 PUSH2 0xF1 JUMP JUMPDEST SWAP2 POP PUSH2 0x234 DUP4 PUSH2 0xF1 JUMP JUMPDEST SWAP3 POP DUP3 DUP3 SUB SWAP1 POP PUSH1 0x7F DUP2 SGT PUSH32 0xFFFFFFFFFFFFFFFFFFFFFFFFFFFFFFFFFFFFFFFFFFFFFFFFFFFFFFFFFFFFFF80 DUP3 SLT OR ISZERO PUSH2 0x271 JUMPI PUSH2 0x270 PUSH2 0x19A JUMP JUMPDEST JUMPDEST SWAP3 SWAP2 POP POP JUMP INVALID LOG2 PUSH5 0x6970667358 0x22 SLT KECCAK256 EXTCODEHASH 0xC2 EXTCODECOPY 0x29 MUL 0xDD 0xAE 0xEB 0x4D PUSH27 0x85886510B74210FD9786F0DD20967E3306FEC4E52AA664736F6C63 NUMBER STOP ADDMOD 0x1E STOP CALLER "
		},
		"gasEstimates": {
			"creation": {
				"codeDepositCost": "137000",
				"executionCost": "181",
				"totalCost": "137181"
			},
			"external": {
				"swap_third(int8,int8)": "infinite",
				"swap_two(int8,int8)": "infinite"
			}
		},
		"methodIdentifiers": {
			"swap_third(int8,int8)": "c766fdf6",
			"swap_two(int8,int8)": "32b26146"
		}
	},
	"abi": [
		{
			"inputs": [
				{
					"internalType": "int8",
					"name": "a",
					"type": "int8"
				},
				{
					"internalType": "int8",
					"name": "b",
					"type": "int8"
				}
			],
			"name": "swap_third",
			"outputs": [
				{
					"internalType": "int8",
					"name": "",
					"type": "int8"
				},
				{
					"internalType": "int8",
					"name": "",
					"type": "int8"
				}
			],
			"stateMutability": "pure",
			"type": "function"
		},
		{
			"inputs": [
				{
					"internalType": "int8",
					"name": "a",
					"type": "int8"
				},
				{
					"internalType": "int8",
					"name": "b",
					"type": "int8"
				}
			],
			"name": "swap_two",
			"outputs": [
				{
					"internalType": "int8",
					"name": "",
					"type": "int8"
				},
				{
					"internalType": "int8",
					"name": "",
					"type": "int8"
				}
			],
			"stateMutability": "pure",
			"type": "function"
		}
	]
}